:03001B00023B7134
:103B7100C0E0C0F0C083C082C0D075D000C000C01A
:0D3B810001C002C003C004C005C006C0079B
:103B8E0090006A7404F090006CE0FBA3E0FAA3E0EE
:103B9E00F99000341216E9F582758300E5F51217D7
:103BAE00289000341216E92401FFE433FE7C007DD8
:103BBE003312174AAF0590006CE0FBA3E0FAA3E0C6
:103BCE00F9900034ED1217289000341216E92433C0
:103BDE00FFE433FE9000331216E9FDC3EF9DFFEEB6
:103BEE009400FE7C007D3312174AAF05EFD3941F6D
:043BFE004002D2159A
:103C0200D007D006D005D004D003D002D001D00016
:0B3C1200D0D0D082D083D0F0D0E032C0
:03002300023E8A10
:103E8A00C0E0C0F0C083C082C0D075D000C000C0FE
:103E9A0001C002C003C004C005C006C00790006F7D
:103EAA00E0FBA3E0FAA3E0F99000331216E9F582E9
:103EBA007583001216E9F5F59000331216E924010C
:103ECA00FFE433FE7C007D3312174AAF0590006F82
:103EDA00E0FBA3E0FAA3E0F9900033ED1217289073
:103EEA0000341216E9FF9000331216E9B50705C22D
:103EFA001653EA3FD007D006D005D004D003D0022B
:0F3F0A00D001D000D0D0D082D083D0F0D0E03220
:03006B00024DC083
:104DC000C0E0C083C0829001EBE004F0D082D083C9
:034DD000D0E032FE
:0300A300022D8D9E
:102D8D00C0E0C0F0C083C082C0D075D000C000C00C
:0D2D9D0001C002C003C004C005C006C0078D
:102DAA009001EBE0FEADB37C00E42DFFEC3E900118
:102DBA00E2F0A3EFF043B2019001EBE4F09001E2FC
:102DCA00E07002A3E07004C2118011D39001E3E025
:102DDA00940A9001E2E094004002D211D212B20F9A
:102DEA009001E8E004F0E0C394024031E4F090007E
:102DFA00E3E004F090014AE004F0E0943C401EE471
:102E0A00F0D20B9000EAE004F0E0943C400FE4F0CA
:102E1A009000E9E004F0E094184002E4F0438D20C9
:102E2A00E58830E1397587030000000000000000E2
:102E3A0053ABEF53A8F753A8EF7580007588007558
:102E4A00900075980075A00075B0009001E9E00443
:102E5A00F0E0D3943C4015743CF0C209800E900116
:0C2E6A00E9E060031248BD9001E9E4F0CB
:102E7600D007D006D005D004D003D002D001D000B0
:0B2E8600D0D0D082D083D0F0D0E0325A
:0300B300022284A2
:10228400C0E0C0F0C083C082C0D075D000C000C020
:0D22940001C002C003C004C005C006C007A1
:1022A100E59030E4097812E64402F60223587812E8
:1022B100E620E10302235854FDF64401F67809E6CD
:1022C100FF7025C3780BE6946518E694005003026D
:1022D1002358187601780C76007812E654DFF678E8
:1022E1000D7600087600806FEF6401704C780EE681
:1022F10025E0790EF718E63319F7C3780BE6940E4B
:1023010018E694004006780EE64401F6780A760055
:102311000876000806E6C39420403C08E6FF08E67C
:102321009001F8CFF0A3EFF0780976027812E64435
:1023310010F64408F6D218801E7809E6B40218C3D4
:10234100780BE6949218E69404400C187600781203
:10235100E654F7F654FEF67812E6FF30E028780BE3
:1023610006E618700106C3780BE6949218E6940409
:1023710040147600087600EF54FE7812F67809765C
:102381000054F77812F6781106E6D394045006C289
:1023910093D29280127811E6D39408500AD293C254
:1023A10092E6B408027600E59030E11D780FE6FE72
:1023B10008E6FF4E600A9001B7EEF0A3EFF0D214E9
:1023C100780F76000876008008781006E61870010C
:1023D10006780806E6C39432401B76009001EA7441
:1023E10001F0D20412396590006AE06008E014F04F
:1023F100E07002D215300E0B7808E6D39408400342
:0324010043981EDF
:10240400D007D006D005D004D003D002D001D0002C
:0B241400D0D0D082D083D0F0D0E032D6
:03000000023D605E
:103D600078FFE4F6D8FD90001B7FE57E03E4F0A326
:0A3D7000DFFCDEFA758123023DB589
:1048BD0012491C124DE51247EF124ECE124DF71252
:1048CD004DAC9001FE748EF07E4B7F47D204C20535
:1048DD001244227B0F7D0A7F01124ADB43A88022FE
:103640001248BD438D20124EBD7815E6D394194023
:10365000147811E69406400D7F02124D2D7816A6BF
:1036600007E47815F69001EAE060D8E4F030181C21
:10367000C2189001FAE0FEA3E0240FF582E43EF5C3
:1036800083740193FA740293F912190D78130608E2
:103690000608067813E624FE601714601914601BF0
:1036A00014601D2404701F1237DFC20412396580B4
:1036B0001912463B8014123A17800F121F3E800ADF
:1036C00012437C12494AE47813F67814E6C3940F47
:1036D0005003023643E4F6124857123FA6123CC08C
:1036E0001238AB9001FAE0FEA3E02409F582E43E33
:1036F000F583740193FA740293F912190D9000E3A3
:10370000E06003E014F0200B03023643C20B0236E4
:013710004375
:074EDE00759CA0E4F59D2284
:0F4E2700EF540FFFE59C54F04FF59C439C402245
:0D00A600758B66438B08538B7F43AB102294
:104DD300EF6007E5974401FF8005E59754FEFF8FD9
:024DE300972215
:074EE500E4F597758F3E22F2
:084EC600E4F59AF599F59B2231
:0D4E700075B28E75B4FF43AA0243B2012251
:1000030075BB2043BB3075BAC0E4F5BFF5BE75BD03
:080013000F75BC9F43BB802266
:104D170075EA0275E90643EAECE4F5EB75F36743D8
:064D2700A80843A81022B9
:044EF900438D2022A3
:094EB400758E88758DC0024EF95F
:0D4E7D0075968875890175898143AB042203
:074EEC0075C829E4F58A22D4
:1044740075A1C375AC20E4F591F5DEF58075B1FC4A
:10448400F5ADF592F5DFF58875B9CD75AE12F593F6
:10449400F59075C1FFF5AFF59875C9FF75A304F5DF
:1044A40094F5A075D1D1F595F5B0F5D375D252F543
:1044B400D575D4F3F5D775D603F5EEF5EF75FF286A
:0144C40022D5
:10491C0075D80153A87F124474124EEC124E7DE5EB
:10492C008830E10543A88080F6124EDE1200A612F4
:0E493C004EE5124EC6124E70120003024D17C9
:104C3A00E4FEEF30E004D2A28002C2A2D2A1EFC306
:094C4A0013FFC2A10EEEB408E94B
:014C5300223E
:0B44C500900199EBF0A3EAF0A3E9F0EE
:1044D000C2A07F08124C3AD2A0C2A090019DE04435
:1044E000C0FF124C3AE4FCECC39D501A900199E0D5
:1044F000FBA3E0FAA3E0F98C827583001216E9FFB2
:10450000124C3A0C80E1D2A0C2A09001FEE0FF1252
:044510004C3AD2A0AF
:014514002284
:102952001F0C1B1E0C16171C1F1E80004040C0C0FF
:10296200C000C0C01F0C1B1E0C16171C1F1E4000EF
:1029720020206060600060603F18363C192D2F38BF
:102982003F3D000080808080800080803F18363C80
:10299200192D2F383F3D000040404040400040404C
:1029A2007F3C737E3C4E4F7C7F7EE00090107070C7
:1029B200F000F070070307070304040707077F60AE
:1029C2001C7063737F607F73000080808080800052
:1029D20080803F1E393F1E27273E3F3F7800640418
:1029E2001C1C7C007C1C0100010100010101010191
:1029F200FFF0CEF8F1393FF0FFF94000202060608F
:102A0200600060601F0F1C1F0F13131F1F1F00F8B1
:102A120000E4841C9CFC00FC9C040F070E0F0709B9
:102A2200090F0F0F007E40396147677F407F6701C2
:102A32000301030301020203030300FF609CF0E3AE
:102A4200737FE0FFF3000000404040404000404000
:102A5200401F0F1C1F0F13131F1F1F00F800E484D9
:072A62001C9CFC00FC9C041D
:104D8400E4FE74522EF582E43401F583EFF00EEE66
:034D9400B440EF39
:014D970022F9
:104A270090015274FFF0A3F0A3F0900156F0A3F0A9
:104A3700A3F090015AE044FEF0A374FFF0A3F02224
:1045AB00900150E004F0E0C39F4004E4F0B20D90A2
:1045BB000177E04401F0300D16900173E0440EF0EA
:1045CB00900172E04438F0900177E04470F0229053
:1045DB000172E044C0F0A3E04401F0900172E044AA
:0945EB0007F0900177E0440EF0A6
:0145F40022A4
:10470200EF14603214602814601E14601414600ADE
:1047120014702A900162E04406F0900162E04408BD
:10472200F0900162E04410F0900162E04420F090C9
:0E4732000162E04440F0900162E04480F02219
:10006E00EF14602814601E14601414600A147023B8
:10007E00900176E04404F0900176E04408F090019F
:10008E0076E04410F0900176E04420F0900176E0A6
:04009E004440F022C8
:10426100EFD3946340027F63EF75F00A84FDEF752D
:10427100F00A84ACF0ED602490017FE0FFED90291D
:104281005293FEEF4E90017FF090017EE0FFAE056C
:10429100EE90295C93FEEF4E90017EF090017EE05E
:1042A100FFEC90296693FEEF4E90017EF090018322
:0E42B100E0FFEC90297093FEEF4E900183F039
:0142BF0022DC
:1042C000EFD3946340027F63EF75F00A84FDEF75CE
:1042D000F00A84ACF0ED602490017BE0FFED9029C2
:1042E0007A93FEEF4E90017BF090017AE0FFAE05ED
:1042F000EE90298493FEEF4E90017AF090017AE0DF
:10430000FFEC90298E93FEEF4E90017AF090017FA2
:0E431000E0FFEC90299893FEEF4E90017FF0B5
:01431E00227C
:042E9100AB07AA06DB
:102E9500D3EB940FEA942740047A277B0F7C037DBC
:102EA500E8AF03AE0212174A90019DEFF07C007D5A
:102EB50064AF03AE0212174A7C007D0A12174AA3BB
:102EC500EDF07C007D0AAF03AE0212174A7C007D4F
:102ED5000A12174AA3EDF0AE02AF037C007D0A1279
:102EE500174AAB05900167E0FE90019DE0FD902932
:102EF500A293FCEE4C900167F0900166E0FFED9027
:102F050029AC93FEEF4EFF900166F090019EE0FE26
:102F15009029B6934F900166F090016BE0FFEE901B
:102F250029C093FEEF4E90016BF090016AE0FF908F
:102F3500019EE09029CA93FEEF4EFF90016AF09042
:102F4500019FE0FE9029D4934F90016AF090016FA4
:102F5500E0FFEE9029DE93FEEF4EFF90016FF0EB60
:102F65009029E8934F90016FF090016EE0FFEB9090
:102F750029F293FEEF4E90016EF0900173E0FFAEE3
:0D2F850003EE9029FC93FEEF4E900173F0D7
:012F9200221C
:10371100EF75F00A84F9EF75F00A84AEF0ED75F0FB
:103721000A84FCED75F00A84ABF0EFD394184004E1
:10373100790A7E0AEDD3943C40047C0A7B0A300569
:1037410003300F44900183E0FFE9902A0693FDEFD7
:103751004D900183F0900182E0FFE9902A1193FDE1
:10376100EF4D900182F090015EE0FFEE902A1C93F4
:10377100FDEF4D90015EF0900163E0FFEE902A278E
:1037810093FEEF4E900163F0300603300F4F90012E
:1037910087E0FFEC902A3293FEEF4E900187F09084
:1037A1000186E0FFEC902A3D93FEEF4E900186F0FA
:1037B10090018BE0FFEC902A4893FEEF4EFF9001C1
:1037C1008BF0EB902A53934F90018BF090018AE09C
:0D37D100FFEB902A5E93FEEF4E90018AF010
:0137DE0022C8
:042F9300AB07AA06D8
:102F97007C037DE812174A90019DEFF07C007D6469
:102FA700AF03AE0212174A7C007D0A12174AA3ED3F
:102FB700F07C007D0AAF03AE0212174A7C007D0A3F
:102FC70012174AA3EDF07C007D0AAF03AE02121779
:102FD7004AA905D3EB940FEA9427400B90019D74FF
:102FE7000AF0A3F0A3F0F9900183E0FE90019DE0C1
:102FF700FD902A0693FCEE4C900183F0900182E04D
:10300700FFED902A1193FEEF4E900182F090015E42
:10301700E0FF90019EE0FE902A1C93FDEF4D90018A
:103027005EF0900163E0FFEE902A2793FEEF4E904B
:103037000163F0900187E0FF90019FE0FE902A3244
:1030470093FDEF4D900187F0900186E0FFEE902A07
:103057003D93FEEF4E900186F090018BE0FF9001CB
:103067009FE0902A4893FEEF4EFF90018BF0E99086
:103077002A53934F90018BF090018AE0FFE9902A41
:093087005E93FEEF4E90018AF009
:01309000221D
:10396500300406900151E004F043C1E143B9C0536E
:10397500981E53903F900151E024FE602804704A40
:10398500900191E030E0055398EF80034398109043
:103995000191E030E1055398FD8003439802439877
:1039A5002043980122900191E030E2055398EF8081
:1039B50003439810900191E030E3055398FD80038F
:1039C50043980243984043908022900191E030E46F
:1039D500055398FD8003439802900191E030E50579
:1039E5005398FB8003439804900191E030E605531A
:1039F50098F78003439808900191E030E7055398C4
:103A0500EF8003439810439880439040E490015120
:013A1500F0C0
:013A1600228D
:10485700E4FF124D84E4900191F09001FAE0FEA389
:10486700E0F5828E83A3A3A3740193FA740293F9EC
:1048770012190D7B017A017952E490019DF07D3F79
:034887000244C523
:104DE500C217E49001ECF09001EFF09001EDF0A313
:024DF500F022AA
:104ADB00EBD39D5003ED04FB9001ECEFF09001EF55
:0B4AEB00EDF09001EDEBF0E4A3F022F1
:10463B009001ECE0603A9001EEE004F0A3E0FF9013
:10464B0001EEE0FEC39F5009201703439701D217D9
:10465B00229001EDE0FFEEC39F50093017035397F3
:10466B00FEC217229001ECE014F0E49001EEF02270
:03467B00C2172241
:1000B600ECECECECECECECECECECECECECECECEC7A
:1000C600ECECECECECECECECECECECECECECECED69
:1000D600EDEEEFEFF0F1F1F2F2F3F4F4F5F6F6F6F9
:1000E600EDEDF8F8F9F9FAFAFBFBFCFCFDFDFEFE76
:1000F600FFFF0000010101020203030404040505D9
:10010600060607070708080909090A0A0B0B0B0C5C
:100116000C0D0D0D0E0E0F0F0F10101111111212E6
:100126001313131414141515161616171718181872
:1001360019191A1A1B1B1B1C1C1D1D1D1E1E1F1FF9
:10014600202020212122222323242424252526267B
:100156002727282829292A2A2B2B2C2C2D01010276
:10016600020303040405060708090A0C0D0F111300
:1001760015171A1D2023272A2E33373C40454A4F90
:10018600555A5F656A70757B80868B90969BA0A595
:10019600A9AEB2B7BBBFC3C6CACD292F353B4249AC
:1001A60050575E656C727980878D93999FA5AAAF2B
:1001B600B4B8BDC1C5C8CCCFD2D4D7D9DCDEE0E156
:1001C600E3E4E6E7E8E9EAEBECEDEEEEEFF0F0F17A
:1001D600F2F2F3F3F4F4F501020202030304050557
:1001E6000607080A0B0D0E10121417191C1F2226DB
:1001F6002A2D32363B3F44494F54595F646A707525
:100206007B81868B91969BA0A5AAAEB3B7BBBFC3D5
:10021600C7CACDD001020202030404050607080975
:100226000A0C0D0F111316181B1E2125292D30350A
:100236003A3E43484E53585E64696F757A80868BA2
:1002460090969BA0A5AAAEB3B7BBBFC3C7CACDD075
:10025600D302020203030405050607080A0B0D0E66
:10026600101215171A1D2023272B2F33383D42470E
:100276004C52575D62686E74797F858A90959A9F15
:10028600A4A9AEB2B7BBBFC3C6CACDD0D3D60202ED
:100296000203030405060708090A0C0D0F111416BC
:1002A600191B1F22262A2E32363B40454A50555BE3
:1002B60061666C72787E84898F94999FA4A8ADB28A
:1002C600B6BABEC2C6C9CDD0D3D6D802020303047D
:1002D60004050607080A0B0D0E101215171A1D2025
:1002E60024282C30353A3E43494E53595F656A708F
:1002F600767C82888D93989EA3A8ACB1B5BABEC20F
:10030600C5C9CCCFD2D5D8DA020203030405060745
:1003160008090A0C0E10121416191C1F23272B2F5E
:1003260034383D42484D52585E64696F757B81870B
:100336008D92989DA2A7ACB1B5B9BDC1C5C9CCCFA8
:10034600D2D5D7DADC0203030404050607080A0B34
:100356000D0F111316181B1E2225292E32373C416C
:10036600464C51575D62686E747A80868C91979C74
:10037600A2A6ABB0B5B9BDC1C5C8CCCFD2D5D7DA68
:10038600DCDE0203030405060708090B0C0E101237
:1003960015171A1D2124282C31363B40454B505643
:1003A6005C61676D73797F858A90969CA1A6ABAFD9
:1003B600B4B8BDC0C4C8CBCED1D4D7D9DCDEE00337
:1003C600030405050607090A0B0D0F111416191C5F
:1003D6002023272B3034393E44494F545A60666CEB
:1003E60072787E84898F959AA0A5ABAFB3B8BCC04E
:1003F600C4C7CBCED1D4D6D9DBDEE0E203030405F5
:10040600060708090B0C0E101315181B1E22262AA8
:100416002E33383D42484E53595F656B71777D8266
:10042600898E94999FA5A9AFB3B7BCC0C4C7CBCEDC
:10043600D1D4D6D9DBDDDFE1E303040505060809DF
:100446000A0C0D0F1214171A1D2124282D31363BC4
:1004560041464C52585E646A70767C81878D9298CC
:100466009DA3A8ADB2B6BABFC2C6C9CDD0D3D6D8A1
:10047600DADDDFE1E3E40404050607080A0B0D0FE5
:10048600111316181C1F23272B3034393E444A50AB
:10049600565C62686E757A80868B91979CA1A6AC35
:1004A600B0B6B9BEC1C5C9CCCFD2D5D7DADCDEE08D
:1004B600E2E4E60405060708090A0C0E10121517F1
:1004C6001A1E2125292E32373D42484E545B61675C
:1004D6006D73797F858A90969BA0A5AAAFB4B9BCA7
:1004E600C1C4C8CBCED1D4D7D9DCDEE0E2E4E5E79F
:1004F60004050607090A0C0D0F111416191C2024F1
:10050600282C31363B40464C53595F666C72787ED8
:1005160084898F949A9FA4A9AEB3B7BCC0C3C7CA37
:10052600CDD0D3D6D8DBDDDFE1E3E5E6E805060787
:1005360008090B0D0F111315181B1F22262A2F341D
:10054600393E444A51575E646B71777E83898E9437
:10055600999EA3A8ADB2B6BABFC3C6CACDD0D2D5EE
:10056600D8DADDDFE1E3E4E6E8E9050608090A0C86
:100576000E101214171A1D2125292D32373C424818
:100586004E555B62686F757C82888D92989DA2A796
:10059600ACB0B5B9BDC1C5C9CCCFD2D4D7D9DCDED4
:1005A600E0E2E4E6E7E8EA0607080A0B0D0F111495
:1005B60016191C2024282C31353B40464C52595FD5
:1005C600666D737A80868C92979CA1A6ABAFB4B801
:1005D600BCC0C4C8CBCED1D4D6D9DBDDE0E1E3E5DF
:1005E600E7E8E9EB0608090B0C0E101315181B1F9C
:1005F60022272B2F34393E444A50565D646A71785F
:100606007E848B90969BA0A5AAAEB3B7BBBFC3C78B
:10061600CACED0D3D6D8DADDDFE1E3E5E6E8E9EA0B
:10062600EB07080A0C0E101215171B1E22262A2F7E
:1006360033383D43484E545B61686F757C83898FC0
:10064600959A9FA4A9AEB2B6BABEC2C6C9CDD0D33A
:10065600D5D8DADCDEE0E2E4E6E7E9EAEBEC080925
:100666000B0D0F1114171A1D2125292E33373C4166
:10067600474D53595F666D737A81888E94999FA40E
:10068600A8ADB2B6BABEC1C5C9CCCFD2D5D7DADC11
:10069600DEE0E2E4E5E7E8EAEBECED090A0C0E1031
:1006A6001316191C1F23272C31363A40454B515738
:1006B6005D646A71787E858C92989DA3A7ACB1B56E
:1006C600B9BDC0C4C7CBCED1D4D6D9DBDDDFE1E31B
:1006D600E5E6E8E9EAEBEDED090B0D0F1214171B41
:1006E6001E22262A2F34393E44494F555B62686FD5
:1006F600767C838990969CA1A6ABB0B4B8BCC0C3E7
:10070600C7CACDD0D3D6D8DADDDFE0E2E4E6E7E942
:10071600EAEBECEDEE0A0C0E1113161A1D21252933
:100726002D32373D42484D535A60666D747A818842
:100736008E949AA0A5AAAFB3B7BBBFC3C6C9CCCF88
:10074600D2D5D7DADCDEE0E2E3E5E7E8E9EAECED8C
:10075600EEEF0B0D101215191C2024282C31363BF8
:1007660041464C52585E656B72797F868C93999F91
:10077600A4A9AEB2B7BBBEC2C5C9CCCFD2D4D7D955
:10078600DBDDDFE1E3E4E6E7E9EAEBECEDEEEF0DD6
:100796000F1214181B1F23272B30353A40454B5197
:1007A600575D636A70777E858B92989EA3A8ADB2DB
:1007B600B6BABEC2C5C8CBCED1D4D6D9DBDDDFE151
:1007C600E2E4E6E7E8EAEBECEDEEEFF00E101316E6
:1007D600191D21252A2E33383E43494F555B616842
:1007E6006E757C82898F969CA1A7ACB1B5B9BDC147
:1007F600C4C8CBCED0D3D6D8DADCDEE0E2E4E5E777
:10080600E8E9EAEBECEDEEEFF00F1114181B1F23ED
:10081600282D32373C42474D53595F666C737980B9
:10082600878D949AA0A5ABB0B4B9BDC0C4C7CACDD4
:10083600D0D3D5D8DADCDEE0E1E3E5E6E7E9EAEBBA
:10084600ECEDEEEFF0F01013161A1D22262B3035C4
:100856003B40464C52585E646B71787E858B92980D
:100866009EA4A9AEB3B8BCC0C3C7CACDD0D2D5D793
:10087600D9DCDEDFE1E3E4E6E7E8EAEBECEDEEEF18
:10088600EFF0F11215181C2025292E34393F454B5F
:1008960050565C636970767D838A90979DA2A8AD59
:1008A600B2B7BBBFC3C6CACCCFD2D5D7D9DBDDDF83
:1008B600E1E3E4E5E7E8E9EAEBECEDEEEFF0F1F190
:1008C60013171A1E23282D32383E444A50565C62AE
:1008D600686E757C82888F959BA1A7ACB1B6BBBFAD
:1008E600C3C6C9CCCFD2D5D7D9DBDDDFE1E2E4E59B
:1008F600E7E8E9EAEBECEDEEEFF0F0F1F215181CA3
:1009060021252A30353B41474D545960666C727932
:1009160080868D93999FA5AAAFB4B9BDC1C5C8CB32
:10092600CED1D4D6D9DBDDDFE0E2E3E5E6E7E9EADE
:10093600EBECEDEEEEEFF0F1F1F2161A1E23282D98
:1009460033393F454B51585D646A70777D848A918F
:10095600979DA3A8AEB2B7BCC0C4C7CBCDD0D3D6E3
:10096600D8DADCDEE0E2E3E4E6E7E8E9EAEBECED40
:10097600EEEFF0F0F1F2F2181C21262A30373D4353
:10098600494F565C62686E757B82888F959BA1A6DF
:10099600ACB1B6BABEC2C6C9CDCFD2D5D7DADCDEC7
:1009A600DFE1E3E4E5E7E8E9EAEBECEDEEEFEFF0B3
:1009B600F1F2F2F31A1F24292D343A41474D535AC6
:1009C60061666D737A80878D93999FA5AAAFB4B936
:1009D600BDC1C5C9CCCFD2D4D7D9DBDDDFE1E2E4D6
:1009E600E5E6E8E9EAEBECEDEEEEEFF0F1F1F2F335
:1009F600F31D22272C31383F454B51585F656B72EA
:100A0600787F858C91989EA4A9AEB3B8BCC0C4C8A3
:100A1600CBCED1D4D6D9DBDDDFE0E2E4E5E6E7E90B
:100A2600EAEBECEDEEEEEFF0F0F1F2F2F3F31F2469
:100A3600292F343B42484F555B62696F757C82892A
:100A46008F959BA1A7ACB1B6BABFC2C6CACDD0D34B
:100A5600D5D8DADCDEE0E1E3E4E6E7E8E9EAEBEC68
:100A6600EDEEEFEFF0F1F1F2F3F3F421262C31374E
:100A76003E454C52585F666D737980868D93999F7B
:100A8600A5AAAFB4B8BDC1C5C8CCCFD2D4D7D9DB1F
:100A9600DDDFE1E3E4E5E7E8E9EAEBECEDEEEEEFD6
:100AA600F0F1F1F2F2F3F3F423292E343A41484FF0
:100AB600565C636A71777E848B91979DA2A8ADB2CE
:100AC600B7BBBFC3C7CACED1D4D6D8DBDDDFE0E221
:100AD600E4E5E6E7E9EAEBECECEDEEEFF0F0F1F257
:100AE600F2F3F3F4F4262C31383E454C5359606743
:100AF6006E757B82888F959BA1A6ABB0B5BABEC238
:100B0600C6C9CDD0D3D5D8DADCDEE0E2E3E5E6E748
:100B1600E8E9EAEBECEDEEEFEFF0F1F1F2F2F3F3E8
:100B2600F4F4FF01DDFF021AFF0257FF0294FF02F1
:100B3600D1FF030EFF034BFF0388FF03C5FF04022B
:100B4600FF043FFF047CFF04B9FF04F6FF0533FFF3
:100B56000570FF05ADFF05EAFF0627FF0664FF06E1
:100B6600A1FF06DEFF071BFF0758FF0795FF07D209
:100B7600FF080FFF084CFF0889FF08C6FF0903FF9F
:100B86000940FF097DFF09BAFF09F7FF0A34FF0A8A
:070B960071FF0AAEFF0AEB3C
:104978004201BE00004101C0004101C1FF4101C226
:0E498800004201C300004101C5004101C6000C
:104D2D00EF540FFFE59C54F04FF59C439C40E59CE0
:064D3D0030E4FBAF9F22F1
:104D9800EFD394AC40057818762D22EF9000B693A7
:044DA8007818F6225F
:103FA6007F01124D2D9001C0E0FEEFD39E4002EF3F
:103FB600F09001C1E0FEEFC39E5002EFF09001BF0A
:103FC600E02FF09001BEE03400F09001C2E004F072
:103FD600E0C3940A40529001C0E0FF9001BFE09F09
:103FE600FF9001BEE09400FE9001C1E0FDC3EF9D8D
:103FF600FFEE94009001BEF0A3EFF09001BEE0FE4C
:10400600A3E07803CEC313CE13D8F9FF9001BEEE1A
:10401600F0A3EFF0124D98E49001C2F09001BEF0CB
:08402600A3F0A3F0A374FFF066
:01402E00226F
:0541270090019AE0FF89
:10412C00EDB4051090019D74FFF0A37401F0A3741D
:10413C0063F08037EDB42D1090019D74FFF0A374E3
:10414C0001F0A374A0F08023ED75F003A42416F500
:10415C0082E4340BF583E493F9740193FA740293BB
:10416C0090019DC9F0A3EAF0A3E9F0E4FE90019D53
:10417C00E0FBA3E0FAA3E0F98E827583001216E946
:0F418C00FDEFC39D40050EEEB43CE2EE241EFF96
:01419B002201
:0530910090019AEFF030
:103096007818E6FCD3648094855007E0FF7D05022E
:1030A6003187C3EC648094AD400A90019AE0FF7DBD
:1030B6002D023187C37818E66480948650557D06C4
:1030C60012412790019BEFF07D0512412790019C4C
:1030D600EFF090019BE0FDC3EF9DFDE49400FCE45E
:1030E600121616C004C005C006C0077818E6FF33DE
:1030F60095E0FEC374069FFDE49EFC121616D003EF
:10310600D002D001D00012150B12164F90019BE091
:103116002F8066D37818E6648094AC90019AE0FF1D
:10312600405B7D2C12412C90019BEFF090019AE0C0
:10313600FF7D2D12412C90019CEFF090019BE0C386
:103146009FFDE49400FCE4121616C004C005C006F8
:10315600C0077818E6FF3395E0FEEF24D4FDEE3481
:10316600FFFC121616D003D002D001D00012150BA8
:1031760012164F90019BE0C39F7817F6227818E647
:08318600FD12412C7817A60789
:01318E00221E
:103CC0007816E6FF9001C4E02FF09001C3E03400C5
:103CD000F09001C5E004F0E0C394085003023D5F9A
:103CE0009001C3E0FEA3E07803CEC313CE13D8F94E
:103CF000F0EE9001C3F09001C6E004F0E0C3940838
:103D00004004E4F0D2199001C3A3E0FD9001C6E0A5
:103D100024C7F582E43401F583EDF0301929E4FF7E
:103D2000FEFC74C72CF582E43401F583E02FFFE438
:103D30003EFE0CECB408EBEF7803CEC313CE13D8E1
:103D4000F9900199F08005900199EDF0900199E0CA
:0F3D5000FF123091E49001C5F09001C3F0A3F091
:013D5F002241
:104DF7007F01124D2D124D987F02124D2D023091D9
:104DAC009001BB7407F0A37453F0C213E49001B5E7
:044DBC00F0A3F0224E
:104515009001B5E0FCA3E0FDD39432EC9400500487
:104525007F018036D3ED9464EC940050047F0280C3
:1045350029D3ED9496EC940050047F03801CD3EDB1
:1045450094C8EC940050047F04800FD3ED942CECB8
:0A455500940150047F0580027F06E8
:01455F002239
:103A17009001BBE07002A3E060259001BCE024FFA9
:103A2700F09001BBE034FFF0E07002A3E0701212E7
:103A370045159001BDEFF09001B9F0A3F08002D2D7
:103A4700133014789001ADE0FFA3E0A3CFF0A3EF0C
:103A5700F09001ABE0FFA3E0A3CFF0A3EFF090015C
:103A6700A9E0FFA3E0A3CFF0A3EFF09001B7E0FF39
:103A7700A3E09001A9CFF0A3EFF0C214E49001B541
:103A8700F0A3F0FFEF25E024A9F582E43401F583E4
:103A9700E0FCA3E0FD9001B6E02DF09001B5E03C1D
:103AA700F00FEFB404DE9001B5E0FEA3E07805CE99
:0C3AB700C313CE13D8F9F0EE9001B5F067
:013AC30022E0
:1038AB0020130BE49001B1F0A3F0A3023961124590
:1038BB00159001BAE0FEEFD39E400EE49001B3F0F9
:1038CB00A3F09001BDEFF08038EFC39E503990010B
:1038DB00B4E004F070069001B3E004F0D39001B4AF
:1038EB00E094689001B3E0648094804021E4F0A3FD
:1038FB00F09001BDE0D394014003E014F09001BDC2
:10390B00E09001BAF08007E49001B3F0A3F09001CE
:10391B00B9E0FF9001BDE0FED39F401AE49001B2E5
:10392B00F09001B1E004F0E0D39468402CE4F09007
:10393B0001B9E004F022EEC39F5017E49001B1F0FF
:10394B00A3E004F0E094D04010E4F09001B9E0144F
:09395B00F022E49001B1F0A3F0A8
:013964002240
:0A4E9600C210E49001E6F0A3F02240
:104A8400D210EF7802C333CE33CED8F9FF7C007D49
:0D4A94007812174A9001E6EEF0A3EFF02231
:101F3E009001FAE0FEA3E0240CF582E43EF58374F2
:101F4E000193FA740293F912190D30100B9001E6F9
:101F5E00E0FAA3E0FB4A700CE4F5BFF5BE9001E495
:101F6E00F0A3F0222011289001E5E02414F0900156
:101F7E00E4E03400F0D3A3E094209001E4E0940375
:101F8E0050030220C67403F0A37420F00220C62072
:101F9E0012030220C69001E0E0FEA3E0FFC3900111
:101FAE00E3E09F9001E2E09E400BA3E09FFF9001D3
:101FBE00E2E09E80149001E2E0FEA3E0FFC39001F8
:101FCE00E1E09FFF9001E0E09E90019BF0A3EFF017
:101FDE00C39001E3E09B9001E2E09A406A9001E633
:101FEE00E0FEA3E0FF9001E3E09FFF9001E2E09EA0
:101FFE00900199F0A3EFF0E0C4F8540FC868FF9079
:10200E000199E0C454F048FE90019CE02401FD903B
:10201E00019BE03400FC12174A90019DEEF0A3EFF5
:10202E00F0D39001E5E09F9001E4E09E5003022082
:10203E00C490019DE0FEA3E0FF9001E5E09FF090CB
:10204E0001E4E09EF0806F9001E2E0FEA3E0FFC3AA
:10205E009001E7E09FFF9001E6E09E900199F0A3CA
:10206E00EFF0E0C4F8540FC868FF900199E0C45433
:10207E00F048FE90019CE02401FD90019BE03400AD
:10208E00FC12174A90019DEEF0A3EFF0C374A09FCF
:10209E00FF740F9EFEC39001E5E09F9001E4E09E69
:1020AE00501490019DE0FEA3E0FF9001E5E02FF0BB
:1020BE009001E4E03EF0C2129001E4E0FCA3E0FDEA
:1020CE00ECF5BF8DBE9001E2E0FFA3E09001E0CF02
:0420DE00F0A3EFF08C
:0120E20022DB
:104A66000101010100DB0101030100DE0101050175
:0E4A760000E1071E121E111E161E0900161E5C
:1033830090019D7405F0A374A0F090011074FFF0F8
:10339300E490019FF090019FE0FFC3940640030275
:1033A3003475EF75F003A42466F582E4344AF5839B
:1033B300E493FB740193FA740293F91216D0C413C5
:1033C3001313540120E00302346B90019FE0FF7557
:1033D300F003A42466F582E4344AF583E493FB7492
:1033E3000193FA740293F99000011216E9FD7C002F
:1033F300EF75F003A42466F582E4344AF583E4937D
:10340300FB740193FA740293F91216D0547F75F08A
:103413003CA42DFEEC35F09001A0F0A3CEF090007B
:10342300E9E075F03CA4FFA3E02FFFEC35F0FE903C
:1034330001A0E0FCA3E0FDD39FEC9E402BED9FFD9C
:10344300EC9EFCD390019EE09D90019DE09C401872
:103453009001A1E09FFF9001A0E09E90019DF0A349
:10346300EFF0A3E0900110F090019FE02402F0023E
:0234730033988C
:013475002234
:10437C00E490010AF09001FAE0FEA3E02406F58235
:10438C00E43EF583740193FA740293F912190D90BB
:10439C00010AE030E004D28C8002C28C90010AE069
:1043AC0030E104D28E8002C28E90010AE030E20429
:1043BC00D28D8002C28D90010AE030E303D2A32299
:0343CC00C2A32267
:10494A00E58830E1239000D8E004F0E0D3940540F4
:10495A001CE4F0758703000000000000000053AB60
:0D496A00EF53A8F753A8EF22E49000D8F017
:01497700221D
:1043CF0043981E000000004398E14390C053C11E64
:1043DF0053B93F00000000E4FFE59820E5010FE529
:1043EF009820E604EF4402FFE59820E704EF440429
:1043FF00FFE59820E004EF4408FFE59020E704EF85
:10440F004410FFE59020E604EF4420FF43C1E14351
:02441F00B9C022
:014421002278
:1037DF001243CF900199EFF09001F2E06F603A90B1
:1037EF000199E0702B9001F0E0FFD394054021EF99
:1037FF009496501C9001F37402F09001FAE0FEA32E
:10380F00E0F5828E83740193FA740293F912190D05
:10381F00900199E09001F2F0229001F2E07009908E
:10382F0001F0F0A3F0D21A22E49001F3F09001F02E
:10383F00E004F0A3E004F0E0D3943C401F742DF0BB
:10384F009001F37404F09001FAE0FEA3E0F5828E8C
:10385F0083740193FA740293F912190D9001F0E039
:10386F00FFB405089001F37401F08019EFB4F80864
:10387F009001F37403F0800DEFD394FA401D900183
:10388F00F074FAF0229001FAE0FEA3E0F5828E8345
:0B389F00740193FA740293F912190DE2
:0138AA0022FB
:0E4E5400900034E4121728900033E40217286F
:104D6F009000341216E9FF9000331216E9B50703CD
:054D7F00D38001C322F6
:1047B6009001A6EBF0A3EAF0A3E9F09001A6E0FBD6
:1047C600A3E0FAA3E0F99000341216E92401FFE40D
:1047D60033FE7C007D3312174AAF05900033121664
:0947E600E9B50503D38001C322EB
:104C54009000341216E92433FF9000331216E9FE53
:0A4C6400C3EF9E75F03384AFF02219
:104200009001A5EDF09001A2EBF0A3EAF0A3E9F094
:104210001247B640469001A5E0FF9001A2E0FBA343
:10422000E0FAA3E0F99000341216E9F582758300F4
:10423000EF1217289000341216E92401FFE433FE30
:104240007C007D3312174AAF059001A2E0FBA3E08A
:10425000FAA3E0F9900034ED1217289001A5E0FFD1
:01426000223B
:0B431F009001A2EBF0A3EAF0A3E9F08C
:10432A00E4A3F0124D6F40449001A2E0FBA3E0FA2F
:10433A00A3E0F99000331216E9F58275830012168C
:10434A00E99001A5F09000331216E92401FFE43345
:10435A00FE7C007D3312174AAF059001A2E0FBA351
:10436A00E0FAA3E0F9900033ED1217289001A5E0D6
:01437A00FF43
:01437B00221F
:104560000101FF001E0201FF49D10301FF45F504CF
:1045700001FF4D430501FF4D590601FF4AA1070107
:10458000FF4ABE080CFF40AD0901FF258D0A01FF5F
:104590003AC40B06FF467E0C01FF4AF60D01FF3DB3
:0B45A000FAF701FF1D93FF06FF4C6EB1
:0510F40090019DEFF0EA
:1010F900E4A3F090006FE0FBA3E0FAA3E0F97DF22E
:1011090012420090006FE0FBA3E0FAA3E0F97DF240
:1011190012420090006FE0FBA3E0FAA3E0F990010E
:101129009DE0FD12420090019EE02FF090006FE0DB
:10113900FBA3E0FAA3E0F97D2512420090019EE0AD
:101149002FF090006FE0FBA3E0FAA3E0F990010F04
:10115900E0FD12420090019EE02FF090006FE0FB4D
:10116900A3E0FAA3E0F99001B5E0FD124200900175
:101179009EE02FF090006FE0FBA3E0FAA3E0F99066
:1011890001B5A3E0FD12420090019EE02FF090000E
:101199006FE0FBA3E0FAA3E0F9900147E0FD1242FA
:1011A9000090019EE02FF090006FE0FBA3E0FAA30E
:1011B900E0F9900147A3E0FD12420090019EE02F63
:1011C900F090006FE0FBA3E0FAA3E0F99000FFE0E4
:1011D900FD12420090019EE02FF090006FE0FBA30A
:1011E900E0FAA3E0F99000FFA3E0FD1242009001AC
:1011F9009EE02FF090006FE0FBA3E0FAA3E0F990E6
:101209000107E0FD12420090019EE02FF090006F6F
:10121900E0FBA3E0FAA3E0F9900107A3E0FD124285
:101229000090019EE02FF090006FE0FBA3E0FAA38D
:10123900E0F97818E6FD12420090019EE02FF09047
:10124900006FE0FBA3E0FAA3E0F97817E6FD12428C
:101259000090019EE02FF090006FE0FBA3E0FAA35D
:10126900E0F9300703E48004900145E0FD124200F3
:1012790090019EE02FF090006FE0FBA3E0FAA3E05D
:10128900F990010BE0B401047D0180027D00124256
:101299000090019EE02FF090006FE0FBA3E0FAA31D
:1012A900E0F99000E0E0B402047D0180027D0012C3
:1012B900420090019EE02FF090006FE0FBA3E0FA5E
:1012C900A3E0F990010CE0FD12420090019EE02F8D
:1012D900F090006FE0FBA3E0FAA3E0F99000DDE0F5
:1012E900FD12420090019EE02FF090006FE0FBA3F9
:1012F900E0FAA3E0F9900101E0FD12420090019E9D
:10130900E02FF090006FE0FBA3E0FAA3E0F9900171
:1013190002E0FD12420090019EE02FF090006FE084
:10132900FBA3E0FAA3E0F99000DBE0FD1242009094
:10133900019EE02FF090006FE0FBA3E0FAA3E0F933
:101349009000DCE0FD12420090019EE02FF0900039
:101359006FE0FBA3E0FAA3E0F9900103E0FD12427C
:101369000090019EE02FF090006FE0FBA3E0FAA34C
:10137900E0F9900104E0FD12420090019EE02FF097
:1013890090006FE0FBA3E0FAA3E0F99000DEE0FD36
:1013990012420090019EE02FF090006FE0FBA3E065
:1013A900FAA3E0F99000DFE0FD12420090019EE00F
:1013B9002FF090006FE0FBA3E0FAA3E0F99001059C
:1013C900E0FD12420090019EE02FF090006FE0FBDB
:1013D900A3E0FAA3E0F9900106E0FD1242009001B2
:1013E9009EE02FF090006FE0FBA3E0FAA3E0F990F4
:1013F90000E1E0FD12420090019EE02FF090006FA5
:10140900E0FBA3E0FAA3E0F99000E2E0FD1242005C
:1014190090019EE02FF090006FE0FBA3E0FAA3E0BB
:10142900F9E4FD12420090019EE02FF090006FE078
:10143900FBA3E0FAA3E0F9E4FD12420090019EE06B
:101449002FF090006FE0FBA3E0FAA3E0F9E4FD12AE
:10145900420090019EE02FF090006FE0FBA3E0FABC
:10146900A3E0F9E4FD12420090019EE02FF0900004
:101479006FE0FBA3E0FAA3E0F9E4FD12420090015A
:101489009EE02FF090006FE0FBA3E0FAA3E0F9E4FF
:10149900FD12420090019EE02FF090006FE0FBA347
:1014A900E0FAA3E0F9E4FD12420090019EE02FF07A
:1014B90090006FE0FBA3E0FAA3E0F9E4FD1242001B
:1014C90090019EE02FF090006FE0FBA3E0FAA3E00B
:1014D900F9E4FD12420090019EE02FF090006FE0C8
:1014E900FBA3E0FAA3E0F990019EE0FD124200900F
:1014F900006FE0FBA3E0FAA3E0F97D7E124200024F
:021509000026BA
:01006A002273
:05001E007F010210F457
:1049D100900074E0FF90010FF0BF01067E4C7F1F35
:1049E10080047E4B7F62D204C2051244227B0F7D7C
:0B49F1000A7F01124ADB7F020210F473
:1045F50090010FE064017039900074E0FF7004D2FF
:10460500078007C207900145EFF0900145E0FFB430
:104615000106E49000DD800BEFD39401400A900081
:10462500DD7401F090010CF07B0F7D0A7F01124AC9
:06463500DB7F030210F41C
:104D4300900074E090010BF07B0F7D0A7F01124A03
:064D5300DB7F040210F4F6
:104D5900900074E09000E0F07B0F7D0A7F01124A19
:064D6900DB7F050210F4DF
:104AA10090010FE0B40111900074E090010CF07BD3
:0D4AB1000F7D0A7F01124ADB7F060210F420
:104ABE0090010FE0B40111900074E09000DDF07BE6
:0D4ACE000F7D0A7F01124ADB7F070210F402
:1040AD00900074E0900101F0900075E0900102F035
:1040BD00900076E09000DBF0900077E09000DCF06F
:1040CD00900078E0900103F0900079E0900104F009
:1040DD0090007AE09000DEF090007BE09000DFF041
:1040ED0090007CE0900105F090007DE0900106F0DD
:1040FD0090007EE09000E1F090007FE09000E2F013
:10410D00D208900109E054FEF01233837B0F7D0A33
:0A411D007F01124ADB7F080210F454
:10258D00900074E090019FB4010D7401F0A37401EB
:10259D00F0A37411F0800B7401F0A37401F0A37417
:1025AD002BF090006FE0FBA3E0FAA3E0F97DF212AF
:1025BD00420090006FE0FBA3E0FAA3E0F97DF21278
:1025CD00420090006FE0FBA3E0FAA3E0F97D091251
:1025DD00420090019DEFF090006FE0FBA3E0FAA3A5
:1025ED00E0F97D1A12420090019DE02FF090019FBD
:1025FD00E0FBA3E0FAA3E0F91216D0FD90006FE026
:10260D00FBA3E0FAA3E0F912420090019DE02FF048
:10261D0090019FE0FBA3E0FAA3E0F99000011216F0
:10262D00E9FD90006FE0FBA3E0FAA3E0F912420090
:10263D0090019DE02FF0E4A3F090019EE0FFC39484
:10264D000C506DA3E0FBA3E0FAA3E02402F9E43AF9
:10265D00FA75F002EFA4F58285F08312179FE5F06D
:10266D00FD90006FE0FBA3E0FAA3E0F912420090A9
:10267D00019DE02FF090019FE0FBA3E0FAA3E02481
:10268D0002F9E43AFA90019EE075F002A4F5828514
:10269D00F08312179FFD90006FE0FBA3E0FAA3E01B
:1026AD00F912420090019DE02FF0A3E004F0808923
:1026BD0090006FE0FBA3E0FAA3E0F990019DE0FD2F
:1026CD0012420090006FE0FBA3E0FAA3E0F97D7EDB
:0F26DD001242007B0F7D0A7F01124ADB020026AA
:103AC40090006FE0FBA3E0FAA3E0F97DF21242005C
:103AD40090006FE0FBA3E0FAA3E0F97DF21242004C
:103AE40090006FE0FBA3E0FAA3E0F97D0A12420024
:103AF40090019DEFF090006FE0FBA3E0FAA3E0F9E2
:103B04007D1412420090019DE02FF0E4A3F0900197
:103B14009EE0FFC39414502690006FE0FBA3E0FAEC
:103B2400A3E0F974EB2FF582E43400F583E0FD1291
:103B3400420090019DE02FF0A3E004F080D09000BB
:103B44006FE0FBA3E0FAA3E0F990019DE0FD1242CF
:103B54000090006FE0FBA3E0FAA3E0F97D7E12423F
:0D3B6400007B0F7D0A7F01124ADB02002664
:10467E00900074E0FEA3E07C002400FFEC3E90006E
:10468E00E5F0A3EFF0900076E09000E7F090007771
:10469E00E09000E8F0900078E09000E9F09000796A
:1046AE00E09000EAF07B0F7D0A7F01124ADB7F0B60
:0346BE000210F4F3
:104AF600D2097E4B7F62D204C2051244227B0F7D0F
:0B4B06000A7F01124ADB7F0C0210F452
:103DFA00C2079001457404F0E4900101F09000DBE1
:103E0A00F0900103F09000DEF0900105F09000E1DF
:103E1A00F0900102F09000DCF0900104F09000DFD5
:103E2A00F0900106F09000E2F0FF74EB2FF582E4C7
:103E3A003400F583E4F00FEFB414EFC208900109DF
:103E4A00E054FEF05401F0E4900110F090014FF0BC
:103E5A00C20C90014B1218D000000000C20AC2091D
:103E6A00E49000FFF0A3F07E4B7F62D204C20512F9
:103E7A0044227B0F7D0A7F01124ADB7F0D0210F478
:101D9300E490019DF090006FE0FBA3E0FAA3E0F96B
:101DA3007DF212420090006FE0FBA3E0FAA3E0F99A
:101DB3007DF212420090006FE0FBA3E0FAA3E0F98A
:101DC3007DF712420090019DE02FF090006FE0FB41
:101DD300A3E0FAA3E0F97D0E12420090019DE02FEB
:101DE300F090006FE0FBA3E0FAA3E0F97D0112425B
:101DF3000090019DE02FF090006FE0FBA3E0FAA3B9
:101E0300E0F97D3F12420090019DE02FF090006FBA
:101E1300E0FBA3E0FAA3E0F97D0112420090019DEB
:101E2300E02FF090006FE0FBA3E0FAA3E0F97D3F21
:101E330012420090019DE02FF090006FE0FBA3E0C1
:101E4300FAA3E0F97D0112420090019DE02FF0908A
:101E5300006FE0FBA3E0FAA3E0F9E4FD1242009077
:101E6300019DE02FF090006FE0FBA3E0FAA3E0F9FF
:101E7300E4FD12420090019DE02FF090006FE0FB23
:101E8300A3E0FAA3E0F9E4FD12420090019DE02FE4
:101E9300F090006FE0FBA3E0FAA3E0F9E4FD124247
:101EA3000090019DE02FF090006FE0FBA3E0FAA308
:101EB300E0F9E4FD12420090019DE02FF090006FE5
:101EC300E0FBA3E0FAA3E0F9E4FD12420090019DD8
:101ED300E02FF090006FE0FBA3E0FAA3E0F9E4FD4C
:101EE30012420090019DE02FF090006FE0FBA3E011
:101EF300FAA3E0F9E4FD12420090019DE02FF09077
:101F0300006FE0FBA3E0FAA3E0F9E4FD12420090C6
:101F1300019DE02FF090006FE0FBA3E0FAA3E0F94E
:101F230090019DE0FD12420090006FE0FBA3E0FAF8
:0B1F3300A3E0F97D7E124200020026B0
:104C6E00900074E09000D9F0900075E0900146F04D
:094C7E00900076E09000E4F022C1
:084ECE00D21BE49001F7F02271
:103C1D0090006FE0FBA3E0FAA3E0F97D2B124200C8
:103C2D0090006FE0FBA3E0FAA3E0F97D2B124200B8
:103C3D0090006FE0FBA3E0FAA3E0F97D2B124200A8
:103C4D0090006FE0FBA3E0FAA3E0F97D4112420082
:103C5D0090006FE0FBA3E0FAA3E0F97D741242003F
:103C6D0090006FE0FBA3E0FAA3E0F97D4312420060
:103C7D0090006FE0FBA3E0FAA3E0F97D6D12420026
:103C8D0090006FE0FBA3E0FAA3E0F97D641242001F
:103C9D0090006FE0FBA3E0FAA3E0F97D0D12420066
:103CAD0090006FE0FBA3E0FAA3E0F97D0A12420059
:033CBD00020026DC
:10355D0090006FE0FBA3E0FAA3E0F97D4112420079
:10356D0090006FE0FBA3E0FAA3E0F97D5412420056
:10357D0090006FE0FBA3E0FAA3E0F97D2B1242006F
:10358D0090006FE0FBA3E0FAA3E0F97D4412420046
:10359D0090006FE0FBA3E0FAA3E0F97D6512420015
:1035AD0090006FE0FBA3E0FAA3E0F97D6612420004
:1035BD0090006FE0FBA3E0FAA3E0F97D61124200F9
:1035CD0090006FE0FBA3E0FAA3E0F97D75124200D5
:1035DD0090006FE0FBA3E0FAA3E0F97D6C124200CE
:1035ED0090006FE0FBA3E0FAA3E0F97D74124200B6
:1035FD0090006FE0FBA3E0FAA3E0F97D3D124200DD
:10360D0090006FE0FBA3E0FAA3E0F97D31124200D8
:10361D0090006FE0FBA3E0FAA3E0F97D0D124200EC
:10362D0090006FE0FBA3E0FAA3E0F97D0A124200DF
:03363D0002002662
:1020E30090019A74FFF0A37400F0A3746AF0900057
:1020F3006CE0FBA3E0FAA3E0F99000341216E9FFC9
:102103009000331216E96F7003022283900033129A
:1021130016E9F5827583001216E9900199F0900093
:10212300331216E92401FFE433FE7C007D331217DA
:102133004AAF0590006CE0FBA3E0FAA3E0F990003E
:1021430033ED121728301B1E900199E0B4F114905F
:1021530001F7E004F0E064027094C21BF09001F414
:10216300F0808B02227B900199E0FF9001F7E0243D
:1021730072F582E43400F583EFF09001F4E02FF080
:102183009001F7E004F0E0FFB4010B900072E090DF
:1021930001F6F00220F1EF6402600302222B9001AA
:1021A300F6E0FFD39400402AEFD3940D5024E0755A
:1021B300F005A4245CF582E43445F583E4939001AF
:1021C300F5F0EF75F005A4245DF582E43445F5835D
:1021D30080269001F6E0FFB4F70E9045A2E49390B9
:1021E30001F5F09045A38010EFB4FF239045A7E4D9
:1021F300939001F5F09045A8E493F9740193FA7470
:10220300029390019AC9F0A3EAF0A3E9F080028057
:102213000F900073E0FF9001F5E06F70030220F16F
:10222300D21BE49001F7F0229001F5E02404FFE4CF
:1022330033FE9001F7E0C39FEE6480F874809850FA
:10224300030220F19001F5E0FF2474F582E43400E9
:10225300F583E0FE2EFE74752FF582E43400F583DA
:10226300E02EFF9001F4E0B5070C90019AA3E0FA89
:10227300A3E0F912190DD21BE49001F7F00220F14B
:012283002238
:1047EF007B017A00790090006CEBF0A3EAF0A3E96B
:1047FF00F0124E547B017A00793590006FEBF0A3E5
:10480F00EAF0A3E9F0124E54E490006AF0C215A347
:03481F00F0C216CE
:014822002273
:1000260020164090006FE0FBA3E0FAA3E0F9124C23
:1000360054EFC39401500122EFB4011290006FE017
:10004600FBA3E0FAA3E0F912431F8FF5801290009C
:100056006FE0FBA3E0FAA3E0F912431F8FF5D21677
:0300660043EAC0AA
:010069002274
:094EBD003015051220E3C2152294
:104B1100FF00A2FF00A2FF00A2FF00A2FF00A2FF70
:0B4B210000A2FF00A2FF00A2FF00A204
:054996004201FA4B1183
:0100A200223B
:1044220090019EEEF0A3EFF030051A9001FAE0FE43
:10443200A3E02418F582E43EF583740193FA740232
:1044420093F912190D90019EE0FFA3E09001FACFBB
:10445200F0A3EFF030041A9001FAE0FEA3E0241575
:10446200F582E43EF583740193FA740293F912190A
:024472000D2219
:104B2C00FF4F12FF318FFF4F13FF4F14FF4F15FF35
:0B4B3C004F16FF4F17FF4F18FF4F19D7
:014F1200227C
:10318F00124A2790015FE0440FF090015EE044F097
:10319F00F09000E4E0B40115900146E0B4010E9008
:1031AF00017EE04420F0900187E04438F090015A0E
:1031BF00E04401F090015FE04470F0900182E04440
:1031CF0003F0900187E04444F090018AE04402F05C
:1031DF00A3E04420F090018FE04418F090017AE0D2
:1031EF004440F090017FE04420F090017BE04440A8
:1031FF00F0900173E04410F0900176E04480F044C9
:10320F0003F0900162E04401F090018AE04401F084
:10321F0090018FE04440F04420F04404F04402F069
:10322F004401F07818E6FF1242617817E6FF124268
:10323F00C09000E9E0FFA3E0FDC205C206123711FE
:10324F009000D9E0FF7E00122E917F0412006E7F56
:10325F00021245AB900166E04408F090016AE04429
:10326F0040F090016FE04402F0300F0790018EE0C4
:0A327F0044C0F090019174FFF022AA
:014F1300227B
:014F1400227A
:014F15002279
:014F16002278
:014F17002277
:014F18002276
:014F19002275
:104B4700FF4F1AFF4EA0FF4F1BFF4C87FF4EFDFF85
:0B4B57004F1CFF4F1DFF4E62FF4F1E62
:014F1A002274
:0A4EA00090019174FFF0FF024D84B1
:014F1B002273
:104C87009000DAE004F0E0D39414400B7E4B7F628F
:084C9700D204C20512442222DE
:034EFD00024E96CC
:014F1C002272
:014F1D002271
:0E4E6200E49000DAF09001FE748DF0C20E2292
:014F1E002270
:104B6200FF3476FF2C86FF4F1FFF2B78FF4F00FF8D
:0B4B72002A69FF4F20FF48EDFF4F2194
:10347600900149E07006743CF0C21A22900149742A
:103486003CF0201A0302355C9001F3E064027046BA
:103496009001F2E0B4200F7B147D0F7F01124ADB0E
:1034A6007E4C7F1F80789001F2E0B4020F7B147D82
:1034B6000F7F01124ADB7E4B7F9880629001F2E01B
:1034C6006410600302355C7B147D0F7F01124ADBBA
:1034D6007E4C7F0480489001F3E0640170599001AE
:1034E600F2E0B4040F7B147D0F7F01124ADB7E4BA2
:1034F6007F7D802A9001F2E0B4010F7B147D0F7F5F
:1035060001124ADB7E4B7FB380149001F2E0B408CF
:10351600147B147D0F7F01124ADB7E4B7FCED204D3
:10352600C2050244229001F2E064127029123C1D89
:103536009001FD740380159001F3E0B40318900127
:10354600F2E0B41011B20C9001FC743CF07B147DD7
:073556000F7F01124ADB2286
:102C8600900149E07008900191E04420F022900103
:102C960091E04420F0900177E04401F0900173E068
:102CA600440EF0900172E04438F0900177E04470F1
:102CB600F09001B5E0FEA3E0FF122E919000E9E04E
:102CC600FFA3E0FDC205C206123711300F189001AE
:102CD6008EE044C0F0300C0E900182E04403F09088
:102CE6000187E04444F0900109E0FD30E05B90018B
:102CF6008AE04402F0A3E04420F090018FE04418FB
:102D0600F0EDC313547F14601614601E2402702065
:102D160090018AE04401F090018FE04404F0229093
:102D2600018FE04440F04402F02290018FE08014CD
:102D360090018AE04401F090018FE04404F04440A1
:102D4600F04402F04420F0801E30083A900110E072
:102D5600FDF4603290018AE04402F0A3E04420F0E2
:102D6600ED700890018AE04401F022900110E0FD28
:102D7600B4020890018FE04440F022EDB4040790BD
:072D8600018FE04420F02260
:014F1F00226F
:102B78009001FDE0600814F0E0700312355D9000EC
:102B8800E3E06015900149E0600214F09001FCE078
:102B9800600714F0E07002C20C200B06201C030230
:102BA8002C85C21C900109E030E04FC313547FFF0D
:102BB80064037003022C85EF25E025E02478F58274
:102BC800E4344AF583E493FF9000E9E0FEEF6E6099
:102BD80003022C85900109E0C313547F25E025E00A
:102BE8002479F582E4344AF583E493FF9000EAE01F
:102BF800FEEF6E6003022C85806F200803022C858F
:102C0800900110E0FFF46075EF75F003A42466F5F9
:102C180082E4344AF583E493FB740193FA740293D3
:102C2800F91216D0547FFF9000E9E06F704F9001C1
:102C380010E0FFFD3395E0FC904A6675F003ED1255
:102C48001901EC75F003A42583F583E493FB740163
:102C580093FA740293F99000011216E9FE9000EAC3
:102C6800E0B5061990014FEFF07B147D0F7F01123C
:0E2C78004ADB7E4C7F1FD204C205124422228A
:034F0000024E96C8
:102A6900900149E07004743CF022900149743CF0F3
:102A79009001F8E07003A3E0F470147B147D0F7FDC
:102A890001124ADB7E4C7F1FD204C2050244229008
:102A990001F8E064307004A3E064CF701E9001096E
:102AA900E030E00554FEF08007900109E04401F0B0
:102AB900900109E054014406022B6D9001F8E0648D
:102AC900B07004A3E0644F7024900109E020E00392
:102AD900022B77C313547F7009E054014406F002B6
:102AE9002B6E900109E05401F0D21C80789001F816
:102AF900E064707004A3E0648F7024900109E030F1
:102B0900E06CC313547FFFBF0108E054014406F091
:102B1900800B900109E054014402F0D21C804690D8
:102B290001F8E064F07004A3E0640F7024900109D7
:102B3900E030E03AC313547FFFBF0208E054014478
:102B490006F0800B900109E054014404F0D21C8086
:102B5900149001F8E0B49016A3E0B46F11B20C9090
:0F2B690001FC743CF07B147D0F7F01124ADB22CC
:014F2000226E
:1048ED00E490010FF09001FDF0D20E9001FE748D59
:1048FD00F0900149743CF0C20CC21C90014F74FF42
:0F490D00F0900109E020E0063008031233832206
:014F2100226D
:104B7D00FF402FFF49A5FF4F22FF4C9FFF4F03FF23
:0B4B8D004F23FF4F24FF4EAAFF4F25CF
:0F4E36009000E9E004F0E0C394184002E4F02299
:104E07009000E9E0600314F0229000E97417F022A3
:0F4E45009000EAE004F0E0C3943C4002E4F02265
:104E17009000EAE0600314F0229000EA743BF0226D
:10402F00E49000DAF09001F3E0FF64016005EF64C3
:10403F0004706A9001F2E0FFB408189001F3E0B445
:10404F000401229001FFE004F0E0D39402403EE42B
:10405F00F0803AEFB402169001FFE0FF7005124EA8
:10406F00368025EF64017025124E45801B9001F2BA
:10407F00E0641070289001FFE0FF7005124E07807A
:10408F0007EFB40108124E17E490014AF09001F3C4
:0E409F00E0B401097B147D0F7F01124ADB2281
:1049A500300F0790018EE044C0F09000E9E0FFA3CE
:1049B500E0FD9001FFE0FE7003D38001C39205EE98
:0C49C500B40103D38001C3920602371135
:014F2200226C
:104C9F009000DAE004F0E0D39432400B7E4B7F6259
:084CAF00D204C20512442222C6
:034F0300024E96C5
:014F2300226B
:014F2400226A
:0A4EAA00E49000DAF09001FFF0221E
:014F25002269
:104B9800FF4740FF49FCFF4F26FF4CB7FF4F06FF7A
:0B4BA8004F27FF4F28FF4ED6FF4F297C
:10474000E49000DAF09001F3E0B403169001F2E097
:10475000640270277B147D0F7F01124ADBC21DC2E9
:104760000A229001F3E0B402129001F2E0B4020BCD
:0C4770007B147D0F7F01124ADBD21D225A
:1049FC00301D0E900182E04403F0900187E04444A6
:104A0C00F0E47B3CFAF9F890014BE0FCA3E0FDA349
:0B4A1C00E0FEA3E0FF121813022F932E
:014F26002268
:104CB7009000DAE004F0E0D39468400B7E4B7F620B
:084CC700D204C20512442222AE
:034F0600024E96C2
:014F27002267
:014F28002266
:084ED600E49000DAF0D21D2285
:014F29002265
:104BB300FF1BE0FF26ECFF4F2AFF4CCFFF4F09FFFF
:0B4BC3004F2BFF4F2CFF4E8AFF4F2DA1
:101BE000E49000DAF0200803021D929001F3E06413
:101BF000016003021D92900200E0FFC31375F00321
:101C0000A42466F582E4344AF583E493F9740193DD
:101C1000FA74029390019DC9F0A3EAF0A3E9F0EFF2
:101C20001392049001F2E0B40811900200E004F075
:101C3000E0D3940C4002E4F0021D899001F2E064CC
:101C4000026003021CD190019DE0FBA3E0FAA3E037
:101C5000F91216D0448012171630043C90019DE012
:101C6000FBA3E0FAA3E02401F9E43AFA1216D0FF4C
:101C7000EF0412171690019DE0FBA3E0FAA3E0F930
:101C80009000011216E9C3943C4043E92401F9E4B1
:101C90003AFA1216D0E4803390019DE0FBA3E0FAFB
:101CA000A3E0F91216D0FF5480FEEF04547F4E12C9
:101CB000171690019DE0FBA3E0FAA3E0F91216D0FD
:101CC000FF547FC394184006EF5480121716021D6C
:101CD000899001F2E06410707A90019DE0FBA3E02E
:101CE000FAA3E0F91216D0448012171630043A9085
:101CF000019DE0FBA3E0FAA3E0F99000011216E9D0
:101D0000600FE92401F9E43AFA1216D0FFEF1480CB
:101D10003D90019DE0FBA3E0FAA3E02401F9E43A41
:101D2000FA1216D0E4743B802590019DE0FBA3E0FD
:101D3000FAA3E0F91216D0FF547F600BEF5480FE37
:101D4000EF14547F4E80071216D054804417121798
:101D50001680369001F2E064207037900200E0C3F4
:101D6000940C502E90019DE0FBA3E0FAA3E0F91241
:101D700016D0FFC4131313540130E005EF547F80D5
:101D8000051216D044801217167B147D0F7F0112A6
:021D90004ADB2C
:011D9200222E
:1026EC0020083490018AE04402F0A3E04420F090EA
:1026FC00018FE04418F0200F0302283390018AE088
:10270C004401F090018FE04440F04420F04404F088
:10271C004402F04401F022900200E0640C701D3081
:10272C000F1390018AE04402F0A3E04420F09001E2
:10273C008FE04418F07F107E27022F93900200E068
:10274C00FFC31375F003A42466F582E4344AF583C1
:10275C00E493FB740193FA740293F9EF13920490CF
:10276C000200E0B40C00400302280090277EF828F9
:10277C0028730227A20227A20227B40227B4022739
:10278C00C00227C00227D50227D50227E10227E184
:10279C000227F60227F690018AE04402F0A3E044F7
:1027AC0020F090018AE0804990018FE04418F044B9
:1027BC0004F0804090018AE04402F0A3E04420F051
:1027CC0090018FE04440F0802B90018FE04418F092
:1027DC004402F0801F90018AE04402F0A3E0442000
:1027EC00F090018FE04420F0800A90018FE04418B3
:1027FC00F04401F01216D0FFC4131313540130E04F
:10280C0016EF547FFF9000011216E9FDA204B3925B
:10281C0005A2049206800DA204B39205A2049206AE
:07282C007D647F6412371187
:012833002282
:014F2A002264
:104CCF009000DAE004F0E0D39434400B7E4B7F6227
:084CDF00D204C2051244222296
:034F0900024E96BF
:014F2B002263
:014F2C002262
:0C4E8A00900200740CF0E49000DAF022BA
:014F2D002261
:104BCE00FF4A47FF4823FF4F2EFF4CE7FF4F0CFFD6
:0B4BDE004F2FFF4F30FF4EF3FF4F3111
:104A4700E49000DAF09001F3E0B401129001F2E093
:0F4A5700B4080BB2087B147D057F01124ADB22E5
:1048230090018AE04402F0A3E04420F090018FE07D
:104833004418F0200803300F1A90018AE04401F075
:1048430090018FE04440F04420F04404F04402F02F
:044853004401F0220A
:014F2E002260
:104CE7009000DAE004F0E0D39434400B7E4B7F620F
:084CF700D204C205124422227E
:034F0C00024E96BC
:014F2F00225F
:014F3000225E
:064EF300E49000DAF02259
:014F3100225D
:104C0400FF477CFF2834FF4F32FF4CFFFF4F0FFF5D
:0B4C14004F33FF4F34FF4BE9FF4F35DB
:10488A00900201E004F0E0FFC394065025EF75F0B2
:10489A0003A42466F582E4344AF583E493FB7401A5
:1048AA0093FA740293F91216D0C4131313540130F5
:0348BA00E0CE222B
:10477C00E49000DAF03008319001F3E06401702924
:10478C009001F2E0B40822900201E0F4601B1248A0
:10479C008A900201E0C39406400674FFF012488A26
:0A47AC007B147D057F01124ADB2219
:1028340020083390018AE04402F0A3E04420F090A1
:10284400018FE04418F0200F0302295190018AE01F
:102854004401F090018FE04440F04420F04404F03F
:102864004402F002294E900201E0B4FF077F107E7B
:1028740027022F93900201E0FF75F003A42466F56C
:1028840082E4344AF583E493FB740193FA7402936B
:10289400F91216D0547FFEEF75F003A42466F58276
:1028A400E4344AF583E493FB740193FA740293F9D4
:1028B4009000011216E9FDAF06C205C206123711D7
:1028C40090018EE044C0F0900201E0146025146091
:1028D400311460451460511460652405706F9001D3
:1028E4008AE04402F0A3E04420F0300F6090018AB3
:1028F400E0805790018FE04418F0300F50E044041A
:10290400F02290018AE04402F0A3E04420F0300F6A
:102914003C90018FE04440F02290018FE04418F095
:10292400300F2AE04402F02290018AE04402F0A32E
:10293400E04420F0300F1690018FE04420F0229004
:0D294400018FE04418F0300F04E04401F072
:012951002263
:014F3200225C
:104CFF009000DAE004F0E0D39434400B7E4B7F62F7
:084D0F00D204C2051244222265
:034F0F00024E96B9
:014F3300225B
:014F3400225A
:104BE900E49000DAF090020174FFF012488A900212
:0B4BF90001E0C39406400374FFF022AB
:014F35002259
:104C1F00FF3289FF1913FF46C1FF0B9DFF419CFF18
:0B4C2F00241FFF4F36FF3F19FF4F37D7
:09499B004601D5AA00000000004D
:10328900900149E07011C20E9001FE748DF0900119
:1032990049743CF0C21A22900149743CF0201A0387
:1032A9000233829001F3E0640270199001F2E06444
:1032B9002060030233827E4B7F62D204C20512442E
:1032C900220233799001F3E06401600302336390D1
:1032D90001F2E06408704E9001DBF0A3F0C21E30E9
:1032E900070990014504F0C207801A900145E004DE
:1032F900F0E0D39405400ED2073013099001BDE0E8
:10330900B40102D21E900145E0FFB40106E4900029
:10331900DD800BEFD39401400A9000DD7401F09039
:10332900010CF0804B9001F2E0B402139000DDE053
:1033390070047F0180027F009000DDEFF080319002
:1033490001F2E06410703290010CE070047F01809A
:10335900027F0090010CEFF080169001F3E0B403B6
:10336900189001F2E0B420119001DD741EF0D20929
:0A3379007B147D0F7F01124ADB2256
:101913009001DDE06044200F03021BDF90015AE0D9
:101923004401F090015FE04470F090015EE044F008
:10193300F0900176E04403F0900162E04401F090FE
:101943000173E04410F0900176E04480F07F0312CD
:10195300006E900162E04401F022124A2790014692
:10196300E0B4010E90017EE04420F0900187E04452
:1019730038F0300C11300F0E900182E04403F090E8
:101983000187E04444F0900166E04408F090016A66
:10199300E04440F090016FE04402F09001B5E0FEB6
:1019A300A3E0FF122E913013079001BDE0FF800AE0
:1019B30090014AE075F00684AFF01247027818E60A
:1019C300FF1242617817E6FF1242C090017AE044A9
:1019D30040F090017FE04420F090017BE04440F030
:1019E3009000E9E0FFA3E0FDC205C2061237113003
:1019F3000F0790018EE044C0F0900173E04410F0B3
:101A0300900176E04480F0200703021A9AE0440331
:101A1300F0900162E04401F0301373301E31900105
:101A230076E05483F0900173E054EFF0900176E098
:101A3300547FF0A3E04401F0900173E0440EF09072
:101A43000172E04438F0900177E04470F0805D90DB
:101A530001B9E0D3940250097F0112006E7F048024
:101A6300489001B9E0D3940350097F0212006E7FBE
:101A73000380369001B9E0D3940450097F03120028
:101A83006E7F0280247F0412006E7F01801B7F0320
:101A930012006E7F028012900145E0FF12006E90EB
:101AA3000145E0FFC374059FFF1245AB201E239041
:101AB30000DDE0B4010E90015AE04401F090015FB3
:101AC300E04470F090010CE0B4010790015EE04443
:101AD300F0F0300A0E900182E04403F0900187E0B9
:101AE3004444F0900109E0FD30E05490018AE04461
:101AF30002F0A3E04420F090018FE04418F0EDC31E
:101B030013547F1460101460162402701890018A15
:101B1300E04401F0805490018FE04440F0807A90DB
:101B2300018FE0801490018AE04401F090018FE07E
:101B33004404F04440F04402F04420F0021BC390FC
:101B4300014FE0FDF4607C90018FE04418F0ED70EC
:101B530022904A6993FB740193FA740293F9121663
:101B6300D0C4131313540130E05990018FE044049F
:101B7300F0805090014FE0FDB40223904A6FE4934C
:101B8300FB740193FA740293F91216D0C41313135E
:101B9300540130E02E90018FE04402F08025EDB433
:101BA3000421904A75E493FB740193FA740293F948
:101BB3001216D0C4131313540130E00790018FE0C1
:101BC3004401F0900149E0900191600C74FFF0E052
:0D1BD30054DFF0E054BFF022E04410F02297
:1046C10090010AE04408F0201E3690010CE09001B0
:1046D1000AB40106E04402F08004E054FDF09000C9
:1046E100DDE090010AB40106E04401F08004E054E9
:1046F100FEF090010AE0300C0454FBF0224404F077
:014701002295
:100B9D009001DDE0601914F0E070147E4B7F62D29D
:100BAD0004C2051244227B147D0F7F01124ADB9093
:100BBD0000E3E07003020CCA30072A9001BDE0B4D7
:100BCD0001219001DCE004F070069001DBE004F0FF
:100BDD00D39001DCE094589001DBE09402400FD2F9
:100BED001E800B8000C21EE49001DBF0A3F090018B
:100BFD0049E0600D14F0E07008D20E9001FE748093
:100C0D00F09001CFE004F09001B5E0FEA3E0FF907D
:100C1D0001D4E02FF09001D3E03EF09001CFE0C37E
:100C2D00943C5003020CCAE4F090010EE004F0E095
:100C3D00943C4008E4F090010DE004F09001D2E006
:100C4D0004F0E0C3943C4010E4F0900100E004F0A7
:100C5D0070069000FFE004F090010DE0701EA3E01F
:100C6D00FFD394035016EF940350529001D3E0FE3E
:100C7D00A3E0FF7C007DB412174A80329001D3E0CF
:100C8D00FEA3E0FF7C007D3C12174AD39001DFE00C
:100C9D009F9001DEE09E4016A3E09FFD9001DEE0F7
:100CAD009EFC900148E02DF0900147E03CF0900152
:100CBD00DEEEF0A3EFF0E49001D3F0A3F0200B03F0
:100CCD000210F39001D0E0FD640C705390019DF083
:100CDD0090019DE0FFC36480948B5032EF3395E01B
:100CED00FEEF25E0FFEE33FE74152FF58274013E05
:100CFD00F583E0FAA3E0FB74132FF58274013EF542
:100D0D0083EAF0A3EBF090019DE004F080C2900126
:100D1D00B5E0FFA3E0900129CFF0A3EFF0803C9068
:100D2D00019DEDF090019DE0FFC36480948C502BEC
:100D3D009001B5E0FCA3E0FDEF3395E0FEEF25E07B
:100D4D00FFEE33FE74132FF58274013EF583ECF044
:100D5D00A3EDF090019DE004F080C99001D0E00476
:100D6D00F0E0C3940C4003740CF09001D1E0FD64ED
:100D7D000C705390019DF090019DE0FFC364809431
:100D8D008B5032EF3395E0FEEF25E0FFEE33FE742E
:100D9D002F2FF58274013EF583E0FAA3E0FB742D4D
:100DAD002FF58274013EF583EAF0A3EBF090019DDF
:100DBD00E004F080C29001B5E0FFA3E0900143CFC5
:100DCD00F0A3EFF0803C90019DEDF090019DE0FFD0
:100DDD00C36480948C502B9001B5E0FCA3E0FDEF33
:100DED003395E0FEEF25E0FFEE33FE742D2FF582F7
:100DFD0074013EF583ECF0A3EDF090019DE004F05D
:100E0D0080C990010EE020E0069001D1E004F09041
:100E1D0001D1E0C3940C4003740CF0900109E03053
:100E2D00E050C313547FFF64037003020F51EF258D
:100E3D00E025E0247AF582E4344AF583E493FF90CB
:100E4D0000E9E0FEEF6E6003020F51900109E0C36F
:100E5D0013547F25E025E0247BF582E4344AF583A5
:100E6D00E493FF9000EAE0FEEF6E6003020F510283
:100E7D000F3D90014FE0FFF47003020F51EF04900E
:100E8D00019DF075F003A42466F582E4344AF583E0
:100E9D00E493FB740193FA740293F91216D0C41300
:100EAD001313540120E00690019D74FFF090019DF5
:100EBD00E0F4702190010DE064026003020F517E99
:100ECD004B7F62D204C2051244227B147D0F7F0139
:100EDD00124ADB806F90019DE0FF75F003A424663C
:100EED00F582E4344AF583E493FB740193FA7402BA
:100EFD0093F91216D0547FFE9000E9E06E7045EF25
:100F0D003395E0FE904A6675F003EF121901EE7508
:100F1D00F003A42583F583E493FB740193FA740223
:100F2D0093F99000011216E9FF9000EAE0B507145D
:100F3D007B147D0F7F01124ADB7E4B7F62D204C290
:100F4D0005124422300C03020FF990014BE0FCA373
:100F5D00E0FDA3E0FEA3E02401FFE43EFEE43DFD41
:100F6D00E43CFC90014B1218C4E47F307E75FDFC0F
:100F7D0090014BE0F8A3E0F9A3E0FAA3E0FBC31264
:100F8D0018B34035E4900107F0A3F07B307A75F982
:100F9D00F890014BE0FCA3E0FDA3E0FEA3E0FF12FF
:100FAD001813AC00AD01AE02AF03E4FBFAF9F8C3C0
:100FBD001218B37037D20A803390014BE0F8A3E0DA
:100FCD00F9A3E0FAA3E0FBC374309BFF74759AFE9E
:100FDD00E499FDE498FCE47B3CFAF9F8121813EF60
:100FED002401FFE43E900107F0A3EFF0900145E0EE
:100FFD0024FE604414606F14700302109E1470037D
:10100D000210C9240460030210F39001D6E004F02D
:10101D00E0C3943C50030210F3E4F09000ECE004C4
:10102D00F070069000EBE004F09000F6E004F07034
:10103D00349000F5E004F0229001D7E004F0E0C315
:10104D00943C50030210F3E4F09000EEE004F070D5
:10105D00069000EDE004F09000F8E004F0700690CA
:10106D0000F7E004F0229001D8E004F0E0C3943CD6
:10107D004074E4F09000F0E004F070069000EFE0B2
:10108D0004F09000FAE004F070069000F9E004F02E
:10109D00229001D9E004F0E0C3943C4049E4F09083
:1010AD0000F2E004F070069000F1E004F09000FC16
:1010BD00E004F070319000FBE004F0229001DAE0E2
:1010CD0004F0E0C3943C401EE4F09000F4E004F022
:1010DD0070069000F3E004F09000FEE004F070065E
:0610ED009000FDE004F09C
:0110F30022DA
:10419C00301E03024E96301E263013219001B9E0DA
:1041AC00D394025002802D9001B9E0D394035002B5
:1041BC0080289001B9E0D39404502B802380219067
:1041CC000145E024FE601314601614601914601C81
:1041DC002404701F7F587E0280167F847E0380101B
:1041EC007FB07E04800A7F407E0680047FFC7E08C0
:0441FC00124A8422BD
:10241F00900149E0700FC20E9001FE748DF0900193
:10242F0049743CF022900149743CF09001F8E0703F
:10243F0003A3E0F470147B147D0F7F01124ADB7E3F
:10244F004B7F62D204C2050244229001F8E06480FF
:10245F007004A3E0647F70199001DBF0A3F0C21E3B
:10246F00D2073013319001BDE0B40102D21E022514
:10247F005E9001F8E0B44021A3E0B4BF1CE49001EA
:10248F00DBF0A3F0C21E90014504F0C207E49000F8
:10249F00DDF090010CF002255E9001F8E0B4A01C75
:1024AF00A3E0B45F17E49001DBF0A3F0C21E90012C
:1024BF00457402F0C2079000DD14806A9001F8E0C5
:1024CF00B4601DA3E0B49F18E49001DBF0A3F0C249
:1024DF001E9001457403F0C2079000DD7401804621
:1024EF009001F8E0B4C01DA3E0B43F18E49001DB05
:1024FF00F0A3F0C21E9001457404F0C2079000DDF6
:10250F00740180229001F8E0B42027A3E0B4DF2209
:10251F00E49001DBF0A3F0C21E9001457405F0C2F8
:10252F00079000DD7401F090010CF07B147D0FFF1C
:10253F0080489001F8E0B4101EA3E0B4EF199000AA
:10254F00DDE070047F0180027F009000DDEFF07B03
:10255F00147D0F7F0180239001F8E0B4E01FA3E00A
:10256F00B41F1A90010CE070047F0180027F00906D
:0E257F00010CEFF07B147D0F7F01124ADB226E
:014F36002258
:103F190090010F7401F0C20EC21EE49001DDF09011
:103F290001DBF0A3F09001D0F0A3F09001FE748DB5
:103F3900F0900149743CF0124DAC200910900145F4
:103F49007403F090010C7401F09000DDF0E490012D
:103F5900CFF0900147F0A3F090010DF0A3F090018C
:103F6900D5E0FF9000E7E0FE6F60249001D5EEF008
:103F7900E49000F5F0A3F09000F7F0A3F09000F9B9
:103F8900F0A3F09000FBF0A3F09000FDF0A3F0E4A3
:0D3F99009001DEF0A3F09001D3F0A3F02220
:014F37002257
:10150B00EC4D6011E8497017ED33EC3304600DE4DA
:10151B00FCFFFEFD22E933E8330470F80216BB1220
:10152B00168658046009E4CC248150062850090221
:10153B0016C52840030216C2C0E0EB4A7044B980BE
:10154B0006D0E0FB0216B1EF4E701CBD8008EBFF1E
:10155B00EAFEE9FD80EBE98DF0A4FEE5F00215F45F
:10156B00E9CDF9EAFEEBFFEF89F0A4FCE5F0CE89BB
:10157B00F0A42EFFE435F0CD89F0A42DFEE435F078
:10158B008067EF4E7005BD80D780C3EF8BF0A4ACA6
:10159B00F0EE8BF0A42CFCE435F0F8EF8AF0A42CE1
:1015AB00E5F038FCE433CB8DF0A42CFCE5F03BF8F4
:1015BB00EE8AF0A42CFCE5F038F8E433CF89F0A4E4
:1015CB002CFCE5F038CF3400CE89F0A42FFFE5F0EA
:1015DB003EFEE433C98DF0A42EFEE5F039CD8AF042
:1015EB00A42FFFE5F03EFEE43DFD33D0E0FB5007BA
:1015FB000BBB000F0216C5EC2CFCEF33FFEE33FEDA
:06160B00ED33FD02169D07
:1016110075F020800E75F010800575F0087D007E54
:10162100007F003392D530D5031218A5EC3340105A
:10163100EF33FFEE33FEED33FDEC33FCD5F0ED225D
:0E164100E5F0247EA2D513CC92E7CDCEFF2299
:10164F00EDD2E7CD33EC3392D524814006E4FFFE93
:10165F00FDFC22FCE4CFCECDCC24E0501174FF80F2
:10166F00EDC3CC13CCCD13CDCE13CECF13CF04708F
:07167F00F030D5DE0218A5D2
:10168600E9D2E7C933E833F892D5EDD2E7CD33ECAA
:0716960033FC5002B2D52223
:10169D00EC30E7100FBF000C0EBE00080DBD0004AE
:1016AD000BEB6014A2D5EB13FCED92E7FD2274FF5A
:1016BD00FCFDFEFF22E480F8A2D574FF13FC7D80B3
:0316CD00E480EFC7
:103D7A00023640E493A3F8E493A34003F68001F2E9
:103D8A0008DFF48029E493A3F85407240CC8C3334A
:103D9A00C4540F4420C8834004F456800146F6DF19
:103DAA00E4800B0102040810204080904978E47EE8
:103DBA00019360BCA3FF543F30E509541FFEE4930E
:103DCA00A360010ECF54C025E060A840B8E493A3D5
:103DDA00FAE493A3F8E493A3C8C582C8CAC583CA00
:103DEA00F0A3C8C582C8CAC583CADFE9DEE780BEB8
:0149A4000012
:1016D000BB010689828A83E0225002E722BBFE0218
:0916E000E32289828A83E493224B
:1016E900BB010CE58229F582E5833AF583E02250B6
:1016F90006E92582F8E622BBFE06E92582F8E22200
:0D170900E58229F582E5833AF583E4932219
:10171600BB010689828A83F0225002F722BBFE01B2
:02172600F322AC
:10172800F8BB010DE58229F582E5833AF583E8F0F7
:10173800225006E92582C8F622BBFE05E92582C8A3
:02174800F2228B
:10174A00BC000BBE0029EF8DF084FFADF022E4CC83
:10175A00F875F008EF2FFFEE33FEEC33FCEE9DEC4C
:10176A00984005FCEE9DFE0FD5F0E9E4CEFD22ED92
:10177A00F8F5F0EE8420D21CFEADF075F008EF2FDC
:10178A00FFED33FD4007985006D5F0F222C398FDCD
:05179A000FD5F0EA226A
:10179F00BB0110E58229F582E5833AF583E0F5F088
:1017AF00A3E0225009E92582F886F008E622BBFE65
:1017BF000AE92582F8E2F5F008E222E5832AF583AB
:0817CF00E993F5F0A3E9932270
:1017D70075F008758200EF2FFFEE33FECD33CDCCC9
:1017E70033CCC58233C5829BED9AEC99E58298404C
:1017F7000CF582EE9BFEED9AFDEC99FC0FD5F0D629
:10180700E4CEFBE4CDFAE4CCF9A88222B800C1B952
:101817000059BA002DEC8BF084CFCECDFCE5F0CB90
:10182700F97818EF2FFFEE33FEED33FDEC33FCEBC9
:1018370033FB10D703994004EB99FB0FD8E5E4F984
:10184700FA227818EF2FFFEE33FEED33FDEC33FC71
:10185700C933C910D7059BE99A4007EC9BFCE99A65
:10186700F90FD8E0E4C9FAE4CCFB2275F010EF2FAA
:10187700FFEE33FEED33FDCC33CCC833C810D707AA
:101887009BEC9AE899400AED9BFDEC9AFCE899F8E5
:0E1897000FD5F0DAE4CDFBE4CCFAE4C8F92278
:0E18A500C3E49FFFE49EFEE49DFDE49CFC2254
:1018B300EB9FF5F0EA9E42F0E99D42F0E89C45F08B
:0118C3002202
:0C18C400ECF0A3EDF0A3EEF0A3EFF02297
:1018D000A8828583F0D083D0821218E71218E7120D
:1018E00018E71218E7E473E493A3C583C5F0C58332
:1018F000C8C582C8F0A3C583C5F0C583C8C582C862
:0119000022C4
:0C190100A42582F582E5F03583F58322F1
:06190D008A838982E47365
:00000001FF
