:03001B000239ABFC
:1039AB00C0E0C0F0C083C082C0D075D000C000C0E2
:0D39BB0001C002C003C004C005C006C00763
:1039C80090006A7404F090006CE0FBA3E0FAA3E0B6
:1039D800F9900034121191F582758300E5F5121102
:1039E800D09000341211912401FFE433FE7C007D55
:1039F800331211F2AF0590006CE0FBA3E0FAA3E0EC
:103A0800F9900034ED1211D0900034121191243342
:103A1800FFE433FE900033121191FDC3EF9DFFEEDA
:103A28009400FE7C007D331211F2AF05EFD3941F92
:043A38004002D21264
:103A3C00D007D006D005D004D003D002D001D000DE
:0B3A4C00D0D0D082D083D0F0D0E03288
:03002300023C3468
:103C3400C0E0C0F0C083C082C0D075D000C000C056
:103C440001C002C003C004C005C006C00790006FD5
:103C5400E0FBA3E0FAA3E0F9900033121191F5829E
:103C6400758300121191F5F590003312119124011E
:103C7400FFE433FE7C007D331211F2AF0590006F38
:103C8400E0FBA3E0FAA3E0F9900033ED1211D09029
:103C94000034121191FF900033121191B50705C23F
:103CA4001353EA3FD007D006D005D004D003D00286
:0F3CB400D001D000D0D0D082D083D0F0D0E03279
:03006B00024AB690
:104AB600C0E0C083C0829001D6E004F0D082D083EB
:034AC600D0E0320B
:0300A300023476AE
:10347600C0E0C083C082C0D075D000C004C005C003
:0334860006C00776
:103489009001D6E0FEADB37C00E42DFFEC3E900147
:10349900C7F0A3EFF043B2019001D6E4F09001C761
:1034A900E07002A3E07004C20E8011D39001C8E05D
:1034B900940A9001C7E094004002D20ED20FB20CD8
:1034C9009001D3E004F0E0C394024031E4F09000AD
:1034D900E2E004F0900147E004F0E0943C401EE48F
:1034E900F0D2049000E9E004F0E0943C400FE4F0ED
:1034F9009000E8E004F0E094184002E4F0438D20E5
:10350900E58830E124758703000000000000000011
:1035190053ABEF53A8F753A8EF9001D4E004F0E0C0
:10352900D3943C400CC202800843AB109001D4E410
:01353900F0A1
:10353A00D007D006D005D004D0D0D082D083D0E036
:01354A00324E
:0300B3000220AF79
:1020AF00C0E0C0F0C083C082C0D075D000C000C0F7
:0D20BF0001C002C003C004C005C006C00778
:1020CC00E59030E4097812E64402F6022183781296
:1020DC00E620E10302218354FDF64401F67809E67B
:1020EC00FF7025C3780BE6946518E6940050030244
:1020FC002183187601780C76007812E654DFF67896
:10210C000D7600087600806FEF6401704C780EE657
:10211C0025E0790EF718E63319F7C3780BE6940E21
:10212C0018E694004006780EE64401F6780A76002C
:10213C000876000806E6C39420403C08E6FF08E653
:10214C009001E3CFF0A3EFF0780976027812E64421
:10215C0010F64408F6D215801E7809E6B40218C3AE
:10216C00780BE6949218E69404400C1876007812DA
:10217C00E654F7F654FEF67812E6FF30E028780BBA
:10218C0006E618700106C3780BE6949218E69404E0
:10219C0040147600087600EF54FE7812F678097633
:1021AC000054F77812F6781106E6D394045006C260
:1021BC0093D29280127811E6D39408500AD293C22B
:1021CC0092E6B408027600E59030E11D780FE6FE49
:1021DC0008E6FF4E600A90019DEEF0A3EFF0D211DD
:1021EC00780F76000876008008781006E6187001E3
:1021FC0006780806E6C39432401B76009001D5742D
:10220C0001F0D20712379F90006AE06008E014F0EA
:10221C00E07002D212300B0B7808E6D3940840031E
:03222C0043981EB6
:10222F00D007D006D005D004D003D002D001D00003
:0B223F00D0D0D082D083D0F0D0E032AD
:03000000023B9A26
:103B9A0078FFE4F6D8FD90001B7FE57E03E4F0A3EE
:0A3BAA00DFFCDEFA758123023BEF19
:102FC8001246D2124ADB12455B124BE7124AED1247
:102FD8004AA29001E9748EF0D2A37E487F3DD207C1
:102FE800C20812413F7B0F7D0A7F011247D143A8D7
:102FF80080438D20124BCD7815E6D3941940147870
:1030080011E69406400D7F02124A237816A607E4BB
:103018007815F69001D5E060D8E4F030151CC2159B
:103028009001E5E0FEA3E0240FF582E43EF5837409
:103038000193FA740293F9121384781306080608A8
:10304800067813E624FE601714601914601B1460D8
:103058001D2404701C123619C20712379F801612DD
:1030680043A78011123851800C121D698007124045
:1030780099E47813F67814E6C3940F5003022FF9F5
:10308800E4F61245C3123CC3123AFA1236E590012F
:10309800E5E0FEA3E02409F582E43EF5837401939C
:1030A800FA740293F91213849000E2E06003E014CA
:0C30B800F0200403022FF9C204022FF9DB
:074BF700759CA0E4F59D226E
:0F4B1D00EF540FFFE59C54F04FF59C439C402252
:0D00A600758B66438B08538B7F43AB102294
:104AC900EF6007E5974401FF8005E59754FEFF8FE6
:024AD900972222
:074BFE00E4F597758F3E22DC
:084BDF00E4F59AF599F59B221B
:0D4B740075B28E75B4FF43AA0243B2012250
:1000030075BB2043BB3075BAC0E4F5BFF5BE75BD03
:080013000F75BC9F43BB802266
:104A0D0075EA0275E90643EAECE4F5EB75F36743E5
:064A1D00A80843A81022C6
:044C1200438D20228C
:094BC400758E88758DC0024C123B
:0D4B810075968875890175898143AB042202
:074C050075C829E4F58A22BD
:1041910075A1C375AC20E4F591F5DEF58075B1FC30
:1041A100F5ADF592F5DFF58875B9CD75AE10F593DE
:1041B100F59075C1FFF5AFF59875C9FF75A304F5C5
:1041C10094F5A075D1D1F595F5B0F5D375D252F529
:1041D100D575D4F3F5D775D603F5EEF5EF75FF2850
:0141E10022BB
:1046D20075D88353A87F124191124C05124BF712E1
:1046E20000A6124BFE124BDF124B74120003124A49
:0746F2000D124BC4024B81C5
:10493000E4FEEF30E004D2A28002C2A2D2A1EFC313
:0949400013FFC2A10EEEB408E958
:01494900224B
:0B41E2009001B5EBF0A3EAF0A3E9F0B8
:1041ED00C2A07F08124930D2A0C2A09001B9E0440C
:1041FD00C0FF124930E4FCECC39D501A9001B5E0AC
:10420D00FBA3E0FAA3E0F98C82758300121191FFF4
:10421D001249300C80E1D2A0C2A09001E9E0FF125A
:04422D004930D2A0A2
:01423100226A
:102899001F0C1B1E0C16171C1F1E80004040C0C0B9
:1028A900C000C0C01F0C1B1E0C16171C1F1E4000A9
:1028B90020206060600060603F18363C192D2F3879
:1028C9003F3D000080808080800080803F18363C3A
:1028D900192D2F383F3D0000404040404000404006
:1028E9007F3C737E3C4E4F7C7F7EE0009010707081
:1028F900F000F070070307070304040707077F6068
:102909001C7063737F607F7300008080808080000B
:1029190080803F1E393F1E27273E3F3F78006404D1
:102929001C1C7C007C1C010001010001010101014A
:10293900FFF0CEF8F1393FF0FFF940002020606048
:10294900600060601F0F1C1F0F13131F1F1F00F86B
:1029590000E4841C9CFC00FC9C040F070E0F070973
:10296900090F0F0F007E40396147677F407F67017C
:102979000301030301020203030300FF609CF0E368
:10298900737FE0FFF30000004040404040004040BA
:10299900401F0F1C1F0F13131F1F1F00F800E48493
:0729A9001C9CFC00FC9C04D7
:104A7A00E4FE744F2EF582E43401F583EFF00EEE76
:034A8A00B440EF46
:014A8D002206
:10471D0090014F74FFF0A3F0A3F0900153F0A3F0BC
:10472D00A3F0900157E044FEF0A374FFF0A3F02234
:1043170090014DE004F0E0C39F4004E4F0B20A903E
:104327000174E04401F0300A16900170E0440EF089
:1043370090016FE04438F0900174E04470F02290EF
:10434700016FE044C0F0A3E04401F090016FE04446
:0943570007F0900174E0440EF03F
:01436000223A
:10446E00EF14603214602814601E14601414600A75
:10447E0014702A90015FE04406F090015FE044085A
:10448E00F090015FE04410F090015FE04420F09066
:0E449E00015FE04440F090015FE04480F022B6
:10006E00EF14602814601E14601414600A147023B8
:10007E00900173E04404F0900173E04408F09001A5
:10008E0073E04410F0900173E04420F0900173E0AF
:04009E004440F022C8
:103F7E00EFD3946340027F63EF75F00A84FDEF7513
:103F8E00F00A84ACF0ED602490017CE0FFED902807
:103F9E009993FEEF4E90017CF090017BE0FFAE0511
:103FAE00EE9028A393FEEF4E90017BF090017BE004
:103FBE00FFEC9028AD93FEEF4E90017BF0900180C8
:0E3FCE00E0FFEC9028B793FEEF4E900180F0DC
:013FDC0022C2
:103FDD00EFD3946340027F63EF75F00A84FDEF75B4
:103FED00F00A84ACF0ED6024900178E0FFED9028AC
:103FFD00C193FEEF4E900178F0900177E0FFAE0592
:10400D00EE9028CB93FEEF4E900177F0900177E084
:10401D00FFEC9028D593FEEF4E900177F090017C48
:0E402D00E0FFEC9028DF93FEEF4E90017CF058
:01403B002262
:042CCA00AB07AA06A4
:102CCE00D3EB940FEA942740047A277B0F7C037D85
:102CDE00E8AF03AE021211F29001B9EFF07C007D65
:102CEE0064AF03AE021211F27C007D0A1211F2A340
:102CFE00EDF07C007D0AAF03AE021211F27C007D76
:102D0E000A1211F2A3EDF0AE02AF037C007D0A129F
:102D1E0011F2AB05900164E0FE9001B9E0FD902840
:102D2E00E993FCEE4C900164F0900163E0FFED90AE
:102D3E0028F393FEEF4EFF900163F09001BAE0FE90
:102D4E009028FD934F900163F0900168E0FFEE90A4
:102D5E00290793FEEF4E900168F0900167E0FF9017
:102D6E0001BAE090291193FEEF4EFF900167F090AB
:102D7E0001BBE0FE90291B934F900167F090016C10
:102D8E00E0FFEE90292593FEEF4EFF90016CF0EBE5
:102D9E0090292F934F90016CF090016BE0FFEB9018
:102DAE00293993FEEF4E90016BF0900170E0FFAE6B
:0D2DBE0003EE90294393FEEF4E900170F05C
:012DCB0022E5
:10354B00EF75F00A84F9EF75F00A84AEF0ED75F0C3
:10355B000A84FCED75F00A84ABF0EFD394184004A9
:10356B00790A7E0AEDD3943C40047C0A7B0A30082E
:10357B0003300C44900180E0FFE990294D93FDEF5F
:10358B004D900180F090017FE0FFE990295893FD69
:10359B00EF4D90017FF090015BE0FFEE902963937C
:1035AB00FDEF4D90015BF0900160E0FFEE90296E16
:1035BB0093FEEF4E900160F0300903300C4F9001F9
:1035CB0084E0FFEC90297993FEEF4E900184F0900C
:1035DB000183E0FFEC90298493FEEF4E900183F082
:1035EB00900188E0FFEC90298F93FEEF4EFF900146
:1035FB0088F0EB90299A934F900188F0900187E027
:0D360B00FFEB9029A593FEEF4E900187F094
:01361800228F
:042DCC00AB07AA06A1
:102DD0007C037DE81211F29001B9EFF07C007D6474
:102DE000AF03AE021211F27C007D0A1211F2A3EDC4
:102DF000F07C007D0AAF03AE021211F27C007D0A66
:102E00001211F2A3EDF07C007D0AAF03AE021211A5
:102E1000F2A905D3EB940FEA9427400B9001B97403
:102E20000AF0A3F0A3F0F9900180E0FE9001B9E070
:102E3000FD90294D93FCEE4C900180F090017FE0D5
:102E4000FFED90295893FEEF4E90017FF090015BCB
:102E5000E0FF9001BAE0FE90296393FDEF4D9001F1
:102E60005BF0900160E0FFEE90296E93FEEF4E90D4
:102E70000160F0900184E0FF9001BBE0FE902979B1
:102E800093FDEF4D900184F0900183E0FFEE9029D7
:102E90008493FEEF4E900183F0900188E0FF900153
:102EA000BBE090298F93FEEF4EFF900188F0E990F0
:102EB000299A934F900188F0900187E0FFE99029CB
:092EC000A593FEEF4E900187F08E
:012EC90022E6
:10379F0030070690014EE004F043C1E143B9C05336
:1037AF00981E53903F90014EE024FE602804704A0B
:1037BF0090018EE030E0055398EF8003439810900E
:1037CF00018EE030E1055398FD8003439802439842
:1037DF00204398012290018EE030E2055398EF804C
:1037EF000343981090018EE030E3055398FD80035A
:1037FF004398024398404390802290018EE030E43A
:10380F00055398FD800343980290018EE030E50543
:10381F005398FB800343980490018EE030E60553E4
:10382F0098F7800343980890018EE030E70553988E
:10383F00EF8003439810439880439040E490014EEB
:01384F00F088
:013850002255
:1045C300E4FF124A7AE490018EF09001E5E0FEA345
:1045D300E0F5828E83A3A3A3740193FA740293F983
:1045E3001213847B017A01794FE49001B9F07D3F86
:0345F3000241E2A0
:104ADB00C214E49001D7F09001DAF09001D8F0A362
:024AEB00F022B7
:1047D100EBD39D5003ED04FB9001D7EFF09001DA8C
:0B47E100EDF09001D8EBF0E4A3F02213
:1043A7009001D7E0603A9001D9E004F0A3E0FF90D4
:1043B70001D9E0FEC39F5009201403439701D2148B
:1043C700229001D8E0FFEEC39F50093014035397A2
:1043D700FEC214229001D7E014F0E49001D9F02234
:0343E700C21422DB
:1000B600ECECECECECECECECECECECECECECECEC7A
:1000C600ECECECECECECECECECECECECECECECED69
:1000D600EDEEEFEFF0F1F1F2F2F3F4F4F5F6F6F6F9
:1000E600EDEDF8F8F9F9FAFAFBFBFCFCFDFDFEFE76
:1000F600FFFF0000010101020203030404040505D9
:10010600060607070708080909090A0A0B0B0B0C5C
:100116000C0D0D0D0E0E0F0F0F10101111111212E6
:100126001313131414141515161616171718181872
:1001360019191A1A1B1B1B1C1C1D1D1D1E1E1F1FF9
:10014600202020212122222323242424252526267B
:100156002727282829292A2A2B2B2C2C2D01010276
:10016600020303040405060708090A0C0D0F111300
:1001760015171A1D2023272A2E33373C40454A4F90
:10018600555A5F656A70757B80868B90969BA0A595
:10019600A9AEB2B7BBBFC3C6CACD292F353B4249AC
:1001A60050575E656C727980878D93999FA5AAAF2B
:1001B600B4B8BDC1C5C8CCCFD2D4D7D9DCDEE0E156
:1001C600E3E4E6E7E8E9EAEBECEDEEEEEFF0F0F17A
:1001D600F2F2F3F3F4F4F501020202030304050557
:1001E6000607080A0B0D0E10121417191C1F2226DB
:1001F6002A2D32363B3F44494F54595F646A707525
:100206007B81868B91969BA0A5AAAEB3B7BBBFC3D5
:10021600C7CACDD001020202030404050607080975
:100226000A0C0D0F111316181B1E2125292D30350A
:100236003A3E43484E53585E64696F757A80868BA2
:1002460090969BA0A5AAAEB3B7BBBFC3C7CACDD075
:10025600D302020203030405050607080A0B0D0E66
:10026600101215171A1D2023272B2F33383D42470E
:100276004C52575D62686E74797F858A90959A9F15
:10028600A4A9AEB2B7BBBFC3C6CACDD0D3D60202ED
:100296000203030405060708090A0C0D0F111416BC
:1002A600191B1F22262A2E32363B40454A50555BE3
:1002B60061666C72787E84898F94999FA4A8ADB28A
:1002C600B6BABEC2C6C9CDD0D3D6D802020303047D
:1002D60004050607080A0B0D0E101215171A1D2025
:1002E60024282C30353A3E43494E53595F656A708F
:1002F600767C82888D93989EA3A8ACB1B5BABEC20F
:10030600C5C9CCCFD2D5D8DA020203030405060745
:1003160008090A0C0E10121416191C1F23272B2F5E
:1003260034383D42484D52585E64696F757B81870B
:100336008D92989DA2A7ACB1B5B9BDC1C5C9CCCFA8
:10034600D2D5D7DADC0203030404050607080A0B34
:100356000D0F111316181B1E2225292E32373C416C
:10036600464C51575D62686E747A80868C91979C74
:10037600A2A6ABB0B5B9BDC1C5C8CCCFD2D5D7DA68
:10038600DCDE0203030405060708090B0C0E101237
:1003960015171A1D2124282C31363B40454B505643
:1003A6005C61676D73797F858A90969CA1A6ABAFD9
:1003B600B4B8BDC0C4C8CBCED1D4D7D9DCDEE00337
:1003C600030405050607090A0B0D0F111416191C5F
:1003D6002023272B3034393E44494F545A60666CEB
:1003E60072787E84898F959AA0A5ABAFB3B8BCC04E
:1003F600C4C7CBCED1D4D6D9DBDEE0E203030405F5
:10040600060708090B0C0E101315181B1E22262AA8
:100416002E33383D42484E53595F656B71777D8266
:10042600898E94999FA5A9AFB3B7BCC0C4C7CBCEDC
:10043600D1D4D6D9DBDDDFE1E303040505060809DF
:100446000A0C0D0F1214171A1D2124282D31363BC4
:1004560041464C52585E646A70767C81878D9298CC
:100466009DA3A8ADB2B6BABFC2C6C9CDD0D3D6D8A1
:10047600DADDDFE1E3E40404050607080A0B0D0FE5
:10048600111316181C1F23272B3034393E444A50AB
:10049600565C62686E757A80868B91979CA1A6AC35
:1004A600B0B6B9BEC1C5C9CCCFD2D5D7DADCDEE08D
:1004B600E2E4E60405060708090A0C0E10121517F1
:1004C6001A1E2125292E32373D42484E545B61675C
:1004D6006D73797F858A90969BA0A5AAAFB4B9BCA7
:1004E600C1C4C8CBCED1D4D7D9DCDEE0E2E4E5E79F
:1004F60004050607090A0C0D0F111416191C2024F1
:10050600282C31363B40464C53595F666C72787ED8
:1005160084898F949A9FA4A9AEB3B7BCC0C3C7CA37
:10052600CDD0D3D6D8DBDDDFE1E3E5E6E805060787
:1005360008090B0D0F111315181B1F22262A2F341D
:10054600393E444A51575E646B71777E83898E9437
:10055600999EA3A8ADB2B6BABFC3C6CACDD0D2D5EE
:10056600D8DADDDFE1E3E4E6E8E9050608090A0C86
:100576000E101214171A1D2125292D32373C424818
:100586004E555B62686F757C82888D92989DA2A796
:10059600ACB0B5B9BDC1C5C9CCCFD2D4D7D9DCDED4
:1005A600E0E2E4E6E7E8EA0607080A0B0D0F111495
:1005B60016191C2024282C31353B40464C52595FD5
:1005C600666D737A80868C92979CA1A6ABAFB4B801
:1005D600BCC0C4C8CBCED1D4D6D9DBDDE0E1E3E5DF
:1005E600E7E8E9EB0608090B0C0E101315181B1F9C
:1005F60022272B2F34393E444A50565D646A71785F
:100606007E848B90969BA0A5AAAEB3B7BBBFC3C78B
:10061600CACED0D3D6D8DADDDFE1E3E5E6E8E9EA0B
:10062600EB07080A0C0E101215171B1E22262A2F7E
:1006360033383D43484E545B61686F757C83898FC0
:10064600959A9FA4A9AEB2B6BABEC2C6C9CDD0D33A
:10065600D5D8DADCDEE0E2E4E6E7E9EAEBEC080925
:100666000B0D0F1114171A1D2125292E33373C4166
:10067600474D53595F666D737A81888E94999FA40E
:10068600A8ADB2B6BABEC1C5C9CCCFD2D5D7DADC11
:10069600DEE0E2E4E5E7E8EAEBECED090A0C0E1031
:1006A6001316191C1F23272C31363A40454B515738
:1006B6005D646A71787E858C92989DA3A7ACB1B56E
:1006C600B9BDC0C4C7CBCED1D4D6D9DBDDDFE1E31B
:1006D600E5E6E8E9EAEBEDED090B0D0F1214171B41
:1006E6001E22262A2F34393E44494F555B62686FD5
:1006F600767C838990969CA1A6ABB0B4B8BCC0C3E7
:10070600C7CACDD0D3D6D8DADDDFE0E2E4E6E7E942
:10071600EAEBECEDEE0A0C0E1113161A1D21252933
:100726002D32373D42484D535A60666D747A818842
:100736008E949AA0A5AAAFB3B7BBBFC3C6C9CCCF88
:10074600D2D5D7DADCDEE0E2E3E5E7E8E9EAECED8C
:10075600EEEF0B0D101215191C2024282C31363BF8
:1007660041464C52585E656B72797F868C93999F91
:10077600A4A9AEB2B7BBBEC2C5C9CCCFD2D4D7D955
:10078600DBDDDFE1E3E4E6E7E9EAEBECEDEEEF0DD6
:100796000F1214181B1F23272B30353A40454B5197
:1007A600575D636A70777E858B92989EA3A8ADB2DB
:1007B600B6BABEC2C5C8CBCED1D4D6D9DBDDDFE151
:1007C600E2E4E6E7E8EAEBECEDEEEFF00E101316E6
:1007D600191D21252A2E33383E43494F555B616842
:1007E6006E757C82898F969CA1A7ACB1B5B9BDC147
:1007F600C4C8CBCED0D3D6D8DADCDEE0E2E4E5E777
:10080600E8E9EAEBECEDEEEFF00F1114181B1F23ED
:10081600282D32373C42474D53595F666C737980B9
:10082600878D949AA0A5ABB0B4B9BDC0C4C7CACDD4
:10083600D0D3D5D8DADCDEE0E1E3E5E6E7E9EAEBBA
:10084600ECEDEEEFF0F01013161A1D22262B3035C4
:100856003B40464C52585E646B71787E858B92980D
:100866009EA4A9AEB3B8BCC0C3C7CACDD0D2D5D793
:10087600D9DCDEDFE1E3E4E6E7E8EAEBECEDEEEF18
:10088600EFF0F11215181C2025292E34393F454B5F
:1008960050565C636970767D838A90979DA2A8AD59
:1008A600B2B7BBBFC3C6CACCCFD2D5D7D9DBDDDF83
:1008B600E1E3E4E5E7E8E9EAEBECEDEEEFF0F1F190
:1008C60013171A1E23282D32383E444A50565C62AE
:1008D600686E757C82888F959BA1A7ACB1B6BBBFAD
:1008E600C3C6C9CCCFD2D5D7D9DBDDDFE1E2E4E59B
:1008F600E7E8E9EAEBECEDEEEFF0F0F1F215181CA3
:1009060021252A30353B41474D545960666C727932
:1009160080868D93999FA5AAAFB4B9BDC1C5C8CB32
:10092600CED1D4D6D9DBDDDFE0E2E3E5E6E7E9EADE
:10093600EBECEDEEEEEFF0F1F1F2161A1E23282D98
:1009460033393F454B51585D646A70777D848A918F
:10095600979DA3A8AEB2B7BCC0C4C7CBCDD0D3D6E3
:10096600D8DADCDEE0E2E3E4E6E7E8E9EAEBECED40
:10097600EEEFF0F0F1F2F2181C21262A30373D4353
:10098600494F565C62686E757B82888F959BA1A6DF
:10099600ACB1B6BABEC2C6C9CDCFD2D5D7DADCDEC7
:1009A600DFE1E3E4E5E7E8E9EAEBECEDEEEFEFF0B3
:1009B600F1F2F2F31A1F24292D343A41474D535AC6
:1009C60061666D737A80878D93999FA5AAAFB4B936
:1009D600BDC1C5C9CCCFD2D4D7D9DBDDDFE1E2E4D6
:1009E600E5E6E8E9EAEBECEDEEEEEFF0F1F1F2F335
:1009F600F31D22272C31383F454B51585F656B72EA
:100A0600787F858C91989EA4A9AEB3B8BCC0C4C8A3
:100A1600CBCED1D4D6D9DBDDDFE0E2E4E5E6E7E90B
:100A2600EAEBECEDEEEEEFF0F0F1F2F2F3F31F2469
:100A3600292F343B42484F555B62696F757C82892A
:100A46008F959BA1A7ACB1B6BABFC2C6CACDD0D34B
:100A5600D5D8DADCDEE0E1E3E4E6E7E8E9EAEBEC68
:100A6600EDEEEFEFF0F1F1F2F3F3F421262C31374E
:100A76003E454C52585F666D737980868D93999F7B
:100A8600A5AAAFB4B8BDC1C5C8CCCFD2D4D7D9DB1F
:100A9600DDDFE1E3E4E5E7E8E9EAEBECEDEEEEEFD6
:100AA600F0F1F1F2F2F3F3F423292E343A41484FF0
:100AB600565C636A71777E848B91979DA2A8ADB2CE
:100AC600B7BBBFC3C7CACED1D4D6D8DBDDDFE0E221
:100AD600E4E5E6E7E9EAEBECECEDEEEFF0F0F1F257
:100AE600F2F3F3F4F4262C31383E454C5359606743
:100AF6006E757B82888F959BA1A6ABB0B5BABEC238
:100B0600C6C9CDD0D3D5D8DADCDEE0E2E3E5E6E748
:100B1600E8E9EAEBECEDEEEFEFF0F1F1F2F2F3F3E8
:100B2600F4F4FF01DDFF021AFF0257FF0294FF02F1
:100B3600D1FF030EFF034BFF0388FF03C5FF04022B
:100B4600FF043FFF047CFF04B9FF04F6FF0533FFF3
:100B56000570FF05ADFF05EAFF0627FF0664FF06E1
:100B6600A1FF06DEFF071BFF0758FF0795FF07D209
:100B7600FF080FFF084CFF0889FF08C6FF0903FF9F
:100B86000940FF097DFF09BAFF09F7FF0A34FF0A8A
:070B960071FF0AAEFF0AEB3C
:1046F9004201A400004101A6004101A7FF4101A810
:0E470900004201A900004101AB004101AC00DB
:104A2300EF540FFFE59C54F04FF59C439C40E59CED
:064A330030E4FBAF9F22FE
:104A8E00EFD394AC40057818762D22EF9000B693B4
:044A9E007818F6226C
:103CC3007F01124A239001A6E0FEEFD39E4002EF4C
:103CD300F09001A7E0FEEFC39E5002EFF09001A524
:103CE300E02FF09001A4E03400F09001A8E004F08C
:103CF300E0C3940A40529001A6E0FF9001A5E09F23
:103D0300FF9001A4E09400FE9001A7E0FDC3EF9DA6
:103D1300FFEE94009001A4F0A3EFF09001A4E0FE65
:103D2300A3E07803CEC313CE13D8F9FF9001A4EE1A
:103D3300F0A3EFF0124A8EE49001A8F09001A4F0F2
:083D4300A3F0A3F0A374FFF04C
:013D4B002255
:053E44009001B6E0FF53
:103E4900EDB405109001B974FFF0A37401F0A374E7
:103E590063F08037EDB42D109001B974FFF0A374AD
:103E690001F0A374A0F08023ED75F003A42416F5E6
:103E790082E4340BF583E493F9740193FA740293A1
:103E89009001B9C9F0A3EAF0A3E9F0E4FE9001B901
:103E9900E0FBA3E0FAA3E0F98E8275830012119189
:0F3EA900FDEFC39D40050EEEB43CE2EE241EFF7C
:013EB80022E7
:052ECA009001B6EFF0DD
:102ECF007818E6FCD3648094855007E0FF7D0502F7
:102EDF002FC0C3EC648094AD400A9001B6E0FF7D33
:102EEF002D022FC0C37818E66480948650557D0656
:102EFF00123E449001B7EFF07D05123E449001B8A9
:102F0F00EFF09001B7E0FDC3EF9DFDE49400FCE40A
:102F1F001210BEC004C005C006C0077818E6FF3304
:102F2F0095E0FEC374069FFDE49EFC1210BED00315
:102F3F00D002D001D000120FB31210F79001B7E0FA
:102F4F002F8066D37818E6648094AC9001B6E0FFCA
:102F5F00405B7D2C123E499001B7EFF09001B6E037
:102F6F00FF7D2D123E499001B8EFF09001B7E0C3FD
:102F7F009FFDE49400FCE41210BEC004C005C0061F
:102F8F00C0077818E6FF3395E0FEEF24D4FDEE344A
:102F9F00FFFC1210BED003D002D001D000120FB32D
:102FAF001210F79001B7E0C39F7817F6227818E652
:082FBF00FD123E497817A60738
:012FC70022E7
:103AFA007816E6FF9001AAE02FF09001A9E03400C1
:103B0A00F09001ABE004F0E0C394085003023B9943
:103B1A009001A9E0FEA3E07803CEC313CE13D8F92F
:103B2A00F0EE9001A9F09001ACE004F0E0C3940833
:103B3A004004E4F0D2169001A9A3E0FD9001ACE0A4
:103B4A0024ADF582E43401F583EDF0301629E4FF63
:103B5A00FEFC74AD2CF582E43401F583E02FFFE41A
:103B6A003EFE0CECB408EBEF7803CEC313CE13D8A9
:103B7A00F99001B5F080059001B5EDF09001B5E03E
:0F3B8A00FF122ECAE49001ABF09001A9F0A3F056
:013B99002209
:104AED007F01124A23124A8E7F02124A23022ECAD6
:104AA2009001A17407F0A37453F0C210E490019B2B
:044AB200F0A3F0225B
:1042810090019BE0FCA3E0FDD39432EC9400500438
:104291007F018036D3ED9464EC940050047F02805A
:1042A10029D3ED9496EC940050047F03801CD3ED48
:1042B10094C8EC940050047F04800FD3ED942CEC4F
:0A42C100940150047F0580027F067F
:0142CB0022D0
:103851009001A1E07002A3E060259001A2E024FFA5
:10386100F09001A1E034FFF0E07002A3E0701212C9
:1038710042819001A3EFF090019FF0A3F08002D26A
:1038810010301178900193E0FFA3E0A3CFF0A3EFF4
:10389100F0900191E0FFA3E0A3CFF0A3EFF090013E
:1038A1008FE0FFA3E0A3CFF0A3EFF090019DE0FF35
:1038B100A3E090018FCFF0A3EFF0C211E490019B40
:1038C100F0A3F0FFEF25E0248FF582E43401F583C6
:1038D100E0FCA3E0FD90019CE02DF090019BE03C19
:1038E100F00FEFB404DE90019BE0FEA3E07805CE7B
:0C38F100C313CE13D8F9F0EE90019BF049
:0138FD0022A8
:1036E50020100BE4900197F0A3F0A302379B124240
:1036F500819001A0E0FEEFD39E400EE4900199F089
:10370500A3F09001A3EFF08038EFC39E50399001EC
:103715009AE004F07006900199E004F0D390019AC4
:10372500E09468900199E0648094804021E4F0A3DE
:10373500F09001A3E0D394014003E014F09001A3BD
:10374500E09001A0F08007E4900199F0A3F09001CA
:103755009FE0FF9001A3E0FED39F401AE4900198FB
:10376500F0900197E004F0E0D39468402CE4F090E9
:10377500019FE004F022EEC39F5017E4900197F0FB
:10378500A3E004F0E094D04010E4F090019FE01431
:09379500F022E4900197F0A3F08A
:01379E002208
:0A4BA600C20DE49001CBF0A3F02251
:10477A00D20DEF7802C333CE33CED8F9FF7C007D59
:0D478A00781211F29001CBEEF0A3EFF022B7
:101D69009001E5E0FEA3E0240CF582E43EF58374DE
:101D79000193FA740293F9121384300D0B9001CB7D
:101D8900E0FAA3E0FB4A700CE4F5BFF5BE9001C987
:101D9900F0A3F022200E289001CAE02414F090014B
:101DA900C9E03400F0D3A3E094209001C9E0940382
:101DB9005003021EF17403F0A37420F0021EF120F7
:101DC9000F03021EF19001C5E0FEA3E0FFC39001DD
:101DD900C8E09F9001C7E09E400BA3E09FFF9001E0
:101DE900C7E09E80149001C7E0FEA3E0FFC3900105
:101DF900C6E09FFF9001C5E09E9001B7F0A3EFF008
:101E0900C39001C8E09B9001C7E09A406A9001CB5A
:101E1900E0FEA3E0FF9001C8E09FFF9001C7E09EAC
:101E29009001B5F0A3EFF0E0C4F8540FC868FF9033
:101E390001B5E0C454F048FE9001B8E02401FD90DA
:101E490001B7E03400FC1211F29001B9EEF0A3EFF2
:101E5900F0D39001CAE09F9001C9E09E5003021E91
:101E6900EF9001B9E0FEA3E0FF9001CAE09FF09076
:101E790001C9E09EF0806F9001C7E0FEA3E0FFC3B7
:101E89009001CCE09FFF9001CBE09E9001B5F0A3BB
:101E9900EFF0E0C4F8540FC868FF9001B5E0C454EE
:101EA900F048FE9001B8E02401FD9001B7E034004C
:101EB900FC1211F29001B9EEF0A3EFF0C374A09FE8
:101EC900FF740F9EFEC39001CAE09F9001C9E09E76
:101ED90050149001B9E0FEA3E0FF9001CAE02FF091
:101EE9009001C9E03EF0C20F9001C9E0FCA3E0FDFA
:101EF900ECF5BF8DBE9001C7E0FFA3E09001C5CF0F
:041F0900F0A3EFF062
:011F0D0022B1
:10475C000100FE0100DA0101000100DD010102018E
:0E476C0000E0071E121E111E161E0900161E6A
:1031BE009001B97405F0A374A0F090010D74FFF0A6
:1031CE00E49001BBF09001BBE0FFC3940640030204
:1031DE0032ABEF75F003A4245CF582E43447F5833B
:1031EE00E493FB740193FA740293F912117820E0C0
:1031FE00030232A19001BBE075F003A4245CF582BA
:10320E00E43447F583E493FB740193FA740293F963
:10321E00900001121191FD7C00EF75F003A4245C67
:10322E00F582E43447F583E493FB740193FA740258
:10323E0093F9121178C313547F75F03CA42DFEEC54
:10324E0035F09001BCF0A3CEF09000E8E075F03CB4
:10325E00A4FFA3E02FFFEC35F0FE9001BCE0FCA331
:10326E00E0FDD39FEC9E402BED9FFDEC9EFCD3909A
:10327E0001BAE09D9001B9E09C40189001BDE09F1D
:10328E00FF9001BCE09E9001B9F0A3EFF0A3E09097
:0D329E00010DF09001BBE02402F00231D3DD
:0132AB002200
:10409900E4900107F09001E5E0FEA3E02406F58233
:1040A900E43EF583740193FA740293F91213849030
:1040B9000107E030E004D28C8002C28C900107E055
:1040C90030E104D28E8002C28E900107E030E20412
:1040D900D28D8002C28D900107E030E303D2A32282
:0340E900C2A3224D
:1040EC0043981E000000004398E14390C053C11E4A
:1040FC0053B93F00000000E4FFE59820E5010FE50F
:10410C009820E604EF4402FFE59820E704EF44040E
:10411C00FFE59820E004EF4408FFE59020E704EF6A
:10412C004410FFE59020E604EF4420FF43C1E14337
:02413C00B9C008
:01413E00225E
:103619001240EC9001B5EFF09001DDE06F603A9057
:1036290001B5E0702B9001DBE0FFD394054021EF59
:103639009496501C9001DE7402F09001E5E0FEA31F
:10364900E0F5828E83740193FA740293F91213845C
:103659009001B5E09001DDF0229001DDE070099064
:1036690001DBF0A3F0D21722E49001DEF09001DB38
:10367900E004F0A3E004F0E0D3943C401F742DF083
:103689009001DE7404F09001E5E0FEA3E0F5828E7E
:1036990083740193FA740293F91213849001DBE0A5
:1036A900FFB405089001DE7401F08019EFB4F80841
:1036B9009001DE7403F0800DEFD394FA401D900160
:1036C900DB74FAF0229001E5E0FEA3E0F5828E8337
:0B36D900740193FA740293F912138439
:0136E40022C3
:0E4B4A00900034E41211D0900033E40211D038
:104A6500900034121191FF900033121191B5070394
:054A7500D38001C32203
:104522009001C2EBF0A3EAF0A3E9F09001C2E0FB34
:10453200A3E0FAA3E0F99000341211912401FFE400
:1045420033FE7C007D331211F2AF0590003312115D
:0945520091B50503D38001C322D9
:10494A009000341211912433FF900033121191FE1A
:0A495A00C3EF9E75F03384AFF02226
:103F1D009001C1EDF09001BEEBF0A3EAF0A3E9F042
:103F2D0012452240469001C1E0FF9001BEE0FBA387
:103F3D00E0FAA3E0F9900034121191F58275830037
:103F4D00EF1211D09000341211912401FFE433FED1
:103F5D007C007D331211F2AF059001BEE0FBA3E0B2
:103F6D00FAA3E0F9900034ED1211D09001C1E0FFF9
:013F7D002221
:0B403C009001BEEBF0A3EAF0A3E9F056
:10404700E4A3F0124A6540449001BEE0FBA3E0FA06
:10405700A3E0F9900033121191F5827583001211D4
:10406700919001C1F09000331211912401FFE433C4
:10407700FE7C007D331211F2AF059001BEE0FBA379
:10408700E0FAA3E0F9900033ED1211D09001C1E0FE
:01409700FF29
:014098002205
:1042CC000101FF001E0201FF467C0301FF43610454
:1042DC0001FF4A390501FF4A4F0601FF47970701C5
:1042EC00FF47B4080CFF3DCA0901FF23B80A01FFC0
:1042FC0038FE0B06FF43EA0C01FF47EC0D01FF4BA8
:0B430C0058F701FF1BBEFF06FF4964CD
:050B9D009001B9EFF02A
:100BA200E4A3F090006FE0FBA3E0FAA3E0F97DF28A
:100BB200123F1D90006FE0FBA3E0FAA3E0F97DF283
:100BC200123F1D90006FE0FBA3E0FAA3E0F9900151
:100BD200B9E0FD123F1D9001BAE02FF090006FE0E6
:100BE200FBA3E0FAA3E0F97D25123F1D9001BAE0D4
:100BF2002FF090006FE0FBA3E0FAA3E0F990010C64
:100C0200E0FD123F1D9001BAE02FF090006FE0FB73
:100C1200A3E0FAA3E0F990019BE0FD123F1D9001D1
:100C2200BAE02FF090006FE0FBA3E0FAA3E0F990A6
:100C3200019BA3E0FD123F1D9001BAE02FF090004E
:100C42006FE0FBA3E0FAA3E0F9900144E0FD123F5C
:100C52001D9001BAE02FF090006FE0FBA3E0FAA331
:100C6200E0F9900144A3E0FD123F1D9001BAE02F8C
:100C7200F090006FE0FBA3E0FAA3E0F990010AE034
:100C8200FD123F1D9001BAE02FF090006FE0FBA330
:100C9200E0FAA3E0F990010BE0FD123F1D9001BACA
:100CA200E02FF090006FE0FBA3E0FAA3E0F99001DF
:100CB20004E0FD123F1D9001BAE02FF090006FE0BA
:100CC200FBA3E0FAA3E0F9900104A3E0FD123F1DAB
:100CD2009001BAE02FF090006FE0FBA3E0FAA3E0EE
:100CE200F97818E6FD123F1D9001BAE02FF090004E
:100CF2006FE0FBA3E0FAA3E0F97817E6FD123F1DCF
:100D02009001BAE02FF090006FE0FBA3E0FAA3E0BD
:100D1200F9300003E48004900142E0FD123F1D908F
:100D220001BAE02FF090006FE0FBA3E0FAA3E0F934
:100D3200900108E0B401047D0180027D00123F1D94
:100D42009001BAE02FF090006FE0FBA3E0FAA3E07D
:100D5200F99000DFE0B402047D0180027D00123FC1
:100D62001D9001BAE02FF090006FE0FBA3E0FAA320
:100D7200E0F9900109E0FD123F1D9001BAE02FF069
:100D820090006FE0FBA3E0FAA3E0F99000DCE0FD45
:100D9200123F1D9001BAE02FF090006FE0FBA3E03C
:100DA200FAA3E0F99000FEE0FD123F1D9001BAE0C7
:100DB2002FF090006FE0FBA3E0FAA3E0F99000FFB0
:100DC200E0FD123F1D9001BAE02FF090006FE0FBB2
:100DD200A3E0FAA3E0F99000DAE0FD123F1D9001D2
:100DE200BAE02FF090006FE0FBA3E0FAA3E0F990E5
:100DF20000DBE0FD123F1D9001BAE02FF090006F82
:100E0200E0FBA3E0FAA3E0F9900100E0FD123F1D30
:100E12009001BAE02FF090006FE0FBA3E0FAA3E0AC
:100E2200F9900101E0FD123F1D9001BAE02FF09010
:100E3200006FE0FBA3E0FAA3E0F99000DDE0FD1211
:100E42003F1D9001BAE02FF090006FE0FBA3E0FAA3
:100E5200A3E0F99000DEE0FD123F1D9001BAE02F01
:100E6200F090006FE0FBA3E0FAA3E0F9900102E04A
:100E7200FD123F1D9001BAE02FF090006FE0FBA33E
:100E8200E0FAA3E0F9900103E0FD123F1D9001BAE0
:100E9200E02FF090006FE0FBA3E0FAA3E0F99000EE
:100EA200E0E0FD123F1D9001BAE02FF090006FE0EC
:100EB200FBA3E0FAA3E0F99000E1E0FD123F1D90F0
:100EC20001BAE02FF090006FE0FBA3E0FAA3E0F993
:100ED200E4FD123F1D9001BAE02FF090006FE0FB9D
:100EE200A3E0FAA3E0F9E4FD123F1D9001BAE02F5E
:100EF200F090006FE0FBA3E0FAA3E0F9E4FD123FFB
:100F02001D9001BAE02FF090006FE0FBA3E0FAA37E
:100F1200E0F9E4FD123F1D9001BAE02FF090006F5E
:100F2200E0FBA3E0FAA3E0F9E4FD123F1D9001BA51
:100F3200E02FF090006FE0FBA3E0FAA3E0F9E4FDFC
:100F4200123F1D9001BAE02FF090006FE0FBA3E08A
:100F5200FAA3E0F9E4FD123F1D9001BAE02FF090F0
:100F6200006FE0FBA3E0FAA3E0F9E4FD123F1D905D
:100F720001BAE02FF090006FE0FBA3E0FAA3E0F9E2
:100F8200E4FD123F1D9001BAE02FF090006FE0FBEC
:100F9200A3E0FAA3E0F99001BAE0FD123F1D900030
:100FA2006FE0FBA3E0FAA3E0F97D7E123F1D020091
:010FB2002618
:01006A002273
:05001E007F01020B9DB3
:10467C00900074E0FF90010CF0BF01067E497F159D
:10468C0080047E487F58D207C20812413F7B0F7DC1
:0B469C000A7F011247D17F02020B9D34
:1043610090010CE064017039900074E0FF7004D298
:10437100008007C200900142EFF0900142E0FFB4DB
:104381000106E49000DC800BEFD39401400A900019
:10439100DC7401F0900109F07B0F7D0A7F01124767
:0643A100D17F03020B9D19
:104A3900900074E0900108F07B0F7D0A7F01124716
:064A4900D17F04020B9D69
:104A4F00900074E09000DFF07B0F7D0A7F0112472A
:064A5F00D17F05020B9D52
:1047970090010CE0B40111900074E0900109F07BE6
:0D47A7000F7D0A7F011247D17F06020B9D96
:1047B40090010CE0B40111900074E09000DCF07BF7
:0D47C4000F7D0A7F011247D17F07020B9D78
:103DCA00900074E09000FEF0900075E09000FFF023
:103DDA00900076E09000DAF0900077E09000DBF057
:103DEA00900078E0900100F0900079E0900101F0F5
:103DFA0090007AE09000DDF090007BE09000DEF029
:103E0A0090007CE0900102F090007DE0900103F0C8
:103E1A0090007EE09000E0F090007FE09000E1F0FA
:103E2A00D201900106E054FEF01231BE7B0F7D0AEA
:0A3E3A007F011247D17F08020B9DA3
:1023B800900074E09001BBB4010D7401F0A37401A6
:1023C800F0A3740EF0800B7401F0A37401F0A374F1
:1023D80028F090006FE0FBA3E0FAA3E0F97DF21289
:1023E8003F1D90006FE0FBA3E0FAA3E0F97DF21235
:1023F8003F1D90006FE0FBA3E0FAA3E0F97D09120E
:102408003F1D9001B9EFF090006FE0FBA3E0FAA345
:10241800E0F97D1A123F1D9001B9E02FF09001BB41
:10242800E0FBA3E0FAA3E0F9121178FD90006FE059
:10243800FBA3E0FAA3E0F9123F1D9001B9E02FF0E9
:102448009001BBE0FBA3E0FAA3E0F99000011211B0
:1024580091FD90006FE0FBA3E0FAA3E0F9123F1DA5
:102468009001B9E02FF0E4A3F09001BAE0FFC39423
:102478000C506DA3E0FBA3E0FAA3E02402F9E43AD0
:10248800FA75F002EFA4F58285F083121247E5F0A1
:10249800FD90006FE0FBA3E0FAA3E0F9123F1D9066
:1024A80001B9E02FF09001BBE0FBA3E0FAA3E02420
:1024B80002F9E43AFA9001BAE075F002A4F58285CF
:1024C800F083121247FD90006FE0FBA3E0FAA3E04F
:1024D800F9123F1D9001B9E02FF0A3E004F08089C4
:1024E80090006FE0FBA3E0FAA3E0F99001B9E0FDEA
:1024F800123F1D90006FE0FBA3E0FAA3E0F97D7E98
:0F250800123F1D7B0F7D0A7F011247D102002673
:1038FE0090006FE0FBA3E0FAA3E0F97DF2123F1D0A
:10390E0090006FE0FBA3E0FAA3E0F97DF2123F1DF9
:10391E0090006FE0FBA3E0FAA3E0F97D0A123F1DD1
:10392E009001B9EFF090006FE0FBA3E0FAA3E0F98D
:10393E007D14123F1D9001B9E02FF0E4A3F0900129
:10394E00BAE0FFC39414502690006FE0FBA3E0FA98
:10395E00A3E0F974EA2FF582E43400F583E0FD125A
:10396E003F1D9001B9E02FF0A3E004F080D090004D
:10397E006FE0FBA3E0FAA3E0F99001B9E0FD123F7E
:10398E001D90006FE0FBA3E0FAA3E0F97D7E123FED
:0D399E001D7B0F7D0A7F011247D10200261C
:1043EA00900074E0FEA3E07C002400FFEC3E900005
:1043FA00E4F0A3EFF0900076E09000E6F09000770A
:10440A00E09000E7F0900078E09000E8F090007902
:10441A00E09000E9F07B0F7D0A7F011247D17F0B04
:03442A00020B9DE5
:1047EC00D2027E487F58D207C20812413F7B0F7D10
:0B47FC000A7F011247D17F0C020B9DC9
:0E4B58007B0F7D0A7F011247D17F0D020B9D5E
:101BBE00E49001B9F090006FE0FBA3E0FAA3E0F926
:101BCE007DF2123F1D90006FE0FBA3E0FAA3E0F957
:101BDE007DF2123F1D90006FE0FBA3E0FAA3E0F947
:101BEE007DF7123F1D9001B9E02FF090006FE0FBE2
:101BFE00A3E0FAA3E0F97D0E123F1D9001B9E02F8C
:101C0E00F090006FE0FBA3E0FAA3E0F97D01123F34
:101C1E001D9001B9E02FF090006FE0FBA3E0FAA356
:101C2E00E0F97D3F123F1D9001B9E02FF090006F5B
:101C3E00E0FBA3E0FAA3E0F97D01123F1D9001B98C
:101C4E00E02FF090006FE0FBA3E0FAA3E0F97D3FF8
:101C5E00123F1D9001B9E02FF090006FE0FBA3E062
:101C6E00FAA3E0F97D01123F1D9001B9E02FF0902B
:101C7E00006FE0FBA3E0FAA3E0F9E4FD123F1D9034
:101C8E0001B9E02FF090006FE0FBA3E0FAA3E0F9BA
:101C9E00E4FD123F1D9001B9E02FF090006FE0FBC4
:101CAE00A3E0FAA3E0F9E4FD123F1D9001B9E02F85
:101CBE00F090006FE0FBA3E0FAA3E0F9E4FD123F21
:101CCE001D9001B9E02FF090006FE0FBA3E0FAA3A6
:101CDE00E0F9E4FD123F1D9001B9E02FF090006F86
:101CEE00E0FBA3E0FAA3E0F9E4FD123F1D9001B979
:101CFE00E02FF090006FE0FBA3E0FAA3E0F9E4FD23
:101D0E00123F1D9001B9E02FF090006FE0FBA3E0B1
:101D1E00FAA3E0F9E4FD123F1D9001B9E02FF09017
:101D2E00006FE0FBA3E0FAA3E0F9E4FD123F1D9083
:101D3E0001B9E02FF090006FE0FBA3E0FAA3E0F909
:101D4E009001B9E0FD123F1D90006FE0FBA3E0FA99
:0B1D5E00A3E0F97D7E123F1D0200266D
:10496400900074E09000D8F0900075E0900143F05E
:09497400900076E09000E3F022CF
:084BE700D218E49001E2F02273
:103A570090006FE0FBA3E0FAA3E0F97D2B123F1D76
:103A670090006FE0FBA3E0FAA3E0F97D2B123F1D66
:103A770090006FE0FBA3E0FAA3E0F97D2B123F1D56
:103A870090006FE0FBA3E0FAA3E0F97D41123F1D30
:103A970090006FE0FBA3E0FAA3E0F97D74123F1DED
:103AA70090006FE0FBA3E0FAA3E0F97D43123F1D0E
:103AB70090006FE0FBA3E0FAA3E0F97D6D123F1DD4
:103AC70090006FE0FBA3E0FAA3E0F97D64123F1DCD
:103AD70090006FE0FBA3E0FAA3E0F97D0D123F1D14
:103AE70090006FE0FBA3E0FAA3E0F97D0A123F1D07
:033AF700020026A4
:1033930090006FE0FBA3E0FAA3E0F97D41123F1D2B
:1033A30090006FE0FBA3E0FAA3E0F97D54123F1D08
:1033B30090006FE0FBA3E0FAA3E0F97D2B123F1D21
:1033C30090006FE0FBA3E0FAA3E0F97D44123F1DF8
:1033D30090006FE0FBA3E0FAA3E0F97D65123F1DC7
:1033E30090006FE0FBA3E0FAA3E0F97D66123F1DB6
:1033F30090006FE0FBA3E0FAA3E0F97D61123F1DAB
:1034030090006FE0FBA3E0FAA3E0F97D75123F1D86
:1034130090006FE0FBA3E0FAA3E0F97D6C123F1D7F
:1034230090006FE0FBA3E0FAA3E0F97D74123F1D67
:1034330090006FE0FBA3E0FAA3E0F97D3D123F1D8E
:1034430090006FE0FBA3E0FAA3E0F97D31123F1D8A
:1034530090006FE0FBA3E0FAA3E0F97D0D123F1D9E
:1034630090006FE0FBA3E0FAA3E0F97D0A123F1D91
:033473000200262E
:101F0E009001B674FFF0A37400F0A3746AF0900011
:101F1E006CE0FBA3E0FAA3E0F9900034121191FFFC
:101F2E009000331211916F70030220AE90003312A5
:101F3E001191F5827583001211919001B5F0900008
:101F4E00331211912401FFE433FE7C007D33121114
:101F5E00F2AF0590006CE0FBA3E0FAA3E0F990006D
:101F6E0033ED1211D030181E9001B5E0B4F114907B
:101F7E0001E2E004F0E064027094C218F09001DF18
:101F8E00F0808B0220A69001B5E0FF9001E2E024E4
:101F9E0072F582E43400F583EFF09001DFE02FF06C
:101FAE009001E2E004F0E0FFB4010B900072E090CB
:101FBE0001E1F0021F1CEF64026003022056900143
:101FCE00E1E0FFD39400402AEFD3940D5024E07546
:101FDE00F005A424C8F582E43442F583E49390011D
:101FEE00E0F0EF75F005A424C9F582E43442F583E0
:101FFE0080269001E1E0FFB4F70E90430EE493903B
:10200E0001E0F090430F8010EFB4FF23904313E4F0
:10201E00939001E0F0904314E493F9740193FA74F1
:10202E0002939001B6C9F0A3EAF0A3E9F080028012
:10203E000F900073E0FF9001E0E06F7003021F1C31
:10204E00D218E49001E2F0229001E0E02404FFE4D3
:10205E0033FE9001E2E0C39FEE6480F874809850E6
:10206E0003021F1C9001E0E0FF2474F582E43400AB
:10207E00F583E0FE2EFE74752FF582E43400F583B1
:10208E00E02EFF9001DFE0B5070C9001B6A3E0FA59
:10209E00A3E0F9121384D218E49001E2F0021F1C9F
:0120AE00220F
:10455B007B017A00790090006CEBF0A3EAF0A3E901
:10456B00F0124B4A7B017A00793590006FEBF0A388
:10457B00EAF0A3E9F0124B4AE490006AF0C212A3EE
:03458B00F0C21368
:01458E00220A
:1000260020134090006FE0FBA3E0FAA3E0F9124929
:100036004AEFC39401500122EFB4011290006FE021
:10004600FBA3E0FAA3E0F912403C8FF58012900082
:100056006FE0FBA3E0FAA3E0F912403C8FF5D21360
:0300660043EAC0AA
:010069002274
:094BCD00301205121F0EC2122263
:10480700FF00A2FF00A2FF00A2FF00A2FF00A2FF7D
:0B48170000A2FF00A2FF00A2FF00A211
:054717004201E5480726
:0100A200223B
:10413F009001BAEEF0A3EFF030081A9001E5E0FE1F
:10414F00A3E02418F582E43EF583740193FA740218
:10415F0093F91213849001BAE0FFA3E09001E5CF29
:10416F00F0A3EFF030071A9001E5E0FEA3E024156D
:10417F00F582E43EF583740193FA740293F91213F6
:02418F00842288
:10482200FF4BD6FF2659FF4C2BFF4C2CFF4C2DFF84
:0B4832004B8EFF4C2EFF4C2FFF4C3034
:094BD6007B0F7D0A7F010247D12B
:1026590012471D90015CE0440FF090015BE044F0EB
:10266900F09000E3E0B40115900143E0B4010E904D
:10267900017BE04420F0900184E04438F090015758
:10268900E04401F090015CE04470F090017FE04487
:1026990003F0900184E04444F0900174E04401F0B7
:1026A900900170E0440EF090016FE044C0F0A3E0A7
:1026B9004401F090016FE04438F04407F090017450
:1026C900E04470F0440EF0900187E04402F0A3E08A
:1026D9004420F090018CE04418F0900177E04440E8
:1026E900F090017CE04420F0900178E04440F090C3
:1026F9000170E04410F0900173E04480F04403F06D
:1027090090015FE04401F0900187E04401F09001FD
:102719008CE04440F04420F04404F04402F04401C9
:10272900F07818E6FF123F7E7817E6FF123FDD903A
:1027390000E8E0FFA3E0FDC208C20912354B900092
:10274900D8E0FF7E00122CCA7F0412006E9001634C
:10275900E04408F0900167E04440F090016CE044E7
:1027690002F090018BE044C0F090018E74FFF022DA
:014C2B002266
:014C2C002265
:014C2D002264
:0C4B8E007B0F7D0A7F011247D1D20B2261
:014C2E002263
:014C2F002262
:014C30002261
:10483D00FF4C31FF4BB0FF4C32FF497DFF4C16FF53
:0B484D004C33FF4C34FF4B66FF4C3532
:014C31002260
:0A4BB00090018E74FFF0FF024A7AB4
:014C3200225F
:10497D009000D9E004F0E0D39414400B7E487F58AA
:08498D00D207C20812413F22CB
:034C1600024BA6A8
:014C3300225E
:014C3400225D
:0E4B6600E49000D9F09001E9748DF0C20B22AA
:014C3500225C
:10485800FF32ACFF2BC3FF4C36FF29B0FF4C19FFCA
:0B4868002ABBFF4C37FF45F6FF4C3821
:1032AC00900146E07006743CF0C2172290014674FF
:1032BC003CF02017030233929001DEE0640270466A
:1032CC009001DDE0B4200F7B147D0F7F011247D1FC
:1032DC007E497F1580789001DDE0B4020F7B147D70
:1032EC000F7F011247D17E487F8E80629001DDE016
:1032FC00641060030233927B147D0F7F011247D15F
:10330C007E487FFA80489001DEE06401705990019C
:10331C00DDE0B4040F7B147D0F7F011247D17E4892
:10332C007F73802A9001DDE0B4010F7B147D0F7F49
:10333C00011247D17E487FA980149001DDE0B408CA
:10334C00147B147D0F7F011247D17E487FC4D207B6
:10335C00C20802413F9001DDE064127029123A5715
:10336C009001E8740380159001DEE0B4031890011D
:10337C00DDE0B41011B2059001E7743CF07B147DD4
:07338C000F7F011247D1225F
:102BC300900146E0700890018EE04420F0229001CD
:102BD3008EE04420F0900174E04401F0900170E035
:102BE300440EF090016FE04438F0900174E04470BB
:102BF300F090019BE0FEA3E0FF122CCA9000E8E0F6
:102C0300FFA3E0FDC208C20912354B300C18900136
:102C13008BE044C0F030050E90017FE04403F09058
:102C23000184E04444F0900106E0FD30E05B900154
:102C330087E04402F0A3E04420F090018CE04418C4
:102C4300F0EDC313547F14601614601E2402702029
:102C5300900187E04401F090018CE04404F022905D
:102C6300018CE04440F04402F02290018CE0801497
:102C7300900187E04401F090018CE04404F044406B
:102C8300F04402F04420F0801E30013A90010DE040
:102C9300FDF46032900187E04402F0A3E04420F0A9
:102CA300ED7008900187E04401F02290010DE0FDF2
:102CB300B4020890018CE04440F022EDB404079084
:072CC300018CE04420F02227
:014C3600225B
:1029B0009001E8E0600814F0E07003123393900097
:1029C000E2E06015900146E0600214F09001E7E05B
:1029D000600714F0E07002C205200403022ABA90D6
:1029E0000106E030E04FC313547FFF64037003021D
:1029F0002ABAEF25E025E0246EF582E43447F5831A
:102A0000E493FF9000E8E0FEEF6E6003022ABA90C4
:102A10000106E0C313547F25E025E0246FF582E42E
:102A20003447F583E493FF9000E9E0FEEF6E600326
:102A3000022ABA8071200103022ABA90010DE0FF38
:102A4000F46077EF75F003A4245CF582E43447F575
:102A500083E493FB740193FA740293F9121178C31F
:102A600013547FFF9000E8E06F704F90010DE0FF7E
:102A7000FD3395E0FC90475C75F003ED121378ECA4
:102A800075F003A42583F583E493FB740193FA7432
:102A90000293F9900001121191FE9000E9E0B50651
:102AA0001990014CEFF07B147D0F7F011247D17E0E
:0B2AB000497F15D207C20812413F22E7
:034C1900024BA6A5
:102ABB00900146E07004743CF022900146743CF0A7
:102ACB009001E3E07003A3E0F470147B147D0F7F9F
:102ADB00011247D17E497F15D207C20802413F90B0
:102AEB0001E3E064307004A3E064CF701E90010634
:102AFB00E030E00554FEF08007900106E04401F061
:102B0B00900106E054014406022BB89001E3E06407
:102B1B00B07004A3E0644F7021900106E020E00345
:102B2B00022BC2C313547F7008E054014406F0809B
:102B3B007D900106E05401F080749001E3E0647035
:102B4B007004A3E0648F7022900106E030E068C34C
:102B5B0013547FFFBF0108E054014406F080099035
:102B6B000106E054014402F080449001E3E064F07C
:102B7B007004A3E0640F7022900106E030E038C3CC
:102B8B0013547FFFBF0208E054014406F080099004
:102B9B000106E054014404F080149001E3E0B4908A
:102BAB0016A3E0B46F11B2059001E7743CF07B14EF
:082BBB007D0F7F011247D122BA
:014C3700225A
:1045F600E490010CF09001E8F0D20B9001E9748D83
:10460600F0900146743CF0C20590014C74FFF090A6
:0D4616000106E020E0063001031231BE2253
:014C38002259
:10487300FF3D4CFF4650FF4C39FF4995FF4C1CFF51
:0B4883004C3AFF4C3BFF4BBAFF4C3C93
:0F4B2C009000E8E004F0E0C394184002E4F022A7
:104AFD009000E8E0600314F0229000E87417F022B3
:0F4B3B009000E9E004F0E0C3943C4002E4F02273
:104B0D009000E9E0600314F0229000E9743BF0227C
:103D4C00E49000D9F09001DEE0FF64016005EF64BF
:103D5C0004706A9001DDE0FFB408189001DEE0B455
:103D6C000401229001EAE004F0E0D39402403EE426
:103D7C00F0803AEFB402169001EAE0FF7005124BA6
:103D8C002C8025EF64017025124B3B801B9001DDCC
:103D9C00E0641070289001EAE0FF7005124AFD8083
:103DAC0007EFB40108124B0DE4900147F09001DECF
:0E3DBC00E0B401097B147D0F7F011247D12274
:10465000300C0790018BE044C0F09000E8E0FFA32D
:10466000E0FD9001EAE0FE7003D38001C39208EE02
:0C467000B40103D38001C3920902354B52
:014C39002258
:104995009000D9E004F0E0D39432400B7E487F5874
:0849A500D207C20812413F22B3
:034C1C00024BA6A2
:014C3A002257
:014C3B002256
:0A4BBA00E49000D9F09001EAF02227
:014C3C002255
:10488E00FF44ACFF46A7FF4C3DFF49ADFF4C1FFF59
:0B489E004C3EFF4C3FFF4BEFFF4C4037
:1044AC00E49000D9F09001DEE0B403169001DDE059
:1044BC00640270277B147D0F7F011247D1C219C291
:1044CC0003229001DEE0B402129001DDE0B4020B95
:0C44DC007B147D0F7F011247D1D2192202
:1046A70030190E90017FE04403F0900184E0444408
:1046B700F0E47B3CFAF9F8900148E0FCA3E0FDA3A5
:0B46C700E0FEA3E0FF1212BB022DCCAE
:014C3D002254
:1049AD009000D9E004F0E0D39468400B7E487F5826
:0849BD00D207C20812413F229B
:034C1F00024BA69F
:014C3E002253
:014C3F002252
:084BEF00E49000D9F0D2192274
:014C40002251
:1048A900FF1A01FF2517FF4C41FF49C5FF4C22FFA5
:0B48B9004C42FF4C43FF4B9AFF4C4465
:101A0100E49000D9F0200103021BBD9001DEE064E7
:101A1100016003021BBD9001EBE0FFC31375F003EE
:101A2100A4245CF582E43447F583E493F9740193CB
:101A3100FA7402939001B9C9F0A3EAF0A3E9F0EFB7
:101A41001392079001DDE0B408119001EBE004F07E
:101A5100E0D3940C4002E4F0021BB49001DDE06499
:101A6100026003021AFB9001B9E0FBA3E0FAA3E0D4
:101A7100F912117844011211BE30073C9001B9E00E
:101A8100FBA3E0FAA3E02401F9E43AFA121178FF8A
:101A9100EF041211BE9001B9E0FBA3E0FAA3E0F953
:101AA100900001121191C3943C404CE92401F9E4E6
:101AB1003AFA121178E4803C9001B9E0FBA3E0FA14
:101AC100A3E0F9121178FFC313FEEF5401FFEE04F6
:101AD100547FFE25E04F1211BE9001B9E0FBA3E057
:101AE100FAA3E0F9121178FFC313547FC39418408D
:101AF10006EF54011211BE021BB49001DDE0641027
:101B01006003021B869001B9E0FBA3E0FAA3E0F9B0
:101B110012117844011211BE30073A9001B9E0FB6D
:101B2100A3E0FAA3E0F9900001121191600FE924FA
:101B310001F9E43AFA121178FFEF1480439001B9E8
:101B4100E0FBA3E0FAA3E02401F9E43AFA121178E8
:101B5100E4743B802B9001B9E0FBA3E0FAA3E0F928
:101B6100121178FFC313FE547F600EEF5401FFEE94
:101B710014547FFE25E04F80071211785401442E42
:101B81001211BE802E9001DDE06420702F9001EBD8
:101B9100E0C3940C50269001B9E0FBA3E0FAA3E066
:101BA100F912117830E00454FE80051211784401D5
:0C1BB1001211BE7B147D0F7F011247D182
:011BBD002205
:10251700200134900187E04402F0A3E04420F090CA
:10252700018CE04418F0200C03022658900187E044
:102537004401F090018CE04440F04420F04404F062
:102547004402F04401F0229001EBE0640C701D306E
:102557000C13900187E04402F0A3E04420F09001BF
:102567008CE04418F07F107E27022DCC9001EBE021
:10257700FFC31375F003A4245CF582E43447F583A5
:10258700E493FB740193FA740293F9EF13920790A3
:1025970001EBE0B40C00400302262B9025A9F82894
:1025A70028730225CD0225CD0225DF0225DF02256E
:1025B700EB0225EB02260002260002260C02260C5F
:1025C700022621022621900187E04402F0A3E0447D
:1025D70020F0900187E0804990018CE04418F04496
:1025E70004F08040900187E04402F0A3E04420F02B
:1025F70090018CE04440F0802B90018CE04418F06F
:102607004402F0801F900187E04402F0A3E04420D9
:10261700F090018CE04420F0800A90018CE044188F
:10262700F04401F012117830E017C313547FFF9084
:102637000001121191FDA207B39208A20792098027
:102647000DA207B39208A20792097D647F64123531
:012657004B37
:01265800225F
:014C41002250
:1049C5009000D9E004F0E0D39434400B7E487F5842
:0849D500D207C20812413F2283
:034C2200024BA69C
:014C4200224F
:014C4300224E
:0C4B9A009001EB740CF0E49000D9F022C4
:014C4400224D
:1048C400FF473DFF458FFF4C45FF49DDFF4C25FF6A
:0B48D4004C46FF4C47FF4C0CFF4C48CB
:10473D00E49000D9F09001DEE0B401129001DDE0CB
:0F474D00B4080BB2017B147D057F011247D12206
:10458F00900187E04402F0A3E04420F090018CE01A
:10459F004418F0200103300C1A900187E04401F019
:1045AF0090018CE04440F04420F04404F04402F0C9
:0445BF004401F022A1
:014C4500224C
:1049DD009000D9E004F0E0D39434400B7E487F582A
:0849ED00D207C20812413F226B
:034C2500024BA699
:014C4600224B
:014C4700224A
:064C0C00E49000D9F02243
:014C48002249
:1048FA00FF44E8FF2779FF4C49FF49F5FF4C28FFA1
:0B490A004C4AFF4C4BFF48DFFF4C4CB9
:104623009001ECE004F0E0FFC39406501FEF75F037
:1046330003A4245CF582E43447F583E493FB74011B
:0D46430093FA740293F912117830E0D4223A
:1044E800E49000D9F03001319001DEE064017029D8
:1044F8009001DDE0B408229001ECE0F4601B124664
:10450800239001ECE0C39406400674FFF0124623A2
:0A4518007B147D057F011247D122BC
:10277900200133900187E04402F0A3E04420F09067
:10278900018CE04418F0200C03022898900187E09E
:102799004401F090018CE04440F04420F04404F0FE
:1027A9004402F00228959001ECE0B4FF077F107E07
:1027B90027022DCC9001ECE0FF75F003A4245CF511
:1027C90082E43447F583E493FB740193FA7402932A
:1027D900F9121178C313547FFEEF75F003A4245C3A
:1027E900F582E43447F583E493FB740193FA7402A8
:1027F90093F9900001121191FDAF06C208C20912A6
:10280900354B90018BE044C0F09001ECE014602559
:102819001460311460451460511460652405706FAB
:10282900900187E04402F0A3E04420F0300C60906E
:102839000187E0805790018CE04418F0300C50E09B
:102849004404F022900187E04402F0A3E04420F020
:10285900300C3C90018CE04440F02290018CE04423
:1028690018F0300C2AE04402F022900187E044027B
:10287900F0A3E04420F0300C1690018CE04420F0E5
:0F2889002290018CE04418F0300C04E04401F080
:01289800221D
:014C49002248
:1049F5009000D9E004F0E0D39434400B7E487F5812
:084A0500D207C20812413F2252
:034C2800024BA696
:014C4A002247
:014C4B002246
:1048DF00E49000D9F09001EC74FFF01246239001A0
:0B48EF00ECE0C39406400374FFF022CD
:014C4C002245
:10491500FF30C4FF1744FF442DFF138AFF3EB9FF44
:0B492500224AFF4C4DFF4232FF4C4E77
:1030C400900146E07011C20B9001E9748DF09001FB
:1030D40046743CF0C21722900146743CF02017035A
:1030E4000231BD9001DEE0640270199001DDE064FC
:1030F4002060030231BD7E487F58D207C2081241C6
:103104003F0231B49001DEE06401600302319E901D
:1031140001DDE06408704E9001D0F0A3F0C21A30D3
:10312400000990014204F0C200801A900142E004B8
:10313400F0E0D39405400ED2003010099001A3E0D2
:10314400B40102D21A900142E0FFB40106E49000F7
:10315400DC800BEFD39401400A9000DC7401F09002
:103164000109F0804B9001DDE0B402139000DCE033
:1031740070047F0180027F009000DCEFF0803190CA
:1031840001DDE064107032900109E070047F018079
:10319400027F00900109EFF080169001DEE0B40395
:1031A400189001DDE0B420119001D2741EF0D20217
:0A31B4007B147D0F7F011247D1222A
:101744009001D2E06044200C03021A00900157E09B
:101754004401F090015CE04470F090015BE044F0DF
:10176400F0900173E04403F090015FE04401F090D5
:101774000170E04410F0900173E04480F07F0312A4
:10178400006E90015FE04401F02212471D90014376
:10179400E0B4010E90017BE04420F0900184E04429
:1017A40038F0300511300C0E90017FE04403F090C6
:1017B4000184E04444F0900163E04408F090016740
:1017C400E04440F090016CE04402F090019BE0FEA4
:1017D400A3E0FF122CCA3010079001A3E0FF800A97
:1017E400900147E075F00684AFF012446E7818E675
:1017F400FF123F7E7817E6FF123FDD900177E04449
:1018040040F090017CE04420F0900178E04440F006
:101814009000E8E0FFA3E0FDC208C20912354B3096
:101824000C0790018BE044C0F0900170E04410F08C
:10183400900173E04480F0900142E0FF12006E20BA
:1018440000030218D6900173E04403F090015FE0B6
:101854004401F0301073301A31900173E05483F076
:10186400900170E054EFF0900173E0547FF0A3E036
:101874004401F0900170E0440EF090016FE04438B0
:10188400F0900174E04470F0805590019FE0D3948F
:101894000250097F0112006E7F04804090019FE096
:1018A400D3940350097F0212006E7F03802E9001AF
:1018B4009FE0D3940450097F0312006E7F02801CC2
:1018C4007F0412006E7F0180137F0312006E7F027B
:1018D400800A900142E0FFC374059FFF1243172062
:1018E4001A239000DCE0B4010E900157E04401F0AB
:1018F40090015CE04470F0900109E0B401079001AC
:101904005BE044F0F030030E90017FE04403F0907C
:101914000184E04444F0900106E0FD30E05390017E
:1019240087E04402F0A3E04420F090018CE04418E6
:10193400F0EDC313547F1460101460162402701861
:10194400900187E04401F0804D90018CE04440F028
:10195400806D90018CE08014900187E04401F09048
:10196400018CE04404F04440F04402F04420F08050
:101974006F90014CE0FDF4606A90018CE04418F033
:10198400ED701C90475F93FB740193FA740293F912
:1019940012117830E04D90018CE04404F0804490C2
:1019A400014CE0FDB4021D904765E493FB74019380
:1019B400FA740293F912117830E02890018CE04413
:1019C40002F0801FEDB4041B90476BE493FB740199
:1019D40093FA740293F912117830E00790018CE0C5
:1019E4004401F0900146E090018E600C74FFF0E039
:0D19F40054DFF0E054BFF022E04410F02278
:10442D00900107E04408F0201A36900109E0900150
:10443D0007B40106E04402F08004E054FDF0900062
:10444D00DCE0900107B40106E04401F08004E05483
:10445D00FEF0900107E030050454FBF0224404F017
:01446D00222C
:10138A009001D2E0601914F0E070147E487F58D2C0
:10139A0007C20812413F7B147D0F7F011247D1908B
:1013AA0000E2E0606A30002A9001A3E0B4012190D3
:1013BA0001D1E004F070069001D0E004F0D390016E
:1013CA00D1E094589001D0E09402400FD21A800BD9
:1013DA008000C21AE49001D0F0A3F0900146E060C8
:1013EA000D14F0E07008D20B9001E97480F09001BE
:1013FA00CDE004F0E0C3943C4015E4F090010BE02A
:10140A0004F0E0943C4008E4F090010AE004F02083
:10141A0004030217439001CEE0FD640C705390015F
:10142A00B9F09001B9E0FFC36480948B5032EF3376
:10143A0095E0FEEF25E0FFEE33FE74122FF582747D
:10144A00013EF583E0FAA3E0FB74102FF5827401E4
:10145A003EF583EAF0A3EBF09001B9E004F080C214
:10146A0090019BE0FFA3E0900126CFF0A3EFF0806C
:10147A003C9001B9EDF09001B9E0FFC36480948C0F
:10148A00502B90019BE0FCA3E0FDEF3395E0FEEFCB
:10149A0025E0FFEE33FE74102FF58274013EF583CA
:1014AA00ECF0A3EDF09001B9E004F080C99001CE10
:1014BA00E004F0E0C3940C4003740CF09001CFE018
:1014CA00FD640C70539001B9F09001B9E0FFC36458
:1014DA0080948B5032EF3395E0FEEF25E0FFEE3338
:1014EA00FE742C2FF58274013EF583E0FAA3E0FB2B
:1014FA00742A2FF58274013EF583EAF0A3EBF0908B
:10150A0001B9E004F080C290019BE0FFA3E09001E2
:10151A0040CFF0A3EFF0803C9001B9EDF09001B913
:10152A00E0FFC36480948C502B90019BE0FCA3E005
:10153A00FDEF3395E0FEEF25E0FFEE33FE742A2F30
:10154A00F58274013EF583ECF0A3EDF09001B9E069
:10155A0004F080C990010BE020E0069001CFE0047E
:10156A00F09001CFE0C3940C4003740CF090010694
:10157A00E030E050C313547FFF6403700302169CEB
:10158A00EF25E025E02470F582E43447F583E493FF
:10159A00FF9000E8E0FEEF6E600302169C900106E1
:1015AA00E0C313547F25E025E02471F582E4344733
:1015BA00F583E493FF9000E9E0FEEF6E6003021604
:1015CA009C02168890014CE0FFF4700302169CEF0F
:1015DA00049001B9F075F003A4245CF582E4344761
:1015EA00F583E493FB740193FA740293F912117868
:1015FA0020E0069001B974FFF09001B9E0F470217F
:10160A0090010AE06402600302169C7E487F58D269
:10161A0007C20812413F7B147D0F7F011247D18018
:10162A00719001B9E0FF75F003A4245CF582E434FB
:10163A0047F583E493FB740193FA740293F9121148
:10164A0078C313547FFE9000E8E06E7045EF33953F
:10165A00E0FE90475C75F003EF121378EE75F00325
:10166A00A42583F583E493FB740193FA740293F936
:10167A00900001121191FF9000E9E0B507147B1464
:10168A007D0F7F011247D17E487F58D207C20812C8
:10169A00413F300503021743900148E0FCA3E0FDF7
:1016AA00A3E0FEA3E02401FFE43EFEE43DFDE43CAA
:1016BA00FC90014812136CE47F307E75FDFC9001AA
:1016CA0048E0F8A3E0F9A3E0FAA3E0FBC312135B36
:1016DA004034E4900104F0A3F07B307A75F9F89075
:1016EA000148E0FCA3E0FDA3E0FEA3E0FF1212BB69
:1016FA00AC00AD01AE02AF03E4FBFAF9F8C3121372
:10170A005B7036D20322900148E0F8A3E0F9A3E027
:10171A00FAA3E0FBC374309BFF74759AFEE499FD4B
:10172A00E498FCE47B3CFAF9F81212BBEF2401FFBF
:09173A00E43E900104F0A3EFF07D
:011743002283
:103EB900301A03024BA6301A2630102190019FE0D8
:103EC900D394025002802D90019FE0D394035002B5
:103ED900802890019FE0D39404502B802380219067
:103EE9000142E024FE601314601614601914601C6A
:103EF9002404701F7F587E0280167F847E03801001
:103F09007FB07E04800A7F407E0680047FFC7E08A5
:043F190012477A22AF
:10224A00900146E0700FC20B9001E9748DF0900185
:10225A0046743CF022900146743CF09001E3E07031
:10226A0003A3E0F470147B147D0F7F011247D17E23
:10227A00487F58D207C20802413F9001E3E06480D8
:10228A007004A3E0647F70199001D0F0A3F0C21A21
:10229A00D2003010319001A3E0B40102D21A022315
:1022AA00899001E3E0B44021A3E0B4BF1CE49001AB
:1022BA00D0F0A3F0C21A90014204F0C200E49000E8
:1022CA00DCF0900109F00223899001E3E0B4A01C3C
:1022DA00A3E0B45F17E49001D0F0A3F0C21A900112
:1022EA00427402F0C2009000DC14806A9001E3E0BC
:1022FA00B4601DA3E0B49F18E49001D0F0A3F0C22B
:10230A001A9001427403F0C2009000DC7401804606
:10231A009001E3E0B4C01DA3E0B43F18E49001D0FB
:10232A00F0A3F0C21A9001427404F0C2009000DCDB
:10233A00740180229001E3E0B42027A3E0B4DF22F5
:10234A00E49001D0F0A3F0C21A9001427405F0C2E1
:10235A00009000DC7401F0900109F07B147D0FFFFE
:10236A0080489001E3E0B4101EA3E0B4EF19900096
:10237A00DCE070047F0180027F009000DCEFF07BDC
:10238A00147D0F7F0180239001E3E0B4E01FA3E0F6
:10239A00B41F1A900109E070047F0180027F009047
:0E23AA000109EFF07B147D0F7F011247D12255
:014C4D002244
:1042320090010C7401F0C20BC21AE49001D2F0900A
:1042420001D0F0A3F09001CEF0A3F09001E9748DBB
:10425200F0900146743CF0124AA2200210900142F2
:104262007403F09001097401F09000DCF0E4900115
:0F427200CDF0900144F0A3F090010AF0A3F022E8
:014C4E002243
:100FB300EC4D6011E8497017ED33EC3304600DE438
:100FC300FCFFFEFD22E933E8330470F802116312DB
:100FD300112E58046009E4CC2481500628500902DC
:100FE300116D28400302116AC0E0EB4A7044B980D6
:100FF30006D0E0FB021159EF4E701CBD8008EBFFD9
:10100300EAFEE9FD80EBE98DF0A4FEE5F002109C19
:10101300E9CDF9EAFEEBFFEF89F0A4FCE5F0CE8918
:10102300F0A42EFFE435F0CD89F0A42DFEE435F0D5
:101033008067EF4E7005BD80D780C3EF8BF0A4AC03
:10104300F0EE8BF0A42CFCE435F0F8EF8AF0A42C3E
:10105300E5F038FCE433CB8DF0A42CFCE5F03BF851
:10106300EE8AF0A42CFCE5F038F8E433CF89F0A441
:101073002CFCE5F038CF3400CE89F0A42FFFE5F047
:101083003EFEE433C98DF0A42EFEE5F039CD8AF09F
:10109300A42FFFE5F03EFEE43DFD33D0E0FB500717
:1010A3000BBB000F02116DEC2CFCEF33FFEE33FE94
:0610B300ED33FD021145C2
:1010B90075F020800E75F010800575F0087D007EB2
:1010C900007F003392D530D50312134DEC33401015
:1010D900EF33FFEE33FEED33FDEC33FCD5F0ED22BB
:0E10E900E5F0247EA2D513CC92E7CDCEFF22F7
:1010F700EDD2E7CD33EC3392D524814006E4FFFEF1
:10110700FDFC22FCE4CFCECDCC24E0501174FF804F
:10111700EDC3CC13CCCD13CDCE13CECF13CF0470EC
:07112700F030D5DE02134D8C
:10112E00E9D2E7C933E833F892D5EDD2E7CD33EC07
:07113E0033FC5002B2D52280
:10114500EC30E7100FBF000C0EBE00080DBD00040B
:101155000BEB6014A2D5EB13FCED92E7FD2274FFB7
:10116500FCFDFEFF22E480F8A2D574FF13FC7D8010
:03117500E480EF24
:103BB400022FC8E493A3F8E493A34003F68001F230
:103BC40008DFF48029E493A3F85407240CC8C33312
:103BD400C4540F4420C8834004F456800146F6DFE1
:103BE400E4800B01020408102040809046F9E47E32
:103BF400019360BCA3FF543F30E509541FFEE493D6
:103C0400A360010ECF54C025E060A840B8E493A39C
:103C1400FAE493A3F8E493A3C8C582C8CAC583CAC7
:103C2400F0A3C8C582C8CAC583CADFE9DEE780BE7F
:01471C00009C
:10117800BB010689828A83E0225002E722BBFE0275
:09118800E32289828A83E49322A8
:10119100BB010CE58229F582E5833AF583E0225013
:1011A10006E92582F8E622BBFE06E92582F8E2225D
:0D11B100E58229F582E5833AF583E4932277
:1011BE00BB010689828A83F0225002F722BBFE0110
:0211CE00F3220A
:1011D000F8BB010DE58229F582E5833AF583E8F055
:1011E000225006E92582C8F622BBFE05E92582C801
:0211F000F222E9
:1011F200BC000BBE0029EF8DF084FFADF022E4CCE1
:10120200F875F008EF2FFFEE33FEEC33FCEE9DECA9
:10121200984005FCEE9DFE0FD5F0E9E4CEFD22EDEF
:10122200F8F5F0EE8420D21CFEADF075F008EF2F39
:10123200FFED33FD4007985006D5F0F222C398FD2A
:051242000FD5F0EA22C7
:10124700BB0110E58229F582E5833AF583E0F5F0E5
:10125700A3E0225009E92582F886F008E622BBFEC2
:101267000AE92582F8E2F5F008E222E5832AF58308
:08127700E993F5F0A3E99322CD
:10127F0075F008758200EF2FFFEE33FECD33CDCC26
:10128F0033CCC58233C5829BED9AEC99E5829840A9
:10129F000CF582EE9BFEED9AFDEC99FC0FD5F0D686
:1012AF00E4CEFBE4CDFAE4CCF9A88222B800C1B9B0
:1012BF000059BA002DEC8BF084CFCECDFCE5F0CBEE
:1012CF00F97818EF2FFFEE33FEED33FDEC33FCEB27
:1012DF0033FB10D703994004EB99FB0FD8E5E4F9E2
:1012EF00FA227818EF2FFFEE33FEED33FDEC33FCCF
:1012FF00C933C910D7059BE99A4007EC9BFCE99AC3
:10130F00F90FD8E0E4C9FAE4CCFB2275F010EF2F07
:10131F00FFEE33FEED33FDCC33CCC833C810D70707
:10132F009BEC9AE899400AED9BFDEC9AFCE899F842
:0E133F000FD5F0DAE4CDFBE4CCFAE4C8F922D5
:0E134D00C3E49FFFE49EFEE49DFDE49CFC22B1
:10135B00EB9FF5F0EA9E42F0E99D42F0E89C45F0E8
:01136B00225F
:0C136C00ECF0A3EDF0A3EEF0A3EFF022F4
:0C137800A42582F582E5F03583F5832280
:061384008A838982E473F4
:00000001FF
