:03001B00023E534F
:103E5300C0E0C0F0C083C082C0D075D000C000C035
:0D3E630001C002C003C004C005C006C007B6
:103E700090006A7404F090006CE0FBA3E0FAA3E009
:103E8000F99000341217B8F582758300E5F5121722
:103E9000F79000341217B82401FFE433FE7C007D54
:103EA00033121819AF0590006CE0FBA3E0FAA3E011
:103EB000F9900034ED1217F79000341217B824333C
:103EC000FFE433FE9000331217B8FDC3EF9DFFEE01
:103ED0009400FE7C007D33121819AF05EFD3941FB8
:043EE0004002D219B1
:103EE400D007D006D005D004D003D002D001D00032
:0B3EF400D0D0D082D083D0F0D0E032DC
:030023000240DCBC
:1040DC00C0E0C0F0C083C082C0D075D000C000C0AA
:1040EC0001C002C003C004C005C006C00790006F29
:1040FC00E0FBA3E0FAA3E0F99000331217B8F582C5
:10410C007583001217B8F5F59000331217B8240117
:10411C00FFE433FE7C007D33121819AF0590006F5D
:10412C00E0FBA3E0FAA3E0F9900033ED1217F7904F
:10413C0000341217B8FF9000331217B8B50705C238
:10414C001A53EA3FD007D006D005D004D003D002D2
:0F415C00D001D000D0D0D082D083D0F0D0E032CC
:03006B000250B68A
:1050B600C0E0C083C0829001F7E004F0D082D083C4
:0350C600D0E03205
:0300A30002304EDA
:10304E00C0E0C0F0C083C082C0D075D000C000C048
:0D305E0001C002C003C004C005C006C007C9
:10306B009001F7E0FEADB37C00E42DFFEC3E900148
:10307B00EEF0A3EFF043B2019001F7E4F09001EE14
:10308B00E07002A3E07004C2138011D39001EFE053
:10309B00940A9001EEE094004002D213D214B211C4
:1030AB009001F4E004F0E0C394024038E4F09000A7
:1030BB00E3E004F090014FE004F0E0943C50033067
:1030CB00002290014FE4F0D2059000EBE004F0E019
:1030DB00C3943C400FE4F09000EAE004F0E0941855
:1030EB004002E4F0438D20E58830E1397587030019
:1030FB000000000000000053ABEF53A8F753A8EFFC
:10310B0075800075880075900075980075A0007526
:10311B00B0009001F5E004F0E0D3943C4015743C12
:10312B00F0C203800E9001F5E06003124BCD9001CD
:03313B00F5E4F0C8
:10313E00D007D006D005D004D003D002D001D000E5
:0B314E00D0D0D082D083D0F0D0E0328F
:0300B300022573B0
:10257300C0E0C0F0C083C082C0D075D000C000C02E
:0D25830001C002C003C004C005C006C007AF
:10259000E59030E4097812E64402F6022647781204
:1025A000E620E10302264754FDF64401F67809E6E9
:1025B000FF7025C3780BE6946518E694005003027B
:1025C0002647187601780C76007812E654DFF67804
:1025D0000D7600087600806FEF6401704C780EE68F
:1025E00025E0790EF718E63319F7C3780BE6940E59
:1025F00018E694004006780EE64401F6780A760064
:102600000876000806E6C39420403C08E6FF08E68A
:10261000900204CFF0A3EFF0780976027812E64436
:1026200010F64408F6D21C801E7809E6B40218C3DE
:10263000780BE6949218E69404400C187600781211
:10264000E654F7F654FEF67812E6FF30E028780BF1
:1026500006E618700106C3780BE6949218E6940417
:1026600040147600087600EF54FE7812F67809766A
:102670000054F77812F6781106E6D394045006C297
:1026800093D29280127811E6D39408500AD293C262
:1026900092E6B408027600E59030E11D780FE6FE80
:1026A00008E6FF4E600A9001D4EEF0A3EFF0D218D6
:1026B000780F76000876008008781006E61870011A
:1026C00006780806E6C39432401B76009001F67443
:1026D00001F0D20C123B9690006AE06008E014F022
:1026E000E07002D21930100B7808E6D3940840034A
:0326F00043981EEE
:1026F300D007D006D005D004D003D002D001D0003B
:0B270300D0D0D082D083D0F0D0E032E4
:0300000002404279
:1040420078FFE4F6D8FD90001B7FE57E03E4F0A341
:0A405200DFFCDEFA758124024097BE
:104BCD00124BFF1250DB124AFF1251C21250ED125E
:104BDD0050A290020A748EF0D2027E4E7F6CD20CDF
:104BED00C20D12474A7B0F7D0A7F01124E0043A86A
:024BFD00802214
:10392B00124BCD438D201251B17815E6D39419402B
:10393B00147811E69406400D7F021250377816A6C4
:10394B0007E47815F69001F6E060D8E4F0301C1C23
:10395B00C21C900206E0FEA3E0240FF582E43EF5C4
:10396B0083740193FA740293F91219DC7813060825
:10397B000608067813E624FE601714601914601B02
:10398B0014601D2404701F123ACAC20C123B96809D
:10399B001912491D8014123CF9800F12222D800A36
:1039AB001246A4124C2DE47813F67814E6C3940F48
:1039BB00500302392EE4F6124B671241F6123FA266
:1039CB00123C48900206E0FEA3E02409F582E43E97
:1039DB00F583740193FA740293F91219DC9000E3E6
:1039EB00E06003E014F020050302392EC205023912
:0139FB002E9D
:0751D200759CA0E4F59D228D
:0F511D00EF540FFFE59C54F04FF59C439C40224C
:0D00A600758B66438B08538B7F43AB102294
:1050C900EF6007E5974401FF8005E59754FEFF8FE0
:0250D90097221C
:0751D900E4F597758F3E22FB
:0851BA00E4F59AF599F59B223A
:0D51660075B28E75B4FF43AA0243B2012258
:1000030075BB2043BB3075BAC0E4F5BFF5BE75BD03
:080013000F75BC9F43BB802266
:1050210075EA0275E90643EAECE4F5EB75F36743CB
:06503100A80843A81022AC
:0451ED00438D2022AC
:0951A800758E88758DC00251ED71
:0D51730075968875890175898143AB04220A
:0751E00075C829E4F58A22DD
:10479C0075A1C375AC20E4F591F5DEF58075B1FC1F
:1047AC00F5ADF592F5DFF58875B9CD75AE12F593CB
:1047BC00F59075C1FFF5AFF59875C9FF75A304F5B4
:1047CC0094F5A075D1D1F595F5B0F5D375D252F518
:1047DC00D575D4F3F5D775D603F5EEF5EF75FF283F
:0147EC0022AA
:104BFF0075D80153A87F12479C1251E0125173E5EB
:104C0F008830E10543A88080F61251D21200A61217
:0E4C1F0051D91251BA125166120003025021EF
:104F4400E4FEEF30E004D2A28002C2A2D2A1EFC3F9
:094F540013FFC2A10EEEB408E93E
:014F5D002231
:0B47ED009001B6EBF0A3EAF0A3E9F0A6
:1047F800C2A07F08124F44D2A0C2A09001BAE044E0
:10480800C0FF124F44E4FCECC39D501A9001B6E07F
:10481800FBA3E0FAA3E0F98C827583001217B8FFB6
:10482800124F440C80E1D2A0C2A090020AE0FF120D
:044838004F44D2A077
:01483C002259
:102C0D001F0C1B1E0C16171C1F1E80004040C0C041
:102C1D00C000C0C01F0C1B1E0C16171C1F1E400031
:102C2D0020206060600060603F18363C192D2F3801
:102C3D003F3D000080808080800080803F18363CC2
:102C4D00192D2F383F3D000040404040400040408E
:102C5D007F3C737E3C4E4F7C7F7EE0009010707009
:102C6D00F000F070070307070304040707077F60F0
:102C7D001C7063737F607F73000080808080800094
:102C8D0080803F1E393F1E27273E3F3F780064045A
:102C9D001C1C7C007C1C01000101000101010101D3
:102CAD00FFF0CEF8F1393FF0FFF9400020206060D1
:102CBD00600060601F0F1C1F0F13131F1F1F00F8F4
:102CCD0000E4841C9CFC00FC9C040F070E0F0709FC
:102CDD00090F0F0F007E40396147677F407F670105
:102CED000301030301020203030300FF609CF0E3F1
:102CFD00737FE0FFF3000000404040404000404043
:102D0D00401F0F1C1F0F13131F1F1F00F800E4841B
:072D1D001C9CFC00FC9C045F
:10508E00E4FE74572EF582E43401F583EFF00EEE54
:03509E00B440EF2C
:0150A10022EC
:104D300090015774FFF0A3F0A3F090015BF0A3F093
:104D4000A3F090015FE044FEF0A374FFF0A3F02213
:1048D300900155E004F0E0C39F4004E4F0B20F9070
:1048E300017CE04401F0300F16900178E0440EF0B3
:1048F300900177E04438F090017CE04470F022901E
:104903000177E044C0F0A3E04401F0900177E04474
:0949130007F090017CE0440EF075
:01491C002278
:1049A300EF14603214602814601E14601414600A3B
:1049B30014702A900167E04406F0900167E0440810
:1049C300F0900167E04410F0900167E04420F0901C
:0E49D3000167E04440F0900167E04480F0226C
:10006E00EF14602814601E14601414600A147023B8
:10007E0090017BE04404F090017BE04408F0900195
:10008E007BE04410F090017BE04420F090017BE097
:04009E004440F022C8
:10452A00EFD3946340027F63EF75F00A84FDEF7561
:10453A00F00A84ACF0ED6024900184E0FFED902C49
:10454A000D93FEEF4E900184F0900183E0FFAE05DB
:10455A00EE902C1793FEEF4E900183F0900183E0CA
:10456A00FFEC902C2193FEEF4E900183F09001888E
:0E457A00E0FFEC902C2B93FEEF4E900188F0AA
:014588002210
:10458900EFD3946340027F63EF75F00A84FDEF7502
:10459900F00A84ACF0ED6024900180E0FFED902CEE
:1045A9003593FEEF4E900180F090017FE0FFAE055C
:1045B900EE902C3F93FEEF4E90017FF090017FE04B
:1045C900FFEC902C4993FEEF4E90017FF09001840F
:0E45D900E0FFEC902C5393FEEF4E900184F027
:0145E70022B1
:04315900AB07AA0610
:10315D00D3EB940FEA942740047A277B0F7C037DF1
:10316D00E8AF03AE021218199001BAEFF07C007DA2
:10317D0064AF03AE021218197C007D0A121819A350
:10318D00EDF07C007D0AAF03AE021218197C007DB4
:10319D000A121819A3EDF0AE02AF037C007D0A12DE
:1031AD001819AB0590016CE0FE9001BAE0FD902C72
:1031BD005D93FCEE4C90016CF090016BE0FFED9097
:1031CD002C6793FEEF4EFF90016BF09001BBE0FE7C
:1031DD00902C71934F90016BF0900170E0FFEE9089
:1031ED002C7B93FEEF4E900170F090016FE0FF90FD
:1031FD0001BBE0902C8593FEEF4EFF90016FF09098
:10320D0001BCE0FE902C8F934F90016FF0900174F4
:10321D00E0FFEE902C9993FEEF4EFF900174F0EBD2
:10322D00902CA3934F900174F0900173E0FFEB90FD
:10323D002CAD93FEEF4E900173F0900178E0FFAE50
:0D324D0003EE902CB793FEEF4E900178F049
:01325A002251
:1039FC00EF75F00A84F9EF75F00A84AEF0ED75F00E
:103A0C000A84FCED75F00A84ABF0EFD394184004F3
:103A1C00790A7E0AEDD3943C40047C0A7B0A300D73
:103A2C0003301144900188E0FFE9902CC193FDEF25
:103A3C004D900188F0900187E0FFE9902CCC93FD2C
:103A4C00EF4D900187F0900163E0FFEE902CD7933F
:103A5C00FDEF4D900163F0900168E0FFEE902CE2D9
:103A6C0093FEEF4E900168F0300E0330114F900131
:103A7C008CE0FFEC902CED93FEEF4E90018CF090CF
:103A8C00018BE0FFEC902CF893FEEF4E90018BF045
:103A9C00900190E0FFEC902D0393FEEF4EFF900110
:103AAC0090F0EB902D0E934F900190F090018FE0E1
:0D3ABC00FFEB902D1993FEEF4E90018FF05F
:013AC90022DA
:04345F00AB07AA0607
:103463007C037DE81218199001BAEFF07C007D64AB
:10347300AF03AE021218197C007D0A121819A3EDCE
:10348300F07C007D0AAF03AE021218197C007D0A9E
:10349300121819A3EDF07C007D0AAF03AE021218D7
:1034A30019A905D3EB940FEA9427400B9001BA7442
:1034B3000AF0A3F0A3F0F9900188E0FE9001BAE0CE
:1034C300FD902CC193FCEE4C900188F0900187E0B5
:1034D300FFED902CCC93FEEF4E900187F0900163AB
:1034E300E0FF9001BBE0FE902CD793FDEF4D9001E0
:1034F30063F0900168E0FFEE902CE293FEEF4E90B4
:103503000168F090018CE0FF9001BCE0FE902CED8F
:1035130093FDEF4D90018CF090018BE0FFEE902C2A
:10352300F893FEEF4E90018BF0900190E0FF900135
:10353300BCE0902D0393FEEF4EFF900190F0E990D5
:103543002D0E934F900190F090018FE0FFE9902DA5
:093553001993FEEF4E90018FF078
:01355C00224C
:103B9600300C06900156E004F043C1E143B9C0532E
:103BA600981E53903F900156E024FE602804704A08
:103BB600900196E030E0055398EF8003439810900B
:103BC6000196E030E1055398FD800343980243983F
:103BD6002043980122900196E030E2055398EF8049
:103BE60003439810900196E030E3055398FD800357
:103BF60043980243984043908022900196E030E437
:103C0600055398FD8003439802900196E030E50540
:103C16005398FB8003439804900196E030E60553E1
:103C260098F78003439808900196E030E70553988B
:103C3600EF8003439810439880439040E4900156E8
:013C4600F08D
:013C4700225A
:104B6700E4FF12508EE4900196F0900206E0FEA357
:104B7700E0F5828E83A3A3A3740193FA740293F9D9
:104B87001219DC7B017A017957E49001BAF07D3F75
:034B97000247EDE5
:1050DB00C21BE49001F8F09001FBF09001F9F0A3F2
:0250EB00F022B1
:104E0000EBD39D5003ED04FB9001F8EFF09001FB14
:0B4E1000EDF09001F9EBF0E4A3F022BC
:10491D009001F8E0603A9001FAE004F0A3E0FF9016
:10492D0001FAE0FEC39F5009201B03439701D21BE0
:10493D00229001F9E0FFEEC39F5009301B035397FE
:10494D00FEC21B229001F8E014F0E49001FAF0226F
:03495D00C21B2258
:1000B600ECECECECECECECECECECECECECECECEC7A
:1000C600ECECECECECECECECECECECECECECECED69
:1000D600EDEEEFEFF0F1F1F2F2F3F4F4F5F6F6F6F9
:1000E600EDEDF8F8F9F9FAFAFBFBFCFCFDFDFEFE76
:1000F600FFFF0000010101020203030404040505D9
:10010600060607070708080909090A0A0B0B0B0C5C
:100116000C0D0D0D0E0E0F0F0F10101111111212E6
:100126001313131414141515161616171718181872
:1001360019191A1A1B1B1B1C1C1D1D1D1E1E1F1FF9
:10014600202020212122222323242424252526267B
:100156002727282829292A2A2B2B2C2C2D01010276
:10016600020303040405060708090A0C0D0F111300
:1001760015171A1D2023272A2E33373C40454A4F90
:10018600555A5F656A70757B80868B90969BA0A595
:10019600A9AEB2B7BBBFC3C6CACD292F353B4249AC
:1001A60050575E656C727980878D93999FA5AAAF2B
:1001B600B4B8BDC1C5C8CCCFD2D4D7D9DCDEE0E156
:1001C600E3E4E6E7E8E9EAEBECEDEEEEEFF0F0F17A
:1001D600F2F2F3F3F4F4F501020202030304050557
:1001E6000607080A0B0D0E10121417191C1F2226DB
:1001F6002A2D32363B3F44494F54595F646A707525
:100206007B81868B91969BA0A5AAAEB3B7BBBFC3D5
:10021600C7CACDD001020202030404050607080975
:100226000A0C0D0F111316181B1E2125292D30350A
:100236003A3E43484E53585E64696F757A80868BA2
:1002460090969BA0A5AAAEB3B7BBBFC3C7CACDD075
:10025600D302020203030405050607080A0B0D0E66
:10026600101215171A1D2023272B2F33383D42470E
:100276004C52575D62686E74797F858A90959A9F15
:10028600A4A9AEB2B7BBBFC3C6CACDD0D3D60202ED
:100296000203030405060708090A0C0D0F111416BC
:1002A600191B1F22262A2E32363B40454A50555BE3
:1002B60061666C72787E84898F94999FA4A8ADB28A
:1002C600B6BABEC2C6C9CDD0D3D6D802020303047D
:1002D60004050607080A0B0D0E101215171A1D2025
:1002E60024282C30353A3E43494E53595F656A708F
:1002F600767C82888D93989EA3A8ACB1B5BABEC20F
:10030600C5C9CCCFD2D5D8DA020203030405060745
:1003160008090A0C0E10121416191C1F23272B2F5E
:1003260034383D42484D52585E64696F757B81870B
:100336008D92989DA2A7ACB1B5B9BDC1C5C9CCCFA8
:10034600D2D5D7DADC0203030404050607080A0B34
:100356000D0F111316181B1E2225292E32373C416C
:10036600464C51575D62686E747A80868C91979C74
:10037600A2A6ABB0B5B9BDC1C5C8CCCFD2D5D7DA68
:10038600DCDE0203030405060708090B0C0E101237
:1003960015171A1D2124282C31363B40454B505643
:1003A6005C61676D73797F858A90969CA1A6ABAFD9
:1003B600B4B8BDC0C4C8CBCED1D4D7D9DCDEE00337
:1003C600030405050607090A0B0D0F111416191C5F
:1003D6002023272B3034393E44494F545A60666CEB
:1003E60072787E84898F959AA0A5ABAFB3B8BCC04E
:1003F600C4C7CBCED1D4D6D9DBDEE0E203030405F5
:10040600060708090B0C0E101315181B1E22262AA8
:100416002E33383D42484E53595F656B71777D8266
:10042600898E94999FA5A9AFB3B7BCC0C4C7CBCEDC
:10043600D1D4D6D9DBDDDFE1E303040505060809DF
:100446000A0C0D0F1214171A1D2124282D31363BC4
:1004560041464C52585E646A70767C81878D9298CC
:100466009DA3A8ADB2B6BABFC2C6C9CDD0D3D6D8A1
:10047600DADDDFE1E3E40404050607080A0B0D0FE5
:10048600111316181C1F23272B3034393E444A50AB
:10049600565C62686E757A80868B91979CA1A6AC35
:1004A600B0B6B9BEC1C5C9CCCFD2D5D7DADCDEE08D
:1004B600E2E4E60405060708090A0C0E10121517F1
:1004C6001A1E2125292E32373D42484E545B61675C
:1004D6006D73797F858A90969BA0A5AAAFB4B9BCA7
:1004E600C1C4C8CBCED1D4D7D9DCDEE0E2E4E5E79F
:1004F60004050607090A0C0D0F111416191C2024F1
:10050600282C31363B40464C53595F666C72787ED8
:1005160084898F949A9FA4A9AEB3B7BCC0C3C7CA37
:10052600CDD0D3D6D8DBDDDFE1E3E5E6E805060787
:1005360008090B0D0F111315181B1F22262A2F341D
:10054600393E444A51575E646B71777E83898E9437
:10055600999EA3A8ADB2B6BABFC3C6CACDD0D2D5EE
:10056600D8DADDDFE1E3E4E6E8E9050608090A0C86
:100576000E101214171A1D2125292D32373C424818
:100586004E555B62686F757C82888D92989DA2A796
:10059600ACB0B5B9BDC1C5C9CCCFD2D4D7D9DCDED4
:1005A600E0E2E4E6E7E8EA0607080A0B0D0F111495
:1005B60016191C2024282C31353B40464C52595FD5
:1005C600666D737A80868C92979CA1A6ABAFB4B801
:1005D600BCC0C4C8CBCED1D4D6D9DBDDE0E1E3E5DF
:1005E600E7E8E9EB0608090B0C0E101315181B1F9C
:1005F60022272B2F34393E444A50565D646A71785F
:100606007E848B90969BA0A5AAAEB3B7BBBFC3C78B
:10061600CACED0D3D6D8DADDDFE1E3E5E6E8E9EA0B
:10062600EB07080A0C0E101215171B1E22262A2F7E
:1006360033383D43484E545B61686F757C83898FC0
:10064600959A9FA4A9AEB2B6BABEC2C6C9CDD0D33A
:10065600D5D8DADCDEE0E2E4E6E7E9EAEBEC080925
:100666000B0D0F1114171A1D2125292E33373C4166
:10067600474D53595F666D737A81888E94999FA40E
:10068600A8ADB2B6BABEC1C5C9CCCFD2D5D7DADC11
:10069600DEE0E2E4E5E7E8EAEBECED090A0C0E1031
:1006A6001316191C1F23272C31363A40454B515738
:1006B6005D646A71787E858C92989DA3A7ACB1B56E
:1006C600B9BDC0C4C7CBCED1D4D6D9DBDDDFE1E31B
:1006D600E5E6E8E9EAEBEDED090B0D0F1214171B41
:1006E6001E22262A2F34393E44494F555B62686FD5
:1006F600767C838990969CA1A6ABB0B4B8BCC0C3E7
:10070600C7CACDD0D3D6D8DADDDFE0E2E4E6E7E942
:10071600EAEBECEDEE0A0C0E1113161A1D21252933
:100726002D32373D42484D535A60666D747A818842
:100736008E949AA0A5AAAFB3B7BBBFC3C6C9CCCF88
:10074600D2D5D7DADCDEE0E2E3E5E7E8E9EAECED8C
:10075600EEEF0B0D101215191C2024282C31363BF8
:1007660041464C52585E656B72797F868C93999F91
:10077600A4A9AEB2B7BBBEC2C5C9CCCFD2D4D7D955
:10078600DBDDDFE1E3E4E6E7E9EAEBECEDEEEF0DD6
:100796000F1214181B1F23272B30353A40454B5197
:1007A600575D636A70777E858B92989EA3A8ADB2DB
:1007B600B6BABEC2C5C8CBCED1D4D6D9DBDDDFE151
:1007C600E2E4E6E7E8EAEBECEDEEEFF00E101316E6
:1007D600191D21252A2E33383E43494F555B616842
:1007E6006E757C82898F969CA1A7ACB1B5B9BDC147
:1007F600C4C8CBCED0D3D6D8DADCDEE0E2E4E5E777
:10080600E8E9EAEBECEDEEEFF00F1114181B1F23ED
:10081600282D32373C42474D53595F666C737980B9
:10082600878D949AA0A5ABB0B4B9BDC0C4C7CACDD4
:10083600D0D3D5D8DADCDEE0E1E3E5E6E7E9EAEBBA
:10084600ECEDEEEFF0F01013161A1D22262B3035C4
:100856003B40464C52585E646B71787E858B92980D
:100866009EA4A9AEB3B8BCC0C3C7CACDD0D2D5D793
:10087600D9DCDEDFE1E3E4E6E7E8EAEBECEDEEEF18
:10088600EFF0F11215181C2025292E34393F454B5F
:1008960050565C636970767D838A90979DA2A8AD59
:1008A600B2B7BBBFC3C6CACCCFD2D5D7D9DBDDDF83
:1008B600E1E3E4E5E7E8E9EAEBECEDEEEFF0F1F190
:1008C60013171A1E23282D32383E444A50565C62AE
:1008D600686E757C82888F959BA1A7ACB1B6BBBFAD
:1008E600C3C6C9CCCFD2D5D7D9DBDDDFE1E2E4E59B
:1008F600E7E8E9EAEBECEDEEEFF0F0F1F215181CA3
:1009060021252A30353B41474D545960666C727932
:1009160080868D93999FA5AAAFB4B9BDC1C5C8CB32
:10092600CED1D4D6D9DBDDDFE0E2E3E5E6E7E9EADE
:10093600EBECEDEEEEEFF0F1F1F2161A1E23282D98
:1009460033393F454B51585D646A70777D848A918F
:10095600979DA3A8AEB2B7BCC0C4C7CBCDD0D3D6E3
:10096600D8DADCDEE0E2E3E4E6E7E8E9EAEBECED40
:10097600EEEFF0F0F1F2F2181C21262A30373D4353
:10098600494F565C62686E757B82888F959BA1A6DF
:10099600ACB1B6BABEC2C6C9CDCFD2D5D7DADCDEC7
:1009A600DFE1E3E4E5E7E8E9EAEBECEDEEEFEFF0B3
:1009B600F1F2F2F31A1F24292D343A41474D535AC6
:1009C60061666D737A80878D93999FA5AAAFB4B936
:1009D600BDC1C5C9CCCFD2D4D7D9DBDDDFE1E2E4D6
:1009E600E5E6E8E9EAEBECEDEEEEEFF0F1F1F2F335
:1009F600F31D22272C31383F454B51585F656B72EA
:100A0600787F858C91989EA4A9AEB3B8BCC0C4C8A3
:100A1600CBCED1D4D6D9DBDDDFE0E2E4E5E6E7E90B
:100A2600EAEBECEDEEEEEFF0F0F1F2F2F3F31F2469
:100A3600292F343B42484F555B62696F757C82892A
:100A46008F959BA1A7ACB1B6BABFC2C6CACDD0D34B
:100A5600D5D8DADCDEE0E1E3E4E6E7E8E9EAEBEC68
:100A6600EDEEEFEFF0F1F1F2F3F3F421262C31374E
:100A76003E454C52585F666D737980868D93999F7B
:100A8600A5AAAFB4B8BDC1C5C8CCCFD2D4D7D9DB1F
:100A9600DDDFE1E3E4E5E7E8E9EAEBECEDEEEEEFD6
:100AA600F0F1F1F2F2F3F3F423292E343A41484FF0
:100AB600565C636A71777E848B91979DA2A8ADB2CE
:100AC600B7BBBFC3C7CACED1D4D6D8DBDDDFE0E221
:100AD600E4E5E6E7E9EAEBECECEDEEEFF0F0F1F257
:100AE600F2F3F3F4F4262C31383E454C5359606743
:100AF6006E757B82888F959BA1A6ABB0B5BABEC238
:100B0600C6C9CDD0D3D5D8DADCDEE0E2E3E5E6E748
:100B1600E8E9EAEBECEDEEEFEFF0F1F1F2F2F3F3E8
:100B2600F4F4FF01DDFF021AFF0257FF0294FF02F1
:100B3600D1FF030EFF034BFF0388FF03C5FF04022B
:100B4600FF043FFF047CFF04B9FF04F6FF0533FFF3
:100B56000570FF05ADFF05EAFF0627FF0664FF06E1
:100B6600A1FF06DEFF071BFF0758FF0795FF07D209
:100B7600FF080FFF084CFF0889FF08C6FF0903FF9F
:100B86000940FF097DFF09BAFF09F7FF0A34FF0A8A
:070B960071FF0AAEFF0AEB3C
:104C5B004201DB00004101DD004101DEFF4101DFCC
:0E4C6B00004201E000004101E2004101E300CF
:10503700EF540FFFE59C54F04FF59C439C40E59CD3
:0650470030E4FBAF9F22E4
:104D0A00EFC394054006EFD394F04004D216800214
:104D1A00C216EFD394AC40057818762D22EF900096
:064D2A00B6937818F62292
:1041F6007F011250379001DDE0FEEFD39E4002EFC3
:10420600F09001DEE0FEEFC39E5002EFF09001DC7D
:10421600E02FF09001DBE03400F09001DFE004F0E5
:10422600E0C3940A40529001DDE0FF9001DCE09F7C
:10423600FF9001DBE09400FE9001DEE0FDC3EF9D00
:10424600FFEE94009001DBF0A3EFF09001DBE0FEBF
:10425600A3E07803CEC313CE13D8F9FF9001DBEEAB
:10426600F0A3EFF0124D0AE49001DFF09001DBF0CD
:08427600A3F0A3F0A374FFF014
:01427E00221D
:0543F0009001B7E0FFA1
:1043F500EDB405109001BA74FFF0A37401F0A37435
:1044050063F08037EDB42D109001BA74FFF0A374FA
:1044150001F0A374A0F08023ED75F003A42416F534
:1044250082E4340BF583E493F9740193FA740293EF
:104435009001BAC9F0A3EAF0A3E9F0E4FE9001BA4D
:10444500E0FBA3E0FAA3E0F98E827583001217B8AA
:0F445500FDEFC39D40050EEEB43CE2EE241EFFCA
:014464002235
:05355D009001B7EFF042
:103562007818E6FCD3648094855007E0FF7D05025D
:103572003653C3EC648094AD400A9001B7E0FF7DFE
:103582002D023653C37818E66480948650557D0622
:103592001243F09001B8EFF07D051243F09001B9AB
:1035A200EFF09001B8E0FDC3EF9DFDE49400FCE470
:1035B2001216E5C004C005C006C0077818E6FF333E
:1035C20095E0FEC374069FFDE49EFC1216E5D0034F
:1035D200D002D001D0001215DA12171E9001B8E005
:1035E2002F8066D37818E6648094AC9001B7E0FF30
:1035F200405B7D2C1243F59001B8EFF09001B7E0EB
:10360200FF7D2D1243F59001B9EFF09001B8E0C3B0
:103612009FFDE49400FCE41216E5C004C005C00658
:10362200C0077818E6FF3395E0FEEF24D4FDEE34B0
:10363200FFFC1216E5D003D002D001D0001215DA39
:1036420012171E9001B8E0C39F7817F6227818E689
:08365200FD1243F57817A607ED
:01365A00224D
:103FA2007816E6FF9001E1E02FF09001E0E03400A6
:103FB200F09001E2E004F0E0C394085003024041B3
:103FC2009001E0E0FEA3E07803CEC313CE13D8F94C
:103FD200F0EE9001E0F09001E3E004F0E0C3940819
:103FE2004004E4F0D2159001E0A3E0FD9001E3E08B
:103FF20024E4F582E43401F583EDF0301529E4FF81
:10400200FEFC74E42CF582E43401F583E02FFFE436
:104012003EFE0CECB408EBEF7803CEC313CE13D8FC
:10402200F99001B6F080059001B6EDF09001B6E08E
:0F403200FF12355DE49001E2F09001E0F0A3F0A1
:01404100225C
:1050ED007F01125037124D0A7F0212503702355D83
:1050A2009001D87407F0A37453F0C217E49001D2B0
:0450B200F0A3F02255
:10483D009001D2E0FCA3E0FDD39432EC940050043F
:10484D007F018036D3ED9464EC940050047F028098
:10485D0029D3ED9496EC940050047F03801CD3ED86
:10486D0094C8EC940050047F04800FD3ED942CEC8D
:0A487D00940150047F0580027F06BD
:01488700220E
:103CF9009001D8E07002A3E060259001D9E024FF8B
:103D0900F09001D8E034FFF0E07002A3E0701212E5
:103D1900483D9001DAEFF09001D6F0A3F08002D28D
:103D2900173018789001CAE0FFA3E0A3CFF0A3EF02
:103D3900F09001C8E0FFA3E0A3CFF0A3EFF090015A
:103D4900C6E0FFA3E0A3CFF0A3EFF09001D4E0FF1A
:103D5900A3E09001C6CFF0A3EFF0C218E49001D21E
:103D6900F0A3F0FFEF25E024C6F582E43401F583E2
:103D7900E0FCA3E0FD9001D3E02DF09001D2E03CFE
:103D8900F00FEFB404DE9001D2E0FEA3E07805CE97
:0C3D9900C313CE13D8F9F0EE9001D2F065
:013DA50022FB
:103C480020170BE49001CEF0A3F0A3023CF5124834
:103C58003D9001D7E0FEEFC39E400EE49001D0F006
:103C6800A3F09001DAEFF08038EFC39E503790014F
:103C7800D1E004F070069001D0E004F0D39001D1B7
:103C8800E094689001D0E0648094804018E4F0A348
:103C9800F09001DAE0D394014003E014F09001DAE7
:103CA800E09001D7F09001D6E0FF9001DAE0FED372
:103CB8009F401AE49001CFF09001CEE004F0E0D3E9
:103CC8009468402CE4F09001D6E004F022EEC39F03
:103CD8005017E49001CEF0A3E004F0E094D0401037
:103CE800E4F09001D6E014F022E49001CEF0A3F0C5
:013CF80022A9
:0A518000C212E49001F2F0A3F02245
:104D8D00D212EF7802C333CE33CED8F9FF7C007D3B
:0D4D9D00781218199001F2EEF0A3EFF02249
:10222D00900206E0FEA3E0240CF582E43EF58374F3
:10223D000193FA740293F91219DC30120B9001F22A
:10224D00E0FAA3E0FB4A700CE4F5BFF5BE9001F097
:10225D00F0A3F0222013289001F1E02414F0900156
:10226D00F0E03400F0D3A3E094209001F0E094036B
:10227D0050030223B57403F0A37420F00223B5209C
:10228D0014030223B59001ECE0FEA3E0FFC390011F
:10229D00EFE09F9001EEE09E400BA3E09FFF9001C9
:1022AD00EEE09E80149001EEE0FEA3E0FFC39001EE
:1022BD00EDE09FFF9001ECE09E9001B8F0A3EFF0F0
:1022CD00C39001EFE09B9001EEE09A406A9001F21D
:1022DD00E0FEA3E0FF9001EFE09FFF9001EEE09E96
:1022ED009001B6F0A3EFF0E0C4F8540FC868FF906A
:1022FD0001B6E0C454F048FE9001B9E02401FD9010
:10230D0001B8E03400FC1218199001BAEEF0A3EFF9
:10231D00F0D39001F1E09F9001F0E09E5003022375
:10232D00B39001BAE0FEA3E0FF9001F1E09FF090C1
:10233D0001F0E09EF0806F9001EEE0FEA3E0FFC3A0
:10234D009001F3E09FFF9001F2E09E9001B6F0A3A3
:10235D00EFF0E0C4F8540FC868FF9001B6E0C45424
:10236D00F048FE9001B9E02401FD9001B8E0340081
:10237D00FC1218199001BAEEF0A3EFF0C374A09FF0
:10238D00FF740F9EFEC39001F1E09F9001F0E09E5F
:10239D0050149001BAE0FEA3E0FF9001F1E02FF0A0
:1023AD009001F0E03EF0C2149001F0E0FCA3E0FDDE
:1023BD00ECF5BF8DBE9001EEE0FFA3E09001ECCFF8
:0423CD00F0A3EFF09A
:0123D10022E9
:104D6F000101030100DB0101050100DE0101070163
:0E4D7F0000E1071E121E111E161E0900161E50
:103755009001BA7405F0A374A0F090011574FFF000
:10376500E49001BCF09001BCE0FFC3940640030265
:103775003847EF75F003A4246FF582E4344DF583E3
:10378500E493FB740193FA740293F912179FC4131F
:103795001313540120E00302383D9001BCE0FF758E
:1037A500F003A4246FF582E4344DF583E493FB74B0
:1037B5000193FA740293F99000011217B8FD7C0089
:1037C500EF75F003A4246FF582E4344DF583E4939B
:1037D500FB740193FA740293F912179F547F75F0E5
:1037E5003CA42DFEEC35F09001BDF0A3CEF0900089
:1037F500EAE075F03CA4FFA3E02FFFEC35F0FE9066
:1038050001BDE0FCA3E0FDD39FEC9E402BED9FFDA9
:10381500EC9EFCD39001BBE09D9001BAE09C401862
:103825009001BEE09FFF9001BDE09E9001BAF0A31C
:10383500EFF0A3E0900115F09001BCE02402F00246
:02384500376AE0
:01384700225E
:1046A400E490010EF0900206E0FEA3E02406F582F9
:1046B400E43EF583740193FA740293F91219DC90C1
:1046C400010EE030E004C28C8002D28C90010EE036
:1046D40030E104D28E8002C28E90010EE030E204FA
:1046E400D28D8002C28D90010EE030E303D2A3226A
:0346F400C2A3223C
:104C2D00E58830E1239000D8E004F0E0D39405400E
:104C3D001CE4F0758703000000000000000053AB7A
:0D4C4D00EF53A8F753A8EF22E49000D8F031
:014C5A002237
:10437700C20190014A7404F0E4900103F09000DB5D
:10438700F0900105F09000DEF0900107F09000E159
:10439700F0900104F09000DCF0900106F09000DF4F
:1043A700F0900108F09000E2F0FF74EC2FF582E442
:1043B7003400F583E4F00FEFB414EFD20290010D4F
:1043C700E054FEF05401F090011574FFF090015491
:1043D700F0C20690015012199F00000000C204C2EB
:0843E70003E4900100F0A3F0D3
:0143EF0022AB
:1046F70043981E000000004398E14390C053C11E39
:1047070053B93F00000000E4FFE59820E5010FE5FD
:104717009820E604EF4402FFE59820E704EF4404FD
:10472700FFE59820E004EF4408FFE59020E704EF59
:104737004410FFE59020E604EF4420FF43C1E14326
:02474700B9C0F7
:01474900224D
:103ACA001246F79001B6EFF09001FEE06F603A906F
:103ADA0001B6E0702B9001FCE0FFD394054021EF82
:103AEA009496501C9001FF7402F0900206E0FEA327
:103AFA00E0F5828E83740193FA740293F91219DC49
:103B0A009001B6E09001FEF0229001FEE07009906B
:103B1A0001FCF0A3F0D21D22E49001FFF09001FC19
:103B2A00E004F0A3E004F0E0D3943C401F742DF0CD
:103B3A009001FF7404F0900206E0FEA3E0F5828E85
:103B4A0083740193FA740293F91219DC9001FCE070
:103B5A00FFB405089001FF7401F08019EFB4F8086A
:103B6A009001FF7403F0800DEFD394FA401D900189
:103B7A00FC74FAF022900206E0FEA3E0F5828E833E
:0B3B8A00740193FA740293F91219DC25
:013B9500220D
:0E514A00900034E41217F7900033E40217F7D8
:105079009000341217B8FF9000331217B8B5070320
:05508900D38001C322E9
:104A57009001C3EBF0A3EAF0A3E9F09001C3E0FBF8
:104A6700A3E0FAA3E0F99000341217B82401FFE499
:104A770033FE7C007D33121819AF059000331217EF
:094A8700B8B50503D38001C32278
:104F5E009000341217B82433FF9000331217B8FEA6
:0A4F6E00C3EF9E75F03384AFF0220C
:1044C9009001C2EDF09001BFEBF0A3EAF0A3E9F08F
:1044D900124A5740469001C2E0FF9001BFE0FBA39A
:1044E900E0FAA3E0F99000341217B8F58275830059
:1044F900EF1217F79000341217B82401FFE433FEC6
:104509007C007D33121819AF059001BFE0FBA3E0D1
:10451900FAA3E0F9900034ED1217F79001C2E0FF19
:01452900226F
:0B4647009001BFEBF0A3EAF0A3E9F044
:10465200E4A3F012507940449001BFE0FBA3E0FADA
:10466200A3E0F99000331217B8F582758300121790
:10467200B89001C2F09000331217B82401FFE4335E
:10468200FE7C007D33121819AF059001BFE0FBA339
:10469200E0FAA3E0F9900033ED1217F79001C2E0BF
:0146A200FF18
:0146A30022F4
:104888000101FF001E0201FF4CB40301FF45E804CB
:1048980001FF504D0501FF50630601FF4DAA0701B6
:1048A800FF4DC7080CFF42FD0901FF270E0A01FF53
:1048B8003DA60B06FF49600C01FF4AC80D01FF4DDC
:0B48C800E4F701FF2082FF06FF4F789D
:0511C3009001BAEFF0FD
:1011C800E4A3F090006FE0FBA3E0FAA3E0F97DF25E
:1011D8001244C990006FE0FBA3E0FAA3E0F97DF2A6
:1011E8001244C990006FE0FBA3E0FAA3E0F9900174
:1011F800BAE0FD1244C99001BBE02FF090006FE007
:10120800FBA3E0FAA3E0F97D251244C99001BBE0F5
:101218002FF090006FE0FBA3E0FAA3E0F99001142F
:10122800E0FD1244C99001BBE02FF090006FE0FB95
:10123800A3E0FAA3E0F99001D2E0FD1244C99001BD
:10124800BBE02FF090006FE0FBA3E0FAA3E0F99079
:1012580001D2A3E0FD1244C99001BBE02FF0900039
:101268006FE0FBA3E0FAA3E0F990014CE0FD124423
:10127800C99001BBE02FF090006FE0FBA3E0FAA358
:10128800E0F990014CA3E0FD1244C99001BBE02FA6
:10129800F090006FE0FBA3E0FAA3E0F9900100E012
:1012A800FD1244C99001BBE02FF090006FE0FBA352
:1012B800E0FAA3E0F9900100A3E0FD1244C990010F
:1012C800BBE02FF090006FE0FBA3E0FAA3E0F990F9
:1012D800010BE0FD1244C99001BBE02FF090006FB4
:1012E800E0FBA3E0FAA3E0F990010BA3E0FD1244B0
:1012F800C99001BBE02FF090006FE0FBA3E0FAA3D8
:10130800E0F97818E6FD1244C99001BBE02FF0908F
:10131800006FE0FBA3E0FAA3E0F97817E6FD1244BA
:10132800C99001BBE02FF090006FE0FBA3E0FAA3A7
:10133800E0F9300103E4800490014AE0FD1244C959
:101348009001BBE02FF090006FE0FBA3E0FAA3E070
:10135800F990010FE0B401047D0180027D00124480
:10136800C99001BBE02FF090006FE0FBA3E0FAA367
:10137800E0F99000E0E0B402047D0180027D0012F3
:1013880044C99001BBE02FF090006FE0FBA3E0FAA6
:10139800A3E0F9900110E0FD1244C99001BBE02FD1
:1013A800F090006FE0FBA3E0FAA3E0F99000DDE025
:1013B800FD1244C99001BBE02FF090006FE0FBA341
:1013C800E0FAA3E0F9900103E0FD1244C99001BBE3
:1013D800E02FF090006FE0FBA3E0FAA3E0F99001A2
:1013E80004E0FD1244C99001BBE02FF090006FE0CB
:1013F800FBA3E0FAA3E0F99000DBE0FD1244C990FA
:1014080001BBE02FF090006FE0FBA3E0FAA3E0F946
:101418009000DCE0FD1244C99001BBE02FF0900081
:101428006FE0FBA3E0FAA3E0F9900105E0FD1244A8
:10143800C99001BBE02FF090006FE0FBA3E0FAA396
:10144800E0F9900106E0FD1244C99001BBE02FF0DD
:1014580090006FE0FBA3E0FAA3E0F99000DEE0FD66
:101468001244C99001BBE02FF090006FE0FBA3E0AD
:10147800FAA3E0F99000DFE0FD1244C99001BBE057
:101488002FF090006FE0FBA3E0FAA3E0F9900107CA
:10149800E0FD1244C99001BBE02FF090006FE0FB23
:1014A800A3E0FAA3E0F9900108E0FD1244C9900115
:1014B800BBE02FF090006FE0FBA3E0FAA3E0F99007
:1014C80000E1E0FD1244C99001BBE02FF090006FED
:1014D800E0FBA3E0FAA3E0F99000E2E0FD1244C9C2
:1014E8009001BBE02FF090006FE0FBA3E0FAA3E0CF
:1014F800F9E4FD1244C99001BBE02FF090006FE0C1
:10150800FBA3E0FAA3E0F9E4FD1244C99001BBE0B3
:101518002FF090006FE0FBA3E0FAA3E0F9E4FD12DE
:1015280044C99001BBE02FF090006FE0FBA3E0FA04
:10153800A3E0F9E4FD1244C99001BBE02FF090004C
:101548006FE0FBA3E0FAA3E0F9E4FD1244C99001BF
:10155800BBE02FF090006FE0FBA3E0FAA3E0F9E412
:10156800FD1244C99001BBE02FF090006FE0FBA38F
:10157800E0FAA3E0F9E4FD1244C99001BBE02FF0C2
:1015880090006FE0FBA3E0FAA3E0F9E4FD1244C980
:101598009001BBE02FF090006FE0FBA3E0FAA3E01E
:1015A800F9E4FD1244C99001BBE02FF090006FE010
:1015B800FBA3E0FAA3E0F99001BBE0FD1244C99057
:1015C800006FE0FBA3E0FAA3E0F97D7E1244C902B4
:0215D8000026EB
:01006A002273
:05001E007F010211C387
:104CB400900074E0FF900114F0BF01067E4F7F293D
:104CC40080047E4E7F6CD20CC20D12474A7B0F7D4E
:0B4CD4000A7F01124E007F020211C394
:1045E800900114E064017052900074E0FF700CD2E6
:1045F800019001DAE09001D6F08002C20190014AF0
:10460800E0B40118EF6401600A9000DD7401F090D5
:104618000110F0E49000DDF0900110F0900074E0DB
:10462800FF90014AF0BF0109E49000DDF09001100D
:0F463800F07B0F7D0A7F01124E007F030211C33A
:10504D00900074E090010FF07B0F7D0A7F01124EEE
:06505D00007F040211C3F4
:10506300900074E09000E0F07B0F7D0A7F01124E08
:06507300007F050211C3DD
:104DAA00900114E0B40111900074E0900110F07BBE
:0D4DBA000F7D0A7F01124E007F060211C31B
:104DC700900114E0B40111900074E09000DDF07BD5
:0D4DD7000F7D0A7F01124E007F070211C3FD
:1042FD00900074E0900103F0900075E0900104F0DF
:10430D00900076E09000DBF0900077E09000DCF01C
:10431D00900078E0900105F0900079E0900106F0B2
:10432D0090007AE09000DEF090007BE09000DFF0EE
:10433D0090007CE0900107F090007DE0900108F086
:10434D0090007EE09000E1F090007FE09000E2F0C0
:10435D00D20290010DE054FEF01237557B0F7D0A0D
:0A436D007F01124E007F080211C309
:10270E00900074E09001BCB4010D7401F0A374014B
:10271E00F0A37416F0800B7401F0A37401F0A3748F
:10272E0030F090006FE0FBA3E0FAA3E0F97DF21227
:10273E0044C990006FE0FBA3E0FAA3E0F97DF2122A
:10274E0044C990006FE0FBA3E0FAA3E0F97D091203
:10275E0044C99001BAEFF090006FE0FBA3E0FAA33A
:10276E00E0F97D1A1244C99001BAE02FF09001BC35
:10277E00E0FBA3E0FAA3E0F912179FFD90006FE0D3
:10278E00FBA3E0FAA3E0F91244C99001BAE02FF0DE
:10279E009001BCE0FBA3E0FAA3E0F9900001121750
:1027AE00B8FD90006FE0FBA3E0FAA3E0F91244C974
:1027BE009001BAE02FF0E4A3F09001BBE0FFC394C8
:1027CE000C506DA3E0FBA3E0FAA3E02402F9E43A77
:1027DE00FA75F002EFA4F58285F08312186EE5F01B
:1027EE00FD90006FE0FBA3E0FAA3E0F91244C9905C
:1027FE0001BAE02FF09001BCE0FBA3E0FAA3E024C5
:10280E0002F9E43AFA9001BBE075F002A4F5828574
:10281E00F08312186EFD90006FE0FBA3E0FAA3E0C8
:10282E00F91244C99001BAE02FF0A3E004F08089B8
:10283E0090006FE0FBA3E0FAA3E0F99001BAE0FD8F
:10284E001244C990006FE0FBA3E0FAA3E0F97D7E8D
:0F285E001244C97B0F7D0A7F01124E0002002633
:103DA60090006FE0FBA3E0FAA3E0F97DF21244C9AC
:103DB60090006FE0FBA3E0FAA3E0F97DF21244C99C
:103DC60090006FE0FBA3E0FAA3E0F97D0A1244C974
:103DD6009001BAEFF090006FE0FBA3E0FAA3E0F9E0
:103DE6007D141244C99001BAE02FF0E4A3F09001CB
:103DF600BBE0FFC39414502690006FE0FBA3E0FAEB
:103E0600A3E0F974EC2FF582E43400F583E0FD12AB
:103E160044C99001BAE02FF0A3E004F080D09000EE
:103E26006FE0FBA3E0FAA3E0F99001BAE0FD1244CB
:103E3600C990006FE0FBA3E0FAA3E0F97D7E12448F
:0D3E4600C97B0F7D0A7F01124E000200268D
:10496000900074E0FEA3E07C002400FFEC3E900089
:10497000E6F0A3EFF0900076E09000E8F09000778A
:10498000E09000E9F0900078E09000EAF090007983
:10499000E09000EBF07B0F7D0A7F01124E007F0B51
:0349A0000211C33E
:104AC800D203A201920790014AE0900102F09001FE
:104AD80010E09000E4F09000DDE0900113F07E4ECD
:104AE8007F6CD20CC20D12474A7B0F7D0A7F0112E0
:074AF8004E007F0C0211C308
:104DE4001243777E4E7F6CD20CC20D12474A7B0F62
:0C4DF4007D0A7F01124E007F0D0211C3EA
:10208200E49001BAF090006FE0FBA3E0FAA3E0F95C
:102092007DF21244C990006FE0FBA3E0FAA3E0F9DD
:1020A2007DF21244C990006FE0FBA3E0FAA3E0F9CD
:1020B2007DF71244C99001BAE02FF090006FE0FB67
:1020C200A3E0FAA3E0F97D0E1244C99001BAE02F11
:1020D200F090006FE0FBA3E0FAA3E0F97D01124467
:1020E200C99001BAE02FF090006FE0FBA3E0FAA3E1
:1020F200E0F97D3F1244C99001BAE02FF090006FE1
:10210200E0FBA3E0FAA3E0F97D011244C99001BA11
:10211200E02FF090006FE0FBA3E0FAA3E0F97D3F2F
:102122001244C99001BAE02FF090006FE0FBA3E0E7
:10213200FAA3E0F97D011244C99001BAE02FF090B0
:10214200006FE0FBA3E0FAA3E0F9E4FD1244C990BA
:1021520001BAE02FF090006FE0FBA3E0FAA3E0F9F0
:10216200E4FD1244C99001BAE02FF090006FE0FB49
:10217200A3E0FAA3E0F9E4FD1244C99001BAE02F0A
:10218200F090006FE0FBA3E0FAA3E0F9E4FD124453
:10219200C99001BAE02FF090006FE0FBA3E0FAA330
:1021A200E0F9E4FD1244C99001BAE02FF090006F0B
:1021B200E0FBA3E0FAA3E0F9E4FD1244C99001BAFE
:1021C200E02FF090006FE0FBA3E0FAA3E0F9E4FD5A
:1021D2001244C99001BAE02FF090006FE0FBA3E037
:1021E200FAA3E0F9E4FD1244C99001BAE02FF0909D
:1021F200006FE0FBA3E0FAA3E0F9E4FD1244C9900A
:1022020001BAE02FF090006FE0FBA3E0FAA3E0F93F
:102212009001BAE0FD1244C990006FE0FBA3E0FA1E
:0B222200A3E0F97D7E1244C9020026F3
:104F7800900074E09000D9F0900075E090014BF03B
:094F8800900076E09000E5F022B3
:0851C200D21EE4900203F0226A
:103EFF0090006FE0FBA3E0FAA3E0F97D2B1244C919
:103F0F0090006FE0FBA3E0FAA3E0F97D2B1244C908
:103F1F0090006FE0FBA3E0FAA3E0F97D2B1244C9F8
:103F2F0090006FE0FBA3E0FAA3E0F97D411244C9D2
:103F3F0090006FE0FBA3E0FAA3E0F97D741244C98F
:103F4F0090006FE0FBA3E0FAA3E0F97D431244C9B0
:103F5F0090006FE0FBA3E0FAA3E0F97D6D1244C976
:103F6F0090006FE0FBA3E0FAA3E0F97D641244C96F
:103F7F0090006FE0FBA3E0FAA3E0F97D0D1244C9B6
:103F8F0090006FE0FBA3E0FAA3E0F97D0A1244C9A9
:033F9F00020026F7
:1038480090006FE0FBA3E0FAA3E0F97D411244C9C0
:1038580090006FE0FBA3E0FAA3E0F97D541244C99D
:1038680090006FE0FBA3E0FAA3E0F97D2B1244C9B6
:1038780090006FE0FBA3E0FAA3E0F97D441244C98D
:1038880090006FE0FBA3E0FAA3E0F97D651244C95C
:1038980090006FE0FBA3E0FAA3E0F97D661244C94B
:1038A80090006FE0FBA3E0FAA3E0F97D611244C940
:1038B80090006FE0FBA3E0FAA3E0F97D751244C91C
:1038C80090006FE0FBA3E0FAA3E0F97D6C1244C915
:1038D80090006FE0FBA3E0FAA3E0F97D741244C9FD
:1038E80090006FE0FBA3E0FAA3E0F97D3D1244C924
:1038F80090006FE0FBA3E0FAA3E0F97D311244C920
:1039080090006FE0FBA3E0FAA3E0F97D0D1244C933
:1039180090006FE0FBA3E0FAA3E0F97D0A1244C926
:0339280002002674
:1023D2009001B774FFF0A37400F0A3746AF0900048
:1023E2006CE0FBA3E0FAA3E0F99000341217B8FF07
:1023F2009000331217B86F700302257290003312E7
:1024020017B8F5827583001217B89001B6F09000E4
:10241200331217B82401FFE433FE7C007D33121817
:1024220019AF0590006CE0FBA3E0FAA3E0F990007D
:1024320033ED1217F7301E1E9001B6E0B4F114907E
:102442000203E004F0E064027094C21EF090020005
:10245200F0808B02256A9001B6E0FF900203E0242F
:1024620072F582E43400F583EFF0900200E02FF081
:10247200900203E004F0E0FFB4010B900072E090E0
:102482000202F00223E0EF6402600302251A9002C6
:1024920002E0FFD39400402AEFD3940D5024E0755C
:1024A200F005A42484F582E43448F583E493900291
:1024B20001F0EF75F005A42485F582E43448F58334
:1024C2008026900202E0FFB4F70E9048CAE493908F
:1024D2000201F09048CB8010EFB4FF239048CFE484
:1024E20093900201F09048D0E493F9740193FA7446
:1024F20002939001B7C9F0A3EAF0A3E9F080028049
:102502000F900073E0FF900201E06F70030223E07E
:10251200D21EE4900203F022900201E02404FFE4C0
:1025220033FE900203E0C39FEE6480F874809850FB
:10253200030223E0900201E0FF2474F582E43400F8
:10254200F583E0FE2EFE74752FF582E43400F583E8
:10255200E02EFF900200E0B5070C9001B7A3E0FA6D
:10256200A3E0F91219DCD21EE4900203F00223E088
:012572002246
:104AFF007B017A00790090006CEBF0A3EAF0A3E958
:104B0F00F012514A7B017A00793590006FEBF0A3D8
:104B1F00EAF0A3E9F012514AE490006AF0C219A337
:034B2F00F0C21AB7
:014B32002260
:10002600201A4090006FE0FBA3E0FAA3E0F9124F1C
:100036005EEFC39401500122EFB4011290006FE00D
:10004600FBA3E0FAA3E0F91246478FF58012900071
:100056006FE0FBA3E0FAA3E0F91246478FF5D21A48
:0300660043EAC0AA
:010069002274
:0951B1003019051223D2C21922A3
:104E1B00FF00A2FF00A2FF00A2FF00A2FF00A2FF63
:0B4E2B0000A2FF00A2FF00A2FF00A2F7
:054C79004202064E1B83
:0100A200223B
:10474A009001BBEEF0A3EFF0300D1A900206E0FEE6
:10475A00A3E02418F582E43EF583740193FA740207
:10476A0093F91219DC9001BBE0FFA3E0900206CF97
:10477A00F0A3EFF0300C1A900206E0FEA3E0241535
:10478A00F582E43EF583740193FA740293F91219DF
:02479A00DC221F
:104E3600FF5206FF365BFF5207FF5208FF5209FF7B
:0B4E4600520AFF520BFF520CFF520DEE
:015206002285
:10365B00124D30900164E0440FF0900163E044F0B0
:10366B00F09000E5E0B4011590014BE0B4010E9031
:10367B000183E04420F090018CE04438F090015F2E
:10368B00E04401F0900164E04470F0900187E04465
:10369B0003F090018CE04444F090018FE04402F081
:1036AB00A3E04420F0900194E04418F090017FE0F7
:1036BB004440F0900184E04420F0900180E04440CD
:1036CB00F0900178E04410F090017BE04480F044EE
:1036DB0003F0900167E04401F090018FE04401F0AA
:1036EB00900194E04440F04420F04404F04402F094
:1036FB004401F07818E6FF12452A7817E6FF1245C9
:10370B00899000EAE0FFA3E0FDC20DC20E1239FC66
:10371B009000D9E0FF7E001231597F0412006E7FBA
:10372B00021248D390016BE04408F090016FE04423
:10373B0040F0900174E04402F0301107900193E0E7
:0A374B0044C0F090019674FFF022D4
:015207002284
:015208002283
:015209002282
:01520A002281
:01520B002280
:01520C00227F
:01520D00227E
:104E5100FF520EFF518AFF520FFF4F91FF51F1FF99
:0B4E61005210FF5211FF5158FF521277
:01520E00227D
:0A518A0090019674FFF0FF02508EB2
:01520F00227C
:104F91009000DAE004F0E0D39414400B7E4E7F6C75
:084FA100D20CC20D12474A2296
:0351F100025180E8
:01521000227B
:01521100227A
:0E515800E49000DAF090020A748DF0C210228A
:015212002279
:104E6C00FF325BFF335DFF5213FF2E33FF51F4FF14
:0B4E7C002D24FF5214FF4A90FF521536
:10325B0090014EE07006743CF0C21D2290014E743A
:10326B003CF0201D0302335C30060B9001FEE06442
:10327B0020600302335C9001FFE064027046900112
:10328B00FEE0B4200F7B147D0F7F01124E007E4FAA
:10329B007F2980789001FEE0B4020F7B147D0F7FB5
:1032AB0001124E007E4E7FA280629001FEE0641000
:1032BB00600302335C7B147D0F7F01124E007E4F47
:1032CB007F0E80489001FFE0640170599001FEE091
:1032DB00B4040F7B147D0F7F01124E007E4E7F874F
:1032EB00802A9001FEE0B4010F7B147D0F7F011249
:1032FB004E007E4E7FBD80149001FEE0B408147B1F
:10330B00147D0F7F01124E007E4E7FD8D20CC20D62
:10331B0002474A9001FEE064127036123EFF9002A3
:10332B0009740380169001FFE0640370249001FE82
:10333B00E0B4100AB206900208743CF0800A9001C7
:10334B00FEE0B4200C1243777B147D0F7F01124EED
:02335B0000224E
:10335D0090014EE07008900196E04420F02290011B
:10336D0096E04420F090017CE04401F0900178E07B
:10337D00440EF0900177E04438F090017CE0447009
:10338D00F0E4FFFE1231599000EAE0FFA3E0FDC228
:10339D000DC20E1239FC301118900193E044C0F0AB
:1033AD0030060E900187E04403F090018CE0444418
:1033BD00F090010DE0FD30E05B90018FE04402F0F4
:1033CD00A3E04420F0900194E04418F0EDC31354B1
:1033DD007F14601614601E2402702090018FE0444B
:1033ED0001F0900194E04404F022900194E04440F7
:1033FD00F04402F022900194E0801490018FE0449B
:10340D0001F0900194E04404F04440F04402F04493
:10341D0020F0801E30023A900115E0FDF4603290EC
:10342D00018FE04402F0A3E04420F0ED700890011C
:10343D008FE04401F022900115E0FDB402089001E7
:10344D0094E04440F022EDB40407900194E0442050
:02345D00F0225B
:015213002278
:102E3300900209E0600814F0E07003123848900033
:102E4300E3E0601590014EE0600214F0900208E0A8
:102E5300600714F0E07002C206200506201F03027B
:102E63002F40C21F90010DE030E04FC313547FFF8A
:102E730064037003022F40EF25E025E02481F582EF
:102E8300E4344DF583E493FF9000EAE0FEEF6E60D7
:102E930003022F4090010DE0C313547F25E025E08A
:102EA3002482F582E4344DF583E493FF9000EBE054
:102EB300FEEF6E6003022F40806F200203022F405B
:102EC300900115E0FFF46075EF75F003A4246FF52E
:102ED30082E4344DF583E493FB740193FA74029313
:102EE300F912179F547FFF9000EAE06F704F900133
:102EF30015E0FFFD3395E0FC904D6F75F003ED1287
:102F030019D0EC75F003A42583F583E493FB7401D6
:102F130093FA740293F99000011217B8FE9000EB34
:102F2300E0B50619900154EFF07B147D0F7F011279
:0E2F33004E007E4F7F29D20CC20D12474A225B
:0351F400025180E5
:102D240090014EE07004743CF02290014E743CF02B
:102D3400900204E07003A3E0F470147B147D0F7F11
:102D440001124E007E4F7F29D20CC20D02474A90D9
:102D54000204E064307004A3E064CF701E90010D9F
:102D6400E030E00554FEF0800790010DE04401F0EE
:102D740090010DE054014406022E28900204E06400
:102D8400B07004A3E0644F702490010DE020E003D0
:102D9400022E32C313547F7009E054014406F0023A
:102DA4002E2990010DE05401F0D21F807890020486
:102DB400E064707004A3E0648F702490010DE0302F
:102DC400E06CC313547FFFBF0108E054014406F0D4
:102DD400800B90010DE054014402F0D21F80469014
:102DE4000204E064F07004A3E0640F702490010D09
:102DF400E030E03AC313547FFFBF0208E0540144BB
:102E040006F0800B90010DE054014404F0D21F80C1
:102E140014900204E0B49016A3E0B46F11B20690CB
:0F2E24000208743CF07B147D0F7F01124E0022D8
:015214002277
:104A9000C200E4900114F0900209F0D21090020AD2
:104AA000748DF090014E743CF0C206C21F90015408
:104AB00074FFF090010DE020E0063002031237553C
:084AC000E4900109F0A3F022CB
:015215002276
:104E8700FF427FFF4C88FF5216FF4FA9FF51F7FFE4
:0B4E97005217FF5218FF5194FF5219F0
:0F512C009000EAE004F0E0C394184002E4F0229F
:1050FD009000EAE0600314F0229000EA7417F022A9
:0F513B009000EBE004F0E0C3943C4002E4F0226B
:10510D009000EBE0600314F0229000EB743BF02272
:10427F00E49000DAF09001FFE0FF64016005EF6465
:10428F0004706A9001FEE0FFB408189001FFE0B4DB
:10429F0004012290020BE004F0E0D39402403EE4CC
:1042AF00F0803AEFB4021690020BE0FF7005125146
:1042BF002C8025EF6401702512513B801B9001FE6D
:1042CF00E06410702890020BE0FF70051250FD8023
:1042DF0007EFB4010812510DE490014FF09001FF68
:0E42EF00E0B401097B147D0F7F01124E002206
:104C8800301107900193E044C0F09000EAE0FFA3E0
:104C9800E0FD90020BE0FE7003D38001C3920DEE9D
:0C4CA800B40103D38001C3920E0239FC5A
:015216002275
:104FA9009000DAE004F0E0D39432400B7E4E7F6C3F
:084FB900D20CC20D12474A227E
:0351F700025180E2
:015217002274
:015218002273
:0A519400E49000DAF090020BF02224
:015219002272
:104EA200FF49E1FF4CDFFF521AFF4FC1FF51FAFFEA
:0B4EB200521BFF521CFF51CAFF521D93
:1049E100E49000DAF09001FFE0B403169001FEE0DC
:1049F100640270277B147D0F7F01124E00C220C21A
:104A010004229001FFE0B402129001FEE0B4020B17
:0C4A11007B147D0F7F01124E00D220228A
:104CDF0030200E900187E04403F090018CE04444B3
:104CEF00F0E47B3CFAF9F8900150E0FCA3E0FDA35F
:0B4CFF00E0FEA3E0FF1218E202345FA9
:01521A002271
:104FC1009000DAE004F0E0D39468400B7E4E7F6CF1
:084FD100D20CC20D12474A2266
:0351FA00025180DF
:01521B002270
:01521C00226F
:0851CA00E49000DAF0D220228B
:01521D00226E
:104EBD00FF1ECFFF286DFF521EFF4FD9FF51FDFF83
:0B4ECD00521FFF5220FF519EFF522198
:101ECF00E49000DAF02002030220819001FFE06429
:101EDF0001600302208190020CE0FFC31375F00331
:101EEF00A4246FF582E4344DF583E493F9740193E0
:101EFF00FA7402939001BAC9F0A3EAF0A3E9F0EFE4
:101F0F0013920C9001FEE0B4081190020CE004F063
:101F1F00E0D3940C4002E4F00220789001FEE064DC
:101F2F00026003021FC09001BAE0FBA3E0FAA3E036
:101F3F00F912179F44801217E5300C3C9001BAE05C
:101F4F00FBA3E0FAA3E02401F9E43AFA12179FFF8A
:101F5F00EF041217E59001BAE0FBA3E0FAA3E0F952
:101F6F009000011217B8C3943C4043E92401F9E4EF
:101F7F003AFA12179FE480339001BAE0FBA3E0FA1C
:101F8F00A3E0F912179FFF5480FEEF04547F4E1207
:101F9F0017E59001BAE0FBA3E0FAA3E0F912179F4F
:101FAF00FF547FC394184006EF54801217E50220A8
:101FBF00789001FEE06410707A9001BAE0FBA3E024
:101FCF00FAA3E0F912179F44801217E5300C3A90EC
:101FDF0001BAE0FBA3E0FAA3E0F99000011217B8F1
:101FEF00600FE92401F9E43AFA12179FFFEF14800A
:101FFF003D9001BAE0FBA3E0FAA3E02401F9E43A33
:10200F00FA12179FE4743B80259001BAE0FBA3E01E
:10201F00FAA3E0F912179FFF547F600BEF5480FE75
:10202F00EF14547F4E800712179F548044171217D6
:10203F00E580369001FEE06420703790020CE0C31B
:10204F00940C502E9001BAE0FBA3E0FAA3E0F91232
:10205F00179FFFC4131313540130E005EF547F8013
:10206F000512179F44801217E57B147D0F7F011215
:02207F004E0011
:01208100223C
:10286D0020023490018FE04402F0A3E04420F09068
:10287D000194E04418F02011030229B490018FE077
:10288D004401F0900194E04440F04420F04404F001
:10289D004402F04401F02290020CE0640C701D30F3
:1028AD00111390018FE04402F0A3E04420F0900159
:1028BD0094E04418F07F107E2702345F90020CE004
:1028CD00FFC31375F003A4246FF582E4344DF58333
:1028DD00E493FB740193FA740293F9EF13920C9045
:1028ED00020CE0B40C0040030229819028FFF82867
:1028FD0028730229230229230229350229350229A9
:10290D0041022941022956022956022962022962F1
:10291D0002297702297790018FE04402F0A3E04469
:10292D0020F090018FE08049900194E04418F0442C
:10293D0004F0804090018FE04402F0A3E04420F0C9
:10294D00900194E04440F0802B900194E04418F005
:10295D004402F0801F90018FE04402F0A3E0442078
:10296D00F0900194E04420F0800A900194E0441826
:10297D00F04401F012179FFFC4131313540130E0FC
:10298D0016EF547FFF9000011217B8FDA20CB39201
:10299D000DA20C920E800DA20CB3920DA20C920EF4
:0729AD007D647F641239FC18
:0129B4002200
:01521E00226D
:104FD9009000DAE004F0E0D39434400B7E4E7F6C0D
:084FE900D20CC20D12474A224E
:0351FD00025180DC
:01521F00226C
:01522000226B
:0A519E00E490020CF09000DAF02219
:01522100226A
:104ED800FF4D50FF4B33FF5222FF4FF1FF5200FFAF
:0B4EE8005223FF5224FF51E7FF522528
:104D5000E49000DAF09001FFE0B401129001FEE06F
:0F4D6000B4080BB2027B147D057F01124E0022B6
:104B330090018FE04402F0A3E04420F0900194E060
:104B43004418F020020330111A90018FE04401F061
:104B5300900194E04440F04420F04404F04402F017
:044B63004401F022F7
:015222002269
:104FF1009000DAE004F0E0D39434400B7E4E7F6CF5
:08500100D20CC20D12474A2235
:03520000025180D8
:015223002268
:015224002267
:0651E700E49000DAF02262
:015225002266
:104F0E00FF4A1DFF2AEFFF5226FF5009FF5203FFF3
:0B4F1E005227FF5228FF4EF3FF5229DC
:104B9A0090020DE004F0E0FFC394065025EF75F093
:104BAA0003A4246FF582E4344DF583E493FB740186
:104BBA0093FA740293F912179FC413131354013012
:034BCA00E0CE2218
:104A1D00E49000DAF03002319001FFE0640170297A
:104A2D009001FEE0B4082290020DE0F4601B124BE1
:104A3D009A90020DE0C39406400674FFF0124B9A53
:0A4A4D007B147D057F01124E00224C
:102AEF0020023390018FE04402F0A3E04420F090E5
:102AFF000194E04418F0201103022C0C90018FE098
:102B0F004401F0900194E04440F04420F04404F07C
:102B1F004402F0022C0990020DE0B4FF077F107EF3
:102B2F002702345F90020DE0FF75F003A4246FF5C8
:102B3F0082E4344DF583E493FB740193FA740293AA
:102B4F00F912179F547FFEEF75F003A4246FF582DF
:102B5F00E4344DF583E493FB740193FA740293F913
:102B6F009000011217B8FDAF06C20DC20E1239FC4C
:102B7F00900193E044C0F090020DE01460251460C2
:102B8F00311460451460511460652405706F900115
:102B9F008FE04402F0A3E04420F030116090018FE9
:102BAF00E08057900194E04418F0301150E0440455
:102BBF00F02290018FE04402F0A3E04420F03011A6
:102BCF003C900194E04440F022900194E04418F0CE
:102BDF0030112AE04402F02290018FE04402F0A36A
:102BEF00E04420F0301116900194E04420F0229040
:0D2BFF000194E04418F0301104E04401F0AE
:012C0C0022A5
:015226002265
:105009009000DAE004F0E0D39434400B7E4E7F6CDC
:08501900D20CC20D12474A221D
:03520300025180D5
:015227002264
:015228002263
:104EF300E49000DAF090020D74FFF0124B9A9002E6
:0B4F03000DE0C39406400374FFF02291
:015229002262
:104F2900FF29B5FF19E2FF416BFF0B9DFF4465FFA8
:0B4F39001CEEFF522AFF2F41FF522BFD
:094C7E004601A4AA000000000098
:1029B50090014EE07011C21090020A748DF09001E2
:1029C5004E743CF0C21D2290014E743CF0201D0354
:1029D500022AEE9001FFE0640270199001FEE064A6
:1029E500206003022AEE7E4E7F6CD20CC20D124788
:1029F5004A022AD69001FFE064016003022AA290F0
:102A050001FEE0640870619001AAF0A3F0C22130D4
:102A1500010990014A04F0C201801E90014AE004B8
:102A2500F0E0D394054012D2019001DAE09001D68E
:102A3500F0301705B40102D22190014AE0FFB4013C
:102A450006E49000DD8012EFD394014011900198C7
:102A5500E0B4010A9000DD7401F0900110F09001DE
:102A65004AE0900198F080699001FEE0B40213906D
:102A750000DDE070047F0180027F009000DDEFF053
:102A8500804F9001FEE06410705F900110E07004CB
:102A95007F0180027F00900110EFF080349001FFEC
:102AA500E0640370449001FEE06420702A9001AC5C
:102AB500741EF0D203A201920790014AE090010230
:102AC500F0900110E09000E4F09000DDE09001133B
:102AD500F07B147D0F800D9001FEE0B40C0BD2004D
:0A2AE5007B647D327F01124E002257
:1019E2009001ACE06044201103021CED90015FE025
:1019F2004401F0900164E04470F0900163E044F02F
:101A0200F090017BE04403F0900167E04401F09024
:101A12000178E04410F090017BE04480F07F0312F3
:101A2200006E900167E04401F022124D3090014BAC
:101A3200E0FDB401099000E5E0B40102800FED641D
:101A42000160079000E5E0B4011130110E900183AE
:101A5200E04420F090018CE04438F030061130115F
:101A62000E900187E04403F090018CE04444F0D3EF
:101A720090010AE09405900109E09400400A3011B7
:101A820007900164E0440FF090016BE04408F0908D
:101A9200016FE04440F0900174E04402F09001D202
:101AA200E0FEA3E0FF1231593017069001DAE08020
:101AB2000B90014FE075F00684E5F004FF1249A394
:101AC2003016097F1912452A7F32800B7818E6FFFB
:101AD20012452A7817E6FF12458990017FE04440BB
:101AE200F0900184E04420F0900180E04440F090C6
:101AF20000EAE0FFA3E0FDC20DC20E1239FC301174
:101B020007900193E044C0F0900178E04410F09017
:101B1200017BE04480F0200103021BA8E04403F0B3
:101B2200900167E04401F030177330213190017B5E
:101B3200E05483F0900178E054EFF090017BE054A0
:101B42007FF0A3E04401F0900178E0440EF09001B0
:101B520077E04438F090017CE04470F0805D9001C1
:101B6200D6E0D3940250097F0112006E7F048048B0
:101B72009001D6E0D3940350097F0212006E7F03D6
:101B820080369001D6E0D3940450097F0312006E90
:101B92007F0280247F0412006E7F01801B7F03126C
:101BA200006E7F02801290014AE0FF12006E9001E7
:101BB2004AE0FFC374059FFF1248D32021239000FF
:101BC200DDE0B4010E90015FE04401F0900164E0B9
:101BD2004470F0900110E0B40107900163E044F01A
:101BE200F030040E900187E04403F090018CE04451
:101BF20044F090010DE0FD30E05490018FE044028A
:101C0200F0A3E04420F0900194E04418F0EDC313F7
:101C1200547F1460101460162402701890018FE033
:101C22004401F08054900194E04440F0807A9001A5
:101C320094E0801490018FE04401F0900194E0441C
:101C420004F04440F04402F04420F0021CD1900120
:101C520054E0FDF4607C900194E04418F0ED7022B1
:101C6200904D7293FB740193FA740293F912179FC9
:101C7200C4131313540130E059900194E04404F06A
:101C82008050900154E0FDB40223904D78E493FB20
:101C9200740193FA740293F912179FC41313135425
:101CA2000130E02E900194E04402F08025EDB4046E
:101CB20021904D7EE493FB740193FA740293F9121E
:101CC200179FC4131313540130E007900194E044AA
:101CD20001F090014EE0900196600C74FFF0E05428
:0C1CE200DFF0E054BFF022E04410F022DC
:10416B0090010EE04408F03021030241F59001105C
:10417B00E090010EB40106E04402F08004E054FD2F
:10418B00F09000DDE090010EB40106E04401F080F8
:10419B0004E054FEF030060F90010EE054FBF0E407
:1041AB00900109F0A3F02290010EE04404F0E580A9
:1041BB0020E507E4900109F0A3F0900109E0FEA3CC
:1041CB00E0FFD394F0EE9400400AEF94F8EE9407DE
:1041DB005002800FD390010AE094FD900109E09406
:0B41EB0007400790010EE054FBF0229B
:100B9D009001ACE0601914F0E070147E4E7F6CD2C1
:100BAD000CC20D12474A7B147D0F7F01124E00902F
:100BBD0000E3E07003020D09202103300609E490E3
:100BCD000109F0A3F08030C390010AE09434900144
:100BDD0009E094085021A3E004F07006900109E0AB
:100BED0004F0C390010AE094FD900109E0940740E0
:100BFD0006E4F0A374F1F030012A9001DAE0B401BB
:100C0D00219001ABE004F070069001AAE004F0D34E
:100C1D009001ABE094589001AAE09402400FD221CC
:100C2D00800B8000C221E49001AAF0A3F090014E48
:100C3D00E0600D14F0E07008D21090020A7480F09C
:100C4D00900197E004F09001D2E0FEA3E0FF900147
:100C5D009DE02FF090019CE03EF0900197E0C39451
:100C6D003C5003020D09E4F0900112E004F0E09411
:100C7D003C4008E4F0900111E004F090019BE00489
:100C8D00F0E0C3943C4010E4F0900101E004F070FA
:100C9D0006900100E004F0900111E0701EA3E0FF4A
:100CAD00D394035016EF9403505290019CE0FEA391
:100CBD00E0FF7C007DB4121819803290019CE0FE9B
:100CCD00A3E0FF7C007D3C121819D39001AEE09F8C
:100CDD009001ADE09E4016A3E09FFD9001ADE09E1A
:100CED00FC90014DE02DF090014CE03CF09001ADF9
:100CFD00EEF0A3EFF0E490019CF0A3F020050302C9
:100D0D0011C29001D2E0FEA3E0FF9001A1E02FF00F
:100D1D009001A0E03EF090019EE004F0E0C3940A43
:100D2D005003020E03E4F0900199E0FB640C707A1D
:100D3D009001BAF09001BAE0FFC36480948B5032F9
:100D4D00EF3395E0FEEF25E0FFEE33FE741A2FF53D
:100D5D008274013EF583E0FCA3E0FD74182FF5824B
:100D6D0074013EF583ECF0A3EDF09001BAE004F0D0
:100D7D0080C29001A0E0FEA3E0FF7C007D0A121866
:100D8D001990012EE4F0A3EFF0900117E0240AF082
:100D9D00E0C3943C404AE024C4F0900116E004F016
:100DAD00E0C39418403AE4F08036EB70109000EAFE
:100DBD00E0900116F09000EBE0900117F09001A08B
:100DCD00E0FEA3E0FF7C007D0A121819900199E066
:100DDD0025E02418F582E43401F583E4F0A3EFF067
:100DED00900199E004F0E0C3940C4003740CF0E41E
:100DFD009001A0F0A3F09001D2E0FEA3E0FF9001DE
:100E0D00A3E02FF09001A2E03EF090019FE004F0EE
:100E1D00E0C3941E5003020EF7E4F090019AE0FB3C
:100E2D00640C707A9001BAF09001BAE0FFC364804F
:100E3D00948B5032EF3395E0FEEF25E0FFEE33FE5D
:100E4D0074342FF58274013EF583E0FCA3E0FD744C
:100E5D00322FF58274013EF583ECF0A3EDF0900195
:100E6D00BAE004F080C29001A2E0FEA3E0FF7C0096
:100E7D007D1E121819900148E4F0A3EFF090013196
:100E8D00E0240AF0E0C3943C404AE024C4F0900111
:100E9D0030E004F0E0C39418403AE4F08036EB7093
:100EAD00109000EAE0900130F09000EBE0900131FD
:100EBD00F09001A2E0FEA3E0FF7C007D1E12181948
:100ECD0090019AE025E02432F582E43401F583E4C3
:100EDD00F0A3EFF090019AE004F0E0C3940C40030E
:100EED00740CF0E49001A2F0A3F090010DE030E05D
:100EFD0050C313547FFF64037003021020EF25E0ED
:100F0D0025E02483F582E4344DF583E493FF9000CE
:100F1D00EAE0FEEF6E600302102090010DE0C313B6
:100F2D00547F25E025E02484F582E4344DF583E4F7
:100F3D0093FF9000EBE0FEEF6E60030210200210B5
:100F4D000C900154E0FFF47003021020EF049001A7
:100F5D00BAF075F003A4246FF582E4344DF583E403
:100F6D0093FB740193FA740293F912179FC4131330
:100F7D0013540120E0069001BA74FFF09001BAE01D
:100F8D00F47021900111E0640260030210207E4E86
:100F9D007F6CD20CC20D12474A7B147D0F7F01125C
:100FAD004E00806F9001BAE0FF75F003A4246FF539
:100FBD0082E4344DF583E493FB740193FA74029348
:100FCD00F912179F547FFE9000EAE06E7045EF33E3
:100FDD0095E0FE904D6F75F003EF1219D0EE75F0A0
:100FED0003A42583F583E493FB740193FA740293B0
:100FFD00F99000011217B8FF9000EBE0B507147BD4
:10100D00147D0F7F01124E007E4E7F6CD20CC20DEF
:10101D0012474A3006030210C8900150E0FCA3E0CD
:10102D00FDA3E0FEA3E02401FFE43EFEE43DFDE46C
:10103D003CFC900150121993E47F307E75FDFC90BD
:10104D000150E0F8A3E0F9A3E0FAA3E0FBC3121905
:10105D00824035E490010BF0A3F07B307A75F9F8FE
:10106D00900150E0FCA3E0FDA3E0FEA3E0FF121809
:10107D00E2AC00AD01AE02AF03E4FBFAF9F8C31226
:10108D0019827037D2048033900150E0F8A3E0F953
:10109D00A3E0FAA3E0FBC374309BFF74759AFEE4E2
:1010AD0099FDE498FCE47B3CFAF9F81218E2EF2480
:1010BD0001FFE43E90010BF0A3EFF090014AE02414
:1010CD00FE604414606F14700302116D14700302FE
:1010DD001198240460030211C29001A5E004F0E010
:1010ED00C3943C50030211C2E4F09000EDE004F013
:1010FD0070069000ECE004F09000F7E004F070341E
:10110D009000F6E004F0229001A6E004F0E0C39414
:10111D003C50030211C2E4F09000EFE004F07006C1
:10112D009000EEE004F09000F9E004F070069000FD
:10113D00F8E004F0229001A7E004F0E0C3943C40F5
:10114D0074E4F09000F1E004F070069000F0E0041B
:10115D00F09000FBE004F070069000FAE004F0223D
:10116D009001A8E004F0E0C3943C4049E4F0900005
:10117D00F3E004F070069000F2E004F09000FDE062
:10118D0004F070069000FCE004F0229001A9E00448
:10119D00F0E0C3943C401EE4F09000F5E004F070E4
:1011AD00069000F4E004F09000FFE004F07006906B
:0511BD0000FEE004F05B
:0111C200220A
:104465003021030251803001263017219001D6E01A
:10447500D394025002802D9001D6E0D394035002CC
:1044850080289001D6E0D39404502B80238021907E
:10449500014AE024FE601314601614601914601CB0
:1044A5002404701F7F587E0280167F847E0380104F
:1044B5007FB07E04800A7F407E0680047FFC7E08F4
:0444C500124D8D22E5
:101CEE0090014EE0700FC21090020A748DF09001B8
:101CFE004E743CF02290014E743CF0900204E07061
:101D0E0003A3E0F470147B147D0F7F01124E007E4E
:101D1E004E7F6CD20CC20D02474A900204E06480E2
:101D2E007004A3E0647F701C9001AAF0A3F0C2219E
:101D3E00D2019001DAE09001D6F0301770B40102B2
:101D4E00D2218069900204E0B4402BA3E0B4BF26F8
:101D5E00E49001AAF0A3F0C22190014A04F0C2015E
:101D6E00E49000DDF0900110F090019804F07B14E7
:101D7E007D0FFF021ECB900204E064A07004A3E06E
:101D8E00645F70329001AAF0A3F0C22190014A74F0
:101D9E0002F0C201900198E0B4010A9000DD7401D6
:101DAE00F0900110F090014AE0900198F07B147DC4
:101DBE000F7F01021ECB900204E064607004A3E06A
:101DCE00649F70329001AAF0A3F0C22190014A7470
:101DDE0003F0C201900198E0B4010A9000DD740195
:101DEE00F0900110F090014AE0900198F07B147D84
:101DFE000F7F01021ECB900204E064C07004A3E0CA
:101E0E00643F70329001AAF0A3F0C22190014A748F
:101E1E0004F0C201900198E0B4010A9000DD740153
:101E2E00F0900110F090014AE0900198F07B147D43
:101E3E000F7F01021ECB900204E064207004A3E029
:101E4E0064DF70319001AAF0A3F0C22190014A74B0
:101E5E0005F0C201900198E0B4010A9000DD740112
:101E6E00F0900110F090014AE0900198F07B147D03
:101E7E000F7F018048900204E0B4101EA3E0B4EF7F
:101E8E00199000DDE070047F0180027F009000DD7C
:101E9E00EFF07B147D0F7F018023900204E0B4E00D
:101EAE001FA3E0B41F1A900110E070047F0180029E
:101EBE007F00900110EFF07B147D0F7F01124E001A
:011ECE0022F1
:01522A002261
:102F41009001147401F0C210C221E49001ACF09020
:102F510001AAF0A3F0900199F090019EF09001A0D8
:102F6100F0A3F090019AF090019FF09001A2F0A3DC
:102F7100F090020A748DF090014E743CF01250A250
:102F8100200310C20190014A7403F09001107401F2
:102F9100F08018A2079201900102E090014AF0909E
:102FA10000E4E0900110F0900113E09000DDF0905A
:102FB100014AE0900198F0E4900197F090014CF003
:102FC100A3F0900111F0A3F09001A4E0FF9000E8BC
:102FD100E0FE6F60249001A4EEF0E49000F6F0A30F
:102FE100F09000F8F0A3F09000FAF0A3F09000FC4C
:102FF100F0A3F09000FEF0A3F0E49001ADF0A3F097
:1030010090019CF0A3F0900109F0A3F0FFEF25E0FF
:103011002418F582E43401F583E4F0A3F0EF25E010
:103021002432F582E43401F583E4F0A3F00FEFB428
:103031000CDB9000EAE0FF900116F09000EBE0FE5F
:0C304100900117F0900130EFF0A3EEF0CA
:01304D002260
:01522B002260
:1015DA00EC4D6011E8497017ED33EC3304600DE40B
:1015EA00FCFFFEFD22E933E8330470F802178A1281
:1015FA00175558046009E4CC248150062850090282
:10160A001794284003021791C0E0EB4A7044B9804E
:10161A0006D0E0FB021780EF4E701CBD8008EBFF7E
:10162A00EAFEE9FD80EBE98DF0A4FEE5F00216C3BF
:10163A00E9CDF9EAFEEBFFEF89F0A4FCE5F0CE89EB
:10164A00F0A42EFFE435F0CD89F0A42DFEE435F0A8
:10165A008067EF4E7005BD80D780C3EF8BF0A4ACD6
:10166A00F0EE8BF0A42CFCE435F0F8EF8AF0A42C11
:10167A00E5F038FCE433CB8DF0A42CFCE5F03BF824
:10168A00EE8AF0A42CFCE5F038F8E433CF89F0A414
:10169A002CFCE5F038CF3400CE89F0A42FFFE5F01A
:1016AA003EFEE433C98DF0A42EFEE5F039CD8AF072
:1016BA00A42FFFE5F03EFEE43DFD33D0E0FB5007EA
:1016CA000BBB000F021794EC2CFCEF33FFEE33FE3A
:0616DA00ED33FD02176C68
:1016E00075F020800E75F010800575F0087D007E85
:1016F000007F003392D530D503121974EC334010BB
:10170000EF33FFEE33FEED33FDEC33FCD5F0ED228D
:0E171000E5F0247EA2D513CC92E7CDCEFF22C9
:10171E00EDD2E7CD33EC3392D524814006E4FFFEC3
:10172E00FDFC22FCE4CFCECDCC24E0501174FF8022
:10173E00EDC3CC13CCCD13CDCE13CECF13CF0470BF
:07174E00F030D5DE02197432
:10175500E9D2E7C933E833F892D5EDD2E7CD33ECDA
:0717650033FC5002B2D52253
:10176C00EC30E7100FBF000C0EBE00080DBD0004DE
:10177C000BEB6014A2D5EB13FCED92E7FD2274FF8A
:10178C00FCFDFEFF22E480F8A2D574FF13FC7D80E3
:03179C00E480EFF7
:10405C0002392BE493A3F8E493A34003F68001F216
:10406C0008DFF48029E493A3F85407240CC8C33365
:10407C00C4540F4420C8834004F456800146F6DF34
:10408C00E4800B0102040810204080904C5BE47E1D
:10409C00019360BCA3FF543F30E509541FFEE49329
:1040AC00A360010ECF54C025E060A840B8E493A3F0
:1040BC00FAE493A3F8E493A3C8C582C8CAC583CA1B
:1040CC00F0A3C8C582C8CAC583CADFE9DEE780BED3
:014C8700002C
:10179F00BB010689828A83E0225002E722BBFE0248
:0917AF00E32289828A83E493227B
:1017B800BB010CE58229F582E5833AF583E02250E6
:1017C80006E92582F8E622BBFE06E92582F8E22230
:0D17D800E58229F582E5833AF583E493224A
:1017E500BB010689828A83F0225002F722BBFE01E3
:0217F500F322DD
:1017F700F8BB010DE58229F582E5833AF583E8F028
:10180700225006E92582C8F622BBFE05E92582C8D3
:02181700F222BB
:10181900BC000BBE0029EF8DF084FFADF022E4CCB3
:10182900F875F008EF2FFFEE33FEEC33FCEE9DEC7C
:10183900984005FCEE9DFE0FD5F0E9E4CEFD22EDC2
:10184900F8F5F0EE8420D21CFEADF075F008EF2F0C
:10185900FFED33FD4007985006D5F0F222C398FDFD
:051869000FD5F0EA229A
:10186E00BB0110E58229F582E5833AF583E0F5F0B8
:10187E00A3E0225009E92582F886F008E622BBFE95
:10188E000AE92582F8E2F5F008E222E5832AF583DB
:08189E00E993F5F0A3E99322A0
:1018A60075F008758200EF2FFFEE33FECD33CDCCF9
:1018B60033CCC58233C5829BED9AEC99E58298407C
:1018C6000CF582EE9BFEED9AFDEC99FC0FD5F0D659
:1018D600E4CEFBE4CDFAE4CCF9A88222B800C1B983
:1018E6000059BA002DEC8BF084CFCECDFCE5F0CBC1
:1018F600F97818EF2FFFEE33FEED33FDEC33FCEBFA
:1019060033FB10D703994004EB99FB0FD8E5E4F9B4
:10191600FA227818EF2FFFEE33FEED33FDEC33FCA1
:10192600C933C910D7059BE99A4007EC9BFCE99A95
:10193600F90FD8E0E4C9FAE4CCFB2275F010EF2FDA
:10194600FFEE33FEED33FDCC33CCC833C810D707DA
:101956009BEC9AE899400AED9BFDEC9AFCE899F815
:0E1966000FD5F0DAE4CDFBE4CCFAE4C8F922A8
:0E197400C3E49FFFE49EFEE49DFDE49CFC2284
:10198200EB9FF5F0EA9E42F0E99D42F0E89C45F0BB
:011992002232
:0C199300ECF0A3EDF0A3EEF0A3EFF022C7
:10199F00A8828583F0D083D0821219B61219B6129D
:1019AF0019B61219B6E473E493A3C583C5F0C583C2
:1019BF00C8C582C8F0A3C583C5F0C583C8C582C892
:0119CF0022F5
:0C19D000A42582F582E5F03583F5832222
:0619DC008A838982E47396
:00000001FF
