:03001B0002241CA0
:10241C00C0E0C0F0C083C082C0D075D000C000C086
:0D242C0001C002C003C004C005C006C00707
:1024390090006A7404F090006CE0FBA3E0FAA3E05A
:10244900F9900034121191F582758300E5F51211A6
:10245900BE9000341211912401FFE433FE7C007D0B
:10246900331211E0AF0590006CE0FBA3E0FAA3E0A2
:10247900F9900034ED1211BE9000341211912433F9
:10248900FFE433FE900033121191FDC3EF9DFFEE7F
:102499009400FE7C007D331211E0AF05EFD3941F49
:0424A9004002D20912
:1024AD00D007D006D005D004D003D002D001D00083
:0B24BD00D0D0D082D083D0F0D0E0322D
:030023000227E2CF
:1027E200C0E0C0F0C083C082C0D075D000C000C0BD
:1027F20001C002C003C004C005C006C00790006F3C
:10280200E0FBA3E0FAA3E0F9900033121191F58204
:10281200758300121191F5F5900033121191240184
:10282200FFE433FE7C007D331211E0AF0590006FB0
:10283200E0FBA3E0FAA3E0F9900033ED1211BE90A1
:102842000034121191FF900033121191B50705C2A5
:102852000A53EA3FD007D006D005D004D003D002F5
:0F286200D001D000D0D0D082D083D0F0D0E032DF
:03006B0002311946
:10311900C0E0C083C0829001C5E004F0D082D083B2
:03312900D0E032C1
:0300A300022749E8
:10274900C0E0C083C082C0D075D000C004C005C03D
:0327590006C007B0
:10275C009001C5E0FEADB37C00E42DFFEC3E900192
:10276C00BDF0A3EFF043B2019001C5E4F09001BDC0
:10277C00E07002A3E07004C2018011D39001BEE0AE
:10278C00940A9001BDE094004002D201D202B2043E
:10279C009001C3E004F0E0C394024008E4F090011F
:1027AC00C6E004F0438D20E58830E1167587030000
:1027BC000000000000000053ABEF53A8F753A8EF44
:0527CC00800343AB1087
:1027D100D007D006D005D004D0D0D082D083D0E0AD
:0127E10032C5
:0300B30002176DC4
:10176D00C0E0C083C082C0D075D000C000C001C031
:03177D0006C0079C
:10178000E59030E4097812E64402F6021837781240
:10179000E620E10302183754FDF64401F67809E625
:1017A000FF7025C3780BE6946518E6940050030299
:1017B0001837187601780C76007812E654DFF67840
:1017C0000D7600087600806FEF6401704C780EE6AD
:1017D00025E0790EF718E63319F7C3780BE6940E77
:1017E00018E694004006780EE64401F6780A760082
:1017F0000876000806E6C39420403C08E6FF08E6A9
:101800009001D2CFF0A3EFF0780976027812E64487
:1018100010F64408F6D20E801E7809E6B40218C30A
:10182000780BE6949218E69404400C18760078122F
:10183000E654F7F654FEF67812E6FF30E028780B0F
:1018400006E618700106C3780BE6949218E6940435
:1018500040147600087600EF54FE7812F678097688
:101860000054F77812F6781106E6D394045006C2B5
:1018700093D29280127811E6D39408500AD293C280
:1018800092E6B408027600E59030E11D780FE6FE9E
:1018900008E6FF4E600A900193EEF0A3EFF0D20647
:1018A000780F76000876008008781006E618700138
:1018B00006780806E6C39432401676009001C47498
:1018C00001F090006AE06008E014F0E07002D209D4
:1018D000D007D006D001D000D0D0D082D083D0E0C5
:0118E00032D5
:030000000226AF26
:1026AF0078FFE4F6D8FD90001B7FE57E03E4F0A3EE
:0A26BF00DFFCDEFA75812202270419
:1021F900122F2C12313E12006E1231E2123150129E
:1022090030DD9001D6748EF0D2A37E307F0CD20BD4
:10221900C20C122BDD7B0F7D0A7F01122FD6438D55
:10222900201231D17815E6D3941940147811E69427
:1022390006400D7F0212308A7816A607E47815F653
:102249009001C4E060D8E4F0300E1CC20E9001D4B5
:10225900E0FEA3E0240FF582E43EF583740193FACE
:10226900740293F912127B7813060806080678138C
:10227900E614601E24FE600C14600E2402700F1216
:102289002D66800E12236F800912142C8004E478C5
:1022990013F6781406E6C3940F4083E4F6122E97DA
:0C22A90012287112260F1222B502222703
:0731EA00759CA0E4F59D2295
:0F316000EF540FFFE59C54F04FF59C439C402229
:0D00A600758B66438B08538B7F43AB102294
:10312C00EF6007E5974401FF8005E59754FEFF8F9C
:02313C009722D8
:0731F100E4F597758F3E2203
:0831DA00E4F59AF599F59B223A
:0D317D0075B28E75B4FF43AA0243B2012261
:1000030075BB2043BB3075BAC0E4F5BFF5BE75BD03
:080013000F75BC9F43BB802266
:1030740075EA0275E90643EAECE4F5EB75F3674398
:06308400A80843A8102279
:04320900438D2022AF
:0931C800758E88758DC002320974
:0D318A0075968875890175898143AB042213
:0731F80075C829E4F58A22E5
:102C2F0075A1C375AC20E4F591F5DEF58075B1FCA7
:102C3F00F5ADF592F5DFF58875B9CD75AE10F59355
:102C4F00F59075C1FFF5AFF59875C9FF75A304F53C
:102C5F0094F5A075D1D1F595F5B0F5D375D252F5A0
:102C6F00D575D4F3F5D775D603F5EEF5EF75FF28C7
:012C7F002232
:102F2C0075D88353A87F122C2F1231F81231EA1264
:102F3C0000A61231F11231DA12317D120003123077
:0B2F4C00741231C812318A43A88022A1
:10302700E4FEEF30E004D2A28002C2A2D2A1EFC335
:0930370013FFC2A10EEEB408E97A
:01304000226D
:0B2C80009001ABEBF0A3EAF0A3E9F039
:102C8B00C2A07F08123027D2A0C2A09001AFE044AF
:102C9B00C0FF123027E4FCECC39D501A9001ABE04F
:102CAB00FBA3E0FAA3E0F98C82758300121191FF6C
:102CBB001230270C80E1D2A0C2A09001D6E0FF1207
:042CCB003027D2A03C
:012CCF0022E2
:101A37001F0C1B1E0C16171C1F1E80004040C0C029
:101A4700C000C0C01F0C1B1E0C16171C1F1E400019
:101A570020206060600060603F18363C192D2F38E9
:101A67003F3D000080808080800080803F18363CAA
:101A7700192D2F383F3D0000404040404000404076
:101A87007F3C737E3C4E4F7C7F7EE00090107070F1
:101A9700F000F070070307070304040707077F60D8
:101AA7001C7063737F607F7300008080808080007C
:101AB70080803F1E393F1E27273E3F3F7800640442
:101AC7001C1C7C007C1C01000101000101010101BB
:101AD700FFF0CEF8F1393FF0FFF9400020206060B9
:101AE700600060601F0F1C1F0F13131F1F1F00F8DC
:101AF70000E4841C9CFC00FC9C040F070E0F0709E4
:101B0700090F0F0F007E40396147677F407F6701EC
:101B17000301030301020203030300FF609CF0E3D8
:101B2700737FE0FFF300000040404040400040402A
:101B3700401F0F1C1F0F13131F1F1F00F800E48403
:071B47001C9CFC00FC9C0447
:1030B500E4FE74452EF582E43401F583EFF00EEE5F
:0330C500B440EF25
:0130C80022E5
:102F7B0090014574FFF0A3F0A3F0900149F0A3F08A
:102F8B00A3F090014DE044FEF0A374FFF0A3F022F8
:1028FA00900143E004F0E0C39F400EE4F0A3E0043B
:10290A00F0E0D394084002E4F090016AE04401F058
:10291A00900144E0B40900505290292AF8282873FB
:10292A0002296D02296D02296102295A02295302DC
:10293A00294C02294502297A02297A90016AE0443F
:10294A000EF090016AE04470F0900165E04407F0EF
:10295A00900165E04438F0900165E044C0F0A3E0DE
:10296A004401F0900166E0440EF022E4900144F044
:01297A00223A
:102DA900EF14603214602814601E14601414600A51
:102DB90014702A900155E04406F0900155E044084A
:102DC900F0900155E04410F0900155E04420F09056
:0E2DD9000155E04440F0900155E04480F022A6
:102AC200EFD3946340027F63EF75F00A84FDEF75E4
:102AD200F00A84ACF0ED6024900172E0FFED901AF0
:102AE2003793FEEF4E900172F0900171E0FFAE0558
:102AF200EE901A4193FEEF4E900171F0900171E059
:102B0200FFEC901A4B93FEEF4E900171F09001761C
:0E2B1200E0FFEC901A5593FEEF4E900176F026
:012B20002292
:102B2100EFD3946340027F63EF75F00A84FDEF7584
:102B3100F00A84ACF0ED602490016EE0FFED901A94
:102B41005F93FEEF4E90016EF090016DE0FFAE05D8
:102B5100EE901A6993FEEF4E90016DF090016DE0D9
:102B6100FFEC901A7393FEEF4E90016DF09001729D
:0E2B7100E0FFEC901A7D93FEEF4E900172F0A3
:012B7F002233
:041C5C00AB07AA0622
:101C6000D3EB940FEA942740047A277B0F7C037D03
:101C7000E8AF03AE021211E09001ABEFF07C007D03
:101C800064AF03AE021211E07C007D0A1211E0A3E2
:101C9000EDF07C007D0AAF03AE021211E07C007D06
:101CA0000A1211E0A3EDF0AE02AF037C007D0A1230
:101CB00011E0AB0590015AE0FE9001ABE0FD901AF7
:101CC0008793FCEE4C90015AF0900159E0FFED90A3
:101CD0001A9193FEEF4EFF900159F09001ACE0FE97
:101CE000901A9B934F900159F090015EE0FFEE90A7
:101CF0001AA593FEEF4E90015EF090015DE0FF901B
:101D000001ACE0901AAF93FEEF4EFF90015DF090B2
:101D100001ADE0FE901AB9934F90015DF090016221
:101D2000E0FFEE901AC393FEEF4EFF900162F0EBDE
:101D3000901ACD934F900162F0900161E0FFEB901B
:101D40001AD793FEEF4E900161F0900166E0FFAE6E
:0D1D500003EE901AE193FEEF4E900166F055
:011D5D002263
:10212B00EF75F00A84F9EF75F00A84AEF0ED75F0F7
:10213B000A84FCED75F00A84ABF0EFD394184004DD
:10214B00790A7E0AEDD3943C40047C0A7B0A300B5F
:10215B0003300444900176E0FFE9901AEB93FDEF16
:10216B004D900176F0900175E0FFE9901AF693FD22
:10217B00EF4D900175F0900151E0FFEE901B019334
:10218B00FDEF4D900151F0900156E0FFEE901B0CCE
:10219B0093FEEF4E900156F0300C0330044F90013C
:1021AB007AE0FFEC901B1793FEEF4E90017AF090C4
:1021BB000179E0FFEC901B2293FEEF4E900179F03A
:1021CB0090017EE0FFEC901B2D93FEEF4EFF9001F4
:1021DB007EF0EB901B38934F90017EF090017DE0E9
:0D21EB00FFEB901B4393FEEF4E90017DF043
:0121F80022C4
:041D5E00AB07AA061F
:101D62007C037DE81211E09001CFEFF07C007D64EE
:101D7200AF03AE021211E07C007D0A1211E0A3ED66
:101D8200F07C007D0AAF03AE021211E07C007D0AF6
:101D92001211E0A3EDF07C007D0AAF03AE02121136
:101DA200E0A905D3EB940FEA9427400B9001CF747E
:101DB2000AF0A3F0A3F0F9900176E0FE9001CFE0E3
:101DC200FD901AEB93FCEE4C900176F0900175E0D9
:101DD200FFED901AF693FEEF4E900175F0900151CF
:101DE200E0FF9001D0E0FE901B0193FDEF4D9001CA
:101DF20051F0900156E0FFEE901B0C93FEEF4E90D7
:101E02000156F090017AE0FF9001D1E0FE901B179D
:101E120093FDEF4D90017AF0900179E0FFEE901B77
:101E22002293FEEF4E900179F090017EE0FF900147
:101E3200D1E0901B2D93FEEF4EFF90017EF0E990D2
:101E42001B38934F90017EF090017DE0FFE9901BDB
:091E52004393FEEF4E90017DF078
:011E5B002264
:102E9700E4FF1230B5E4900184F09001D4E0FEA382
:102EA700E0F5828E83A3A3A3740193FA740293F9C6
:102EB70012127B7B017A017945E49001AFF07D3FE7
:032EC700022C805A
:10313E00C20DE49001C7F09001CAF09001C8F0A34F
:02314E00F0226D
:102FD600EBD39D5003ED04FB9001C7EFF09001CABF
:0B2FE600EDF09001C8EBF0E4A3F02236
:102D66009001C7E0603A9001C9E004F0A3E0FF904B
:102D760001C9E0FEC39F5009200D03439701D20D00
:102D8600229001C8E0FFEEC39F5009300D03539710
:102D9600FEC20D229001C7E014F0E49001C9F022B2
:032DA600C20D2239
:1000B600ECECECECECECECECECECECECECECECEC7A
:1000C600ECECECECECECECECECECECECECECECED69
:1000D600EDEEEFEFF0F1F1F2F2F3F4F4F5F6F6F6F9
:1000E600EDEDF8F8F9F9FAFAFBFBFCFCFDFDFEFE76
:1000F600FFFF0000010101020203030404040505D9
:10010600060607070708080909090A0A0B0B0B0C5C
:100116000C0D0D0D0E0E0F0F0F10101111111212E6
:100126001313131414141515161616171718181872
:1001360019191A1A1B1B1B1C1C1D1D1D1E1E1F1FF9
:10014600202020212122222323242424252526267B
:100156002727282829292A2A2B2B2C2C2D01010276
:10016600020303040405060708090A0C0D0F111300
:1001760015171A1D2023272A2E33373C40454A4F90
:10018600555A5F656A70757B80868B90969BA0A595
:10019600A9AEB2B7BBBFC3C6CACD292F353B4249AC
:1001A60050575E656C727980878D93999FA5AAAF2B
:1001B600B4B8BDC1C5C8CCCFD2D4D7D9DCDEE0E156
:1001C600E3E4E6E7E8E9EAEBECEDEEEEEFF0F0F17A
:1001D600F2F2F3F3F4F4F501020202030304050557
:1001E6000607080A0B0D0E10121417191C1F2226DB
:1001F6002A2D32363B3F44494F54595F646A707525
:100206007B81868B91969BA0A5AAAEB3B7BBBFC3D5
:10021600C7CACDD001020202030404050607080975
:100226000A0C0D0F111316181B1E2125292D30350A
:100236003A3E43484E53585E64696F757A80868BA2
:1002460090969BA0A5AAAEB3B7BBBFC3C7CACDD075
:10025600D302020203030405050607080A0B0D0E66
:10026600101215171A1D2023272B2F33383D42470E
:100276004C52575D62686E74797F858A90959A9F15
:10028600A4A9AEB2B7BBBFC3C6CACDD0D3D60202ED
:100296000203030405060708090A0C0D0F111416BC
:1002A600191B1F22262A2E32363B40454A50555BE3
:1002B60061666C72787E84898F94999FA4A8ADB28A
:1002C600B6BABEC2C6C9CDD0D3D6D802020303047D
:1002D60004050607080A0B0D0E101215171A1D2025
:1002E60024282C30353A3E43494E53595F656A708F
:1002F600767C82888D93989EA3A8ACB1B5BABEC20F
:10030600C5C9CCCFD2D5D8DA020203030405060745
:1003160008090A0C0E10121416191C1F23272B2F5E
:1003260034383D42484D52585E64696F757B81870B
:100336008D92989DA2A7ACB1B5B9BDC1C5C9CCCFA8
:10034600D2D5D7DADC0203030404050607080A0B34
:100356000D0F111316181B1E2225292E32373C416C
:10036600464C51575D62686E747A80868C91979C74
:10037600A2A6ABB0B5B9BDC1C5C8CCCFD2D5D7DA68
:10038600DCDE0203030405060708090B0C0E101237
:1003960015171A1D2124282C31363B40454B505643
:1003A6005C61676D73797F858A90969CA1A6ABAFD9
:1003B600B4B8BDC0C4C8CBCED1D4D7D9DCDEE00337
:1003C600030405050607090A0B0D0F111416191C5F
:1003D6002023272B3034393E44494F545A60666CEB
:1003E60072787E84898F959AA0A5ABAFB3B8BCC04E
:1003F600C4C7CBCED1D4D6D9DBDEE0E203030405F5
:10040600060708090B0C0E101315181B1E22262AA8
:100416002E33383D42484E53595F656B71777D8266
:10042600898E94999FA5A9AFB3B7BCC0C4C7CBCEDC
:10043600D1D4D6D9DBDDDFE1E303040505060809DF
:100446000A0C0D0F1214171A1D2124282D31363BC4
:1004560041464C52585E646A70767C81878D9298CC
:100466009DA3A8ADB2B6BABFC2C6C9CDD0D3D6D8A1
:10047600DADDDFE1E3E40404050607080A0B0D0FE5
:10048600111316181C1F23272B3034393E444A50AB
:10049600565C62686E757A80868B91979CA1A6AC35
:1004A600B0B6B9BEC1C5C9CCCFD2D5D7DADCDEE08D
:1004B600E2E4E60405060708090A0C0E10121517F1
:1004C6001A1E2125292E32373D42484E545B61675C
:1004D6006D73797F858A90969BA0A5AAAFB4B9BCA7
:1004E600C1C4C8CBCED1D4D7D9DCDEE0E2E4E5E79F
:1004F60004050607090A0C0D0F111416191C2024F1
:10050600282C31363B40464C53595F666C72787ED8
:1005160084898F949A9FA4A9AEB3B7BCC0C3C7CA37
:10052600CDD0D3D6D8DBDDDFE1E3E5E6E805060787
:1005360008090B0D0F111315181B1F22262A2F341D
:10054600393E444A51575E646B71777E83898E9437
:10055600999EA3A8ADB2B6BABFC3C6CACDD0D2D5EE
:10056600D8DADDDFE1E3E4E6E8E9050608090A0C86
:100576000E101214171A1D2125292D32373C424818
:100586004E555B62686F757C82888D92989DA2A796
:10059600ACB0B5B9BDC1C5C9CCCFD2D4D7D9DCDED4
:1005A600E0E2E4E6E7E8EA0607080A0B0D0F111495
:1005B60016191C2024282C31353B40464C52595FD5
:1005C600666D737A80868C92979CA1A6ABAFB4B801
:1005D600BCC0C4C8CBCED1D4D6D9DBDDE0E1E3E5DF
:1005E600E7E8E9EB0608090B0C0E101315181B1F9C
:1005F60022272B2F34393E444A50565D646A71785F
:100606007E848B90969BA0A5AAAEB3B7BBBFC3C78B
:10061600CACED0D3D6D8DADDDFE1E3E5E6E8E9EA0B
:10062600EB07080A0C0E101215171B1E22262A2F7E
:1006360033383D43484E545B61686F757C83898FC0
:10064600959A9FA4A9AEB2B6BABEC2C6C9CDD0D33A
:10065600D5D8DADCDEE0E2E4E6E7E9EAEBEC080925
:100666000B0D0F1114171A1D2125292E33373C4166
:10067600474D53595F666D737A81888E94999FA40E
:10068600A8ADB2B6BABEC1C5C9CCCFD2D5D7DADC11
:10069600DEE0E2E4E5E7E8EAEBECED090A0C0E1031
:1006A6001316191C1F23272C31363A40454B515738
:1006B6005D646A71787E858C92989DA3A7ACB1B56E
:1006C600B9BDC0C4C7CBCED1D4D6D9DBDDDFE1E31B
:1006D600E5E6E8E9EAEBEDED090B0D0F1214171B41
:1006E6001E22262A2F34393E44494F555B62686FD5
:1006F600767C838990969CA1A6ABB0B4B8BCC0C3E7
:10070600C7CACDD0D3D6D8DADDDFE0E2E4E6E7E942
:10071600EAEBECEDEE0A0C0E1113161A1D21252933
:100726002D32373D42484D535A60666D747A818842
:100736008E949AA0A5AAAFB3B7BBBFC3C6C9CCCF88
:10074600D2D5D7DADCDEE0E2E3E5E7E8E9EAECED8C
:10075600EEEF0B0D101215191C2024282C31363BF8
:1007660041464C52585E656B72797F868C93999F91
:10077600A4A9AEB2B7BBBEC2C5C9CCCFD2D4D7D955
:10078600DBDDDFE1E3E4E6E7E9EAEBECEDEEEF0DD6
:100796000F1214181B1F23272B30353A40454B5197
:1007A600575D636A70777E858B92989EA3A8ADB2DB
:1007B600B6BABEC2C5C8CBCED1D4D6D9DBDDDFE151
:1007C600E2E4E6E7E8EAEBECEDEEEFF00E101316E6
:1007D600191D21252A2E33383E43494F555B616842
:1007E6006E757C82898F969CA1A7ACB1B5B9BDC147
:1007F600C4C8CBCED0D3D6D8DADCDEE0E2E4E5E777
:10080600E8E9EAEBECEDEEEFF00F1114181B1F23ED
:10081600282D32373C42474D53595F666C737980B9
:10082600878D949AA0A5ABB0B4B9BDC0C4C7CACDD4
:10083600D0D3D5D8DADCDEE0E1E3E5E6E7E9EAEBBA
:10084600ECEDEEEFF0F01013161A1D22262B3035C4
:100856003B40464C52585E646B71787E858B92980D
:100866009EA4A9AEB3B8BCC0C3C7CACDD0D2D5D793
:10087600D9DCDEDFE1E3E4E6E7E8EAEBECEDEEEF18
:10088600EFF0F11215181C2025292E34393F454B5F
:1008960050565C636970767D838A90979DA2A8AD59
:1008A600B2B7BBBFC3C6CACCCFD2D5D7D9DBDDDF83
:1008B600E1E3E4E5E7E8E9EAEBECEDEEEFF0F1F190
:1008C60013171A1E23282D32383E444A50565C62AE
:1008D600686E757C82888F959BA1A7ACB1B6BBBFAD
:1008E600C3C6C9CCCFD2D5D7D9DBDDDFE1E2E4E59B
:1008F600E7E8E9EAEBECEDEEEFF0F0F1F215181CA3
:1009060021252A30353B41474D545960666C727932
:1009160080868D93999FA5AAAFB4B9BDC1C5C8CB32
:10092600CED1D4D6D9DBDDDFE0E2E3E5E6E7E9EADE
:10093600EBECEDEEEEEFF0F1F1F2161A1E23282D98
:1009460033393F454B51585D646A70777D848A918F
:10095600979DA3A8AEB2B7BCC0C4C7CBCDD0D3D6E3
:10096600D8DADCDEE0E2E3E4E6E7E8E9EAEBECED40
:10097600EEEFF0F0F1F2F2181C21262A30373D4353
:10098600494F565C62686E757B82888F959BA1A6DF
:10099600ACB1B6BABEC2C6C9CDCFD2D5D7DADCDEC7
:1009A600DFE1E3E4E5E7E8E9EAEBECEDEEEFEFF0B3
:1009B600F1F2F2F31A1F24292D343A41474D535AC6
:1009C60061666D737A80878D93999FA5AAAFB4B936
:1009D600BDC1C5C9CCCFD2D4D7D9DBDDDFE1E2E4D6
:1009E600E5E6E8E9EAEBECEDEEEEEFF0F1F1F2F335
:1009F600F31D22272C31383F454B51585F656B72EA
:100A0600787F858C91989EA4A9AEB3B8BCC0C4C8A3
:100A1600CBCED1D4D6D9DBDDDFE0E2E4E5E6E7E90B
:100A2600EAEBECEDEEEEEFF0F0F1F2F2F3F31F2469
:100A3600292F343B42484F555B62696F757C82892A
:100A46008F959BA1A7ACB1B6BABFC2C6CACDD0D34B
:100A5600D5D8DADCDEE0E1E3E4E6E7E8E9EAEBEC68
:100A6600EDEEEFEFF0F1F1F2F3F3F421262C31374E
:100A76003E454C52585F666D737980868D93999F7B
:100A8600A5AAAFB4B8BDC1C5C8CCCFD2D4D7D9DB1F
:100A9600DDDFE1E3E4E5E7E8E9EAEBECEDEEEEEFD6
:100AA600F0F1F1F2F2F3F3F423292E343A41484FF0
:100AB600565C636A71777E848B91979DA2A8ADB2CE
:100AC600B7BBBFC3C7CACED1D4D6D8DBDDDFE0E221
:100AD600E4E5E6E7E9EAEBECECEDEEEFF0F0F1F257
:100AE600F2F3F3F4F4262C31383E454C5359606743
:100AF6006E757B82888F959BA1A6ABB0B5BABEC238
:100B0600C6C9CDD0D3D5D8DADCDEE0E2E3E5E6E748
:100B1600E8E9EAEBECEDEEEFEFF0F1F1F2F2F3F3E8
:100B2600F4F4FF01DDFF021AFF0257FF0294FF02F1
:100B3600D1FF030EFF034BFF0388FF03C5FF04022B
:100B4600FF043FFF047CFF04B9FF04F6FF0533FFF3
:100B56000570FF05ADFF05EAFF0627FF0664FF06E1
:100B6600A1FF06DEFF071BFF0758FF0795FF07D209
:100B7600FF080FFF084CFF0889FF08C6FF0903FF9F
:100B86000940FF097DFF09BAFF09F7FF0A34FF0A8A
:070B960071FF0AAEFF0AEB3C
:102F570042019A000041019C0041019DFF41019EF1
:0E2F67000042019F00004101A1004101A200B3
:10308A00EF540FFFE59C54F04FF59C439C40E59CA0
:06309A0030E4FBAF9F22B1
:1030C900EFD394AC40057818762D22EF9000B69393
:0430D9007818F6224B
:102871007F0112308A90019CE0FEEFD39E4002EF6F
:10288100F090019DE0FEEFC39E5002EFF090019B9E
:10289100E02FF090019AE03400F090019EE004F006
:1028A100E0C3940A405290019CE0FF90019BE09F9D
:1028B100FF90019AE09400FE90019DE0FDC3EF9D21
:1028C100FFEE940090019AF0A3EFF090019AE0FEE0
:1028D100A3E07803CEC313CE13D8F9FF90019AEE8B
:1028E100F0A3EFF01230C9E490019EF090019AF04C
:0828F100A3F0A3F0A374FFF0B3
:0128F90022BC
:05297B009001ACE0FF3B
:10298000EDB405109001AF74FFF0A37401F0A374CF
:1029900063F08037EDB42D109001AF74FFF0A37495
:1029A00001F0A374A0F08023ED75F003A42416F5C4
:1029B00082E4340BF583E493F9740193FA7402937F
:1029C0009001AFC9F0A3EAF0A3E9F0E4FE9001AFF3
:1029D000E0FBA3E0FAA3E0F98E8275830012119167
:0F29E000FDEFC39D40050EEEB43CE2EE241EFF5A
:0129EF0022C5
:051E5C009001ACEFF065
:101E61007818E6FCD3648094855007E0FF7D050275
:101E71001F52C3EC648094AD400A9001ACE0FF7D39
:101E81002D021F52C37818E66480948650557D0652
:101E910012297B9001ADEFF07D0512297B9001AEF7
:101EA100EFF09001ADE0FDC3EF9DFDE49400FCE493
:101EB1001210BEC004C005C006C0077818E6FF3383
:101EC10095E0FEC374069FFDE49EFC1210BED00394
:101ED100D002D001D000120FB31210F79001ADE083
:101EE1002F8066D37818E6648094AC9001ACE0FF53
:101EF100405B7D2C1229809001ADEFF09001ACE0A8
:101F0100FF7D2D1229809001AEEFF09001ADE0C36D
:101F11009FFDE49400FCE41210BEC004C005C0069D
:101F2100C0077818E6FF3395E0FEEF24D4FDEE34C8
:101F3100FFFC1210BED003D002D001D000120FB3AB
:101F41001210F79001ADE0C39F7817F6227818E6DA
:081F5100FD1229807817A60794
:011F59002265
:10260F007816E6FF9001A0E02FF090019FE03400D4
:10261F00F09001A1E004F0E0C3940850030226AE4D
:10262F0090019FE0FEA3E07803CEC313CE13D8F939
:10263F00F0EE90019FF09001A2E004F0E0C3940847
:10264F004004E4F0D20F90019FA3E0FD9001A2E0BF
:10265F0024A3F582E43401F583EDF0300F29E4FF74
:10266F00FEFC74A32CF582E43401F583E02FFFE424
:10267F003EFE0CECB408EBEF7803CEC313CE13D8A9
:10268F00F99001ABF080059001ABEDF09001ABE05C
:0F269F00FF121E5CE49001A1F090019FF0A3F0E8
:0126AE002209
:103150007F0112308A1230C97F0212308A021E5C4F
:1030DD009001977407F0A37453F0C205E490019129
:0430ED00F0A3F0223A
:102CD000900191E0FCA3E0FDD39432EC9400500409
:102CE0007F018036D3ED9464EC940050047F028021
:102CF00029D3ED9496EC940050047F03801CD3ED0F
:102D000094C8EC940050047F04800FD3ED942CEC15
:0A2D1000940150047F0580027F0645
:012D1A002296
:10236F00900197E07002A3E06025900198E024FFB0
:10237F00F0900197E034FFF0E07002A3E0701212CA
:10238F002CD0900199EFF0900195F0A3F08002D23C
:10239F0005300678900189E0FFA3E0A3CFF0A3EF0B
:1023AF00F0900187E0FFA3E0A3CFF0A3EFF090013F
:1023BF0085E0FFA3E0A3CFF0A3EFF0900193E0FF40
:1023CF00A3E0900185CFF0A3EFF0C206E490019156
:1023DF00F0A3F0FFEF25E02485F582E43401F583C7
:1023EF00E0FCA3E0FD900192E02DF0900191E03C24
:1023FF00F00FEFB404DE900191E0FEA3E07805CE7C
:0C240F00C313CE13D8F9F0EE900191F049
:01241B00229E
:1022B50020050BE490018DF0A3F0A302236B122CF3
:1022C500D0900196E0FEEFD39E400EE490018FF092
:1022D500A3F0900199EFF08038EFC39E503990013B
:1022E50090E004F0700690018FE004F0D390019027
:1022F500E0946890018FE0648094804021E4F0A32D
:10230500F0900199E0D394014003E014F090019915
:10231500E0900196F08007E490018FF0A3F0900122
:1023250095E0FF900199E0FED39F401AE490018E5D
:10233500F090018DE004F0E0D39468402CE4F09037
:102345000195E004F022EEC39F5017E490018DF053
:10235500A3E004F0E094D04010E4F0900195E0147F
:09236500F022E490018DF0A3F0D8
:01236E00224C
:0A31BE00C200E49001C1F0A3F0226A
:102FB900D200EF7802C333CE33CED8F9FF7C007D3F
:0D2FC900781211E09001C1EEF0A3EFF022AC
:10142C009001D4E0FEA3E0240CF582E43EF5837435
:10143C000193FA740293F912127B30000B9001C1E4
:10144C00E0FAA3E0FB4A700CE4F5BFF5BE9001BFD7
:10145C00F0A3F0222001289001C0E02414F09001A8
:10146C00BFE03400F0D3A3E094209001BFE09403DC
:10147C0050030215B47403F0A37420F00215B420C9
:10148C0002030215B49001BBE0FEA3E0FFC3900180
:10149C00BEE09F9001BDE09E400BA3E09FFF90013A
:1014AC00BDE09E80149001BDE0FEA3E0FFC390015F
:1014BC00BCE09FFF9001BBE09E9001ADF0A3EFF06C
:1014CC00C39001BEE09B9001BDE09A406A9001C1BF
:1014DC00E0FEA3E0FF9001BEE09FFF9001BDE09E07
:1014EC009001ABF0A3EFF0E0C4F8540FC868FF9084
:1014FC0001ABE0C454F048FE9001AEE02401FD9035
:10150C0001ADE03400FC1211E09001AFEEF0A3EF5E
:10151C00F0D39001C0E09F9001BFE09E50030215F4
:10152C00B29001AFE0FEA3E0FF9001C0E09FF0900D
:10153C0001BFE09EF0806F9001BDE0FEA3E0FFC311
:10154C009001C2E09FFF9001C1E09E9001ABF0A31F
:10155C00EFF0E0C4F8540FC868FF9001ABE0C4543E
:10156C00F048FE9001AEE02401FD9001ADE03400A6
:10157C00FC1211E09001AFEEF0A3EFF0C374A09F4A
:10158C00FF740F9EFEC39001C0E09F9001BFE09ED0
:10159C0050149001AFE0FEA3E0FF9001C0E02FF0EB
:1015AC009001BFE03EF0C2029001BFE0FCA3E0FD61
:1015BC00ECF5BF8DBE9001BDE0FFA3E09001BBCF69
:0415CC00F0A3EFF0A9
:0115D00022F8
:102F9B000100FC0100D90100FE0100DC0101000170
:0E2FAB0000DF071E121E111E161E0900161E44
:101F5A009001AF7405F0A374A0F090010A74FFF029
:101F6A00E49001B1F09001B1E0FFC394064003028E
:101F7A002047EF75F003A4249BF582E4342FF58300
:101F8A00E493FB740193FA740293F912117820E036
:101F9A000302203D9001B1E075F003A4249BF58271
:101FAA00E4342FF583E493FB740193FA740293F9F2
:101FBA00900001121191FD7C00EF75F003A4249B9F
:101FCA00F582E4342FF583E493FB740193FA7402E7
:101FDA0093F9121178C313547F75F03CA42DFEECCB
:101FEA0035F09001B2F0A3CEF09000E6E075F03C37
:101FFA00A4FFA3E02FFFEC35F0FE9001B2E0FCA3B2
:10200A00E0FDD39FEC9E402BED9FFDEC9EFCD39010
:10201A0001B0E09D9001AFE09C40189001B3E09FB1
:10202A00FF9001B2E09E9001AFF0A3EFF0A3E09021
:0D203A00010AF09001B1E02402F0021F6FD6
:012047002276
:0E316F00900034E41211BE900033E40211BE51
:1030A000900034121191FF900033121191B5070373
:0530B000D38001C322E2
:102E5E009001B8EBF0A3EAF0A3E9F09001B8E0FB23
:102E6E00A3E0FAA3E0F99000341211912401FFE4DB
:102E7E0033FE7C007D331211E0AF0590003312114A
:092E8E0091B50503D38001C322B4
:103041009000341211912433FF900033121191FE3C
:0A305100C3EF9E75F03384AFF02248
:102A61009001B7EDF09001B4EBF0A3EAF0A3E9F027
:102A7100122E5E40469001B7E0FF9001B4E0FBA347
:102A8100E0FAA3E0F9900034121191F58275830008
:102A9100EF1211BE9000341211912401FFE433FEB4
:102AA1007C007D331211E0AF059001B4E0FBA3E09F
:102AB100FAA3E0F9900034ED1211BE9001B7E0FFE6
:012AC10022F2
:0B2B80009001B4EBF0A3EAF0A3E9F031
:102B8B00E4A3F01230A040449001B4E0FBA3E0FAC0
:102B9B00A3E0F9900033121191F5827583001211A5
:102BAB00919001B7F09000331211912401FFE4339F
:102BBB00FE7C007D331211E0AF059001B4E0FBA366
:102BCB00E0FAA3E0F9900033ED1211BE9001B7E0EB
:012BDB00FFFA
:012BDC0022D6
:102D1B000101FF001E0201FF31970301FF2DE704A4
:102D2B0001FF31A40501FF31B10601FF30F10701AD
:102D3B00FF3105080CFF29F00901FF18E10A01FF1B
:102D4B0024C80B06FF2E240C01FF31FF0D01FF32AF
:0B2D5B0004F701FF1281FF06FF305B50
:050B9D009001AFEFF034
:100BA200E4A3F090006FE0FBA3E0FAA3E0F97DF28A
:100BB200122A6190006FE0FBA3E0FAA3E0F97DF254
:100BC200122A6190006FE0FBA3E0FAA3E0F9900122
:100BD200AFE0FD122A619001B0E02FF090006FE0CB
:100BE200FBA3E0FAA3E0F97D25122A619001B0E0AF
:100BF2002FF090006FE0FBA3E0FAA3E0F990010967
:100C0200E0FD122A619001B0E02FF090006FE0FB4E
:100C1200A3E0FAA3E0F9900191E0FD122A619001AC
:100C2200B0E02FF090006FE0FBA3E0FAA3E0F990B0
:100C32000191A3E0FD122A619001B0E02FF0900033
:100C42006FE0FBA3E0FAA3E0F9900141E0FD122A74
:100C5200619001B0E02FF090006FE0FBA3E0FAA3F7
:100C6200E0F9900141A3E0FD122A619001B0E02F6A
:100C7200F090006FE0FBA3E0FAA3E0F9900107E037
:100C8200FD122A619001B0E02FF090006FE0FBA30B
:100C9200E0FAA3E0F9900108E0FD122A619001B0A8
:100CA200E02FF090006FE0FBA3E0FAA3E0F99001DF
:100CB20002E0FD122A619001B0E02FF090006FE097
:100CC200FBA3E0FAA3E0F9900102A3E0FD122A617E
:100CD2009001B0E02FF090006FE0FBA3E0FAA3E0F8
:100CE200F97818E6FD122A619001B0E02FF0900029
:100CF2006FE0FBA3E0FAA3E0F97817E6FD122A61A0
:100D02009001B0E02FF090006FE0FBA3E0FAA3E0C7
:100D1200F9300703E4800490013FE0FD122A61905C
:100D220001B0E02FF090006FE0FBA3E0FAA3E0F93E
:100D3200900105E0B401047D0180027D00122A6168
:100D42009001B0E02FF090006FE0FBA3E0FAA3E087
:100D5200F99000DEE0B402047D0180027D00122AD7
:100D6200619001B0E02FF090006FE0FBA3E0FAA3E6
:100D7200E0F9900106E0FD122A619001B0E02FF047
:100D820090006FE0FBA3E0FAA3E0F99000DBE0FD46
:100D9200122A619001B0E02FF090006FE0FBA3E017
:100DA200FAA3E0F99000FCE0FD122A619001B0E0A4
:100DB2002FF090006FE0FBA3E0FAA3E0F99000FDB2
:100DC200E0FD122A619001B0E02FF090006FE0FB8D
:100DD200A3E0FAA3E0F99000D9E0FD122A619001A4
:100DE200B0E02FF090006FE0FBA3E0FAA3E0F990EF
:100DF20000DAE0FD122A619001B0E02FF090006F5E
:100E0200E0FBA3E0FAA3E0F99000FEE0FD122A6104
:100E12009001B0E02FF090006FE0FBA3E0FAA3E0B6
:100E2200F99000FFE0FD122A619001B0E02FF090EE
:100E3200006FE0FBA3E0FAA3E0F99000DCE0FD1212
:100E42002A619001B0E02FF090006FE0FBA3E0FA7E
:100E5200A3E0F99000DDE0FD122A619001B0E02FDD
:100E6200F090006FE0FBA3E0FAA3E0F9900100E04C
:100E7200FD122A619001B0E02FF090006FE0FBA319
:100E8200E0FAA3E0F9900101E0FD122A619001B0BD
:100E9200E02FF090006FE0FBA3E0FAA3E0F99000EE
:100EA200DFE0FD122A619001B0E02FF090006FE0C8
:100EB200FBA3E0FAA3E0F99000E0E0FD122A6190C2
:100EC20001B0E02FF090006FE0FBA3E0FAA3E0F99D
:100ED200E4FD122A619001B0E02FF090006FE0FB78
:100EE200A3E0FAA3E0F9E4FD122A619001B0E02F39
:100EF200F090006FE0FBA3E0FAA3E0F9E4FD122A10
:100F0200619001B0E02FF090006FE0FBA3E0FAA344
:100F1200E0F9E4FD122A619001B0E02FF090006F39
:100F2200E0FBA3E0FAA3E0F9E4FD122A619001B02C
:100F3200E02FF090006FE0FBA3E0FAA3E0F9E4FDFC
:100F4200122A619001B0E02FF090006FE0FBA3E065
:100F5200FAA3E0F9E4FD122A619001B0E02FF090CB
:100F6200006FE0FBA3E0FAA3E0F9E4FD122A61902E
:100F720001B0E02FF090006FE0FBA3E0FAA3E0F9EC
:100F8200E4FD122A619001B0E02FF090006FE0FBC7
:100F9200A3E0FAA3E0F99001B0E0FD122A6190000B
:100FA2006FE0FBA3E0FAA3E0F97D7E122A61020062
:010FB2002618
:102EFD0090006FE0FBA3E0FAA3E0F97D01122A61D7
:102F0D009001D7E02FF090006FE0FBA3E0FAA3E073
:0F2F1D00F97D02122A619001D7E02FF002002601
:05001E007F01020B9DB3
:0D319700900074E0900109F07F02020B9D92
:102DE700900109E064017030900074E0FF7004D234
:102DF700078007C20790013FEFF090013FE0FFB463
:102E07000106E49000DB800BEFD39401400A9000A9
:0D2E1700DB7401F0900106F07F03020B9DBB
:0D31A400900074E0900105F07F04020B9D87
:0D31B100900074E09000DEF07F05020B9DA1
:1030F100900109E0B40108900074E0900106F07FAE
:0431010006020B9D1A
:10310500900109E0B40108900074E09000DBF07FC5
:0431150007020B9D05
:1029F000900074E09000FCF0900075E09000FDF015
:102A0000900076E09000D9F0900077E09000DAF046
:102A1000900078E09000FEF0900079E09000FFF0E8
:102A200090007AE09000DCF090007BE09000DDF018
:102A300090007CE0900100F090007DE0900101F0BA
:102A400090007EE09000DFF090007FE09000E0F0EA
:102A5000D208900104E054FEF0121F5A7F08020BC6
:012A60009DD8
:1018E100900074E09001B1B4010D7401F0A3740192
:1018F100F0A3740BF0800B7401F0A37401F0A374D6
:1019010025F090006FE0FBA3E0FAA3E0F97DF2126D
:101911002A6190006FE0FBA3E0FAA3E0F97DF212E7
:101921002A6190006FE0FBA3E0FAA3E0F97D0912C0
:101931002A619001AFEFF090006FE0FBA3E0FAA302
:10194100E0F97D1A122A619001AFE02FF09001B108
:10195100E0FBA3E0FAA3E0F9121178FD90006FE03B
:10196100FBA3E0FAA3E0F9122A619001AFE02FF0A6
:101971009001B1E0FBA3E0FAA3E0F990000112119C
:1019810091FD90006FE0FBA3E0FAA3E0F9122A6158
:101991009001AFE02FF0E4A3F09001B0E0FFC39419
:1019A1000C506DA3E0FBA3E0FAA3E02402F9E43AB2
:1019B100FA75F002EFA4F58285F083121235E5F095
:1019C100FD90006FE0FBA3E0FAA3E0F9122A619019
:1019D10001AFE02FF09001B1E0FBA3E0FAA3E02416
:1019E10002F9E43AFA9001B0E075F002A4F58285BB
:1019F100F083121235FD90006FE0FBA3E0FAA3E043
:101A0100F9122A619001AFE02FF0A3E004F0808980
:101A110090006FE0FBA3E0FAA3E0F99001AFE0FDD5
:101A2100122A6190006FE0FBA3E0FAA3E0F97D7E4A
:061A3100122A61020026EA
:1024C80090006FE0FBA3E0FAA3E0F97DF2122A6125
:1024D80090006FE0FBA3E0FAA3E0F97DF2122A6115
:1024E80090006FE0FBA3E0FAA3E0F97D0A122A61ED
:1024F8009001AFEFF090006FE0FBA3E0FAA3E0F9E2
:102508007D14122A619001AFE02FF0E4A3F090014E
:10251800B0E0FFC39414502690006FE0FBA3E0FAEC
:10252800A3E0F974E82FF582E43400F583E0FD12A6
:102538002A619001AFE02FF0A3E004F080D0900072
:102548006FE0FBA3E0FAA3E0F99001AFE0FD122AE7
:102558006190006FE0FBA3E0FAA3E0F97D7E122A08
:0425680061020026E6
:102E2400900074E0FEA3E07C002400FFEC3E9000E0
:102E3400E2F0A3EFF0900076E09000E4F0900077E9
:102E4400E09000E5F0900078E09000E6F0900079E2
:0A2E5400E09000E7F07F0B020B9DF9
:0531FF007F0C020B9D96
:053204007F0D020B9D8F
:10128100E49001AFF090006FE0FBA3E0FAA3E0F976
:101291007DF2122A6190006FE0FBA3E0FAA3E0F96E
:1012A1007DF2122A6190006FE0FBA3E0FAA3E0F95E
:1012B1007DF7122A619001AFE02FF090006FE0FB03
:1012C100A3E0FAA3E0F97D0E122A619001AFE02FAD
:1012D100F090006FE0FBA3E0FAA3E0F97D01122A90
:1012E100619001AFE02FF090006FE0FBA3E0FAA363
:1012F100E0F97D3F122A619001AFE02FF090006F7D
:10130100E0FBA3E0FAA3E0F97D01122A619001AFAD
:10131100E02FF090006FE0FBA3E0FAA3E0F97D3F3E
:10132100122A619001AFE02FF090006FE0FBA3E083
:10133100FAA3E0F97D01122A619001AFE02FF0904C
:10134100006FE0FBA3E0FAA3E0F9E4FD122A61904B
:1013510001AFE02FF090006FE0FBA3E0FAA3E0F90A
:10136100E4FD122A619001AFE02FF090006FE0FBE5
:10137100A3E0FAA3E0F9E4FD122A619001AFE02FA6
:10138100F090006FE0FBA3E0FAA3E0F9E4FD122A7C
:10139100619001AFE02FF090006FE0FBA3E0FAA3B2
:1013A100E0F9E4FD122A619001AFE02FF090006FA7
:1013B100E0FBA3E0FAA3E0F9E4FD122A619001AF9A
:1013C100E02FF090006FE0FBA3E0FAA3E0F9E4FD69
:1013D100122A619001AFE02FF090006FE0FBA3E0D3
:1013E100FAA3E0F9E4FD122A619001AFE02FF09039
:1013F100006FE0FBA3E0FAA3E0F9E4FD122A61909B
:1014010001AFE02FF090006FE0FBA3E0FAA3E0F959
:101411009001AFE0FD122A6190006FE0FBA3E0FABA
:0B142100A3E0F97D7E122A6102002684
:10305B00900074E09000D8F0900075E0900140F083
:09306B00900076E09000E1F022F3
:0831E200D210E49001CEF022AE
:10256C0090006FE0FBA3E0FAA3E0F97D2B122A6147
:10257C0090006FE0FBA3E0FAA3E0F97D2B122A6137
:10258C0090006FE0FBA3E0FAA3E0F97D2B122A6127
:10259C0090006FE0FBA3E0FAA3E0F97D41122A6101
:1025AC0090006FE0FBA3E0FAA3E0F97D74122A61BE
:1025BC0090006FE0FBA3E0FAA3E0F97D43122A61DF
:1025CC0090006FE0FBA3E0FAA3E0F97D6D122A61A5
:1025DC0090006FE0FBA3E0FAA3E0F97D64122A619E
:1025EC0090006FE0FBA3E0FAA3E0F97D0D122A61E5
:1025FC0090006FE0FBA3E0FAA3E0F97D0A122A61D8
:03260C00020026A3
:1020480090006FE0FBA3E0FAA3E0F97D41122A615A
:1020580090006FE0FBA3E0FAA3E0F97D54122A6137
:1020680090006FE0FBA3E0FAA3E0F97D2B122A6150
:1020780090006FE0FBA3E0FAA3E0F97D44122A6127
:1020880090006FE0FBA3E0FAA3E0F97D65122A61F6
:1020980090006FE0FBA3E0FAA3E0F97D66122A61E5
:1020A80090006FE0FBA3E0FAA3E0F97D61122A61DA
:1020B80090006FE0FBA3E0FAA3E0F97D75122A61B6
:1020C80090006FE0FBA3E0FAA3E0F97D6C122A61AF
:1020D80090006FE0FBA3E0FAA3E0F97D74122A6197
:1020E80090006FE0FBA3E0FAA3E0F97D3D122A61BE
:1020F80090006FE0FBA3E0FAA3E0F97D31122A61BA
:1021080090006FE0FBA3E0FAA3E0F97D0D122A61CD
:1021180090006FE0FBA3E0FAA3E0F97D0A122A61C0
:032128000200268C
:1015D10090006CE0FBA3E0FAA3E0F9900034121153
:1015E10091FF9000331211916F700302176C9000FC
:1015F10033121191F5827583001211919001ABF0B4
:101601009000331211912401FFE433FE7C007D33FD
:101611001211E0AF0590006CE0FBA3E0FAA3E0F942
:10162100900033ED1211BE30101E9001ABE0B4F109
:10163100149001CEE004F0E064027094C210F090C6
:1016410001CBF0808B0217649001ABE0FF9001CEDB
:10165100E02472F582E43400F583EFF09001CBE0F1
:101661002FF09001CEE004F0E0FFB4010B90007286
:10167100E09001CDF00215D1EF6402600302170B77
:101681009001CDE0FFD39400402AEFD3940D502474
:10169100E075F005A42417F582E4342DF583E49375
:1016A1009001CCF0EF75F005A42418F582E4342DF7
:1016B100F58380269001CDE0FFB4F70E902D5DE417
:1016C100939001CCF0902D5E8010EFB4FF23902D0C
:1016D10062E4939001CCF0902D63E493F97401934B
:1016E100FA7402939001ACC9F0A3EAF0A3E9F08087
:1016F10002800F900073E0FF9001CCE06F70030255
:1017010015D1D210E49001CEF0229001CCE0240456
:10171100FFE433FE9001CEE0C39FEE6480F8748055
:101721009850030215D19001CCE0FF2474F582E4B6
:101731003400F583E0FE2EFE74752FF582E434004B
:10174100F583E02EFF9001CBE0B507159001ACA326
:10175100E0FAA3E0F912127B7B147D0F7F01122FB7
:0B176100D6D210E49001CEF00215D1AA
:01176C00225A
:10006E007B017A00790090006CEBF0A3EAF0A3E933
:10007E00F012316F7B017A00793590006FEBF0A3AF
:10008E00EAF0A3E9F012316FE490006AF0C209A31E
:03009E00F0C20AA3
:0100A100223C
:10002600200A4090006FE0FBA3E0FAA3E0F912304B
:1000360041EFC39401500122EFB4011290006FE02A
:10004600FBA3E0FAA3E0F9122B808FF58012900053
:100056006FE0FBA3E0FAA3E0F9122B808FF5D20A3A
:0300660043EAC0AA
:010069002274
:0931D1003009051215D1C20922D2
:102FF100FF006AFF006AFF006AFF006AFF006AFFC4
:0B300100006AFF006AFF006AFF006A1F
:052F75004201D42FF120
:01006A002273
:102BDD009001ABEEF0A3EFF0300C1A9001D4E0FEB3
:102BED00A3E02418F582E43EF583740193FA740290
:102BFD0093F912127B9001ABE0FFA3E09001D4CFCB
:102C0D00F0A3EFF0300B1A9001D4E0FEA3E02415F1
:102C1D00F582E43EF583740193FA740293F912126E
:022C2D007B2208
:10300C00FF00A2FF1B4EFF320DFF320EFF320FFFEF
:0B301C002ECAFF3210FF3211FF3212EB
:0100A200223B
:101B4E00122F7B900152E0440FF0900151E044F0CF
:101B5E00F09000E1E0B40115900140E0B4010E9068
:101B6E000171E04420F090017AE04438F090014D8C
:101B7E00E04401F0900152E04470F0900175E044B1
:101B8E0003F090017AE04444F090016AE04401F0E1
:101B9E00900166E0440EF0900165E044C0F0A3E0D1
:101BAE004401F0900165E04438F04407F090016A7A
:101BBE00E04470F0440EF090017DE04402F0A3E0AA
:101BCE004420F0900182E04418F090016DE0444012
:101BDE00F0900172E04420F090016EE04440F090ED
:101BEE000166E04410F0900169E04480F04403F097
:101BFE0090017DE04401F0900182E04440F04420E9
:101C0E00F04404F04402F04401F07818E6FF122A82
:101C1E00C27817E6FF122B219000E6E0FFA3E0FD4D
:101C2E00C20BC20C12212B9000D8E0FF7E00121CBA
:101C3E005C900159E04408F090015DE04440F09062
:0E1C4E000162E04402F0900181E044C0F02207
:01320D00229E
:01320E00229D
:01320F00229C
:102ECA0090006FE0FBA3E0FAA3E0F99001D2E0FDE5
:102EDA00122A6190006FE0FBA3E0FAA3E0F99001E7
:102EEA00D2A3E0FD122A611200267B0F7D0A7F0120
:032EFA00022FD6CE
:01321000229B
:01321100229A
:013212002299
:100FB300EC4D6011E8497017ED33EC3304600DE438
:100FC300FCFFFEFD22E933E8330470F802116312DB
:100FD300112E58046009E4CC2481500628500902DC
:100FE300116D28400302116AC0E0EB4A7044B980D6
:100FF30006D0E0FB021159EF4E701CBD8008EBFFD9
:10100300EAFEE9FD80EBE98DF0A4FEE5F002109C19
:10101300E9CDF9EAFEEBFFEF89F0A4FCE5F0CE8918
:10102300F0A42EFFE435F0CD89F0A42DFEE435F0D5
:101033008067EF4E7005BD80D780C3EF8BF0A4AC03
:10104300F0EE8BF0A42CFCE435F0F8EF8AF0A42C3E
:10105300E5F038FCE433CB8DF0A42CFCE5F03BF851
:10106300EE8AF0A42CFCE5F038F8E433CF89F0A441
:101073002CFCE5F038CF3400CE89F0A42FFFE5F047
:101083003EFEE433C98DF0A42EFEE5F039CD8AF09F
:10109300A42FFFE5F03EFEE43DFD33D0E0FB500717
:1010A3000BBB000F02116DEC2CFCEF33FFEE33FE94
:0610B300ED33FD021145C2
:1010B90075F020800E75F010800575F0087D007EB2
:1010C900007F003392D530D50312126DEC334010F6
:1010D900EF33FFEE33FEED33FDEC33FCD5F0ED22BB
:0E10E900E5F0247EA2D513CC92E7CDCEFF22F7
:1010F700EDD2E7CD33EC3392D524814006E4FFFEF1
:10110700FDFC22FCE4CFCECDCC24E0501174FF804F
:10111700EDC3CC13CCCD13CDCE13CECF13CF0470EC
:07112700F030D5DE02126D6D
:10112E00E9D2E7C933E833F892D5EDD2E7CD33EC07
:07113E0033FC5002B2D52280
:10114500EC30E7100FBF000C0EBE00080DBD00040B
:101155000BEB6014A2D5EB13FCED92E7FD2274FFB7
:10116500FCFDFEFF22E480F8A2D574FF13FC7D8010
:03117500E480EF24
:1026C9000221F9E493A3F8E493A34003F68001F20D
:1026D90008DFF48029E493A3F85407240CC8C33312
:1026E900C4540F4420C8834004F456800146F6DFE1
:1026F900E4800B0102040810204080902F57E47EEB
:10270900019360BCA3FF543F30E509541FFEE493D5
:10271900A360010ECF54C025E060A840B8E493A39C
:10272900FAE493A3F8E493A3C8C582C8CAC583CAC7
:10273900F0A3C8C582C8CAC583CADFE9DEE780BE7F
:012F7A000056
:10117800BB010689828A83E0225002E722BBFE0275
:09118800E32289828A83E49322A8
:10119100BB010CE58229F582E5833AF583E0225013
:1011A10006E92582F8E622BBFE06E92582F8E2225D
:0D11B100E58229F582E5833AF583E4932277
:1011BE00F8BB010DE58229F582E5833AF583E8F067
:1011CE00225006E92582C8F622BBFE05E92582C813
:0211DE00F222FB
:1011E000BC000BBE0029EF8DF084FFADF022E4CCF3
:1011F000F875F008EF2FFFEE33FEEC33FCEE9DECBC
:10120000984005FCEE9DFE0FD5F0E9E4CEFD22ED01
:10121000F8F5F0EE8420D21CFEADF075F008EF2F4B
:10122000FFED33FD4007985006D5F0F222C398FD3C
:051230000FD5F0EA22D9
:10123500BB0110E58229F582E5833AF583E0F5F0F7
:10124500A3E0225009E92582F886F008E622BBFED4
:101255000AE92582F8E2F5F008E222E5832AF5831A
:08126500E993F5F0A3E99322DF
:0E126D00C3E49FFFE49EFEE49DFDE49CFC2292
:06127B008A838982E473FE
:00000001FF
