:03001B000207FEDB
:1007FE00C0E0C0F0C083C082C0D075D000C000C0C1
:0D080E0001C002C003C004C005C006C00741
:10081B0090006A7404F090006C1206E6900034129B
:10082B000642F582758300E5F512066F90003412CF
:10083B0006422401FFE433FE7C007D33120691AFA8
:10084B000590006C1206E6900034ED12066F9000D6
:10085B00341206422433FFE433FE90003312064277
:10086B00FDC3EF9DFFEE9400FE7C007D33120691DD
:0A087B00AF05EFD3941F4002D20234
:10088500D007D006D005D004D003D002D001D000C7
:0B089500D0D0D082D083D0F0D0E03271
:0300230002093A95
:10093A00C0E0C0F0C083C082C0D075D000C000C083
:10094A0001C002C003C004C005C006C00790006F02
:10095A001206E6900033120642F5827583001206EB
:10096A0042F5F59000331206422401FFE433FE7C7F
:10097A00007D33120691AF0590006F1206E69000D3
:10098A0033ED12066F900034120642FF90003312C4
:10099A000642B50705C20353EA3FD007D006D00581
:1009AA00D004D003D002D001D000D0D0D082D083DE
:0509BA00D0F0D0E03296
:0300A300020CA8A4
:080CA800C0E0C083C082C0D08F
:100CB000B20190012FE004F0E0C394024008E4F098
:100CC000900131E004F0E58830E1167587030000FB
:100CD00000000000000053ABEF53A8F753A8EF80CB
:040CE0000343AB100F
:090CE400D0D0D082D083D0E032E0
:0300B300020D300B
:0D0D3000C0E0C083C082C0D075D000C000FC
:100D3D00780A06E6C39432401676009001307401AD
:0F0D4D00F090006AE06008E014F0E07002D2025B
:0B0D5C00D000D0D0D082D083D0E03295
:030000000208A053
:1008A00078FFE4F6D8FD90001B7FE57E03E4F0A31B
:0A08B000DFFCDEFA7581200208F576
:1009BF00120DFF120F59120E2A120FC990013A741D
:1009CF008CF07E0E7FCFD204C205120C1A7B0F7DE6
:1009DF000A7F01120E99438D20120FB8900130E05B
:1009EF0060F4E4F0780806080618E624FE600704B1
:1009FF0024FC500B8005120CED8004E47808F67887
:0F0A0F000906E6D3940F40CEE4F6120DD180C74E
:070FD100759CA0759D042230
:0F0F7B00EF540FFFE59C54F04FF59C439C402230
:0D00A600758B66438B08538B7F43AB102294
:100F4700EF6007E5974401FF8005E59754FEFF8FA3
:020F57009722DF
:070FD800E4F597758F3E223E
:080FC100E4F59AF599F59B2275
:0A0FA50075B28EE4F5B443B20122E8
:1000030075BB2075BAC075BF0775BECF75BD0F75BB
:06001300BC9F43BB8022EC
:100F6B0075EA0275E90643EAECE4F5EB75F36722E3
:04001E00438D2022CC
:090FAF00758E88758DC002001ECC
:0D0F980075968875890175898143AB042227
:070FDF0075C829E4F58A2220
:100B2E0075A1C375AC20E4F591F5DEF58075B1FCC9
:100B3E00F5ADF592F5DFF58875B9CD75AE10F59377
:100B4E00F59075C1FFF5AFF59875C9FF75A304F55E
:100B5E0094F5A075D1D1F595F5B0F5D375D252F5C2
:100B6E00D575D4F3F5D775D603F5EEF5EF75FF28E9
:010B7E002254
:100DFF0075D88353A87F120B2E120FDF120FD1124B
:100E0F0000A6120FD8120FC1120FA5120003120F56
:0B0E1F006B120FAF120F9843A8802247
:100EEA00E4FEEF30E004D2A28002C2A2D2A1EFC394
:090EFA0013FFC2A10EEEB408E9D9
:010F030022CB
:060C620090011A1206EFDA
:100C6800C2A07F08120EEAD2A0C2A090011EE044E2
:100C7800C0FF120EEAE4FCECC39D501590011A1255
:100C880006E68C82758300120642FF120EEA0C807B
:0F0C9800E6D2A0C2A090013AE0FF120EEAD2A06D
:010CA700222A
:100236001F0C1B1E0C16171C1F1E80004040C0C042
:10024600C000C0C01F0C1B1E0C16171C1F1E400032
:1002560020206060600060603F18363C192D2F3802
:100266003F3D000080808080800080803F18363CC3
:10027600192D2F383F3D000040404040400040408F
:100286007F3C737E3C4E4F7C7F7EE000901070700A
:10029600F000F070070307070304040707077F60F1
:1002A6001C7063737F607F73000080808080800095
:1002B60080803F1E393F1E27273E3F3F780064045B
:1002C6001C1C7C007C1C01000101000101010101D4
:1002D600FFF0CEF8F1393FF0FFF9400020206060D2
:1002E600600060601F0F1C1F0F13131F1F1F00F8F5
:1002F60000E4841C9CFC00FC9C040F070E0F0709FD
:10030600090F0F0F007E40396147677F407F670105
:100316000301030301020203030300FF609CF0E3F1
:10032600737FE0FFF3000000404040404000404043
:10033600401F0F1C1F0F13131F1F1F00F800E4841C
:070346001C9CFC00FC9C0460
:100F3300E4FE74DA2EF582E43400F583EFF00EEE6E
:030F4300B440EFC8
:010F46002288
:100E79009000DA74FFF0A3F0A3F09000DEF0A3F085
:100E8900A3F09000E2E044FEF0A374FFF0A3F02287
:100026009000D8E004F0E0C39F400EE4F0A3E004A3
:10003600F0E0D394084002E4F09000FFE04401F0C1
:100046009000D9E012070400940000940100880291
:10005600008103007A04007305006C0600A1070006
:10006600A1080000009C9000FFE0440EF09000FF05
:10007600E04470F09000FAE04407F09000FAE044A3
:1000860038F09000FAE044C0F0A3E04401F090009C
:0B009600FBE0440EF022E49000D9F0E3
:0100A100223C
:100A1E00EFD3946340027F63EF75F00A84FDEF75A8
:100A2E00F00A84ACF0ED6024900107E0FFED900237
:100A3E003693FEEF4E900107F0900106E0FFAE05F3
:100A4E00EE90024093FEEF4E900106F0900106E00C
:100A5E00FFEC90024A93FEEF4E900106F090010BD0
:0E0A6E00E0FFEC90025493FEEF4E90010BF06F
:010A7C002257
:100A7D00EFD3946340027F63EF75F00A84FDEF7549
:100A8D00F00A84ACF0ED6024900103E0FFED9002DC
:100A9D005E93FEEF4E900103F0900102E0FFAE0574
:100AAD00EE90026893FEEF4E900102F0900102E08D
:100ABD00FFEC90027293FEEF4E900102F090010751
:0E0ACD00E0FFEC90027C93FEEF4E900107F0EC
:010ADB0022F8
:04034D00AB07AA064A
:10035100D3EB940FEA942740047A277B0F7C037D2B
:10036100E8AF03AE0212069190011AEFF07C007D16
:1003710064AF03AE021206917C007D0A120691A3BE
:10038100EDF07C007D0AAF03AE021206917C007D88
:100391000A120691A3EDF0AE02AF037C007D0A12B2
:1003A1000691AB059000EFE0FE90011AE0FD90028E
:1003B1008693FCEE4C9000EFF09000EEE0FFED90A4
:1003C100029093FEEF4EFF9000EEF090011BE0FED5
:1003D10090029A934F9000EEF09000F3E0FFEE90C0
:1003E10002A493FEEF4E9000F3F09000F2E0FF9034
:1003F100011BE09002AE93FEEF4EFF9000F2F090F1
:10040100011CE0FE9002B8934F9000F2F09000F7CB
:10041100E0FFEE9002C293FEEF4EFF9000F7F0EB8B
:100421009002CC934F9000F7F09000F6E0FFEB9034
:1004310002D693FEEF4E9000F6F09000FBE0FFAE87
:0D04410003EE9002E093FEEF4E9000FBF002
:01044E00228B
:10073000EF75F00A84F9EF75F00A84AEF0ED75F00C
:100740000A84FCED75F00A84ABF0EFD394184004F2
:10075000790A7E0AEDD3943C40047C0A7B0A30047B
:100760000330014490010BE0FFE99002EA93FDEFB2
:100770004D90010BF090010AE0FFE99002F593FD26
:10078000EF4D90010AF09000E6E0FFEE9003009339
:10079000FDEF4D9000E6F09000EBE0FFEE90030BD4
:1007A00093FEEF4E9000EBF030050330014F9001C7
:1007B0000FE0FFEC90031693FEEF4E90010FF090C8
:1007C000010EE0FFEC90032193FEEF4E90010EF03E
:1007D000900113E0FFEC90032C93FEEF4EFF90018D
:1007E00013F0EB900337934F900113F0900112E058
:0D07F000FFEB90034293FEEF4E900112F0DC
:0107FD0022D9
:04044F00AB07AA0647
:100453007C037DE8120691900132EFF07C007D640D
:10046300AF03AE021206917C007D0A120691A3ED42
:10047300F07C007D0AAF03AE021206917C007D0A78
:10048300120691A3EDF07C007D0AAF03AE021206C3
:1004930091A905D3EB940FEA9427400B9001327492
:1004A3000AF0A3F0A3F0F990010BE0FE900132E013
:1004B300FD9002EA93FCEE4C90010BF090010AE0F0
:1004C300FFED9002F593FEEF4E90010AF09000E6E7
:1004D300E0FF900133E0FE90030093FDEF4D9000A9
:1004E300E6F09000EBE0FFEE90030B93FEEF4E90EF
:1004F30000EBF090010FE0FF900134E0FE90031653
:1005030093FDEF4D90010FF090010EE0FFEE90038D
:100513002193FEEF4E90010EF0900113E0FF900146
:1005230034E090032C93FEEF4EFF900113F0E9901B
:100533000337934F900113F0900112E0FFE990030A
:090543004293FEEF4E900112F00C
:01054C00228C
:100DD100E4FF120F33E4900119F0900138E0FEA313
:100DE100E0F5828E83A3A3A31206F812072A7B01E2
:0E0DF1007A0079DAE490011EF07D3F020C6278
:100F5900C206E490011FF0900122F0900120F0A355
:020F6900F02274
:100E9900EBD39D5003ED04FB90011FEFF09001226D
:0B0EA900EDF0900120EBF0E4A3F0223C
:100CED0090011FE0603A900121E004F0A3E0FF9035
:100CFD000121E0FEC39F5009200603439701D20650
:100D0D0022900120E0FFEEC39F5009300603539758
:100D1D00FEC2062290011FE014F0E4900121F022A2
:030D2D00C20622D9
:0E0F8A00900034E412066F900033E402066F0C
:100F1E00900034120642FF900033120642B50703CA
:050F2E00D38001C32285
:100D67009001351206EF9001351206E69000341215
:100D770006422401FFE433FE7C007D33120691AF67
:100D8700059001351206E6900033120642B50503B9
:050D9700D38001C3221E
:100F04009000341206422433FF900033120642FE4E
:0A0F1400C3EF9E75F03384AFF022A6
:100ADC00900126EDF09001231206EF120D67403CB9
:100AEC00900126E0FF9001231206E69000341206D6
:100AFC0042F582758300EF12066F900034120642A5
:100B0C002401FFE433FE7C007D33120691AF059087
:100B1C0001231206E6900034ED12066F900126E0D8
:020B2C00FF22A6
:060B7F009001271206EFB1
:100B8500E490012AF0120F1E403A9001271206E662
:100B9500900033120642F5827583001206429001D9
:100BA5002AF09000331206422401FFE433FE7C0054
:100BB5007D33120691AF059001271206E6900033AA
:090BC500ED12066F90012AE0FF19
:010BCE002204
:100BCF000101FF00190201FF001A0301FF002204B7
:100BDF0001FF00A20501FF0FEC0601FF0FED07015A
:100BEF00FF0FEE080CFF0FEF0901FF0FF00A01FFD7
:100BFF000FF10B06FF0FF20C01FF0FF30D01FF0FAB
:0B0C0F00F4F701FF0FF5FF06FF0FF6E2
:100E540090006F1206E67D01120ADC90013BE02F40
:100E6400F090006F1206E67D02120ADC90013BE06E
:050E74002FF0020D9CAF
:0100190022C4
:01001A0022C3
:0100220022BB
:0100A200223B
:010FEC0022E2
:010FED0022E1
:010FEE0022E0
:010FEF0022DF
:010FF00022DE
:010FF10022DD
:010FF20022DC
:010FF30022DB
:010FF40022DA
:010FF50022D9
:010FF60022D8
:080FC900D207E490012EF02292
:1000B60090006C1206E6900034120642FF90003360
:1000C6001206426F700302023590006C1206E6902B
:1000D6000033120642F58275830012064290011A19
:1000E600F09000331206422401FFE433FE7C007DCB
:1000F60033120691AF0590006C1206E6900033EDC0
:1001060012066F30071E90011AE0B4F11490012E0A
:10011600E004F0E0B40299C207E4F090012BF0800D
:100126008F02022D90011AE0FF90012EE02472F555
:1001360082E43400F583EFF090012BE02FF090017C
:100146002EE004F0E0FFB4010B900072E090012D68
:10015600F00200B6EF640260030201E090012DE0B8
:10016600FFD39400402AEFD3940D5024E075F00598
:10017600A424CBF582E4340BF583E49390012CF0B0
:10018600EF75F005A424CCF582E4340BF5838026C4
:1001960090012DE0FFB4F70E900C11E49390012C22
:1001A600F0900C128010EFB4FF17900C16E49390A9
:1001B600012CF0900C171206F890011B1206EF8026
:1001C60002800F900073E0FF90012CE06F70030235
:1001D60000B6D207E490012EF02290012CE0240410
:1001E600FFE433FE90012EE0C39FEE6480F8748036
:1001F6009850030200B690012CE0FF2474F582E4C7
:100206003400F583E0FE2EFE74752FF582E434008B
:10021600F583E02EFF90012BE0B5070990011B1234
:0F02260006E612072AD207E490012EF00200B676
:0102350022A6
:100E2A007B017A00790090006C1206EF120F8A7B20
:100E3A00017A00793590006F1206EF120F8AE4905A
:090E4A00006AF0C202A3F0C20329
:010E5300227C
:100D9C0020033190006F1206E6120F04EFC394018A
:100DAC00500122EFB4010D90006F1206E6120B7F7A
:100DBC008FF5800D90006F1206E6120B7F8FF5D227
:040DCC000343EAC033
:010DD0002200
:090FB8003002051200B6C202224B
:100EB400FF0FF7FF0FF7FF0FF7FF0FF7FF0FF7FF16
:0B0EC4000FF7FF0FF7FF0FF7FF0FF70E
:050FE6004201380EB4C9
:010FF70022D7
:100C1A0090011AEEF0A3EFF0300515900138E0FECE
:100C2A00A3E02418F582E43EF5831206F812072A97
:100C3A0090011AE0FFA3E0900138CFF0A3EFF03063
:100C4A000415900138E0FEA3E02415F582E43EF590
:080C5A00831206F812072A229A
:100ECF00FF0FF8FF054DFF0FF9FF0FFAFF0FFBFFA5
:0B0EDF000FFCFF0FFDFF0FFEFF0FFFD9
:010FF80022D6
:10054D00120E799000E7E0440FF09000E6E044F0E1
:10055D00F0900106E04420F090010FE04438F09057
:10056D0000E2E04401F09000E7E04470F090010AF1
:10057D00E04403F090010FE04444F09000FFE044AC
:10058D0001F09000FBE0440EF09000FAE044C0F062
:10059D00A3E04401F09000FAE04438F04407F090F5
:1005AD0000FFE04470F0440EF0900112E04402F0C0
:1005BD00A3E04420F0900117E04418F0900102E010
:1005CD004440F0900107E04420F0900103E04440E6
:1005DD00F09000FBE04410F09000FEE04480F04409
:1005ED0003F0900112E04401F0900117E04440F057
:1005FD004420F04404F04402F04401F07F19120A43
:10060D001E7F19120A7DC204C2057D1E7F0C1207C2
:10061D00307FD27E0412034D9000EEE04408F0903E
:10062D0000F2E04440F09000F7E04402F090011633
:05063D00E044C0F022C2
:010FF90022D5
:010FFA0022D4
:010FFB0022D3
:010FFC0022D2
:010FFD0022D1
:010FFE0022D0
:010FFF0022CF
:1008BA000209BFE493A3F8E493A34003F68001F28C
:1008CA0008DFF48029E493A3F85407240CC8C3333F
:1008DA00C4540F4420C8834004F456800146F6DF0E
:1008EA00E4800B0102040810204080900FE6E47EA9
:1008FA00019360BCA3FF543F30E509541FFEE49303
:10090A00A360010ECF54C025E060A840B8E493A3C9
:10091A00FAE493A3F8E493A3C8C582C8CAC583CAF4
:10092A00F0A3C8C582C8CAC583CADFE9DEE780BEAC
:010FEB000005
:10064200BB010CE58229F582E5833AF583E022506D
:1006520006E92582F8E622BBFE06E92582F8E222B7
:0D066200E58229F582E5833AF583E49322D1
:10066F00F8BB010DE58229F582E5833AF583E8F0C1
:10067F00225006E92582C8F622BBFE05E92582C86D
:02068F00F22255
:10069100BC000BBE0029EF8DF084FFADF022E4CC4D
:1006A100F875F008EF2FFFEE33FEEC33FCEE9DEC16
:1006B100984005FCEE9DFE0FD5F0E9E4CEFD22ED5C
:1006C100F8F5F0EE8420D21CFEADF075F008EF2FA6
:1006D100FFED33FD4007985006D5F0F222C398FD97
:0506E1000FD5F0EA2234
:0906E600E0FBA3E0FAA3E0F92215
:0906EF00EBF0A3EAF0A3E9F0220C
:0C06F800E493FB740193FA740293F9225E
:10070400D083D082F8E4937012740193700DA3A384
:1007140093F8740193F5828883E473740293686098
:06072400EFA3A3A380DF98
:06072A008A838982E4735A
:00000001FF
