:03001B000239891E
:10398900C0E0C0F0C083C082C0D075D000C000C004
:0D39990001C002C003C004C005C006C00785
:1039A60090006A7404F090006CE0FBA3E0FAA3E0D8
:1039B600F9900034121191F582758300E5F5121124
:1039C600D09000341211912401FFE433FE7C007D77
:1039D600331211F2AF0590006CE0FBA3E0FAA3E00E
:1039E600F9900034ED1211D0900034121191243365
:1039F600FFE433FE900033121191FDC3EF9DFFEEFD
:103A06009400FE7C007D331211F2AF05EFD3941FB4
:043A16004002D21583
:103A1A00D007D006D005D004D003D002D001D00000
:0B3A2A00D0D0D082D083D0F0D0E032AA
:03002300023C128A
:103C1200C0E0C0F0C083C082C0D075D000C000C078
:103C220001C002C003C004C005C006C00790006FF7
:103C3200E0FBA3E0FAA3E0F9900033121191F582C0
:103C4200758300121191F5F5900033121191240140
:103C5200FFE433FE7C007D331211F2AF0590006F5A
:103C6200E0FBA3E0FAA3E0F9900033ED1211D0904B
:103C72000034121191FF900033121191B50705C261
:103C82001653EA3FD007D006D005D004D003D002A5
:0F3C9200D001D000D0D0D082D083D0F0D0E0329B
:03006B00024AF94D
:104AF900C0E0C083C0829001DEE004F0D082D083A0
:034B0900D0E032C7
:0300A300022BAA83
:102BAA00C0E0C0F0C083C082C0D075D000C000C0F1
:0D2BBA0001C002C003C004C005C006C00772
:102BC7009001DEE0FEADB37C00E42DFFEC3E90010A
:102BD700CFF0A3EFF043B2019001DEE4F09001CF14
:102BE700E07002A3E07004C2118011D39001D0E01D
:102BF700940A9001CFE094004002D211D212B20F92
:102C07009001DBE004F0E0C394024031E4F090006F
:102C1700E3E004F0900148E004F0E0943C401EE457
:102C2700F0D20B9000EAE004F0E0943C400FE4F0AF
:102C37009000E9E004F0E094184002E4F0438D20AE
:102C4700E58830E1397587030000000000000000C7
:102C570053ABEF53A8F753A8EF758000758800753D
:102C6700900075980075A00075B0009001DCE00435
:102C7700F0E0D3943C4015743CF0C209800E9001FB
:0C2C8700DCE060031245D49001DCE4F0B6
:102C9300D007D006D005D004D003D002D001D00095
:0B2CA300D0D0D082D083D0F0D0E0323F
:0300B3000220AF79
:1020AF00C0E0C0F0C083C082C0D075D000C000C0F7
:0D20BF0001C002C003C004C005C006C00778
:1020CC00E59030E4097812E64402F6022183781296
:1020DC00E620E10302218354FDF64401F67809E67B
:1020EC00FF7025C3780BE6946518E6940050030244
:1020FC002183187601780C76007812E654DFF67896
:10210C000D7600087600806FEF6401704C780EE657
:10211C0025E0790EF718E63319F7C3780BE6940E21
:10212C0018E694004006780EE64401F6780A76002C
:10213C000876000806E6C39420403C08E6FF08E653
:10214C009001EBCFF0A3EFF0780976027812E64419
:10215C0010F64408F6D218801E7809E6B40218C3AB
:10216C00780BE6949218E69404400C1876007812DA
:10217C00E654F7F654FEF67812E6FF30E028780BBA
:10218C0006E618700106C3780BE6949218E69404E0
:10219C0040147600087600EF54FE7812F678097633
:1021AC000054F77812F6781106E6D394045006C260
:1021BC0093D29280127811E6D39408500AD293C22B
:1021CC0092E6B408027600E59030E11D780FE6FE49
:1021DC0008E6FF4E600A9001B5EEF0A3EFF0D214C2
:1021EC00780F76000876008008781006E6187001E3
:1021FC0006780806E6C39432401B76009001DD7425
:10220C0001F0D20412377D90006AE06008E014F00F
:10221C00E07002D215300E0B7808E6D39408400318
:03222C0043981EB6
:10222F00D007D006D005D004D003D002D001D00003
:0B223F00D0D0D082D083D0F0D0E032AD
:03000000023B7848
:103B780078FFE4F6D8FD90001B7FE57E03E4F0A310
:0A3B8800DFFCDEFA758123023BCD5D
:1045D400124604124B1E124539124C15124B30125E
:1045E4004AE59001F1748EF07E487F80D204C205C2
:1045F40012411D7B0F7D0A7F0112481443A88022BB
:103458001245D4438D20124C047815E6D3941940B4
:10346800147811E69406400D7F02124A667816A673
:1034780007E47815F69001DDE060D8E4F030181C18
:10348800C2189001EDE0FEA3E0240FF582E43EF5BA
:1034980083740193FA740293F9121384781306085B
:1034A8000608067813E624FE601714601914601BDA
:1034B80014601D2404701F1235F7C20412377D8072
:1034C80019124385801412382F800F121D69800A43
:1034D800124077124632E47813F67814E6C3940F54
:1034E800500302345BE4F61245A1123CA1123AD80B
:1034F8001236C39001EDE0FEA3E02409F582E43E14
:10350800F583740193FA740293F91213849000E31B
:10351800E06003E014F0200B0302345BC20B0234BA
:013528005B47
:074C2500759CA0E4F59D223F
:0F4B6000EF540FFFE59C54F04FF59C439C40220F
:0D00A600758B66438B08538B7F43AB102294
:104B0C00EF6007E5974401FF8005E59754FEFF8FA2
:024B1C009722DE
:074C2C00E4F597758F3E22AD
:084C0D00E4F59AF599F59B22EC
:0D4BB70075B28E75B4FF43AA0243B201220D
:1000030075BB2043BB3075BAC0E4F5BFF5BE75BD03
:080013000F75BC9F43BB802266
:104A500075EA0275E90643EAECE4F5EB75F36743A2
:064A6000A80843A8102283
:044C4000438D20225E
:094BFB00758E88758DC0024C40D6
:0D4BC40075968875890175898143AB0422BF
:074C330075C829E4F58A228F
:10416F0075A1C375AC20E4F591F5DEF58075B1FC52
:10417F00F5ADF592F5DFF58875B9CD75AE10F59300
:10418F00F59075C1FFF5AFF59875C9FF75A304F5E7
:10419F0094F5A075D1D1F595F5B0F5D375D252F54B
:1041AF00D575D4F3F5D775D603F5EEF5EF75FF2872
:0141BF0022DD
:1046040075D80153A87F12416F124C33124BC4E585
:104614008830E10543A88080F6124C251200A612CA
:0E4624004C2C124C0D124BB7120003024A50E0
:10497300E4FEEF30E004D2A28002C2A2D2A1EFC3D0
:0949830013FFC2A10EEEB408E915
:01498C002208
:0B41C000900197EBF0A3EAF0A3E9F0F8
:1041CB00C2A07F08124973D2A0C2A090019BE04409
:1041DB00C0FF124973E4FCECC39D501A900197E0A9
:1041EB00FBA3E0FAA3E0F98C82758300121191FF17
:1041FB001249730C80E1D2A0C2A09001F1E0FF1232
:04420B004973D2A081
:01420F00228C
:102779001F0C1B1E0C16171C1F1E80004040C0C0DA
:10278900C000C0C01F0C1B1E0C16171C1F1E4000CA
:1027990020206060600060603F18363C192D2F389A
:1027A9003F3D000080808080800080803F18363C5B
:1027B900192D2F383F3D0000404040404000404027
:1027C9007F3C737E3C4E4F7C7F7EE00090107070A2
:1027D900F000F070070307070304040707077F6089
:1027E9001C7063737F607F7300008080808080002D
:1027F90080803F1E393F1E27273E3F3F78006404F3
:102809001C1C7C007C1C010001010001010101016B
:10281900FFF0CEF8F1393FF0FFF940002020606069
:10282900600060601F0F1C1F0F13131F1F1F00F88C
:1028390000E4841C9CFC00FC9C040F070E0F070994
:10284900090F0F0F007E40396147677F407F67019D
:102859000301030301020203030300FF609CF0E389
:10286900737FE0FFF30000004040404040004040DB
:10287900401F0F1C1F0F13131F1F1F00F800E484B4
:072889001C9CFC00FC9C04F8
:104ABD00E4FE74502EF582E43401F583EFF00EEE32
:034ACD00B440EF03
:014AD00022C3
:1047600090015074FFF0A3F0A3F0900154F0A3F077
:10477000A3F0900158E044FEF0A374FFF0A3F022F0
:1042F50090014EE004F0E0C39F4004E4F0B20D905D
:104305000175E04401F0300D16900171E0440EF0A6
:10431500900170E04438F0900175E04470F022900F
:104325000170E044C0F0A3E04401F0900170E04466
:0943350007F0900175E0440EF060
:01433E00225C
:10444C00EF14603214602814601E14601414600A97
:10445C0014702A900160E04406F0900160E044087A
:10446C00F0900160E04410F0900160E04420F09086
:0E447C000160E04440F0900160E04480F022D6
:10006E00EF14602814601E14601414600A147023B8
:10007E00900174E04404F0900174E04408F09001A3
:10008E0074E04410F0900174E04420F0900174E0AC
:04009E004440F022C8
:103F5C00EFD3946340027F63EF75F00A84FDEF7535
:103F6C00F00A84ACF0ED602490017DE0FFED902729
:103F7C007993FEEF4E90017DF090017CE0FFAE0551
:103F8C00EE90278393FEEF4E90017CF090017CE045
:103F9C00FFEC90278D93FEEF4E90017CF090018109
:0E3FAC00E0FFEC90279793FEEF4E900181F01E
:013FBA0022E4
:103FBB00EFD3946340027F63EF75F00A84FDEF75D6
:103FCB00F00A84ACF0ED6024900179E0FFED9027CE
:103FDB00A193FEEF4E900179F0900178E0FFAE05D2
:103FEB00EE9027AB93FEEF4E900178F0900178E0C6
:103FFB00FFEC9027B593FEEF4E900178F090017D8A
:0E400B00E0FFEC9027BF93FEEF4E90017DF09A
:014019002284
:042CAE00AB07AA06C0
:102CB200D3EB940FEA942740047A277B0F7C037DA1
:102CC200E8AF03AE021211F290019BEFF07C007D9F
:102CD20064AF03AE021211F27C007D0A1211F2A35C
:102CE200EDF07C007D0AAF03AE021211F27C007D92
:102CF2000A1211F2A3EDF0AE02AF037C007D0A12BC
:102D020011F2AB05900165E0FE90019BE0FD90277A
:102D1200C993FCEE4C900165F0900164E0FFED90E8
:102D220027D393FEEF4EFF900164F090019CE0FEEA
:102D32009027DD934F900164F0900169E0FFEE90DF
:102D420027E793FEEF4E900169F0900168E0FF9053
:102D5200019CE09027F193FEEF4EFF900168F09006
:102D6200019DE0FE9027FB934F900168F090016D6A
:102D7200E0FFEE90280593FEEF4EFF90016DF0EB21
:102D820090280F934F90016DF090016CE0FFEB9053
:102D9200281993FEEF4E90016CF0900171E0FFAEA6
:0D2DA20003EE90282393FEEF4E900171F098
:012DAF002201
:10352900EF75F00A84F9EF75F00A84AEF0ED75F0E5
:103539000A84FCED75F00A84ABF0EFD394184004CB
:10354900790A7E0AEDD3943C40047C0A7B0A300553
:1035590003300F44900181E0FFE990282D93FDEF9E
:103569004D900181F0900180E0FFE990283893FDAA
:10357900EF4D900180F090015CE0FFEE90284393BD
:10358900FDEF4D90015CF0900161E0FFEE90284E57
:1035990093FEEF4E900161F0300603300F4F90011A
:1035A90085E0FFEC90285993FEEF4E900185F0904D
:1035B9000184E0FFEC90286493FEEF4E900184F0C3
:1035C900900189E0FFEC90286F93FEEF4EFF900188
:1035D90089F0EB90287A934F900189F0900188E067
:0D35E900FFEB90288593FEEF4E900188F0D7
:0135F60022B2
:042DB000AB07AA06BD
:102DB4007C037DE81211F290019BEFF07C007D64AE
:102DC400AF03AE021211F27C007D0A1211F2A3EDE0
:102DD400F07C007D0AAF03AE021211F27C007D0A82
:102DE4001211F2A3EDF07C007D0AAF03AE021211C2
:102DF400F2A905D3EB940FEA9427400B90019B743E
:102E04000AF0A3F0A3F0F9900181E0FE90019BE0A9
:102E1400FD90282D93FCEE4C900181F0900180E010
:102E2400FFED90283893FEEF4E900180F090015C06
:102E3400E0FF90019CE0FE90284393FDEF4D90014C
:102E44005CF0900161E0FFEE90284E93FEEF4E900F
:102E54000161F0900185E0FF90019DE0FE9028590A
:102E640093FDEF4D900185F0900184E0FFEE9028F2
:102E74006493FEEF4E900184F0900189E0FF90018D
:102E84009DE090286F93FEEF4EFF900189F0E9904A
:102E9400287A934F900189F0900188E0FFE9902807
:092EA4008593FEEF4E900188F0C9
:012EAD002202
:10377D0030040690014FE004F043C1E143B9C0535A
:10378D00981E53903F90014FE024FE602804704A2C
:10379D0090018FE030E0055398EF8003439810902F
:1037AD00018FE030E1055398FD8003439802439863
:1037BD00204398012290018FE030E2055398EF806D
:1037CD000343981090018FE030E3055398FD80037B
:1037DD004398024398404390802290018FE030E45B
:1037ED00055398FD800343980290018FE030E50565
:1037FD005398FB800343980490018FE030E6055306
:10380D0098F7800343980890018FE030E7055398AF
:10381D00EF8003439810439880439040E490014F0C
:01382D00F0AA
:01382E002277
:1045A100E4FF124ABDE490018FF09001EDE0FEA31B
:1045B100E0F5828E83A3A3A3740193FA740293F9A5
:1045C1001213847B017A017950E490019BF07D3FC5
:0345D1000241C0E4
:104B1E00C217E49001DFF09001E2F09001E0F0A303
:024B2E00F02273
:10481400EBD39D5003ED04FB9001DFEFF09001E238
:0B482400EDF09001E0EBF0E4A3F022C7
:104385009001DFE0603A9001E1E004F0A3E0FF90E6
:1043950001E1E0FEC39F5009201703439701D2179F
:1043A500229001E0E0FFEEC39F50093017035397B9
:1043B500FEC217229001DFE014F0E49001E1F02243
:0343C500C21722FA
:1000B600ECECECECECECECECECECECECECECECEC7A
:1000C600ECECECECECECECECECECECECECECECED69
:1000D600EDEEEFEFF0F1F1F2F2F3F4F4F5F6F6F6F9
:1000E600EDEDF8F8F9F9FAFAFBFBFCFCFDFDFEFE76
:1000F600FFFF0000010101020203030404040505D9
:10010600060607070708080909090A0A0B0B0B0C5C
:100116000C0D0D0D0E0E0F0F0F10101111111212E6
:100126001313131414141515161616171718181872
:1001360019191A1A1B1B1B1C1C1D1D1D1E1E1F1FF9
:10014600202020212122222323242424252526267B
:100156002727282829292A2A2B2B2C2C2D01010276
:10016600020303040405060708090A0C0D0F111300
:1001760015171A1D2023272A2E33373C40454A4F90
:10018600555A5F656A70757B80868B90969BA0A595
:10019600A9AEB2B7BBBFC3C6CACD292F353B4249AC
:1001A60050575E656C727980878D93999FA5AAAF2B
:1001B600B4B8BDC1C5C8CCCFD2D4D7D9DCDEE0E156
:1001C600E3E4E6E7E8E9EAEBECEDEEEEEFF0F0F17A
:1001D600F2F2F3F3F4F4F501020202030304050557
:1001E6000607080A0B0D0E10121417191C1F2226DB
:1001F6002A2D32363B3F44494F54595F646A707525
:100206007B81868B91969BA0A5AAAEB3B7BBBFC3D5
:10021600C7CACDD001020202030404050607080975
:100226000A0C0D0F111316181B1E2125292D30350A
:100236003A3E43484E53585E64696F757A80868BA2
:1002460090969BA0A5AAAEB3B7BBBFC3C7CACDD075
:10025600D302020203030405050607080A0B0D0E66
:10026600101215171A1D2023272B2F33383D42470E
:100276004C52575D62686E74797F858A90959A9F15
:10028600A4A9AEB2B7BBBFC3C6CACDD0D3D60202ED
:100296000203030405060708090A0C0D0F111416BC
:1002A600191B1F22262A2E32363B40454A50555BE3
:1002B60061666C72787E84898F94999FA4A8ADB28A
:1002C600B6BABEC2C6C9CDD0D3D6D802020303047D
:1002D60004050607080A0B0D0E101215171A1D2025
:1002E60024282C30353A3E43494E53595F656A708F
:1002F600767C82888D93989EA3A8ACB1B5BABEC20F
:10030600C5C9CCCFD2D5D8DA020203030405060745
:1003160008090A0C0E10121416191C1F23272B2F5E
:1003260034383D42484D52585E64696F757B81870B
:100336008D92989DA2A7ACB1B5B9BDC1C5C9CCCFA8
:10034600D2D5D7DADC0203030404050607080A0B34
:100356000D0F111316181B1E2225292E32373C416C
:10036600464C51575D62686E747A80868C91979C74
:10037600A2A6ABB0B5B9BDC1C5C8CCCFD2D5D7DA68
:10038600DCDE0203030405060708090B0C0E101237
:1003960015171A1D2124282C31363B40454B505643
:1003A6005C61676D73797F858A90969CA1A6ABAFD9
:1003B600B4B8BDC0C4C8CBCED1D4D7D9DCDEE00337
:1003C600030405050607090A0B0D0F111416191C5F
:1003D6002023272B3034393E44494F545A60666CEB
:1003E60072787E84898F959AA0A5ABAFB3B8BCC04E
:1003F600C4C7CBCED1D4D6D9DBDEE0E203030405F5
:10040600060708090B0C0E101315181B1E22262AA8
:100416002E33383D42484E53595F656B71777D8266
:10042600898E94999FA5A9AFB3B7BCC0C4C7CBCEDC
:10043600D1D4D6D9DBDDDFE1E303040505060809DF
:100446000A0C0D0F1214171A1D2124282D31363BC4
:1004560041464C52585E646A70767C81878D9298CC
:100466009DA3A8ADB2B6BABFC2C6C9CDD0D3D6D8A1
:10047600DADDDFE1E3E40404050607080A0B0D0FE5
:10048600111316181C1F23272B3034393E444A50AB
:10049600565C62686E757A80868B91979CA1A6AC35
:1004A600B0B6B9BEC1C5C9CCCFD2D5D7DADCDEE08D
:1004B600E2E4E60405060708090A0C0E10121517F1
:1004C6001A1E2125292E32373D42484E545B61675C
:1004D6006D73797F858A90969BA0A5AAAFB4B9BCA7
:1004E600C1C4C8CBCED1D4D7D9DCDEE0E2E4E5E79F
:1004F60004050607090A0C0D0F111416191C2024F1
:10050600282C31363B40464C53595F666C72787ED8
:1005160084898F949A9FA4A9AEB3B7BCC0C3C7CA37
:10052600CDD0D3D6D8DBDDDFE1E3E5E6E805060787
:1005360008090B0D0F111315181B1F22262A2F341D
:10054600393E444A51575E646B71777E83898E9437
:10055600999EA3A8ADB2B6BABFC3C6CACDD0D2D5EE
:10056600D8DADDDFE1E3E4E6E8E9050608090A0C86
:100576000E101214171A1D2125292D32373C424818
:100586004E555B62686F757C82888D92989DA2A796
:10059600ACB0B5B9BDC1C5C9CCCFD2D4D7D9DCDED4
:1005A600E0E2E4E6E7E8EA0607080A0B0D0F111495
:1005B60016191C2024282C31353B40464C52595FD5
:1005C600666D737A80868C92979CA1A6ABAFB4B801
:1005D600BCC0C4C8CBCED1D4D6D9DBDDE0E1E3E5DF
:1005E600E7E8E9EB0608090B0C0E101315181B1F9C
:1005F60022272B2F34393E444A50565D646A71785F
:100606007E848B90969BA0A5AAAEB3B7BBBFC3C78B
:10061600CACED0D3D6D8DADDDFE1E3E5E6E8E9EA0B
:10062600EB07080A0C0E101215171B1E22262A2F7E
:1006360033383D43484E545B61686F757C83898FC0
:10064600959A9FA4A9AEB2B6BABEC2C6C9CDD0D33A
:10065600D5D8DADCDEE0E2E4E6E7E9EAEBEC080925
:100666000B0D0F1114171A1D2125292E33373C4166
:10067600474D53595F666D737A81888E94999FA40E
:10068600A8ADB2B6BABEC1C5C9CCCFD2D5D7DADC11
:10069600DEE0E2E4E5E7E8EAEBECED090A0C0E1031
:1006A6001316191C1F23272C31363A40454B515738
:1006B6005D646A71787E858C92989DA3A7ACB1B56E
:1006C600B9BDC0C4C7CBCED1D4D6D9DBDDDFE1E31B
:1006D600E5E6E8E9EAEBEDED090B0D0F1214171B41
:1006E6001E22262A2F34393E44494F555B62686FD5
:1006F600767C838990969CA1A6ABB0B4B8BCC0C3E7
:10070600C7CACDD0D3D6D8DADDDFE0E2E4E6E7E942
:10071600EAEBECEDEE0A0C0E1113161A1D21252933
:100726002D32373D42484D535A60666D747A818842
:100736008E949AA0A5AAAFB3B7BBBFC3C6C9CCCF88
:10074600D2D5D7DADCDEE0E2E3E5E7E8E9EAECED8C
:10075600EEEF0B0D101215191C2024282C31363BF8
:1007660041464C52585E656B72797F868C93999F91
:10077600A4A9AEB2B7BBBEC2C5C9CCCFD2D4D7D955
:10078600DBDDDFE1E3E4E6E7E9EAEBECEDEEEF0DD6
:100796000F1214181B1F23272B30353A40454B5197
:1007A600575D636A70777E858B92989EA3A8ADB2DB
:1007B600B6BABEC2C5C8CBCED1D4D6D9DBDDDFE151
:1007C600E2E4E6E7E8EAEBECEDEEEFF00E101316E6
:1007D600191D21252A2E33383E43494F555B616842
:1007E6006E757C82898F969CA1A7ACB1B5B9BDC147
:1007F600C4C8CBCED0D3D6D8DADCDEE0E2E4E5E777
:10080600E8E9EAEBECEDEEEFF00F1114181B1F23ED
:10081600282D32373C42474D53595F666C737980B9
:10082600878D949AA0A5ABB0B4B9BDC0C4C7CACDD4
:10083600D0D3D5D8DADCDEE0E1E3E5E6E7E9EAEBBA
:10084600ECEDEEEFF0F01013161A1D22262B3035C4
:100856003B40464C52585E646B71787E858B92980D
:100866009EA4A9AEB3B8BCC0C3C7CACDD0D2D5D793
:10087600D9DCDEDFE1E3E4E6E7E8EAEBECEDEEEF18
:10088600EFF0F11215181C2025292E34393F454B5F
:1008960050565C636970767D838A90979DA2A8AD59
:1008A600B2B7BBBFC3C6CACCCFD2D5D7D9DBDDDF83
:1008B600E1E3E4E5E7E8E9EAEBECEDEEEFF0F1F190
:1008C60013171A1E23282D32383E444A50565C62AE
:1008D600686E757C82888F959BA1A7ACB1B6BBBFAD
:1008E600C3C6C9CCCFD2D5D7D9DBDDDFE1E2E4E59B
:1008F600E7E8E9EAEBECEDEEEFF0F0F1F215181CA3
:1009060021252A30353B41474D545960666C727932
:1009160080868D93999FA5AAAFB4B9BDC1C5C8CB32
:10092600CED1D4D6D9DBDDDFE0E2E3E5E6E7E9EADE
:10093600EBECEDEEEEEFF0F1F1F2161A1E23282D98
:1009460033393F454B51585D646A70777D848A918F
:10095600979DA3A8AEB2B7BCC0C4C7CBCDD0D3D6E3
:10096600D8DADCDEE0E2E3E4E6E7E8E9EAEBECED40
:10097600EEEFF0F0F1F2F2181C21262A30373D4353
:10098600494F565C62686E757B82888F959BA1A6DF
:10099600ACB1B6BABEC2C6C9CDCFD2D5D7DADCDEC7
:1009A600DFE1E3E4E5E7E8E9EAEBECEDEEEFEFF0B3
:1009B600F1F2F2F31A1F24292D343A41474D535AC6
:1009C60061666D737A80878D93999FA5AAAFB4B936
:1009D600BDC1C5C9CCCFD2D4D7D9DBDDDFE1E2E4D6
:1009E600E5E6E8E9EAEBECEDEEEEEFF0F1F1F2F335
:1009F600F31D22272C31383F454B51585F656B72EA
:100A0600787F858C91989EA4A9AEB3B8BCC0C4C8A3
:100A1600CBCED1D4D6D9DBDDDFE0E2E4E5E6E7E90B
:100A2600EAEBECEDEEEEEFF0F0F1F2F2F3F31F2469
:100A3600292F343B42484F555B62696F757C82892A
:100A46008F959BA1A7ACB1B6BABFC2C6CACDD0D34B
:100A5600D5D8DADCDEE0E1E3E4E6E7E8E9EAEBEC68
:100A6600EDEEEFEFF0F1F1F2F3F3F421262C31374E
:100A76003E454C52585F666D737980868D93999F7B
:100A8600A5AAAFB4B8BDC1C5C8CCCFD2D4D7D9DB1F
:100A9600DDDFE1E3E4E5E7E8E9EAEBECEDEEEEEFD6
:100AA600F0F1F1F2F2F3F3F423292E343A41484FF0
:100AB600565C636A71777E848B91979DA2A8ADB2CE
:100AC600B7BBBFC3C7CACED1D4D6D8DBDDDFE0E221
:100AD600E4E5E6E7E9EAEBECECEDEEEFF0F0F1F257
:100AE600F2F3F3F4F4262C31383E454C5359606743
:100AF6006E757B82888F959BA1A6ABB0B5BABEC238
:100B0600C6C9CDD0D3D5D8DADCDEE0E2E3E5E6E748
:100B1600E8E9EAEBECEDEEEFEFF0F1F1F2F2F3F3E8
:100B2600F4F4FF01DDFF021AFF0257FF0294FF02F1
:100B3600D1FF030EFF034BFF0388FF03C5FF04022B
:100B4600FF043FFF047CFF04B9FF04F6FF0533FFF3
:100B56000570FF05ADFF05EAFF0627FF0664FF06E1
:100B6600A1FF06DEFF071BFF0758FF0795FF07D209
:100B7600FF080FFF084CFF0889FF08C6FF0903FF9F
:100B86000940FF097DFF09BAFF09F7FF0A34FF0A8A
:070B960071FF0AAEFF0AEB3C
:10473C004201BC00004101BE004101BFFF4101C06C
:0E474C00004201C100004101C3004101C40050
:104A6600EF540FFFE59C54F04FF59C439C40E59CAA
:064A760030E4FBAF9F22BB
:104AD100EFD394AC40057818762D22EF9000B69371
:044AE1007818F62229
:103CA1007F01124A669001BEE0FEEFD39E4002EF13
:103CB100F09001BFE0FEEFC39E5002EFF09001BD16
:103CC100E02FF09001BCE03400F09001C0E004F07E
:103CD100E0C3940A40529001BEE0FF9001BDE09F15
:103CE100FF9001BCE09400FE9001BFE0FDC3EF9D99
:103CF100FFEE94009001BCF0A3EFF09001BCE0FE58
:103D0100A3E07803CEC313CE13D8F9FF9001BCEE24
:103D1100F0A3EFF0124AD1E49001C0F09001BCF0A1
:083D2100A3F0A3F0A374FFF06E
:013D29002277
:053E2200900198E0FF93
:103E2700EDB4051090019B74FFF0A37401F0A37427
:103E370063F08037EDB42D1090019B74FFF0A374ED
:103E470001F0A374A0F08023ED75F003A42416F508
:103E570082E4340BF583E493F9740193FA740293C3
:103E670090019BC9F0A3EAF0A3E9F0E4FE90019B5F
:103E7700E0FBA3E0FAA3E0F98E82758300121191AB
:0F3E8700FDEFC39D40050EEEB43CE2EE241EFF9E
:013E96002209
:052EAE00900198EFF017
:102EB3007818E6FCD3648094855007E0FF7D050213
:102EC3002FA4C3EC648094AD400A900198E0FF7D89
:102ED3002D022FA4C37818E66480948650557D068E
:102EE300123E22900199EFF07D05123E2290019A45
:102EF300EFF0900199E0FDC3EF9DFDE49400FCE445
:102F03001210BEC004C005C006C0077818E6FF3320
:102F130095E0FEC374069FFDE49EFC1210BED00331
:102F2300D002D001D000120FB31210F7900199E034
:102F33002F8066D37818E6648094AC900198E0FF04
:102F4300405B7D2C123E27900199EFF0900198E0B1
:102F5300FF7D2D123E2790019AEFF0900199E0C377
:102F63009FFDE49400FCE41210BEC004C005C0063B
:102F7300C0077818E6FF3395E0FEEF24D4FDEE3466
:102F8300FFFC1210BED003D002D001D000120FB349
:102F93001210F7900199E0C39F7817F6227818E68C
:082FA300FD123E277817A60776
:012FAB002203
:103AD8007816E6FF9001C2E02FF09001C1E03400B3
:103AE800F09001C3E004F0E0C394085003023B7770
:103AF8009001C1E0FEA3E07803CEC313CE13D8F93A
:103B0800F0EE9001C1F09001C4E004F0E0C3940825
:103B18004004E4F0D2199001C1A3E0FD9001C4E093
:103B280024C5F582E43401F583EDF0301929E4FF6A
:103B3800FEFC74C52CF582E43401F583E02FFFE424
:103B48003EFE0CECB408EBEF7803CEC313CE13D8CB
:103B5800F9900197F08005900197EDF0900197E0BA
:0F3B6800FF122EAEE49001C3F09001C1F0A3F064
:013B7700222B
:104B30007F01124A66124AD17F02124A66022EAEE5
:104AE5009001B97407F0A37453F0C213E49001B3B5
:044AF500F0A3F02218
:10425F009001B3E0FCA3E0FDD39432EC9400500442
:10426F007F018036D3ED9464EC940050047F02807C
:10427F0029D3ED9496EC940050047F03801CD3ED6A
:10428F0094C8EC940050047F04800FD3ED942CEC71
:0A429F00940150047F0580027F06A1
:0142A90022F2
:10382F009001B9E07002A3E060259001BAE024FF97
:10383F00F09001B9E034FFF0E07002A3E0701212D3
:10384F00425F9001BBEFF09001B7F0A3F08002D27E
:10385F00133014789001ABE0FFA3E0A3CFF0A3EFF8
:10386F00F09001A9E0FFA3E0A3CFF0A3EFF0900148
:10387F00A7E0FFA3E0A3CFF0A3EFF09001B5E0FF27
:10388F00A3E09001A7CFF0A3EFF0C214E49001B32F
:10389F00F0A3F0FFEF25E024A7F582E43401F583D0
:1038AF00E0FCA3E0FD9001B4E02DF09001B3E03C0B
:1038BF00F00FEFB404DE9001B3E0FEA3E07805CE85
:0C38CF00C313CE13D8F9F0EE9001B3F053
:0138DB0022CA
:1036C30020130BE49001AFF0A3F0A3023779124269
:1036D3005F9001B8E0FEEFD39E400EE49001B1F09D
:1036E300A3F09001BBEFF08038EFC39E50399001F7
:1036F300B2E004F070069001B1E004F0D39001B29F
:10370300E094689001B1E0648094804021E4F0A3E8
:10371300F09001BBE0D394014003E014F09001BBAF
:10372300E09001B8F08007E49001B1F0A3F09001BC
:10373300B7E0FF9001BBE0FED39F401AE49001B0D5
:10374300F09001AFE004F0E0D39468402CE4F090F3
:1037530001B7E004F022EEC39F5017E49001AFF0ED
:10376300A3E004F0E094D04010E4F09001B7E0143B
:09377300F022E49001AFF0A3F094
:01377C00222A
:0A4BDD00C210E49001D3F0A3F0220F
:1047BD00D210EF7802C333CE33CED8F9FF7C007D13
:0D47CD00781211F29001D3EEF0A3EFF0226C
:101D69009001EDE0FEA3E0240CF582E43EF58374D6
:101D79000193FA740293F912138430100B9001D372
:101D8900E0FAA3E0FB4A700CE4F5BFF5BE9001D17F
:101D9900F0A3F0222011289001D2E02414F0900140
:101DA900D1E03400F0D3A3E094209001D1E0940372
:101DB9005003021EF17403F0A37420F0021EF120F7
:101DC9001203021EF19001CDE0FEA3E0FFC39001D2
:101DD900D0E09F9001CFE09E400BA3E09FFF9001D0
:101DE900CFE09E80149001CFE0FEA3E0FFC39001F5
:101DF900CEE09FFF9001CDE09E900199F0A3EFF016
:101E0900C39001D0E09B9001CFE09A406A9001D342
:101E1900E0FEA3E0FF9001D0E09FFF9001CFE09E9C
:101E2900900197F0A3EFF0E0C4F8540FC868FF9051
:101E39000197E0C454F048FE90019AE02401FD9016
:101E49000199E03400FC1211F290019BEEF0A3EF2E
:101E5900F0D39001D2E09F9001D1E09E5003021E81
:101E6900EF90019BE0FEA3E0FF9001D2E09FF0908C
:101E790001D1E09EF0806F9001CFE0FEA3E0FFC3A7
:101E89009001D4E09FFF9001D3E09E900197F0A3C9
:101E9900EFF0E0C4F8540FC868FF900197E0C4540C
:101EA900F048FE90019AE02401FD900199E0340088
:101EB900FC1211F290019BEEF0A3EFF0C374A09F06
:101EC900FF740F9EFEC39001D2E09F9001D1E09E66
:101ED900501490019BE0FEA3E0FF9001D2E02FF0A7
:101EE9009001D1E03EF0C2129001D1E0FCA3E0FDE7
:101EF900ECF5BF8DBE9001CFE0FFA3E09001CDCFFF
:041F0900F0A3EFF062
:011F0D0022B1
:10479F000100FF0100DB0101010100DE0101030146
:0E47AF0000E1071E121E111E161E0900161E26
:1031A00090019B7405F0A374A0F090010E74FFF0E1
:1031B000E490019DF090019DE0FFC394064003025E
:1031C000328DEF75F003A4249FF582E43447F58334
:1031D000E493FB740193FA740293F912117820E0DE
:1031E0000302328390019DE075F003A4249FF582D1
:1031F000E43447F583E493FB740193FA740293F982
:10320000900001121191FD7C00EF75F003A4249F42
:10321000F582E43447F583E493FB740193FA740276
:1032200093F9121178C313547F75F03CA42DFEEC72
:1032300035F090019EF0A3CEF09000E9E075F03CEF
:10324000A4FFA3E02FFFEC35F0FE90019EE0FCA36D
:10325000E0FDD39FEC9E402BED9FFDEC9EFCD390B8
:10326000019CE09D90019BE09C401890019FE09F95
:10327000FF90019EE09E90019BF0A3EFF0A3E090F1
:0D328000010EF090019DE02402F00231B536
:01328D00221E
:10407700E4900108F09001EDE0FEA3E02406F5824C
:10408700E43EF583740193FA740293F91213849052
:104097000108E030E004D28C8002C28C900108E075
:1040A70030E104D28E8002C28E900108E030E20433
:1040B700D28D8002C28D900108E030E303D2A322A3
:0340C700C2A3226F
:10463200E58830E1239000D8E004F0E0D39405400F
:104642001CE4F0758703000000000000000053AB7B
:0D465200EF53A8F753A8EF22E49000D8F032
:01465F002238
:1040CA0043981E000000004398E14390C053C11E6C
:1040DA0053B93F00000000E4FFE59820E5010FE531
:1040EA009820E604EF4402FFE59820E704EF440431
:1040FA00FFE59820E004EF4408FFE59020E704EF8D
:10410A004410FFE59020E604EF4420FF43C1E14359
:02411A00B9C02A
:01411C002280
:1035F7001240CA900197EFF09001E5E06F603A90B2
:103607000197E0702B9001E3E0FFD394054021EF91
:103617009496501C9001E67402F09001EDE0FEA331
:10362700E0F5828E83740193FA740293F91213847E
:10363700900197E09001E5F0229001E5E070099094
:1036470001E3F0A3F0D21A22E49001E6F09001E33F
:10365700E004F0A3E004F0E0D3943C401F742DF0A5
:103667009001E67404F09001EDE0FEA3E0F5828E90
:1036770083740193FA740293F91213849001E3E0BF
:10368700FFB405089001E67401F08019EFB4F8085B
:103697009001E67403F0800DEFD394FA401D90017A
:1036A700E374FAF0229001EDE0FEA3E0F5828E8349
:0B36B700740193FA740293F91213845B
:0136C20022E5
:0E4B8D00900034E41211D0900033E40211D0F5
:104AA800900034121191FF900033121191B5070351
:054AB800D38001C322C0
:104500009001A4EBF0A3EAF0A3E9F09001A4E0FB92
:10451000A3E0FAA3E0F99000341211912401FFE422
:1045200033FE7C007D331211F2AF0590003312117F
:0945300091B50503D38001C322FB
:10498D009000341211912433FF900033121191FED7
:0A499D00C3EF9E75F03384AFF022E3
:103EFB009001A3EDF09001A0EBF0A3EAF0A3E9F0A1
:103F0B0012450040469001A3E0FF9001A0E0FBA307
:103F1B00E0FAA3E0F9900034121191F58275830059
:103F2B00EF1211D09000341211912401FFE433FEF3
:103F3B007C007D331211F2AF059001A0E0FBA3E0F2
:103F4B00FAA3E0F9900034ED1211D09001A3E0FF39
:013F5B002243
:0B401A009001A0EBF0A3EAF0A3E9F096
:10402500E4A3F0124AA840449001A0E0FBA3E0FA03
:10403500A3E0F9900033121191F5827583001211F6
:10404500919001A3F09000331211912401FFE43304
:10405500FE7C007D331211F2AF059001A0E0FBA3B9
:10406500E0FAA3E0F9900033ED1211D09001A3E03E
:01407500FF4B
:014076002227
:1042AA000101FF001E0201FF46E60301FF433F042E
:1042BA0001FF4A7C0501FF4A920601FF47DA07011E
:1042CA00FF47F7080CFF3DA80901FF23B80A01FFC1
:1042DA0038DC0B06FF43C80C01FF482F0D01FF4BCA
:0B42EA009BF701FF1BBEFF06FF49A76A
:050B9D0090019BEFF048
:100BA200E4A3F090006FE0FBA3E0FAA3E0F97DF28A
:100BB200123EFB90006FE0FBA3E0FAA3E0F97DF2A6
:100BC200123EFB90006FE0FBA3E0FAA3E0F9900174
:100BD2009BE0FD123EFB90019CE02FF090006FE045
:100BE200FBA3E0FAA3E0F97D25123EFB90019CE015
:100BF2002FF090006FE0FBA3E0FAA3E0F990010D63
:100C0200E0FD123EFB90019CE02FF090006FE0FBB4
:100C1200A3E0FAA3E0F99001B3E0FD123EFB9001DC
:100C22009CE02FF090006FE0FBA3E0FAA3E0F990C4
:100C320001B3A3E0FD123EFB90019CE02FF0900077
:100C42006FE0FBA3E0FAA3E0F9900145E0FD123E5C
:100C5200FB90019CE02FF090006FE0FBA3E0FAA371
:100C6200E0F9900145A3E0FD123EFB90019CE02FCC
:100C7200F090006FE0FBA3E0FAA3E0F990010BE033
:100C8200FD123EFB90019CE02FF090006FE0FBA371
:100C9200E0FAA3E0F990010CE0FD123EFB90019C0A
:100CA200E02FF090006FE0FBA3E0FAA3E0F99001DF
:100CB20005E0FD123EFB90019CE02FF090006FE0FA
:100CC200FBA3E0FAA3E0F9900105A3E0FD123EFBCD
:100CD20090019CE02FF090006FE0FBA3E0FAA3E00C
:100CE200F97818E6FD123EFB90019CE02FF090008F
:100CF2006FE0FBA3E0FAA3E0F97817E6FD123EFBF2
:100D020090019CE02FF090006FE0FBA3E0FAA3E0DB
:100D1200F9300703E48004900143E0FD123EFB90AA
:100D2200019CE02FF090006FE0FBA3E0FAA3E0F952
:100D3200900109E0B401047D0180027D00123EFBB6
:100D420090019CE02FF090006FE0FBA3E0FAA3E09B
:100D5200F99000E0E0B402047D0180027D00123EC1
:100D6200FB90019CE02FF090006FE0FBA3E0FAA360
:100D7200E0F990010AE0FD123EFB90019CE02FF0A9
:100D820090006FE0FBA3E0FAA3E0F99000DDE0FD44
:100D9200123EFB90019CE02FF090006FE0FBA3E07D
:100DA200FAA3E0F99000FFE0FD123EFB90019CE007
:100DB2002FF090006FE0FBA3E0FAA3E0F9900100AE
:100DC200E0FD123EFB90019CE02FF090006FE0FBF3
:100DD200A3E0FAA3E0F99000DBE0FD123EFB9001F4
:100DE2009CE02FF090006FE0FBA3E0FAA3E0F99003
:100DF20000DCE0FD123EFB90019CE02FF090006FC2
:100E0200E0FBA3E0FAA3E0F9900101E0FD123EFB52
:100E120090019CE02FF090006FE0FBA3E0FAA3E0CA
:100E2200F9900102E0FD123EFB90019CE02FF09050
:100E3200006FE0FBA3E0FAA3E0F99000DEE0FD1210
:100E42003EFB90019CE02FF090006FE0FBA3E0FAE4
:100E5200A3E0F99000DFE0FD123EFB90019CE02F41
:100E6200F090006FE0FBA3E0FAA3E0F9900103E049
:100E7200FD123EFB90019CE02FF090006FE0FBA37F
:100E8200E0FAA3E0F9900104E0FD123EFB90019C20
:100E9200E02FF090006FE0FBA3E0FAA3E0F99000EE
:100EA200E1E0FD123EFB90019CE02FF090006FE02C
:100EB200FBA3E0FAA3E0F99000E2E0FD123EFB9012
:100EC200019CE02FF090006FE0FBA3E0FAA3E0F9B1
:100ED200E4FD123EFB90019CE02FF090006FE0FBDE
:100EE200A3E0FAA3E0F9E4FD123EFB90019CE02F9F
:100EF200F090006FE0FBA3E0FAA3E0F9E4FD123EFC
:100F0200FB90019CE02FF090006FE0FBA3E0FAA3BE
:100F1200E0F9E4FD123EFB90019CE02FF090006F9F
:100F2200E0FBA3E0FAA3E0F9E4FD123EFB90019C92
:100F3200E02FF090006FE0FBA3E0FAA3E0F9E4FDFC
:100F4200123EFB90019CE02FF090006FE0FBA3E0CB
:100F5200FAA3E0F9E4FD123EFB90019CE02FF09031
:100F6200006FE0FBA3E0FAA3E0F9E4FD123EFB9080
:100F7200019CE02FF090006FE0FBA3E0FAA3E0F900
:100F8200E4FD123EFB90019CE02FF090006FE0FB2D
:100F9200A3E0FAA3E0F990019CE0FD123EFB900071
:100FA2006FE0FBA3E0FAA3E0F97D7E123EFB0200B4
:010FB2002618
:01006A002273
:05001E007F01020B9DB3
:1046E600900074E0FF90010DF0BF01067E497F58EF
:1046F60080047E487F9BD204C20512411D7B0F7D3C
:0B4706000A7F011248147F02020B9D85
:10433F0090010DE064017039900074E0FF7004D2B9
:10434F00078007C207900143EFF0900143E0FFB4ED
:10435F000106E49000DD800BEFD39401400A90003A
:10436F00DD7401F090010AF07B0F7D0A7F01124886
:06437F00147F03020B9DF8
:104A7C00900074E0900109F07B0F7D0A7F011248D1
:064A8C00147F04020B9DE3
:104A9200900074E09000E0F07B0F7D0A7F011248E5
:064AA200147F05020B9DCC
:1047DA0090010DE0B40111900074E090010AF07BA1
:0D47EA000F7D0A7F011248147F06020B9D0F
:1047F70090010DE0B40111900074E09000DDF07BB2
:0D4807000F7D0A7F011248147F07020B9DF0
:103DA800900074E09000FFF0900075E0900100F042
:103DB800900076E09000DBF0900077E09000DCF077
:103DC800900078E0900101F0900079E0900102F015
:103DD80090007AE09000DEF090007BE09000DFF049
:103DE80090007CE0900103F090007DE0900104F0E9
:103DF80090007EE09000E1F090007FE09000E2F01B
:103E0800D208900107E054FEF01231A07B0F7D0A22
:0A3E18007F011248147F08020B9D81
:1023B800900074E090019DB4010D7401F0A37401C4
:1023C800F0A3740FF0800B7401F0A37401F0A374F0
:1023D80029F090006FE0FBA3E0FAA3E0F97DF21288
:1023E8003EFB90006FE0FBA3E0FAA3E0F97DF21258
:1023F8003EFB90006FE0FBA3E0FAA3E0F97D091231
:102408003EFB90019BEFF090006FE0FBA3E0FAA386
:10241800E0F97D1A123EFB90019BE02FF090019DA0
:10242800E0FBA3E0FAA3E0F9121178FD90006FE059
:10243800FBA3E0FAA3E0F9123EFB90019BE02FF02A
:1024480090019DE0FBA3E0FAA3E0F99000011211CE
:1024580091FD90006FE0FBA3E0FAA3E0F9123EFBC8
:1024680090019BE02FF0E4A3F090019CE0FFC3945F
:102478000C506DA3E0FBA3E0FAA3E02402F9E43AD0
:10248800FA75F002EFA4F58285F083121247E5F0A1
:10249800FD90006FE0FBA3E0FAA3E0F9123EFB9089
:1024A800019BE02FF090019DE0FBA3E0FAA3E0245C
:1024B80002F9E43AFA90019CE075F002A4F58285ED
:1024C800F083121247FD90006FE0FBA3E0FAA3E04F
:1024D800F9123EFB90019BE02FF0A3E004F0808905
:1024E80090006FE0FBA3E0FAA3E0F990019BE0FD08
:1024F800123EFB90006FE0FBA3E0FAA3E0F97D7EBB
:0F250800123EFB7B0F7D0A7F0112481402002652
:1038DC0090006FE0FBA3E0FAA3E0F97DF2123EFB4F
:1038EC0090006FE0FBA3E0FAA3E0F97DF2123EFB3F
:1038FC0090006FE0FBA3E0FAA3E0F97D0A123EFB17
:10390C0090019BEFF090006FE0FBA3E0FAA3E0F9CD
:10391C007D14123EFB90019BE02FF0E4A3F090018C
:10392C009CE0FFC39414502690006FE0FBA3E0FAD8
:10393C00A3E0F974EB2FF582E43400F583E0FD127B
:10394C003EFB90019BE02FF0A3E004F080D09000B0
:10395C006FE0FBA3E0FAA3E0F990019BE0FD123EBF
:10396C00FB90006FE0FBA3E0FAA3E0F97D7E123E32
:0D397C00FB7B0F7D0A7F011248140200261C
:1043C800900074E0FEA3E07C002400FFEC3E900027
:1043D800E5F0A3EFF0900076E09000E7F09000772A
:1043E800E09000E8F0900078E09000E9F090007923
:1043F800E09000EAF07B0F7D0A7F011248147F0BE2
:03440800020B9D07
:10482F00D2097E487F9BD204C20512411D7B0F7DAA
:0B483F000A7F011248147F0C020B9D41
:0E4B9B007B0F7D0A7F011248147F0D020B9DD7
:101BBE00E490019BF090006FE0FBA3E0FAA3E0F944
:101BCE007DF2123EFB90006FE0FBA3E0FAA3E0F97A
:101BDE007DF2123EFB90006FE0FBA3E0FAA3E0F96A
:101BEE007DF7123EFB90019BE02FF090006FE0FB23
:101BFE00A3E0FAA3E0F97D0E123EFB90019BE02FCD
:101C0E00F090006FE0FBA3E0FAA3E0F97D01123E35
:101C1E00FB90019BE02FF090006FE0FBA3E0FAA396
:101C2E00E0F97D3F123EFB90019BE02FF090006F9C
:101C3E00E0FBA3E0FAA3E0F97D01123EFB90019BCD
:101C4E00E02FF090006FE0FBA3E0FAA3E0F97D3FF8
:101C5E00123EFB90019BE02FF090006FE0FBA3E0A3
:101C6E00FAA3E0F97D01123EFB90019BE02FF0906C
:101C7E00006FE0FBA3E0FAA3E0F9E4FD123EFB9057
:101C8E00019BE02FF090006FE0FBA3E0FAA3E0F9D8
:101C9E00E4FD123EFB90019BE02FF090006FE0FB05
:101CAE00A3E0FAA3E0F9E4FD123EFB90019BE02FC6
:101CBE00F090006FE0FBA3E0FAA3E0F9E4FD123E22
:101CCE00FB90019BE02FF090006FE0FBA3E0FAA3E6
:101CDE00E0F9E4FD123EFB90019BE02FF090006FC7
:101CEE00E0FBA3E0FAA3E0F9E4FD123EFB90019BBA
:101CFE00E02FF090006FE0FBA3E0FAA3E0F9E4FD23
:101D0E00123EFB90019BE02FF090006FE0FBA3E0F2
:101D1E00FAA3E0F9E4FD123EFB90019BE02FF09058
:101D2E00006FE0FBA3E0FAA3E0F9E4FD123EFB90A6
:101D3E00019BE02FF090006FE0FBA3E0FAA3E0F927
:101D4E0090019BE0FD123EFB90006FE0FBA3E0FADA
:0B1D5E00A3E0F97D7E123EFB02002690
:1049A700900074E09000D9F0900075E0900144F019
:0949B700900076E09000E4F0228B
:084C1500D21BE49001EAF02239
:103A350090006FE0FBA3E0FAA3E0F97D2B123EFBBB
:103A450090006FE0FBA3E0FAA3E0F97D2B123EFBAB
:103A550090006FE0FBA3E0FAA3E0F97D2B123EFB9B
:103A650090006FE0FBA3E0FAA3E0F97D41123EFB75
:103A750090006FE0FBA3E0FAA3E0F97D74123EFB32
:103A850090006FE0FBA3E0FAA3E0F97D43123EFB53
:103A950090006FE0FBA3E0FAA3E0F97D6D123EFB19
:103AA50090006FE0FBA3E0FAA3E0F97D64123EFB12
:103AB50090006FE0FBA3E0FAA3E0F97D0D123EFB59
:103AC50090006FE0FBA3E0FAA3E0F97D0A123EFB4C
:033AD500020026C6
:1033750090006FE0FBA3E0FAA3E0F97D41123EFB6C
:1033850090006FE0FBA3E0FAA3E0F97D54123EFB49
:1033950090006FE0FBA3E0FAA3E0F97D2B123EFB62
:1033A50090006FE0FBA3E0FAA3E0F97D44123EFB39
:1033B50090006FE0FBA3E0FAA3E0F97D65123EFB08
:1033C50090006FE0FBA3E0FAA3E0F97D66123EFBF7
:1033D50090006FE0FBA3E0FAA3E0F97D61123EFBEC
:1033E50090006FE0FBA3E0FAA3E0F97D75123EFBC8
:1033F50090006FE0FBA3E0FAA3E0F97D6C123EFBC1
:1034050090006FE0FBA3E0FAA3E0F97D74123EFBA8
:1034150090006FE0FBA3E0FAA3E0F97D3D123EFBCF
:1034250090006FE0FBA3E0FAA3E0F97D31123EFBCB
:1034350090006FE0FBA3E0FAA3E0F97D0D123EFBDF
:1034450090006FE0FBA3E0FAA3E0F97D0A123EFBD2
:033455000200264C
:101F0E0090019874FFF0A37400F0A3746AF090002F
:101F1E006CE0FBA3E0FAA3E0F9900034121191FFFC
:101F2E009000331211916F70030220AE90003312A5
:101F3E001191F582758300121191900197F0900026
:101F4E00331211912401FFE433FE7C007D33121114
:101F5E00F2AF0590006CE0FBA3E0FAA3E0F990006D
:101F6E0033ED1211D0301B1E900197E0B4F1149096
:101F7E0001EAE004F0E064027094C21BF09001E705
:101F8E00F0808B0220A6900197E0FF9001EAE024FA
:101F9E0072F582E43400F583EFF09001E7E02FF064
:101FAE009001EAE004F0E0FFB4010B900072E090C3
:101FBE0001E9F0021F1CEF6402600302205690013B
:101FCE00E9E0FFD39400402AEFD3940D5024E0753E
:101FDE00F005A424A6F582E43442F583E49390013F
:101FEE00E8F0EF75F005A424A7F582E43442F583FA
:101FFE0080269001E9E0FFB4F70E9042ECE4939056
:10200E0001E8F09042ED8010EFB4FF239042F1E42E
:10201E00939001E8F09042F2E493F9740193FA740C
:10202E000293900198C9F0A3EAF0A3E9F080028030
:10203E000F900073E0FF9001E8E06F7003021F1C29
:10204E00D21BE49001EAF0229001E8E02404FFE4C0
:10205E0033FE9001EAE0C39FEE6480F874809850DE
:10206E0003021F1C9001E8E0FF2474F582E43400A3
:10207E00F583E0FE2EFE74752FF582E43400F583B1
:10208E00E02EFF9001E7E0B5070C900198A3E0FA6F
:10209E00A3E0F9121384D21BE49001EAF0021F1C94
:0120AE00220F
:104539007B017A00790090006CEBF0A3EAF0A3E923
:10454900F0124B8D7B017A00793590006FEBF0A367
:10455900EAF0A3E9F0124B8DE490006AF0C215A3CA
:03456900F0C21687
:01456C00222C
:1000260020164090006FE0FBA3E0FAA3E0F9124926
:100036008DEFC39401500122EFB4011290006FE0DE
:10004600FBA3E0FAA3E0F912401A8FF580129000A4
:100056006FE0FBA3E0FAA3E0F912401A8FF5D2167F
:0300660043EAC0AA
:010069002274
:094C0400301505121F0EC2152225
:10484A00FF00A2FF00A2FF00A2FF00A2FF00A2FF3A
:0B485A0000A2FF00A2FF00A2FF00A2CE
:05475A004201ED484A98
:0100A200223B
:10411D0090019CEEF0A3EFF030051A9001EDE0FE5A
:10412D00A3E02418F582E43EF583740193FA74023A
:10413D0093F912138490019CE0FFA3E09001EDCF61
:10414D00F0A3EFF030041A9001EDE0FEA3E024158A
:10415D00F582E43EF583740193FA740293F9121318
:02416D008422AA
:10486500FF4C59FF2FACFF4C5AFF4C5BFF4C5CFFD4
:0B4875004C5DFF4C5EFF4C5FFF4C6091
:014C59002238
:102FAC0012476090015DE0440FF090015CE044F04A
:102FBC00F09000E4E0B40115900144E0B4010E90EF
:102FCC00017CE04420F0900185E04438F0900158F9
:102FDC00E04401F090015DE04470F0900180E04429
:102FEC0003F0900185E04444F0900188E04402F045
:102FFC00A3E04420F090018DE04418F0900178E0BB
:10300C004440F090017DE04420F0900179E0444090
:10301C00F0900171E04410F0900174E04480F044B1
:10302C0003F0900160E04401F0900188E04401F06D
:10303C0090018DE04440F04420F04404F04402F050
:10304C004401F07818E6FF123F5C7817E6FF123F58
:10305C00BB9000E9E0FFA3E0FDC205C206123529D2
:10306C009000D9E0FF7E00122CAE7F0412006E7F20
:10307C00021242F5900164E04408F0900168E044CB
:10308C0040F090016DE04402F0300F0790018CE0AD
:0A309C0044C0F090018F74FFF02291
:014C5A002237
:014C5B002236
:014C5C002235
:014C5D002234
:014C5E002233
:014C5F002232
:014C60002231
:10488000FF4C61FF4BE7FF4C62FF49C0FF4C44FF08
:0B4890004C63FF4C64FF4BA9FF4C651C
:014C61002230
:0A4BE70090018F74FFF0FF024ABD39
:014C6200222F
:1049C0009000DAE004F0E0D39414400B7E487F9B23
:0849D000D204C20512411D22B0
:034C4400024BDD43
:014C6300222E
:014C6400222D
:0E4BA900E49000DAF09001F1748DF0C20E225B
:014C6500222C
:10489B00FF328EFF2AA3FF4C66FF2890FF4C47FF89
:0B48AB00299BFF4C67FF4660FF4C6834
:10328E00900147E07006743CF0C21A229001477418
:10329E003CF0201A030233749001E6E0640270469B
:1032AE009001E5E0B4200F7B147D0F7F01124814CE
:1032BE007E497F5880789001E5E0B4020F7B147D43
:1032CE000F7F011248147E487FD180629001E5E0A5
:1032DE00641060030233747B147D0F7F0112481457
:1032EE007E497F3D80489001E6E06401705990016F
:1032FE00E5E0B4040F7B147D0F7F011248147E4865
:10330E007FB6802A9001E5E0B4010F7B147D0F7F1C
:10331E00011248147E487FEC80149001E5E0B40859
:10332E00147B147D0F7F011248147E497F07D2044F
:10333E00C20502411D9001E5E064127029123A3572
:10334E009001F0740380159001E6E0B4031890012B
:10335E00E5E0B41011B20C9001EF743CF07B147DDB
:07336E000F7F011248142239
:102AA300900147E0700890018FE04420F0229001EC
:102AB3008FE04420F0900175E04401F0900171E053
:102AC300440EF0900170E04438F0900175E04470DA
:102AD300F09001B3E0FEA3E0FF122CAE9000E9E01A
:102AE300FFA3E0FDC205C206123529300F1890017D
:102AF3008CE044C0F0300C0E900180E04403F09071
:102B03000185E04444F0900107E0FD30E05B900173
:102B130088E04402F0A3E04420F090018DE04418E3
:102B2300F0EDC313547F14601614601E240270204A
:102B3300900188E04401F090018DE04404F022907C
:102B4300018DE04440F04402F02290018DE08014B6
:102B5300900188E04401F090018DE04404F044408A
:102B6300F04402F04420F0801E30083A90010EE059
:102B7300FDF46032900188E04402F0A3E04420F0C9
:102B8300ED7008900188E04401F02290010EE0FD11
:102B9300B4020890018DE04440F022EDB4040790A4
:072BA300018DE04420F02247
:014C6600222B
:102890009001F0E0600814F0E070031233759000CE
:1028A000E3E06015900147E0600214F09001EFE072
:1028B000600714F0E07002C20C200B0302299A900A
:1028C0000107E030E04FC313547FFF64037003023D
:1028D000299AEF25E025E024B1F582E43447F58319
:1028E000E493FF9000E9E0FEEF6E600302299A9006
:1028F0000107E0C313547F25E025E024B2F582E40C
:102900003447F583E493FF9000EAE0FEEF6E600346
:1029100002299A807120080302299A90010EE0FF93
:10292000F46077EF75F003A4249FF582E43447F553
:1029300083E493FB740193FA740293F9121178C340
:1029400013547FFF9000E9E06F704F90010EE0FF9D
:10295000FD3395E0FC90479F75F003ED121378EC82
:1029600075F003A42583F583E493FB740193FA7453
:102970000293F9900001121191FE9000EAE0B50671
:102980001990014DEFF07B147D0F7F011248147EEA
:0B299000497F58D204C20512411D22ED
:034C4700024BDD40
:10299B00900147E07004743CF022900147743CF0C6
:1029AB009001EBE07003A3E0F470147B147D0F7FB8
:1029BB00011248147E497F58D204C20502411D9072
:1029CB0001EBE064307004A3E064CF701E9001074C
:1029DB00E030E00554FEF08007900107E04401F081
:1029EB00900107E054014406022A989001EBE06441
:1029FB00B07004A3E0644F7021900107E020E00366
:102A0B00022AA2C313547F7008E054014406F080DD
:102A1B007D900107E05401F080749001EBE064704D
:102A2B007004A3E0648F7022900107E030E068C36C
:102A3B0013547FFFBF0108E054014406F080099056
:102A4B000107E054014402F080449001EBE064F094
:102A5B007004A3E0640F7022900107E030E038C3EC
:102A6B0013547FFFBF0208E054014406F080099025
:102A7B000107E054014404F080149001EBE0B490A2
:102A8B0016A3E0B46F11B20C9001EF743CF07B1401
:082A9B007D0F7F011248142297
:014C6700222A
:10466000E490010DF09001F0F0D20E9001F1748D04
:10467000F0900147743CF0C20C90014D74FFF09033
:0D4680000107E020E0063008031231A022FF
:014C68002229
:1048B600FF3D2AFF46BAFF4C69FF49D8FF4C4AFF25
:0B48C6004C6AFF4C6BFF4BF1FF4C6C89
:0F4B6F009000E9E004F0E0C394184002E4F02263
:104B40009000E9E0600314F0229000E97417F0226D
:0F4B7E009000EAE004F0E0C3943C4002E4F0222F
:104B50009000EAE0600314F0229000EA743BF02237
:103D2A00E49000DAF09001E6E0FF64016005EF64D8
:103D3A0004706A9001E5E0FFB408189001E6E0B467
:103D4A000401229001F2E004F0E0D39402403EE440
:103D5A00F0803AEFB402169001F2E0FF7005124BC0
:103D6A006F8025EF64017025124B7E801B9001E560
:103D7A00E0641070289001F2E0FF7005124B408059
:103D8A0007EFB40108124B50E4900148F09001E6A5
:0E3D9A00E0B401097B147D0F7F011248142252
:1046BA00300F0790018CE044C0F09000E9E0FFA3BE
:1046CA00E0FD9001F2E0FE7003D38001C39205EE93
:0C46DA00B40103D38001C392060235290D
:014C69002228
:1049D8009000DAE004F0E0D39432400B7E487F9BED
:0849E800D204C20512411D2298
:034C4A00024BDD3D
:014C6A002227
:014C6B002226
:0A4BF100E49000DAF09001F2F022E7
:014C6C002225
:1048D100FF448AFF4711FF4C6DFF49F0FF4C4DFF2C
:0B48E1004C6EFF4C6FFF4C1DFF4C7035
:10448A00E49000DAF09001E6E0B403169001E5E06A
:10449A00640270277B147D0F7F01124814C21CC26C
:1044AA000A229001E6E0B402129001E5E0B4020BA0
:0C44BA007B147D0F7F01124814D21C22DD
:10471100301C0E900180E04403F0900185E0444498
:10472100F0E47B3CFAF9F8900149E0FCA3E0FDA339
:0B473100E0FEA3E0FF1212BB022DB05F
:014C6D002224
:1049F0009000DAE004F0E0D39468400B7E487F9B9F
:084A0000D204C20512411D227F
:034C4D00024BDD3A
:014C6E002223
:014C6F002222
:084C1D00E49000DAF0D21C2241
:014C70002221
:1048EC00FF1A01FF2517FF4C71FF4A08FF4C50FFC0
:0B48FC004C72FF4C73FF4BD1FF4C745B
:101A0100E49000DAF0200803021BBD9001E6E064D7
:101A1100016003021BBD9001F3E0FFC31375F003E6
:101A2100A4249FF582E43447F583E493F974019388
:101A3100FA74029390019BC9F0A3EAF0A3E9F0EFD5
:101A41001392049001E5E0B408119001F3E004F071
:101A5100E0D3940C4002E4F0021BB49001E5E06491
:101A6100026003021AFB90019BE0FBA3E0FAA3E0F2
:101A7100F912117844011211BE30043C90019BE02F
:101A8100FBA3E0FAA3E02401F9E43AFA121178FF8A
:101A9100EF041211BE90019BE0FBA3E0FAA3E0F971
:101AA100900001121191C3943C404CE92401F9E4E6
:101AB1003AFA121178E4803C90019BE0FBA3E0FA32
:101AC100A3E0F9121178FFC313FEEF5401FFEE04F6
:101AD100547FFE25E04F1211BE90019BE0FBA3E075
:101AE100FAA3E0F9121178FFC313547FC39418408D
:101AF10006EF54011211BE021BB49001E5E064101F
:101B01006003021B8690019BE0FBA3E0FAA3E0F9CE
:101B110012117844011211BE30043A90019BE0FB8E
:101B2100A3E0FAA3E0F9900001121191600FE924FA
:101B310001F9E43AFA121178FFEF14804390019B06
:101B4100E0FBA3E0FAA3E02401F9E43AFA121178E8
:101B5100E4743B802B90019BE0FBA3E0FAA3E0F946
:101B6100121178FFC313FE547F600EEF5401FFEE94
:101B710014547FFE25E04F80071211785401442E42
:101B81001211BE802E9001E5E06420702F9001F3C8
:101B9100E0C3940C502690019BE0FBA3E0FAA3E084
:101BA100F912117830E00454FE80051211784401D5
:0C1BB1001211BE7B147D0F7F011248143E
:011BBD002205
:10251700200834900188E04402F0A3E04420F090C2
:10252700018DE04418F0200F03022658900188E03F
:102537004401F090018DE04440F04420F04404F061
:102547004402F04401F0229001F3E0640C701D3066
:102557000F13900188E04402F0A3E04420F09001BB
:102567008DE04418F07F107E27022DB09001F3E034
:10257700FFC31375F003A4249FF582E43447F58362
:10258700E493FB740193FA740293F9EF13920490A6
:1025970001F3E0B40C00400302262B9025A9F8288C
:1025A70028730225CD0225CD0225DF0225DF02256E
:1025B700EB0225EB02260002260002260C02260C5F
:1025C700022621022621900188E04402F0A3E0447C
:1025D70020F0900188E0804990018DE04418F04494
:1025E70004F08040900188E04402F0A3E04420F02A
:1025F70090018DE04440F0802B90018DE04418F06D
:102607004402F0801F900188E04402F0A3E04420D8
:10261700F090018DE04420F0800A90018DE044188D
:10262700F04401F012117830E017C313547FFF9084
:102637000001121191FDA204B39205A20492068033
:102647000DA204B39205A20492067D647F6412353D
:012657002959
:01265800225F
:014C71002220
:104A08009000DAE004F0E0D39434400B7E487F9BBA
:084A1800D204C20512411D2267
:034C5000024BDD37
:014C7200221F
:014C7300221E
:0C4BD1009001F3740CF0E49000DAF02284
:014C7400221D
:10490700FF4780FF456DFF4C75FF4A20FF4C53FF63
:0B4917004C76FF4C77FF4C3AFF4C78C9
:10478000E49000DAF09001E6E0B401129001E5E077
:0F479000B4080BB2087B147D057F011248142278
:10456D00900188E04402F0A3E04420F090018DE03A
:10457D004418F0200803300F1A900188E04401F030
:10458D0090018DE04440F04420F04404F04402F0EA
:04459D004401F022C3
:014C7500221C
:104A20009000DAE004F0E0D39434400B7E487F9BA2
:084A3000D204C20512411D224F
:034C5300024BDD34
:014C7600221B
:014C7700221A
:064C3A00E49000DAF02214
:014C78002219
:10493D00FF44C6FF2659FF4C79FF4A38FF4C56FFFE
:0B494D004C7AFF4C7BFF4922FF4C7CA2
:10468D009001F4E004F0E0FFC39406501FEF75F0C5
:10469D0003A4249FF582E43447F583E493FB74016E
:0D46AD0093FA740293F912117830E0D422D0
:1044C600E49000DAF03008319001E6E064017029EA
:1044D6009001E5E0B408229001F4E0F4601B124676
:1044E6008D9001F4E0C39406400674FFF012468DE9
:0A44F6007B147D057F01124814229B
:10265900200833900188E04402F0A3E04420F09080
:10266900018DE04418F0200F03022778900188E0DB
:102679004401F090018DE04440F04420F04404F01E
:102689004402F00227759001F4E0B4FF077F107E41
:1026990027022DB09001F4E0FF75F003A4249FF503
:1026A90082E43447F583E493FB740193FA7402934B
:1026B900F9121178C313547FFEEF75F003A4249F18
:1026C900F582E43447F583E493FB740193FA7402C9
:1026D90093F9900001121191FDAF06C205C20612CD
:1026E900352990018CE044C0F09001F4E014602594
:1026F9001460311460451460511460652405706FCD
:10270900900188E04402F0A3E04420F0300F60908B
:102719000188E0805790018DE04418F0300F50E0B7
:102729004404F022900188E04402F0A3E04420F040
:10273900300F3C90018DE04440F02290018DE0443F
:1027490018F0300F2AE04402F022900188E0440298
:10275900F0A3E04420F0300F1690018DE04420F002
:0F2769002290018DE04418F0300F04E04401F09D
:01277800223E
:014C79002218
:104A38009000DAE004F0E0D39434400B7E487F9B8A
:084A4800D204C20512411D2237
:034C5600024BDD31
:014C7A002217
:014C7B002216
:10492200E49000DAF09001F474FFF012468D9001E9
:0B493200F4E0C39406400374FFF02281
:014C7C002215
:10495800FF30A6FF1744FF440BFF138AFF3E97FF63
:0B496800224AFF4C7DFF4210FF4C7EF6
:1030A600900147E07011C20E9001F1748DF090010D
:1030B60047743CF0C21A22900147743CF0201A0370
:1030C60002319F9001E6E0640270199001E5E06428
:1030D60020600302319F7E487F9BD204C2051241C5
:1030E6001D0231969001E6E0640160030231809092
:1030F60001E5E06408704E9001D8F0A3F0C21D30DF
:10310600070990014304F0C207801A900143E004C6
:10311600F0E0D39405400ED2073013099001BBE0CE
:10312600B40102D21D900143E0FFB40106E4900011
:10313600DD800BEFD39401400A9000DD7401F0901E
:10314600010AF0804B9001E5E0B402139000DDE047
:1031560070047F0180027F009000DDEFF0803190E7
:1031660001E5E06410703290010AE070047F01808E
:10317600027F0090010AEFF080169001E6E0B403AA
:10318600189001E5E0B420119001DA741EF0D2091E
:0A3196007B147D0F7F011248142204
:101744009001DAE06044200F03021A00900158E08F
:101754004401F090015DE04470F090015CE044F0DD
:10176400F0900174E04403F0900160E04401F090D3
:101774000171E04410F0900174E04480F07F0312A2
:10178400006E900160E04401F02212476090014431
:10179400E0B4010E90017CE04420F0900185E04427
:1017A40038F0300C11300F0E900180E04403F090BB
:1017B4000185E04444F0900164E04408F09001683D
:1017C400E04440F090016DE04402F09001B3E0FE8B
:1017D400A3E0FF122CAE3013079001BBE0FF800A98
:1017E400900148E075F00684AFF012444C7818E696
:1017F400FF123F5C7817E6FF123FBB900178E0448C
:1018040040F090017DE04420F0900179E04440F004
:101814009000E9E0FFA3E0FDC205C20612352930BD
:101824000F0790018CE044C0F0900171E04410F087
:10183400900174E04480F0900143E0FF12006E20B8
:1018440007030218D6900174E04403F0900160E0AD
:101854004401F0301373301D31900174E05483F06F
:10186400900171E054EFF0900174E0547FF0A3E034
:101874004401F0900171E0440EF0900170E04438AE
:10188400F0900175E04470F080559001B7E0D39476
:101894000250097F0112006E7F0480409001B7E07E
:1018A400D3940350097F0212006E7F03802E9001AF
:1018B400B7E0D3940450097F0312006E7F02801CAA
:1018C4007F0412006E7F0180137F0312006E7F027B
:1018D400800A900143E0FFC374059FFF1242F52084
:1018E4001D239000DDE0B4010E900158E04401F0A6
:1018F40090015DE04470F090010AE0B401079001AA
:101904005CE044F0F0300A0E900180E04403F09073
:101914000185E04444F0900107E0FD30E05390017C
:1019240088E04402F0A3E04420F090018DE04418E4
:10193400F0EDC313547F1460101460162402701861
:10194400900188E04401F0804D90018DE04440F026
:10195400806D90018DE08014900188E04401F09046
:10196400018DE04404F04440F04402F04420F0804F
:101974006F90014DE0FDF4606A90018DE04418F031
:10198400ED701C9047A293FB740193FA740293F9CF
:1019940012117830E04D90018DE04404F0804490C1
:1019A400014DE0FDB4021D9047A8E493FB7401933C
:1019B400FA740293F912117830E02890018DE04412
:1019C40002F0801FEDB4041B9047AEE493FB740156
:1019D40093FA740293F912117830E00790018DE0C4
:1019E4004401F0900147E090018F600C74FFF0E037
:0D19F40054DFF0E054BFF022E04410F02278
:10440B00900108E04408F0201D3690010AE090016D
:10441B0008B40106E04402F08004E054FDF0900083
:10442B00DDE0900108B40106E04401F08004E054A3
:10443B00FEF0900108E0300C0454FBF0224404F031
:01444B00224E
:10138A009001DAE0601914F0E070147E487F9BD275
:10139A0004C20512411D7B147D0F7F01124814906F
:1013AA0000E3E0606A30072A9001BBE0B4012190B3
:1013BA0001D9E004F070069001D8E004F0D390015E
:1013CA00D9E094589001D8E09402400FD21D800BC6
:1013DA008000C21DE49001D8F0A3F0900147E060BC
:1013EA000D14F0E07008D20E9001F17480F09001B3
:1013FA00D5E004F0E0C3943C4015E4F090010CE021
:10140A0004F0E0943C4008E4F090010BE004F02082
:10141A000B030217439001D6E0FD640C7053900150
:10142A009BF090019BE0FFC36480948B5032EF33B2
:10143A0095E0FEEF25E0FFEE33FE74132FF582747C
:10144A00013EF583E0FAA3E0FB74112FF5827401E3
:10145A003EF583EAF0A3EBF090019BE004F080C232
:10146A009001B3E0FFA3E0900127CFF0A3EFF08053
:10147A003C90019BEDF090019BE0FFC36480948C4B
:10148A00502B9001B3E0FCA3E0FDEF3395E0FEEFB3
:10149A0025E0FFEE33FE74112FF58274013EF583C9
:1014AA00ECF0A3EDF090019BE004F080C99001D626
:1014BA00E004F0E0C3940C4003740CF09001D7E010
:1014CA00FD640C705390019BF090019BE0FFC36494
:1014DA0080948B5032EF3395E0FEEF25E0FFEE3338
:1014EA00FE742D2FF58274013EF583E0FAA3E0FB2A
:1014FA00742B2FF58274013EF583EAF0A3EBF0908A
:10150A00019BE004F080C29001B3E0FFA3E09001E8
:10151A0041CFF0A3EFF0803C90019BEDF090019B4E
:10152A00E0FFC36480948C502B9001B3E0FCA3E0ED
:10153A00FDEF3395E0FEEF25E0FFEE33FE742B2F2F
:10154A00F58274013EF583ECF0A3EDF090019BE087
:10155A0004F080C990010CE020E0069001D7E00475
:10156A00F09001D7E0C3940C4003740CF09001078B
:10157A00E030E050C313547FFF6403700302169CEB
:10158A00EF25E025E024B3F582E43447F583E493BC
:10159A00FF9000E9E0FEEF6E600302169C900107DF
:1015AA00E0C313547F25E025E024B4F582E43447F0
:1015BA00F583E493FF9000EAE0FEEF6E6003021603
:1015CA009C02168890014DE0FFF4700302169CEF0E
:1015DA000490019BF075F003A4249FF582E434473C
:1015EA00F583E493FB740193FA740293F912117868
:1015FA0020E00690019B74FFF090019BE0F47021BB
:10160A0090010BE06402600302169C7E487F9BD225
:10161A0004C20512411D7B147D0F7F0112481480FC
:10162A007190019BE0FF75F003A4249FF582E434D6
:10163A0047F583E493FB740193FA740293F9121148
:10164A0078C313547FFE9000E9E06E7045EF33953E
:10165A00E0FE90479F75F003EF121378EE75F003E2
:10166A00A42583F583E493FB740193FA740293F936
:10167A00900001121191FF9000EAE0B507147B1463
:10168A007D0F7F011248147E487F9BD204C2051247
:10169A00411D300C03021743900149E0FCA3E0FD11
:1016AA00A3E0FEA3E02401FFE43EFEE43DFDE43CAA
:1016BA00FC90014912136CE47F307E75FDFC9001A9
:1016CA0049E0F8A3E0F9A3E0FAA3E0FBC312135B35
:1016DA004034E4900105F0A3F07B307A75F9F89074
:1016EA000149E0FCA3E0FDA3E0FEA3E0FF1212BB68
:1016FA00AC00AD01AE02AF03E4FBFAF9F8C3121372
:10170A005B7036D20A22900149E0F8A3E0F9A3E01F
:10171A00FAA3E0FBC374309BFF74759AFEE499FD4B
:10172A00E498FCE47B3CFAF9F81212BBEF2401FFBF
:09173A00E43E900105F0A3EFF07C
:011743002283
:103E9700301D03024BDD301D263013219001B7E0A2
:103EA700D394025002802D9001B7E0D394035002BF
:103EB70080289001B7E0D39404502B802380219071
:103EC7000143E024FE601314601614601914601C8B
:103ED7002404701F7F587E0280167F847E03801023
:103EE7007FB07E04800A7F407E0680047FFC7E08C8
:043EF7001247BD228F
:10224A00900147E0700FC20E9001F1748DF0900179
:10225A0047743CF022900147743CF09001EBE07027
:10226A0003A3E0F470147B147D0F7F011248147EDF
:10227A00487F9BD204C20502411D9001EBE06480B5
:10228A007004A3E0647F70199001D8F0A3F0C21D16
:10229A00D2073013319001BBE0B40102D21D0223F0
:1022AA00899001EBE0B44021A3E0B4BF1CE49001A3
:1022BA00D8F0A3F0C21D90014304F0C207E49000D5
:1022CA00DDF090010AF00223899001EBE0B4A01C32
:1022DA00A3E0B45F17E49001D8F0A3F0C21D900107
:1022EA00437402F0C2079000DD14806A9001EBE0AB
:1022FA00B4601DA3E0B49F18E49001D8F0A3F0C223
:10230A001D9001437403F0C2079000DD74018046FA
:10231A009001EBE0B4C01DA3E0B43F18E49001D8EB
:10232A00F0A3F0C21D9001437404F0C2079000DDCF
:10233A00740180229001EBE0B42027A3E0B4DF22ED
:10234A00E49001D8F0A3F0C21D9001437405F0C2D5
:10235A00079000DD7401F090010AF07B147D0FFFF5
:10236A0080489001EBE0B4101EA3E0B4EF1990008E
:10237A00DDE070047F0180027F009000DDEFF07BDA
:10238A00147D0F7F0180239001EBE0B4E01FA3E0EE
:10239A00B41F1A90010AE070047F0180027F009046
:0E23AA00010AEFF07B147D0F7F011248142210
:014C7D002214
:1042100090010D7401F0C20EC21DE49001DAF0901D
:1042200001D8F0A3F09001D6F0A3F09001F1748DC5
:10423000F0900147743CF0124AE5200910900143C8
:104240007403F090010A7401F09000DDF0E4900135
:0F425000D5F0900145F0A3F090010BF0A3F02200
:014C7E002213
:100FB300EC4D6011E8497017ED33EC3304600DE438
:100FC300FCFFFEFD22E933E8330470F802116312DB
:100FD300112E58046009E4CC2481500628500902DC
:100FE300116D28400302116AC0E0EB4A7044B980D6
:100FF30006D0E0FB021159EF4E701CBD8008EBFFD9
:10100300EAFEE9FD80EBE98DF0A4FEE5F002109C19
:10101300E9CDF9EAFEEBFFEF89F0A4FCE5F0CE8918
:10102300F0A42EFFE435F0CD89F0A42DFEE435F0D5
:101033008067EF4E7005BD80D780C3EF8BF0A4AC03
:10104300F0EE8BF0A42CFCE435F0F8EF8AF0A42C3E
:10105300E5F038FCE433CB8DF0A42CFCE5F03BF851
:10106300EE8AF0A42CFCE5F038F8E433CF89F0A441
:101073002CFCE5F038CF3400CE89F0A42FFFE5F047
:101083003EFEE433C98DF0A42EFEE5F039CD8AF09F
:10109300A42FFFE5F03EFEE43DFD33D0E0FB500717
:1010A3000BBB000F02116DEC2CFCEF33FFEE33FE94
:0610B300ED33FD021145C2
:1010B90075F020800E75F010800575F0087D007EB2
:1010C900007F003392D530D50312134DEC33401015
:1010D900EF33FFEE33FEED33FDEC33FCD5F0ED22BB
:0E10E900E5F0247EA2D513CC92E7CDCEFF22F7
:1010F700EDD2E7CD33EC3392D524814006E4FFFEF1
:10110700FDFC22FCE4CFCECDCC24E0501174FF804F
:10111700EDC3CC13CCCD13CDCE13CECF13CF0470EC
:07112700F030D5DE02134D8C
:10112E00E9D2E7C933E833F892D5EDD2E7CD33EC07
:07113E0033FC5002B2D52280
:10114500EC30E7100FBF000C0EBE00080DBD00040B
:101155000BEB6014A2D5EB13FCED92E7FD2274FFB7
:10116500FCFDFEFF22E480F8A2D574FF13FC7D8010
:03117500E480EF24
:103B9200023458E493A3F8E493A34003F68001F2BD
:103BA20008DFF48029E493A3F85407240CC8C33334
:103BB200C4540F4420C8834004F456800146F6DF03
:103BC200E4800B010204081020408090473CE47E10
:103BD200019360BCA3FF543F30E509541FFEE493F8
:103BE200A360010ECF54C025E060A840B8E493A3BF
:103BF200FAE493A3F8E493A3C8C582C8CAC583CAEA
:103C0200F0A3C8C582C8CAC583CADFE9DEE780BEA1
:01475F000059
:10117800BB010689828A83E0225002E722BBFE0275
:09118800E32289828A83E49322A8
:10119100BB010CE58229F582E5833AF583E0225013
:1011A10006E92582F8E622BBFE06E92582F8E2225D
:0D11B100E58229F582E5833AF583E4932277
:1011BE00BB010689828A83F0225002F722BBFE0110
:0211CE00F3220A
:1011D000F8BB010DE58229F582E5833AF583E8F055
:1011E000225006E92582C8F622BBFE05E92582C801
:0211F000F222E9
:1011F200BC000BBE0029EF8DF084FFADF022E4CCE1
:10120200F875F008EF2FFFEE33FEEC33FCEE9DECA9
:10121200984005FCEE9DFE0FD5F0E9E4CEFD22EDEF
:10122200F8F5F0EE8420D21CFEADF075F008EF2F39
:10123200FFED33FD4007985006D5F0F222C398FD2A
:051242000FD5F0EA22C7
:10124700BB0110E58229F582E5833AF583E0F5F0E5
:10125700A3E0225009E92582F886F008E622BBFEC2
:101267000AE92582F8E2F5F008E222E5832AF58308
:08127700E993F5F0A3E99322CD
:10127F0075F008758200EF2FFFEE33FECD33CDCC26
:10128F0033CCC58233C5829BED9AEC99E5829840A9
:10129F000CF582EE9BFEED9AFDEC99FC0FD5F0D686
:1012AF00E4CEFBE4CDFAE4CCF9A88222B800C1B9B0
:1012BF000059BA002DEC8BF084CFCECDFCE5F0CBEE
:1012CF00F97818EF2FFFEE33FEED33FDEC33FCEB27
:1012DF0033FB10D703994004EB99FB0FD8E5E4F9E2
:1012EF00FA227818EF2FFFEE33FEED33FDEC33FCCF
:1012FF00C933C910D7059BE99A4007EC9BFCE99AC3
:10130F00F90FD8E0E4C9FAE4CCFB2275F010EF2F07
:10131F00FFEE33FEED33FDCC33CCC833C810D70707
:10132F009BEC9AE899400AED9BFDEC9AFCE899F842
:0E133F000FD5F0DAE4CDFBE4CCFAE4C8F922D5
:0E134D00C3E49FFFE49EFEE49DFDE49CFC22B1
:10135B00EB9FF5F0EA9E42F0E99D42F0E89C45F0E8
:01136B00225F
:0C136C00ECF0A3EDF0A3EEF0A3EFF022F4
:0C137800A42582F582E5F03583F5832280
:061384008A838982E473F4
:00000001FF
