:03001B000207F8E1
:1007F800C0E0C0F0C083C082C0D075D000C000C0C7
:0D08080001C002C003C004C005C006C00747
:1008150090006A7404F090006C1206E090003412A7
:10082500063CF582758300E5F512066990003412E1
:10083500063C2401FFE433FE7C007D3312068BAFBA
:100845000590006C1206E0900034ED1206699000E8
:100855003412063C2433FFE433FE90003312063C89
:10086500FDC3EF9DFFEE9400FE7C007D3312068BE9
:0A087500AF05EFD3941F4002D2023A
:10087F00D007D006D005D004D003D002D001D000CD
:0B088F00D0D0D082D083D0F0D0E03277
:030023000209349B
:10093400C0E0C0F0C083C082C0D075D000C000C089
:1009440001C002C003C004C005C006C00790006F08
:100954001206E090003312063CF5827583001206FD
:100964003CF5F590003312063C2401FFE433FE7C91
:10097400007D3312068BAF0590006F1206E09000E5
:1009840033ED12066990003412063CFF90003312D6
:10099400063CB50705C20353EA3FD007D006D0058D
:1009A400D004D003D002D001D000D0D0D082D083E4
:0509B400D0F0D0E0329C
:0300A300020C95B7
:080C9500C0E0C083C082C0D0A2
:100C9D00B201900175E004F0E0C394024008E4F065
:100CAD00900177E004F0E58830E1167587030000C8
:100CBD0000000000000053ABEF53A8F753A8EF80DE
:040CCD000343AB1022
:090CD100D0D0D082D083D0E032F3
:0300B300020CDA62
:0D0CDA00C0E0C083C082C0D075D000C00053
:100CE700780A06E6C39432401676009001767401BE
:0F0CF700F090006AE06008E014F0E07002D202B2
:0B0D0600D000D0D0D082D083D0E032EB
:0300000002089A59
:10089A0078FFE4F6D8FD90001B7FE57E03E4F0A321
:0A08AA00DFFCDEFA7581200208EF82
:100BBF00120DA9120DD4120F46900180748CF07E85
:100BCF000E7F5ED204C205120C07438D20120F3523
:100BDF00900176E060F4780806080618E61424FC05
:100BEF0050068000E47808F6780906E6D3940F40A3
:080BFF00D9E4F6120D7B80D24F
:070F4E00759CA0759D0422B3
:0F0EF800EF540FFFE59C54F04FF59C439C4022B4
:0D00A600758B66438B08538B7F43AB102294
:100ED600EF6007E5974401FF8005E59754FEFF8F15
:020EE600972251
:070F5500E4F597758F3E22C1
:080F3E00E4F59AF599F59B22F8
:0A0F220075B28EE4F5B443B201226B
:1000030075BB2075BAC075BF0775BECF75BD0F75BB
:06001300BC9F43BB8022EC
:100EE80075EA0275E90643EAECE4F5EB75F3672267
:04001E00438D2022CC
:090F2C00758E88758DC002001E4F
:0D0F150075968875890175898143AB0422AA
:070F5C0075C829E4F58A22A3
:100B1E0075A1C375AC20E4F591F5DEF58075B1FCD9
:100B2E00F5ADF592F5DFF58875B9CD75AE10F59387
:100B3E00F59075C1FFF5AFF59875C9FF75A304F56E
:100B4E0094F5A075D1D1F595F5B0F5D375D252F5D2
:100B5E00D575D4F3F5D775D603F5EEF5EF75FF28F9
:010B6E002264
:100DA90075D88353A87F120B1E120F5C120F4E12B7
:100DB90000A6120F55120F3E120F22120003120E37
:0B0DC900E8120F2C120F1543A8802227
:100E7900E4FEEF30E004D2A28002C2A2D2A1EFC305
:090E890013FFC2A10EEEB408E94A
:010E9200223D
:060C4F009001681206E9A5
:100C5500C2A07F08120E79D2A0C2A090016CE04418
:100C6500C0FF120E79E4FCECC39D5015900168128B
:100C750006E08C8275830012063CFF120E790C800B
:0F0C8500E6D2A0C2A0900180E0FF120E79D2A0AB
:010C9400223D
:100230001F0C1B1E0C16171C1F1E80004040C0C048
:10024000C000C0C01F0C1B1E0C16171C1F1E400038
:1002500020206060600060603F18363C192D2F3808
:100260003F3D000080808080800080803F18363CC9
:10027000192D2F383F3D0000404040404000404095
:100280007F3C737E3C4E4F7C7F7EE0009010707010
:10029000F000F070070307070304040707077F60F7
:1002A0001C7063737F607F7300008080808080009B
:1002B00080803F1E393F1E27273E3F3F7800640461
:1002C0001C1C7C007C1C01000101000101010101DA
:1002D000FFF0CEF8F1393FF0FFF9400020206060D8
:1002E000600060601F0F1C1F0F13131F1F1F00F8FB
:1002F00000E4841C9CFC00FC9C040F070E0F070903
:10030000090F0F0F007E40396147677F407F67010B
:100310000301030301020203030300FF609CF0E3F7
:10032000737FE0FFF3000000404040404000404049
:10033000401F0F1C1F0F13131F1F1F00F800E48422
:070340001C9CFC00FC9C0466
:100EC200E4FE74282EF582E43401F583EFF00EEE91
:030ED200B440EF3A
:010ED50022FA
:100E230090012874FFF0A3F0A3F090012CF0A3F03D
:100E3300A3F0900130E044FEF0A374FFF0A3F0228E
:10002600900126E004F0E0C39F400EE4F0A3E00454
:10003600F0E0D394084002E4F090014DE04401F072
:10004600900127E01206FE00940000940100880249
:10005600008103007A04007305006C0600A1070006
:10006600A1080000009C90014DE0440EF090014D67
:10007600E04470F0900148E04407F0900148E04405
:1000860038F0900148E044C0F0A3E04401F090014C
:0B00960049E0440EF022E4900127F046
:0100A100223C
:1009B900EFD3946340027F63EF75F00A84FDEF750E
:1009C900F00A84ACF0ED6024900155E0FFED90024F
:1009D9003093FEEF4E900155F0900154E0FFAE05C3
:1009E900EE90023A93FEEF4E900154F0900154E0DC
:1009F900FFEC90024493FEEF4E900154F0900159A0
:0E0A0900E0FFEC90024E93FEEF4E900159F08C
:010A170022BC
:100A1800EFD3946340027F63EF75F00A84FDEF75AE
:100A2800F00A84ACF0ED6024900151E0FFED9002F3
:100A38005893FEEF4E900151F0900150E0FFAE0543
:100A4800EE90026293FEEF4E900150F0900150E05C
:100A5800FFEC90026C93FEEF4E900150F090015520
:0E0A6800E0FFEC90027693FEEF4E900155F009
:010A7600225D
:04034700AB07AA0650
:10034B00D3EB940FEA942740047A277B0F7C037D31
:10035B00E8AF03AE0212068B900168EFF07C007DD4
:10036B0064AF03AE0212068B7C007D0A12068BA3D0
:10037B00EDF07C007D0AAF03AE0212068B7C007D94
:10038B000A12068BA3EDF0AE02AF037C007D0A12BE
:10039B00068BAB0590013DE0FE900168E0FD9002FD
:1003AB008093FCEE4C90013DF090013CE0FFED9012
:1003BB00028A93FEEF4EFF90013CF0900169E0FE44
:1003CB00900294934F90013CF0900141E0FFEE902E
:1003DB00029E93FEEF4E900141F0900140E0FF90A2
:1003EB000169E09002A893FEEF4EFF900140F09060
:1003FB00016AE0FE9002B2934F900140F0900145EC
:10040B00E0FFEE9002BC93FEEF4EFF900145F0EB48
:10041B009002C6934F900145F0900144E0FFEB90A2
:10042B0002D093FEEF4E900144F0900149E0FFAEF5
:0D043B0003EE9002DA93FEEF4E900149F0BF
:010448002291
:10072A00EF75F00A84F9EF75F00A84AEF0ED75F012
:10073A000A84FCED75F00A84ABF0EFD394184004F8
:10074A00790A7E0AEDD3943C40047C0A7B0A300481
:10075A0003300144900159E0FFE99002E493FDEF70
:10076A004D900159F0900158E0FFE99002EF93FD96
:10077A00EF4D900158F0900134E0FFEE9002FA93A9
:10078A00FDEF4D900134F0900139E0FFEE90030542
:10079A0093FEEF4E900139F030050330014F90017E
:1007AA005DE0FFEC90031093FEEF4E90015DF09038
:1007BA00015CE0FFEC90031B93FEEF4E90015CF0AE
:1007CA00900161E0FFEC90032693FEEF4EFF90014B
:1007DA0061F0EB900331934F900161F0900160E07A
:0D07EA00FFEB90033C93FEEF4E900160F09A
:0107F70022DF
:04044900AB07AA064D
:10044D007C037DE812068B900178EFF07C007D64D3
:10045D00AF03AE0212068B7C007D0A12068BA3ED54
:10046D00F07C007D0AAF03AE0212068B7C007D0A84
:10047D0012068BA3EDF07C007D0AAF03AE021206CF
:10048D008BA905D3EB940FEA9427400B9001787458
:10049D000AF0A3F0A3F0F9900159E0FE900178E085
:1004AD00FD9002E493FCEE4C900159F0900158E060
:1004BD00FFED9002EF93FEEF4E900158F090013456
:1004CD00E0FF900179E0FE9002FA93FDEF4D90016F
:1004DD0034F0900139E0FFEE90030593FEEF4E905E
:1004ED000139F090015DE0FF90017AE0FE9003107C
:1004FD0093FDEF4D90015DF090015CE0FFEE9003F8
:10050D001B93FEEF4E90015CF0900161E0FF9001B6
:10051D007AE090032693FEEF4EFF900161F0E99093
:10052D000331934F900161F0900160E0FFE990037A
:09053D003C93FEEF4E900160F0CA
:010546002292
:100D7B00E4FF120EC2E4900167F090017EE0FEA347
:100D8B00E0F5828E83A3A3A31206F21207247B0144
:0E0D9B007A017928E490016CF07D3F020C4F44
:0E0F0700900034E4120669900033E40206699B
:100EAD0090003412063CFF90003312063CB5070348
:050EBD00D38001C322F7
:100D110090017B1206E990017B1206E090003412EB
:100D2100063C2401FFE433FE7C007D3312068BAFC9
:100D31000590017B1206E090003312063CB50503D5
:050D4100D38001C32274
:100E930090003412063C2433FF90003312063CFECC
:0A0EA300C3EF9E75F03384AFF02218
:100ACC00900170EDF090016D1206E9120D11403C91
:100ADC00900170E0FF90016D1206E0900034120658
:100AEC003CF582758300EF12066990003412063CC7
:100AFC002401FFE433FE7C007D3312068BAF05909E
:100B0C00016D1206E0900034ED120669900170E060
:020B1C00FF22B6
:060B6F009001711206E97D
:100B7500E4900174F0120EAD403A9001711206E056
:100B850090003312063CF58275830012063C9001F5
:100B950074F090003312063C2401FFE433FE7C0020
:100BA5007D3312068BAF059001711206E09000337C
:090BB500ED120669900174E0FFE5
:010BBE002214
:100A7700604B00DB0101FF00190201FF001A0301AF
:100A8700FF00220401FF00A20501FF0F630601FF1B
:100A97000F640701FF0F65080CFF0F660901FF0FC1
:100AA700670A01FF0F680B06FF0F690C01FF0F6A4A
:0F0AB7000D01FF0F6BF701FF0F6CFF06FF0F6DB7
:100DFE0090006F1206E07D01120ACC900181E02F67
:100E0E00F090006F1206E07D02120ACC900181E094
:050E1E002FF0020D465B
:0100190022C4
:01001A0022C3
:0100220022BB
:0100A200223B
:010F6300226B
:010F6400226A
:010F65002269
:010F66002268
:010F67002267
:010F68002266
:010F69002265
:010F6A002264
:010F6B002263
:010F6C002262
:010F6D002261
:080F4600D206E49000DAF0226B
:1000B60090006C1206E090003412063CFF9000336C
:1000C60012063C6F700302022F90006C1206E0903D
:1000D600003312063CF58275830012063C900168D7
:1000E600F090003312063C2401FFE433FE7C007DD1
:1000F6003312068BAF0590006C1206E0900033EDCC
:1001060012066930061E900168E0B4F1149000DA18
:10011600E004F0E0B40299C206E4F09000D7F08063
:100126008F020227900168E0FF9000DAE02472F562
:1001360082E43400F583EFF09000D7E02FF09000D2
:10014600DAE004F0E0FFB4010B900072E09000D911
:10015600F00200B6EF6402707B9000D9E0FFD39402
:10016600004029EFD3940D5023E075F005A424D761
:10017600F582E43400F583E09000D8F0EF75F005E1
:10018600A424D8F582E43400F58380249000D9E0D5
:10019600FFB4F70D90011DE09000D8F090011E808D
:1001A6000FEFB4FF16900122E09000D8F0900123E3
:1001B6001206E09001691206E98002800F90007332
:1001C600E0FF9000D8E06F70030200B6D206E4901C
:1001D60000DAF0229000D8E02404FFE433FE900019
:1001E600DAE0C39FEE6480F874809850030200B68C
:1001F6009000D8E0FF2474F582E43400F583E0FE35
:100206002EFE74752FF582E43400F583E02EFF9000
:1002160000D7E0B507099001691206E0120724D25B
:0902260006E49000DAF00200B6D3
:01022F0022AC
:100DD4007B017A00790090006C1206E9120F077B00
:100DE400017A00793590006F1206E9120F07E4903A
:090DF400006AF0C202A3F0C20380
:010DFD0022D3
:100D460020033190006F1206E0120E93EFC3940158
:100D5600500122EFB4010D90006F1206E0120B6FE6
:100D66008FF5800D90006F1206E0120B6F8FF5D293
:040D76000343EAC089
:010D7A002256
:090F35003002051200B6C20222CE
:100E4300FF0F6EFF0F6EFF0F6EFF0F6EFF0F6EFF34
:0B0E53000F6EFF0F6EFF0F6EFF0F6EA3
:050AC60042017E0E4319
:010F6E002260
:100C0700900168EEF0A3EFF030051590017EE0FE4D
:100C1700A3E02418F582E43EF5831206F2120724B6
:100C2700900168E0FFA3E090017ECFF0A3EFF030E2
:100C3700041590017EE0FEA3E02415F582E43EF55D
:080C4700831206F212072422B9
:100E5E00FF0F6FFF0547FF0F70FF0F71FF0F72FF40
:0B0E6E000F73FF0F74FF0F75FF0F766E
:010F6F00225F
:10054700120E23900135E0440FF0900134E044F09F
:10055700F0900154E04420F090015DE04438F090C1
:100567000130E04401F0900135E04470F09001580B
:10057700E04403F090015DE04444F090014DE04415
:1005870001F0900149E0440EF0900148E044C0F0CA
:10059700A3E04401F0900148E04438F04407F090AC
:1005A700014DE04470F0440EF0900160E04402F029
:1005B700A3E04420F0900165E04418F0900150E07A
:1005C7004440F0900155E04420F0900151E0444050
:1005D700F0900149E04410F090014CE04480F04471
:1005E70003F0900160E04401F0900165E04440F0C1
:1005F7004420F04404F04402F04401F07F1912094A
:10060700B97F19120A18C204C2057D1E7F0C120792
:100617002A7FD27E0412034790013CE04408F09001
:100627000140E04440F0900145E04402F09001644D
:05063700E044C0F022C8
:010F7000225E
:010F7100225D
:010F7200225C
:010F7300225B
:010F7400225A
:010F75002259
:010F76002258
:1008B400020BBFE493A3F8E493A34003F68001F290
:1008C40008DFF48029E493A3F85407240CC8C33345
:1008D400C4540F4420C8834004F456800146F6DF14
:1008E400E4800B0102040810204080900A77E47E23
:1008F400019360BCA3FF543F30E509541FFEE49309
:10090400A360010ECF54C025E060A840B8E493A3CF
:10091400FAE493A3F8E493A3C8C582C8CAC583CAFA
:10092400F0A3C8C582C8CAC583CADFE9DEE780BEB2
:010ACB00002A
:10063C00BB010CE58229F582E5833AF583E0225073
:10064C0006E92582F8E622BBFE06E92582F8E222BD
:0D065C00E58229F582E5833AF583E49322D7
:10066900F8BB010DE58229F582E5833AF583E8F0C7
:10067900225006E92582C8F622BBFE05E92582C873
:02068900F2225B
:10068B00BC000BBE0029EF8DF084FFADF022E4CC53
:10069B00F875F008EF2FFFEE33FEEC33FCEE9DEC1C
:1006AB00984005FCEE9DFE0FD5F0E9E4CEFD22ED62
:1006BB00F8F5F0EE8420D21CFEADF075F008EF2FAC
:1006CB00FFED33FD4007985006D5F0F222C398FD9D
:0506DB000FD5F0EA223A
:0906E000E0FBA3E0FAA3E0F9221B
:0906E900EBF0A3EAF0A3E9F02212
:0C06F200E493FB740193FA740293F92264
:1006FE00D083D082F8E4937012740193700DA3A38B
:10070E0093F8740193F5828883E47374029368609E
:06071E00EFA3A3A380DF9E
:060724008A838982E47360
:00000001FF
