:03001B00020927B0
:10092700C0E0C0F0C083C082C0D075D000C000C096
:0D09370001C002C003C004C005C006C00717
:1009440090006A7404F090006C12080F9000341246
:10095400076BF582758300E5F51207989000341251
:10096400076B2401FFE433FE7C007D331207BAAF2A
:100974000590006C12080F900034ED120798900057
:100984003412076B2433FFE433FE90003312076BF9
:10099400FDC3EF9DFFEE9400FE7C007D331207BA89
:0A09A400AF05EFD3941F4002D2020A
:1009AE00D007D006D005D004D003D002D001D0009D
:0B09BE00D0D0D082D083D0F0D0E03247
:03002300020A636B
:100A6300C0E0C0F0C083C082C0D075D000C000C059
:100A730001C002C003C004C005C006C00790006FD8
:100A830012080F90003312076BF58275830012076B
:100A93006BF5F590003312076B2401FFE433FE7C02
:100AA300007D331207BAAF0590006F12080F900054
:100AB30033ED12079890003412076BFF9000331246
:100AC300076BB50705C20353EA3FD007D006D0052D
:100AD300D004D003D002D001D000D0D0D082D083B4
:050AE300D0F0D0E0326C
:0300A300020D5DEE
:080D5D00C0E0C083C082C0D0D9
:100D6500B20190012FE004F0E0C394024008E4F0E2
:100D7500900131E004F0438D20E58830E116758758
:100D850003000000000000000053ABEF53A8F75329
:070D9500A8EF800343AB103F
:090D9C00D0D0D082D083D0E03227
:0300B30002023610
:10023600C0E0C083C082C0D075D000C000C001C07D
:0102460007B0
:10024700E59030E409780FE64402F60202FE780FE3
:10025700E620E1030202FE54FDF64401F67809E6C2
:10026700FF7025C3780BE6946A18E69400500302E2
:1002770002FE187601780C7600780FE654DFF678E0
:100287000D7600087600806FEF6401704C780EE6FB
:1002970025E0790EF718E63319F7C3780BE6940FC4
:1002A70018E694004006780EE64401F6780A7600D0
:1002B7000876000806E6C39420403C08E6FF08E6F7
:1002C700900138CFF0A3EFF078097602780FE64473
:1002D70010F64408F6D207801E7809E6B40218C360
:1002E700780BE694CD18E69404400C187600780F46
:1002F700E654F7F654FEF6780FE6FF30E028780B61
:1003070006E618700106C3780BE694CD18E6940448
:1003170040147600087600EF54FE780FF6780976D9
:100327000054F7780FF6780806E6C394324016763D
:10033700009001307401F090006AE06008E014F06A
:05034700E07002D2028B
:0F034C00D007D001D000D0D0D082D083D0E03203
:030000000209C929
:1009C90078FFE4F6D8FD90001B7FE57E03E4F0A3F1
:0A09D900DFFCDEFA758121020A1E20
:100AE800120F0E121068120F391210E190013C74A7
:100AF8008CF07E0F7FDED204C205120DA57B0F7D20
:100B08000A7F01120FA8438D201210C7900130E010
:100B180060F4E4F0300717C20790013AE0FEA3E062
:100B2800240FF582E43EF583120821120853781049
:100B380006080618E624FE60070424FC500B80050E
:100B4800120E338004E47810F6781106E6D3940F79
:090B580040B4E4F6120EE080AD99
:0710E900759CA0759D042217
:0F108A00EF540FFFE59C54F04FF59C439C402220
:0D00A600758B66438B08538B7F43AB102294
:10105600EF6007E5974401FF8005E59754FEFF8F93
:021066009722CF
:0710F000E4F597758F3E2225
:0810D900E4F59AF599F59B225C
:0A10B40075B28EE4F5B443B20122D8
:1000030075BB2075BAC075BF0775BECF75BD0F75BB
:06001300BC9F43BB8022EC
:10107A0075EA0275E90643EAECE4F5EB75F36722D3
:04001E00438D2022CC
:0910BE00758E88758DC002001EBC
:0D10A70075968875890175898143AB042217
:0710F70075C829E4F58A2207
:100C710075A1C375AC20E4F591F5DEF58075B1FC85
:100C8100F5ADF592F5DFF58875B9CD75AE10F59333
:100C9100F59075C1FFF5AFF59875C9FF75A304F51A
:100CA10094F5A075D1D1F595F5B0F5D375D252F57E
:100CB100D575D4F3F5D775D603F5EEF5EF75FF28A5
:010CC1002210
:100F0E0075D88353A87F120C711210F71210E912C4
:100F1E0000A61210F01210D91210B4120003121003
:0B0F2E007A1210BE1210A743A8802208
:100FF900E4FEEF30E004D2A28002C2A2D2A1EFC384
:0910090013FFC2A10EEEB408E9C8
:0110120022BB
:060DED0090011A12081823
:100DF300C2A07F08120FF9D2A0C2A090011EE04446
:100E0300C0FF120FF9E4FCECC39D501590011A12B8
:100E1300080F8C8275830012076BFF120FF90C8089
:0F0E2300E6D2A0C2A090013CE0FF120FF9D2A0CE
:010E3200229D
:10035B001F0C1B1E0C16171C1F1E80004040C0C01C
:10036B00C000C0C01F0C1B1E0C16171C1F1E40000C
:10037B0020206060600060603F18363C192D2F38DC
:10038B003F3D000080808080800080803F18363C9D
:10039B00192D2F383F3D0000404040404000404069
:1003AB007F3C737E3C4E4F7C7F7EE00090107070E4
:1003BB00F000F070070307070304040707077F60CB
:1003CB001C7063737F607F7300008080808080006F
:1003DB0080803F1E393F1E27273E3F3F7800640435
:1003EB001C1C7C007C1C01000101000101010101AE
:1003FB00FFF0CEF8F1393FF0FFF9400020206060AC
:10040B00600060601F0F1C1F0F13131F1F1F00F8CE
:10041B0000E4841C9CFC00FC9C040F070E0F0709D6
:10042B00090F0F0F007E40396147677F407F6701DF
:10043B000301030301020203030300FF609CF0E3CB
:10044B00737FE0FFF300000040404040400040401D
:10045B00401F0F1C1F0F13131F1F1F00F800E484F6
:07046B001C9CFC00FC9C043A
:10104200E4FE74DA2EF582E43400F583EFF00EEE5E
:03105200B440EFB8
:011055002278
:100F88009000DA74FFF0A3F0A3F09000DEF0A3F075
:100F9800A3F09000E2E044FEF0A374FFF0A3F02277
:100026009000D8E004F0E0C39F400EE4F0A3E004A3
:10003600F0E0D394084002E4F09000FFE04401F0C1
:100046009000D9E012082D00940000940100880267
:10005600008103007A04007305006C0600A1070006
:10006600A1080000009C9000FFE0440EF09000FF05
:10007600E04470F09000FAE04407F09000FAE044A3
:1000860038F09000FAE044C0F0A3E04401F090009C
:0B009600FBE0440EF022E49000D9F0E3
:0100A100223C
:100B6100EFD3946340027F63EF75F00A84FDEF7564
:100B7100F00A84ACF0ED6024900107E0FFED9003F2
:100B81005B93FEEF4E900107F0900106E0FFAE058A
:100B9100EE90036593FEEF4E900106F0900106E0A2
:100BA100FFEC90036F93FEEF4E900106F090010B66
:0E0BB100E0FFEC90037993FEEF4E90010BF005
:010BBF002213
:100BC000EFD3946340027F63EF75F00A84FDEF7505
:100BD000F00A84ACF0ED6024900103E0FFED900397
:100BE0008393FEEF4E900103F0900102E0FFAE050B
:100BF000EE90038D93FEEF4E900102F0900102E023
:100C0000FFEC90039793FEEF4E900102F0900107E6
:0E0C1000E0FFEC9003A193FEEF4E900107F081
:010C1E0022B3
:04047200AB07AA0624
:10047600D3EB940FEA942740047A277B0F7C037D05
:10048600E8AF03AE021207BA90011AEFF07C007DC6
:1004960064AF03AE021207BA7C007D0A1207BAA344
:1004A600EDF07C007D0AAF03AE021207BA7C007D38
:1004B6000A1207BAA3EDF0AE02AF037C007D0A1262
:1004C60007BAAB059000EFE0FE90011AE0FD90033D
:1004D600AB93FCEE4C9000EFF09000EEE0FFED9059
:1004E60003B593FEEF4EFF9000EEF090011BE0FE89
:1004F6009003BF934F9000EEF09000F3E0FFEE9074
:1005060003C993FEEF4E9000F3F09000F2E0FF90E7
:10051600011BE09003D393FEEF4EFF9000F2F090A4
:10052600011CE0FE9003DD934F9000F2F09000F77F
:10053600E0FFEE9003E793FEEF4EFF9000F7F0EB3F
:100546009003F1934F9000F7F09000F6E0FFEB90E8
:1005560003FB93FEEF4E9000F6F09000FBE0FFAE3B
:0D05660003EE90040593FEEF4E9000FBF0B5
:010573002265
:10085900EF75F00A84F9EF75F00A84AEF0ED75F0E2
:100869000A84FCED75F00A84ABF0EFD394184004C8
:10087900790A7E0AEDD3943C40047C0A7B0A300451
:100889000330014490010BE0FFE990040F93FDEF61
:100899004D90010BF090010AE0FFE990041A93FDD5
:1008A900EF4D90010AF09000E6E0FFEE90042593E9
:1008B900FDEF4D9000E6F09000EBE0FFEE90043084
:1008C90093FEEF4E9000EBF030050330014F90019D
:1008D9000FE0FFEC90043B93FEEF4E90010FF09078
:1008E900010EE0FFEC90044693FEEF4E90010EF0EE
:1008F900900113E0FFEC90045193FEEF4EFF90013D
:1009090013F0EB90045C934F900113F0900112E007
:0D091900FFEB90046793FEEF4E900112F08B
:0109260022AE
:04057400AB07AA0621
:100578007C037DE81207BA900132EFF07C007D64BD
:10058800AF03AE021207BA7C007D0A1207BAA3EDC8
:10059800F07C007D0AAF03AE021207BA7C007D0A28
:1005A8001207BAA3EDF07C007D0AAF03AE02120772
:1005B800BAA905D3EB940FEA9427400B9001327443
:1005C8000AF0A3F0A3F0F990010BE0FE900132E0ED
:1005D800FD90040F93FCEE4C90010BF090010AE0A3
:1005E800FFED90041A93FEEF4E90010AF09000E69A
:1005F800E0FF900133E0FE90042593FDEF4D90005D
:10060800E6F09000EBE0FFEE90043093FEEF4E90A2
:1006180000EBF090010FE0FF900134E0FE90043B06
:1006280093FDEF4D90010FF090010EE0FFEE900466
:100638004693FEEF4E90010EF0900113E0FF9001FB
:1006480034E090045193FEEF4EFF900113F0E990CF
:10065800045C934F900113F0900112E0FFE99004BD
:090668006793FEEF4E900112F0C1
:010671002266
:100EE000E4FF121042E4900119F090013AE0FEA3F1
:100EF000E0F5828E83A3A3A31208211208537B017D
:0E0F00007A0079DAE490011EF07D3F020DEDDB
:10106800C206E490011FF0900122F0900120F0A345
:02107800F02264
:100FA800EBD39D5003ED04FB90011FEFF09001225D
:0B0FB800EDF0900120EBF0E4A3F0222C
:100E330090011FE0603A900121E004F0A3E0FF90ED
:100E43000121E0FEC39F5009200603439701D20608
:100E530022900120E0FFEEC39F5009300603539711
:100E6300FEC2062290011FE014F0E4900121F0225B
:030E7300C2062292
:0E109900900034E4120798900033E4020798A8
:10102D0090003412076BFF90003312076BB5070366
:05103D00D38001C32275
:100E760090013512081890013512080F90003412AF
:100E8600076B2401FFE433FE7C007D331207BAAF03
:100E96000590013512080F90003312076BB5050354
:050EA600D38001C3220E
:1010130090003412076B2433FF90003312076BFEEA
:0A102300C3EF9E75F03384AFF02296
:100C1F00900126EDF0900123120818120E76403C39
:100C2F00900126E0FF90012312080F900034120765
:100C3F006BF582758300EF12079890003412076BE3
:100C4F002401FFE433FE7C007D331207BAAF059019
:100C5F00012312080F900034ED120798900126E03F
:020C6F00FF2262
:060CC20090012712081842
:100CC800E490012AF012102D403A90012712080FE3
:100CD80090003312076BF58275830012076B900141
:100CE8002AF090003312076B2401FFE433FE7C00E6
:100CF8007D331207BAAF0590012712080F90003311
:090D0800ED12079890012AE0FFAA
:010D110022BF
:100D12000101FF00190201FF001A0301FF00220472
:100D220001FF00A20501FF11040601FF11050701E1
:100D3200FF1106080CFF11070901FF11080A01FF44
:100D420011090B06FF110A0C01FF110B0D01FF1116
:0B0D52000CF701FF110DFF06FF110E52
:100F630090006F12080F7D01120C1F90013DE02FBE
:100F7300F090006F12080F7D02120C1F90013DE0EC
:050F83002FF0020EAB8F
:0100190022C4
:01001A0022C3
:0100220022BB
:0100A200223B
:0111040022C8
:0111050022C7
:0111060022C6
:0111070022C5
:0111080022C4
:0111090022C3
:01110A0022C2
:01110B0022C1
:01110C0022C0
:01110D0022BF
:01110E0022BE
:0810E100D208E490012EF02278
:1000B60090006C12080F90003412076BFF9000330B
:1000C60012076B6F700302023590006C12080F90D6
:1000D600003312076BF58275830012076B90011AC5
:1000E600F090003312076B2401FFE433FE7C007DA1
:1000F600331207BAAF0590006C12080F900033ED6B
:1001060012079830081E90011AE0B4F11490012EDF
:10011600E004F0E0B40299C208E4F090012BF0800C
:100126008F02022D90011AE0FF90012EE02472F555
:1001360082E43400F583EFF090012BE02FF090017C
:100146002EE004F0E0FFB4010B900072E090012D68
:10015600F00200B6EF640260030201E090012DE0B8
:10016600FFD39400402AEFD3940D5024E075F00598
:10017600A4240EF582E4340DF583E49390012CF06B
:10018600EF75F005A4240FF582E4340DF58380267F
:1001960090012DE0FFB4F70E900D54E49390012CDE
:1001A600F0900D558010EFB4FF17900D59E4939021
:1001B600012CF0900D5A12082190011B120818808C
:1001C60002800F900073E0FF90012CE06F70030235
:1001D60000B6D208E490012EF02290012CE024040F
:1001E600FFE433FE90012EE0C39FEE6480F8748036
:1001F6009850030200B690012CE0FF2474F582E4C7
:100206003400F583E0FE2EFE74752FF582E434008B
:10021600F583E02EFF90012BE0B5070990011B1234
:0F022600080F120853D208E490012EF00200B620
:0102350022A6
:100F39007B017A00790090006C1208181210997BD5
:100F4900017A00793590006F120818121099E4900F
:090F5900006AF0C202A3F0C20319
:010F6200226C
:100EAB0020033190006F12080F121013EFC394013F
:100EBB00500122EFB4010D90006F12080F120CC2FB
:100ECB008FF5800D90006F12080F120CC28FF5D2A8
:040EDB000343EAC023
:010EDF0022F0
:0910C7003002051200B6C202223B
:100FC300FF110FFF110FFF110FFF110FFF110FFF84
:0B0FD300110FFF110FFF110FFF110F96
:0510FE0042013A0FC39E
:01110F0022BD
:100DA50090011AEEF0A3EFF030051590013AE0FE40
:100DB500A3E02418F582E43EF583120821120853B6
:100DC50090011AE0FFA3E090013ACFF0A3EFF030D5
:100DD500041590013AE0FEA3E02415F582E43EF502
:080DE5008312082112085322B9
:100FDE00FF1110FF0672FF1111FF1112FF1113FF07
:0B0FEE0010D0FF1114FF1115FF1116A9
:0111100022BC
:10067200120F889000E7E0440FF09000E6E044F0AB
:10068200F0900106E04420F090010FE04438F09031
:1006920000E2E04401F09000E7E04470F090010ACB
:1006A200E04403F090010FE04444F09000FFE04486
:1006B20001F09000FBE0440EF09000FAE044C0F03C
:1006C200A3E04401F09000FAE04438F04407F090CF
:1006D20000FFE04470F0440EF0900112E04402F09A
:1006E200A3E04420F0900117E04418F0900102E0EA
:1006F2004440F0900107E04420F0900103E04440C0
:10070200F09000FBE04410F09000FEE04480F044E2
:1007120003F0900112E04401F0900117E04440F030
:100722004420F04404F04402F04401F07F19120B1B
:10073200617F19120BC0C204C2057D1E7F0C120814
:1007420059900138E0FEA3E0FF1204729000EEE03F
:100752004408F09000F2E04440F09000F7E04402D8
:09076200F0900116E044C0F02201
:0111110022BB
:0111120022BA
:0111130022B9
:0910D0007B0F7D0A7F01020FA8CD
:0111140022B8
:0111150022B7
:0111160022B6
:1009E300020AE8E493A3F8E493A34003F68001F238
:1009F30008DFF48029E493A3F85407240CC8C33315
:100A0300C4540F4420C8834004F456800146F6DFE3
:100A1300E4800B01020408102040809010FEE47E65
:100A2300019360BCA3FF543F30E509541FFEE493D8
:100A3300A360010ECF54C025E060A840B8E493A39F
:100A4300FAE493A3F8E493A3C8C582C8CAC583CACA
:100A5300F0A3C8C582C8CAC583CADFE9DEE780BE82
:0111030000EB
:10076B00BB010CE58229F582E5833AF583E0225043
:10077B0006E92582F8E622BBFE06E92582F8E2228D
:0D078B00E58229F582E5833AF583E49322A7
:10079800F8BB010DE58229F582E5833AF583E8F097
:1007A800225006E92582C8F622BBFE05E92582C843
:0207B800F2222B
:1007BA00BC000BBE0029EF8DF084FFADF022E4CC23
:1007CA00F875F008EF2FFFEE33FEEC33FCEE9DECEC
:1007DA00984005FCEE9DFE0FD5F0E9E4CEFD22ED32
:1007EA00F8F5F0EE8420D21CFEADF075F008EF2F7C
:1007FA00FFED33FD4007985006D5F0F222C398FD6D
:05080A000FD5F0EA2209
:09080F00E0FBA3E0FAA3E0F922EA
:09081800EBF0A3EAF0A3E9F022E1
:0C082100E493FB740193FA740293F92233
:10082D00D083D082F8E4937012740193700DA3A35A
:10083D0093F8740193F5828883E47374029368606E
:06084D00EFA3A3A380DF6E
:060853008A838982E47330
:00000001FF
