:03001B0002077168
:10077100C0E0C0F0C083C082C0D075D000C000C04E
:0D07810001C002C003C004C005C006C007CF
:10078E009001C37404F09001C5E0FBA3E0FAA3E06E
:10079E00F990003412081DF582758300E5F51208F4
:1007AE004A90003412081D2401FFE433FE7C007DC4
:1007BE003312086CAF059001C5E0FBA3E0FAA3E08D
:1007CE00F9900034ED12084A90003412081D2433BB
:1007DE00FFE433FE90003312081DFDC3EF9DFFEEC4
:1007EE009400FE7C007D3312086CAF05EFD3941F8E
:0407FE004002D204DF
:10080200D007D006D005D004D003D002D001D0004A
:0B081200D0D0D082D083D0F0D0E032F4
:030023000209616E
:10096100C0E0C0F0C083C082C0D075D000C000C05C
:1009710001C002C003C004C005C006C0079001C881
:10098100E0FBA3E0FAA3E0F990003312081DF58221
:1009910075830012081DF5F590003312081D24011E
:1009A100FFE433FE7C007D3312086CAF059001C873
:1009B100E0FBA3E0FAA3E0F9900033ED12084A90BE
:1009C100003412081DFF90003312081DB50705C23F
:1009D1000553EA3FD007D006D005D004D003D0029A
:0F09E100D001D000D0D0D082D083D0F0D0E0327F
:0300A300020D014A
:080D0100C0E0C083C082C0D035
:100D0900B20390028CE004F0E0C394024008E4F0DE
:100D190090028EE004F0E58830E10B75870300004E
:060D2900000000000000C4
:090D2F00D0D0D082D083D0E03294
:0300B300020D3803
:0D0D3800C0E0C083C082C0D075D000C000F4
:100D4500780A06E6C394324016760090028D740147
:0F0D5500F09001C3E06008E014F0E07002D204F7
:0B0D6400D000D0D0D082D083D0E0328D
:030000000208C72C
:1008C70078FFE4F6D8FD90001B7FE57E03E4F0A3F4
:0A08D700DFFCDEFA75812002091C27
:100C8B00120DD2120D6F120F0E900295748CF04351
:100C9B008D20120EFD90028DE060F4780806080698
:100CAB0018E61424FC50068000E47808F678090650
:0D0CBB00E6D3940F40D9E4F6120DFD80D26F
:070F1600759CA0759D0422EB
:0F0EC000EF540FFFE59C54F04FF59C439C4022EC
:0D00A600758B66438B08538B7F43AB102294
:100E9E00EF6007E5974401FF8005E59754FEFF8F4D
:020EAE00972289
:070F1D00E4F597758F3E22F9
:080F0600E4F59AF599F59B2230
:0A0EEA0075B28EE4F5B443B20122A4
:1000030075BB2075BAC075BF0775BECF75BD0F75BB
:06001300BC9F43BB8022EC
:100EB00075EA0275E90643EAECE4F5EB75F367229F
:04001E00438D2022CC
:090EF400758E88758DC002001E88
:0D0EDD0075968875890175898143AB0422E3
:070F240075C829E4F58A22DB
:100BA60075A1C375AC20E4F591F5DEF58075B1FC51
:100BB600F5ADF592F5DFF58875B9CD75AE10F593FF
:100BC600F59075C1FFF5AFF59875C9FF75A304F5E6
:100BD60094F5A075D1D1F595F5B0F5D375D252F54A
:100BE600D575D4F3F5D775D603F5EEF5EF75FF2871
:010BF60022DC
:100DD20075D88353A87F120BA6120F24120F161276
:100DE20000A6120F1D120F06120EEA120003120EB7
:0B0DF200B0120EF4120EDD43A88022A8
:100E4100E4FEEF30E004D2A28002C2A2D2A1EFC33D
:090E510013FFC2A10EEEB408E982
:010E5A002275
:0B0BF70090027FEBF0A3EAF0A3E9F00E
:100C0200C2A07F08120E41D2A0C2A0900283E0448B
:100C1200C0FF120E41E4FCECC39D501A90027FE02B
:100C2200FBA3E0FAA3E0F98C8275830012081DFF92
:100C3200120E410C80E1D2A0C2A0900295E0FF12F8
:040C42000E41D2A0ED
:010C4600228B
:1000B6004A00601F0C1B1E0C16171C1F1E4A013817
:1000C60080004040C0C0C000C0C04A011A1F0C1BBF
:1000D6001E0C16171C1F1E4A00C840002020606018
:1000E600600060604A002B3F18363C192D2F383FC0
:1000F6003D4A00E6000080808080800080804A00C3
:10010600DC3F18363C192D2F383F3D4A00A9000028
:1001160040404040400040404A00D27F3C737E3C15
:100126004E4F7C7F7E4A0110E00090107070F00008
:10013600F0704A0040070307070304040707074A4D
:1001460001247F601C7063737F607F734A012E00F9
:100156000080808080800080804A00F03F1E393F0A
:100166001E27273E3F3F4A0002780064041C1C7C81
:10017600007C1C4A00B301000101000101010101DC
:100186004A0017FFF0CEF8F1393FF0FFF94A002197
:10019600400020206060600060604B004A1F0F1C1A
:1001A6001F0F13131F1F1F004B00BDF800E4841C14
:1001B6009CFC00FC9C044B00FA0F070E0F07090974
:1001C6000F0F0F004B000C7E40396147677F407F61
:1001D60067014B00550301030301020203030300F9
:1001E6004B0142FF609CF0E3737FE0FFF3004B019D
:1001F6004D00004040404040004040404B01051F3C
:100206000F1C1F0F13131F1F1F004B0035F800E4B0
:08021600841C9CFC00FC9C040C
:100E8A00E4FE746A2EF582E43400F583EFF00EEE88
:030E9A00B440EF72
:010E9D002232
:100E210090006A74FFF0A3F0A3F090006EF0A3F0BD
:100E3100A3F0900072E044FEF0A374FFF0A3F0224F
:1009F000900000E004F0E0C39F400EE4F0A3E004A8
:100A0000F0E0D394084002E4F090008FE04401F05D
:100A1000900001E0B409005052900A20F828287391
:100A2000020A63020A63020A57020A50020A4902D2
:100A30000A42020A3B020A70020A7090008FE044E8
:100A40000EF090008FE04470F090008AE04407F0D0
:100A500090008AE04438F090008AE044C0F0A3E0BF
:100A60004401F090008BE0440EF022E4900001F08D
:010A70002263
:10002600EFD3946340027F63EF75F00A84FDEF75AA
:10003600F00A84ACF0ED6030900097E0FF74602D1C
:10004600F582E43400F583E0FEEF4E900097F090E1
:100056000096E0FFAE0574382EF582E43401F58390
:10006600E0FEEF4E900096F0900096E0FF741A2C9A
:10007600F582E43401F583E0FEEF4E900096F090B1
:10008600009BE0FF74C82CF582E43400F583E0FEA3
:06009600EF4E90009BF00C
:01009C002241
:100A7100EFD3946340027F63EF75F00A84FDEF7555
:100A8100F00A84ACF0ED6030900093E0FF742B2D00
:100A9100F582E43400F583E0FEEF4E900093F09090
:100AA1000092E0FFAE0574E62EF582E43400F58392
:100AB100E0FEEF4E900092F0900092E0FF74DC2C8B
:100AC100F582E43400F583E0FEEF4E900092F09061
:100AD1000097E0FF74A92CF582E43400F583E0FE71
:060AE100EF4E900097F0BB
:010AE70022EC
:0403FB00AB07AA069C
:1003FF00D3EB940FEA942740047A277B0F7C037D7D
:10040F00E8AF03AE0212086C90028FEFF07C007D14
:10041F0064AF03AE0212086C7C007D0A12086CA355
:10042F00EDF07C007D0AAF03AE0212086C7C007DFC
:10043F000A12086CA3EDF0AE02AF037C007D0A1226
:10044F00086CAB0590007FE0FE90028FE0FD24D298
:10045F00F582E43400F583E0FCEE4C90007FF090E1
:10046F00007EE0FF74102DF582E43401F583E0FE89
:10047F00EF4EFF90007EF0900290E0FE2440F58258
:10048F00E43400F583E04F90007EF0900083E0FFAE
:10049F0074242EF582E43401F583E0FEEF4E9000D4
:1004AF0083F0900082E0FF900290E0242EF582E42A
:1004BF003401F583E0FEEF4EFF900082F090029141
:1004CF00E0FE24F0F582E43400F583E04F900082E3
:1004DF00F0900087E0FF74022EF582E43400F5837C
:1004EF00E0FEEF4EFF900087F074B32BF582E434FB
:1004FF0000F583E04F900087F0900086E0FF7417BF
:10050F002BF582E43400F583E0FEEF4E900086F089
:10051F0090008BE0FFAE0374212EF582E43400F5DA
:09052F0083E0FEEF4E90008BF01A
:0105380022A0
:10066D00EF75F00A84F9EF75F00A84AEF0ED75F0D0
:10067D000A84FCED75F00A84ABF0EFD394184004B6
:10068D00790A7E0AEDD3943C40047C0A7B0A300043
:10069D000330035C90009BE0FF744A29F582E4343B
:1006AD0000F583E0FDEF4D90009BF090009AE0FF88
:1006BD0074BD29F582E43400F583E0FDEF4D900023
:1006CD009AF0900076E0FF74FA2EF582E43400F58E
:1006DD0083E0FDEF4D900076F090007BE0FF740C11
:1006ED002EF582E43400F583E0FEEF4E90007BF0B2
:1006FD0030010330036D90009FE0FF74552CF5829F
:10070D00E43400F583E0FEEF4E90009FF090009EE4
:10071D00E0FF74422CF582E43401F583E0FEEF4EE8
:10072D0090009EF09000A3E0FF744D2CF582E43410
:10073D0001F583E0FEEF4EFF9000A3F074052BF55D
:10074D0082E43401F583E04F9000A3F09000A2E025
:10075D00FF74352BF582E43400F583E0FEEF4E9007
:03076D0000A2F0F7
:010770002266
:04053900AB07AA065C
:10053D007C037DE812086C90027FEFF07C007D64F7
:10054D00AF03AE0212086C7C007D0A12086CA3ED9D
:10055D00F07C007D0AAF03AE0212086C7C007D0AB0
:10056D0012086CA3EDF07C007D0AAF03AE021208F9
:10057D006CA905D3EB940FEA9427400B90027F747E
:10058D000AF0A3F0A3F0F990009BE0FE90027FE04B
:10059D00FD244AF582E43400F583E0FCEE4C900036
:1005AD009BF090009AE0FF74BD2DF582E43400F5C8
:1005BD0083E0FEEF4E90009AF0900076E0FF9002FF
:1005CD0080E0FE24FAF582E43400F583E0FDEF4D82
:1005DD00900076F090007BE0FF740C2EF582E434F1
:1005ED0000F583E0FEEF4E90007BF090009FE0FF62
:1005FD00900281E0FE2455F582E43400F583E0FDA0
:10060D00EF4D90009FF090009EE0FF74422EF5821A
:10061D00E43401F583E0FEEF4E90009EF09000A3D0
:10062D00E0FF900281E0244DF582E43401F583E092
:10063D00FEEF4EFF9000A3F0740529F582E434011E
:10064D00F583E04F9000A3F09000A2E0FF743529F0
:0F065D00F582E43400F583E0FEEF4E9000A2F04A
:01066C00226B
:100DFD00E4FF120E8AE4900158F090028EE0FF7E1F
:100E0D00001205397B017A00796AE4900283F07D46
:040E1D003F020BF78E
:0E0ECF00900034E412084A900033E402084A0E
:100E750090003412081DFF90003312081DB50703BA
:050E8500D38001C3222F
:100CC800900292EBF0A3EAF0A3E9F0900292E0FB25
:100CD800A3E0FAA3E0F990003412081D2401FFE410
:100CE80033FE7C007D3312086CAF05900033120888
:090CF8001DB50503D38001C322E0
:100E5B0090003412081D2433FF90003312081DFE3E
:0A0E6B00C3EF9E75F03384AFF02250
:100AE800900287EDF0900284EBF0A3EAF0A3E9F01E
:100AF800120CC84046900287E0FF900284E0FBA3F6
:100B0800E0FAA3E0F990003412081DF5827583001D
:100B1800EF12084A90003412081D2401FFE433FE46
:100B28007C007D3312086CAF05900284E0FBA3E0E3
:100B3800FAA3E0F9900034ED12084A900287E0FF2A
:010B4800228A
:0B0B4900900288EBF0A3EAF0A3E9F0B3
:100B5400E4A3F0120E754044900288E0FBA3E0FA8F
:100B6400A3E0F990003312081DF582758300120882
:100B74001D90028BF090003312081D2401FFE43312
:100B8400FE7C007D3312086CAF05900288E0FBA365
:100B9400E0FAA3E0F9900033ED12084A90028BE0EA
:010BA400FF51
:010BA500222D
:10021E00604B02340101FF00190201FF001A0301B5
:10022E00FF00220401FF009D0501FF009E0601FF55
:10023E00009F0701FF00A0080CFF00A10901FF00AD
:10024E00A20A01FF0F2B0B06FF0F2C0C01FF0F2D27
:0F025E000D01FF0F2EF701FF0F2FFF06FF0F30CF
:100DA3009001C8E0FBA3E0FAA3E0F97D01120AE891
:100DB300900296E02FF09001C8E0FBA3E0FAA3E0D5
:0F0DC300F97D02120AE8900296E02FF0020C4729
:0100190022C4
:01001A0022C3
:0100220022BB
:01009D002240
:01009E00223F
:01009F00223E
:0100A000223D
:0100A100223C
:0100A200223B
:010F2B0022A3
:010F2C0022A2
:010F2D0022A1
:010F2E0022A0
:010F2F00229F
:010F3000229E
:080F0E00D206E4900233F02248
:10026E009001C5E0FBA3E0FAA3E0F9900034120878
:10027E001DFF90003312081D6F70030203FA9000E9
:10028E003312081DF58275830012081D90027FF04F
:10029E0090003312081D2401FFE433FE7C007D33F1
:1002AE0012086CAF059001C5E0FBA3E0FAA3E0F9DC
:1002BE00900033ED12084A30061E90027FE0B4F132
:1002CE0014900233E004F0E064027094C206F090E1
:1002DE000230F0808B0203F290027FE0FF90023337
:1002EE00E024CBF582E43401F583EFF0900230E0A8
:1002FE002FF0900233E004F0E0FFB4010B9001CB3D
:10030E00E0900232F002026EEF640260030203A27A
:10031E00900232E0FFD394004029EFD3940D502386
:10032E00E075F005A42430F582E43402F583E09004
:10033E000231F0EF75F005A42431F582E43402F5B4
:10034E00838024900232E0FFB4F70D900276E090A5
:10035E000231F0900277800FEFB4FF1F90027BE026
:10036E00900231F090027CE0F9A3E0FAA3E0900253
:10037E0080C9F0A3EAF0A3E9F08002800F9001CCCF
:10038E00E0FF900231E06F700302026ED206E4903D
:10039E000233F022900231E02404FFE433FE900297
:1003AE0033E0C39FEE6480F8748098500302026EAF
:1003BE00900231E0FF24CDF582E43401F583E0FEB6
:1003CE002EFE74CE2FF582E43401F583E02EFF90DD
:1003DE000230E0B5070C900280A3E0FAA3E0F91218
:0C03EE0008C1D206E4900233F002026E57
:0103FA0022E0
:100D6F007B017A0179599001C5EBF0A3EAF0A3E971
:100D7F00F0120ECF7B017A01798E9001C8EBF0A3B0
:100D8F00EAF0A3E9F0120ECFE49001C3F0C204A37E
:030D9F00F0C2059A
:010DA200222E
:100C47002005409001C8E0FBA3E0FAA3E0F9120EEB
:100C57005BEFC39401500122EFB401129001C8E089
:100C6700FBA3E0FAA3E0F9120B498FF5801290017C
:100C7700C8E0FBA3E0FAA3E0F9120B498FF5D20510
:030C870043EAC07D
:010C8A002247
:090EFD0030040512026EC2042249
:1008E100020C8BE493A3F8E493A34003F68001F296
:1008F10008DFF48029E493A3F85407240CC8C33318
:10090100C4540F4420C8834004F456800146F6DFE6
:10091100E4800B01020408102040809000B6E47EC0
:10092100019360BCA3FF543F30E509541FFEE493DB
:10093100A360010ECF54C025E060A840B8E493A3A2
:10094100FAE493A3F8E493A3C8C582C8CAC583CACD
:10095100F0A3C8C582C8CAC583CADFE9DEE780BE85
:01026D000090
:10081D00BB010CE58229F582E5833AF583E0225090
:10082D0006E92582F8E622BBFE06E92582F8E222DA
:0D083D00E58229F582E5833AF583E49322F4
:10084A00F8BB010DE58229F582E5833AF583E8F0E4
:10085A00225006E92582C8F622BBFE05E92582C890
:02086A00F22278
:10086C00BC000BBE0029EF8DF084FFADF022E4CC70
:10087C00F875F008EF2FFFEE33FEEC33FCEE9DEC39
:10088C00984005FCEE9DFE0FD5F0E9E4CEFD22ED7F
:10089C00F8F5F0EE8420D21CFEADF075F008EF2FC9
:1008AC00FFED33FD4007985006D5F0F222C398FDBA
:0508BC000FD5F0EA2257
:0608C1008A838982E473C2
:00000001FF
