:03001B00020019C7
:0100190032B4
:0300230002001ABE
:01001A0032B3
:0300A3000209321D
:10093200C0E0C083C082900161E004F070069001C3
:0B09420060E004F0D082D083D0E032EF
:0300B3000208C17F
:0D08C100C0E0C083C082C0D075D000C00070
:1008CE00780A06E6C394324008760090015F740100
:0108DE00F029
:0B08DF00D000D0D0D082D083D0E03217
:0300000002059561
:1005950078FFE4F6D8FD90001B7FE57E03E4F0A329
:0A05A500DFFCDEFA7581200205EA92
:10088D001208EA900165748CF0438D2090015FE0B1
:10089D0060F7780806080618E61424FC5006800058
:1008AD00E47808F6780906E6D3940F40DCE4F612F6
:0408BD00084A80D590
:0709D400759CA0759D042233
:0F099D00EF540FFFE59C54F04FF59C439C402214
:0D00A600758B66438B08538B7F43AB102294
:10097B00EF6007E5974401FF8005E59754FEFF8F75
:02098B009722B1
:0709DB00E4F597758F3E2241
:0809CC00E4F59AF599F59B2270
:0A09B90075B28EE4F5B443B20122DA
:1000030075BB2075BAC075BF0775BECF75BD0F75BB
:06001300BC9F43BB8022EC
:10098D0075EA0275E90643EAECE4F5EB75F36722C7
:04001E00438D2022CC
:0909C300758E88758DC002001EBE
:0D09AC0075968875890175898143AB042219
:0709E20075C829E4F58A2223
:1007A90075A1C375AC20E4F591F5DEF58075B1FC52
:1007B900F5ADF592F5DFF58875B9CD75AE10F59300
:1007C900F59075C1FFF5AFF59875C9FF75A304F5E7
:1007D90094F5A075D1D1F595F5B0F5D375D252F54B
:1007E900D575D4F3F5D775D603F5EEF5EF75FF2872
:0107F90022DD
:1008EA0053A87F1207A91209E21209D41200A6120C
:1008FA0009DB1209CC1209B912000312098D120977
:08090A00C31209AC43A88022CE
:10094D00E4FEEF30E004D2A28002C2A2D2A1EFC336
:09095D0013FFC2A10EEEB408E97B
:01096600226E
:0B07FA0090015AEBF0A3EAF0A3E9F035
:10080500C2A07F0812094DD2A0C2A090015EE044AB
:10081500C0FF12094DE4FCECC39D501A90015AE04B
:10082500FBA3E0FAA3E0F98C8275830012062FFF83
:1008350012094D0C80E1D2A0C2A0900165E0FF1223
:04084500094DD2A0E7
:01084900228C
:1000B6004A00601F0C1B1E0C16171C1F1E4A013916
:1000C60080004040C0C0C000C0C04A011B1F0C1BBE
:1000D6001E0C16171C1F1E4A00C840002020606018
:1000E600600060604A002B3F18363C192D2F383FC0
:1000F6003D4A00E7000080808080800080804A00C2
:10010600DD3F18363C192D2F383F3D4A00A9000027
:1001160040404040400040404A00D27F3C737E3C15
:100126004E4F7C7F7E4A0111E00090107070F00007
:10013600F0704A0040070307070304040707074A4D
:1001460001257F601C7063737F607F734A012F00F7
:100156000080808080800080804A00F13F1E393F09
:100166001E27273E3F3F4A0002780064041C1C7C81
:10017600007C1C4A00B301000101000101010101DC
:100186004A0017FFF0CEF8F1393FF0FFF94A002197
:10019600400020206060600060604B004A1F0F1C1A
:1001A6001F0F13131F1F1F004B00BDF800E4841C14
:1001B6009CFC00FC9C044B00FB0F070E0F07090973
:1001C6000F0F0F004B000C7E40396147677F407F61
:1001D60067014B00550301030301020203030300F9
:1001E6004B0143FF609CF0E3737FE0FFF3004B019C
:1001F6004E00004040404040004040404B01061F3A
:100206000F1C1F0F13131F1F1F004B0035F800E4B0
:08021600841C9CFC00FC9C040C
:10096700E4FE746A2EF582E43400F583EFF00EEEB0
:03097700B440EF9A
:01097A00225A
:1009120090006A74FFF0A3F0A3F090006EF0A3F0D1
:10092200A3F0900072E044FEF0A374FFF0A3F02263
:1006B100900000E004F0E0C39F400EE4F0A3E004EA
:1006C100F0E0D394084002E4F090008FE04401F0A0
:1006D100900001E0B4090050529006E1F828287317
:1006E10002072402072402071802071102070A025F
:1006F10007030206FC02073102073190008FE04434
:100701000EF090008FE04470F090008AE04407F012
:1007110090008AE04438F090008AE044C0F0A3E001
:100721004401F090008BE0440EF022E4900001F0CF
:0107310022A5
:10002600EFD3946340027F63EF75F00A84FDEF75AA
:10003600F00A84ACF0ED6030900097E0FF74602D1C
:10004600F582E43400F583E0FEEF4E900097F090E1
:100056000096E0FFAE0574392EF582E43401F5838F
:10006600E0FEEF4E900096F0900096E0FF741B2C99
:10007600F582E43401F583E0FEEF4E900096F090B1
:10008600009BE0FF74C82CF582E43400F583E0FEA3
:06009600EF4E90009BF00C
:01009C002241
:10073200EFD3946340027F63EF75F00A84FDEF7597
:10074200F00A84ACF0ED6030900093E0FF742B2D42
:10075200F582E43400F583E0FEEF4E900093F090D2
:100762000092E0FFAE0574E72EF582E43400F583D3
:10077200E0FEEF4E900092F0900092E0FF74DD2CCC
:10078200F582E43400F583E0FEEF4E900092F090A3
:100792000097E0FF74A92CF582E43400F583E0FEB3
:0607A200EF4E900097F0FD
:0107A800222E
:04021F00AB07AA0679
:10022300D3EB940FEA942740047A277B0F7C037D5A
:10023300E8AF03AE0212065C900162EFF07C007D32
:1002430064AF03AE0212065C7C007D0A12065CA357
:10025300EDF07C007D0AAF03AE0212065C7C007DEC
:100263000A12065CA3EDF0AE02AF037C007D0A1216
:10027300065CAB0590007FE0FE900162E0FD24D2B6
:10028300F582E43400F583E0FCEE4C90007FF090BF
:10029300007EE0FF74112DF582E43401F583E0FE66
:1002A300EF4EFF90007EF0900163E0FE2440F58264
:1002B300E43400F583E04F90007EF0900083E0FF8C
:1002C30074252EF582E43401F583E0FEEF4E9000B1
:1002D30083F0900082E0FF900163E0242FF582E435
:1002E3003401F583E0FEEF4EFF900082F09001644D
:1002F300E0FE24F1F582E43400F583E04F900082C0
:10030300F0900087E0FF74022EF582E43400F58359
:10031300E0FEEF4EFF900087F074B32BF582E434D8
:1003230000F583E04F900087F0900086E0FF74179C
:100333002BF582E43400F583E0FEEF4E900086F067
:1003430090008BE0FFAE0374212EF582E43400F5B8
:0903530083E0FEEF4E90008BF0F8
:01035C00227E
:10049100EF75F00A84F9EF75F00A84AEF0ED75F0AE
:1004A1000A84FCED75F00A84ABF0EFD39418400494
:1004B100790A7E0AEDD3943C40047C0A7B0A30031E
:1004C1000330065C90009BE0FF744A29F582E43416
:1004D10000F583E0FDEF4D90009BF090009AE0FF66
:1004E10074BD29F582E43400F583E0FDEF4D900001
:1004F1009AF0900076E0FF74FB2EF582E43400F56B
:1005010083E0FDEF4D900076F090007BE0FF740CEE
:100511002EF582E43400F583E0FEEF4E90007BF08F
:1005210030040330066D90009FE0FF74552CF58276
:10053100E43400F583E0FEEF4E90009FF090009EC2
:10054100E0FF74432CF582E43401F583E0FEEF4EC5
:1005510090009EF09000A3E0FF744E2CF582E434ED
:1005610001F583E0FEEF4EFF9000A3F074062BF53A
:1005710082E43401F583E04F9000A3F09000A2E003
:10058100FF74352BF582E43400F583E0FEEF4E90E5
:0305910000A2F0D5
:010594002244
:04035D00AB07AA063A
:100361007C037DE812065C90015AEFF07C007D640D
:10037100AF03AE0212065C7C007D0A12065CA3ED9F
:10038100F07C007D0AAF03AE0212065C7C007D0AA0
:1003910012065CA3EDF07C007D0AAF03AE021206EB
:1003A1005CA905D3EB940FEA9427400B90015A7492
:1003B1000AF0A3F0A3F0F990009BE0FE90015AE04F
:1003C100FD244AF582E43400F583E0FCEE4C900014
:1003D1009BF090009AE0FF74BD2DF582E43400F5A6
:1003E10083E0FEEF4E90009AF0900076E0FF9001DE
:1003F1005BE0FE24FBF582E43400F583E0FDEF4D84
:10040100900076F090007BE0FF740C2EF582E434CE
:1004110000F583E0FEEF4E90007BF090009FE0FF3F
:1004210090015CE0FE2455F582E43400F583E0FDA3
:10043100EF4D90009FF090009EE0FF74432EF582F7
:10044100E43401F583E0FEEF4E90009EF09000A3AE
:10045100E0FF90015CE0244EF582E43401F583E095
:10046100FEEF4EFF9000A3F0740629F582E43401FB
:10047100F583E04F9000A3F09000A2E0FF743529CE
:0F048100F582E43400F583E0FEEF4E9000A2F028
:010490002249
:10084A009000DCE004F0E0FFD394055004D2068067
:10085A000DC206EFC3940A4005E49000DCF0E4FF01
:10086A00120967E4900159F0900160E0FEA3E0FFED
:10087A0012035D7B017A00796AE490015EF07D3FA4
:03088A000207FA68
:1005AF0002088DE493A3F8E493A34003F68001F2CD
:1005BF0008DFF48029E493A3F85407240CC8C3334D
:1005CF00C4540F4420C8834004F456800146F6DF1C
:1005DF00E4800B01020408102040809000B6E47EF6
:1005EF00019360BCA3FF543F30E509541FFEE49311
:1005FF00A360010ECF54C025E060A840B8E493A3D8
:10060F00FAE493A3F8E493A3C8C582C8CAC583CA02
:10061F00F0A3C8C582C8CAC583CADFE9DEE780BEBA
:01021E0000DF
:10062F00BB010CE58229F582E5833AF583E0225080
:10063F0006E92582F8E622BBFE06E92582F8E222CA
:0D064F00E58229F582E5833AF583E49322E4
:10065C00BC000BBE0029EF8DF084FFADF022E4CC82
:10066C00F875F008EF2FFFEE33FEEC33FCEE9DEC4B
:10067C00984005FCEE9DFE0FD5F0E9E4CEFD22ED91
:10068C00F8F5F0EE8420D21CFEADF075F008EF2FDB
:10069C00FFED33FD4007985006D5F0F222C398FDCC
:0506AC000FD5F0EA2269
:00000001FF
