:03001B0002193295
:10193200C0E0C0F0C083C082C0D075D000C000C07B
:0D19420001C002C003C004C005C006C007FC
:10194F0090006A7404F090006CE0FBA3E0FAA3E04F
:10195F00F9900034120D62F582758300E5F5120DD2
:10196F008F900034120D622401FFE433FE7C007D62
:10197F0033120DB1AF0590006CE0FBA3E0FAA3E0CA
:10198F00F9900034ED120D8F900034120D62243354
:10199F00FFE433FE900033120D62FDC3EF9DFFEEA7
:1019AF009400FE7C007D33120DB1AF05EFD3941F71
:0419BF004002D2040C
:1019C300D007D006D005D004D003D002D001D00078
:0B19D300D0D0D082D083D0F0D0E03222
:03002300021B18A5
:101B1800C0E0C0F0C083C082C0D075D000C000C093
:101B280001C002C003C004C005C006C00790006F12
:101B3800E0FBA3E0FAA3E0F9900033120D62F5820E
:101B4800758300120D62F5F5900033120D622401C1
:101B5800FFE433FE7C007D33120DB1AF0590006FBA
:101B6800E0FBA3E0FAA3E0F9900033ED120D8F90AB
:101B78000034120D62FF900033120D62B50705C2E2
:101B88000553EA3FD007D006D005D004D003D002D1
:0F1B9800D001D000D0D0D082D083D0F0D0E032B6
:0300A300021FB683
:081FB600C0E0C083C082C0D06E
:101FBE00B201900157E004F0E0C394024008E4F04F
:101FCE00900159E004F0438D20E58830E1167587C5
:101FDE0003000000000000000053ABEF53A8F753BE
:071FEE00A8EF800343AB10D4
:091FF500D0D0D082D083D0E032BC
:0300B300020FAD8C
:100FAD00C0E0C083C082C0D075D000C000C001C0F9
:030FBD0006C00764
:100FC000E59030E4097812E64402F60210777812D0
:100FD000E620E10302107754FDF64401F67809E6B5
:100FE000FF7025C3780BE6946A18E694005003025C
:100FF0001077187601780C76007812E654DFF678D0
:101000000D7600087600806FEF6401704C780EE674
:1010100025E0790EF718E63319F7C3780BE6940F3D
:1010200018E694004006780EE64401F6780A760049
:101030000876000806E6C39420403C08E6FF08E670
:10104000900160CFF0A3EFF0780976027812E644C1
:1010500010F64408F6D209801E7809E6B40218C3D7
:10106000780BE694CD18E69404400C1876007812BC
:10107000E654F7F654FEF67812E6FF30E028780BD7
:1010800006E618700106C3780BE694CD18E69404C2
:1010900040147600087600EF54FE7812F678097650
:1010A0000054F77812F6781106E6D394045006C27D
:1010B00093D29280127811E6D39408500AD293C248
:1010C00092E6B408027600E59030E11D780FE6FE66
:1010D00008E6FF4E600A900128EEF0A3EFF0D2037D
:1010E000780F76000876008008781006E618700100
:1010F00006780806E6C394324016760090015874CC
:1011000001F090006AE06008E014F0E07002D204A0
:10111000D007D006D001D000D0D0D082D083D0E08C
:01112000329C
:03000000021A7E63
:101A7E0078FFE4F6D8FD90001B7FE57E03E4F0A32B
:0A1A8E00DFFCDEFA758121021AD395
:1017CE001221921222FF1220FC12238012232112C8
:1017DE0022D9900164748EF0D2A37E227F37D20676
:1017EE00C207121E2D7B0F7D0A7F01122201438D2F
:1017FE002012236E7815E6D3941940147811E694CE
:10180E0006400D7F021222867816A607E47815F69A
:10181E00900158E060D8E4F030091CC209900162D2
:10182E00E0FEA3E0240FF582E43EF583740193FA03
:10183E00740293F9120E147813060806080678132C
:10184E00E614601924FE600C1460122402700A1251
:10185E00204280091218858004E47813F678140665
:10186E00E6C3940F4088E4F6122130121BA712191A
:07187E00DE1217140217FC33
:07238800759CA0E4F59D2205
:0F233100EF540FFFE59C54F04FF59C439C402266
:0D00A600758B66438B08538B7F43AB102294
:1022ED00EF6007E5974401FF8005E59754FEFF8FEA
:0222FD00972226
:07238F00E4F597758F3E2273
:08009B00E4F59AF599F59B22AA
:0A235B0075B28EE4F5B443B201221E
:1000030075BB2075BAC075BF0775BECF75BD0F75BB
:06001300BC9F43BB8022EC
:1023110075EA0275E90643EAECE4F5EB75F3672229
:04001E00438D2022CC
:09236500758E88758DC002001E02
:0D234E0075968875890175898143AB04225D
:0723960075C829E4F58A2255
:101E7F0075A1C375AC20E4F591F5DEF58075B1FC65
:101E8F00F5ADF592F5DFF58875B9CD75AE10F59313
:101E9F00F59075C1FFF5AFF59875C9FF75A304F5FA
:101EAF0094F5A075D1D1F595F5B0F5D375D252F55E
:101EBF00D575D4F3F5D775D603F5EEF5EF75FF2885
:011ECF0022F0
:1021920075D88353A87F121E7F12239612238812AA
:1021A20000A612238F12009B12235B12000312233C
:0B21B2001112236512234E43A8802267
:10225200E4FEEF30E004D2A28002C2A2D2A1EFC318
:0922620013FFC2A10EEEB408E95D
:01226B002250
:0B1ED000900140EBF0A3EAF0A3E9F062
:101EDB00C2A07F08122252D2A0C2A0900144E044BB
:101EEB00C0FF122252E4FCECC39D501A900140E05B
:101EFB00FBA3E0FAA3E0F98C82758300120D62FF5D
:101F0B001222520C80E1D2A0C2A0900164E0FF1219
:041F1B002252D2A0DC
:011F1F00229F
:101121001F0C1B1E0C16171C1F1E80004040C0C048
:10113100C000C0C01F0C1B1E0C16171C1F1E400038
:1011410020206060600060603F18363C192D2F3808
:101151003F3D000080808080800080803F18363CC9
:10116100192D2F383F3D0000404040404000404095
:101171007F3C737E3C4E4F7C7F7EE0009010707010
:10118100F000F070070307070304040707077F60F7
:101191001C7063737F607F7300008080808080009B
:1011A10080803F1E393F1E27273E3F3F7800640461
:1011B1001C1C7C007C1C01000101000101010101DA
:1011C100FFF0CEF8F1393FF0FFF9400020206060D8
:1011D100600060601F0F1C1F0F13131F1F1F00F8FB
:1011E10000E4841C9CFC00FC9C040F070E0F070903
:1011F100090F0F0F007E40396147677F407F67010C
:101201000301030301020203030300FF609CF0E3F7
:10121100737FE0FFF3000000404040404000404049
:10122100401F0F1C1F0F13131F1F1F00F800E48422
:071231001C9CFC00FC9C0466
:1022B100E4FE74DA2EF582E43400F583EFF00EEEDD
:0322C100B440EF37
:0122C40022F7
:1021E1009000DA74FFF0A3F0A3F09000DEF0A3F00A
:1021F100A3F09000E2E044FEF0A374FFF0A3F0220C
:101C30009000D8E004F0E0C39F400EE4F0A3E0047D
:101C4000F0E0D394084002E4F09000FFE04401F09B
:101C50009000D9E0B409005052901C60F828287315
:101C6000021CA3021CA3021C97021C90021C8902E6
:101C70001C82021C7B021CB0021CB09000FFE044DE
:101C80000EF09000FFE04470F09000FAE04407F09E
:101C90009000FAE04438F09000FAE044C0F0A3E08D
:101CA0004401F09000FBE0440EF022E49000D9F0F3
:011CB0002211
:10208500EF14603214602814601E14601414600A82
:1020950014702A9000EAE04406F09000EAE0440853
:1020A500F09000EAE04410F09000EAE04420F0905F
:0E20B50000EAE04440F09000EAE04480F022AF
:101D1200EFD3946340027F63EF75F00A84FDEF75A1
:101D2200F00A84ACF0ED6024900107E0FFED901121
:101D32002193FEEF4E900107F0900106E0FFAE0501
:101D4200EE90112B93FEEF4E900106F0900106E00B
:101D5200FFEC90113593FEEF4E900106F090010BCF
:0E1D6200E0FFEC90113F93FEEF4E90010BF06E
:011D70002250
:101D7100EFD3946340027F63EF75F00A84FDEF7542
:101D8100F00A84ACF0ED6024900103E0FFED9011C6
:101D91004993FEEF4E900103F0900102E0FFAE0582
:101DA100EE90115393FEEF4E900102F0900102E08C
:101DB100FFEC90115D93FEEF4E900102F090010750
:0E1DC100E0FFEC90116793FEEF4E900107F0EB
:011DCF0022F1
:04134800AB07AA063F
:10134C00D3EB940FEA942740047A277B0F7C037D20
:10135C00E8AF03AE02120DB1900140EFF07C007DBE
:10136C0064AF03AE02120DB17C007D0A120DB1A365
:10137C00EDF07C007D0AAF03AE02120DB17C007D56
:10138C000A120DB1A3EDF0AE02AF037C007D0A1280
:10139C000DB1AB059000EFE0FE900140E0FD901127
:1013AC007193FCEE4C9000EFF09000EEE0FFED90AE
:1013BC00117B93FEEF4EFF9000EEF0900141E0FEAA
:1013CC00901185934F9000EEF09000F3E0FFEE90BB
:1013DC00118F93FEEF4E9000F3F09000F2E0FF902F
:1013EC000141E090119993FEEF4EFF9000F2F090C6
:1013FC000142E0FE9011A3934F9000F2F09000F7A1
:10140C00E0FFEE9011AD93FEEF4EFF9000F7F0EB86
:10141C009011B7934F9000F7F09000F6E0FFEB902F
:10142C0011C193FEEF4E9000F6F09000FBE0FFAE82
:0D143C0003EE9011CB93FEEF4E9000FBF0FD
:011449002280
:10164600EF75F00A84F9EF75F00A84AEF0ED75F0E7
:101656000A84FCED75F00A84ABF0EFD394184004CD
:10166600790A7E0AEDD3943C40047C0A7B0A300654
:101676000330014490010BE0FFE99011D593FDEF93
:101686004D90010BF090010AE0FFE99011E093FD07
:10169600EF4D90010AF09000E6E0FFEE9011EB931B
:1016A600FDEF4D9000E6F09000EBE0FFEE9011F6B6
:1016B60093FEEF4E9000EBF030070330014F9001A0
:1016C6000FE0FFEC90120193FEEF4E90010FF090A9
:1016D600010EE0FFEC90120C93FEEF4E90010EF01F
:1016E600900113E0FFEC90121793FEEF4EFF90016E
:1016F60013F0EB901222934F900113F0900112E039
:0D170600FFEB90122D93FEEF4E900112F0BC
:0117130022B3
:04144A00AB07AA063C
:10144E007C037DE8120DB190015AEFF07C007D64B3
:10145E00AF03AE02120DB17C007D0A120DB1A3EDE9
:10146E00F07C007D0AAF03AE02120DB17C007D0A46
:10147E00120DB1A3EDF07C007D0AAF03AE02120D8A
:10148E00B1A905D3EB940FEA9427400B90015A743F
:10149E000AF0A3F0A3F0F990010BE0FE90015AE0E0
:1014AE00FD9011D593FCEE4C90010BF090010AE0EB
:1014BE00FFED9011E093FEEF4E90010AF09000E6E2
:1014CE00E0FF90015BE0FE9011EB93FDEF4D90007D
:1014DE00E6F09000EBE0FFEE9011F693FEEF4E90EB
:1014EE0000EBF090010FE0FF90015CE0FE90120126
:1014FE0093FDEF4D90010FF090010EE0FFEE901274
:10150E000C93FEEF4E90010EF0900113E0FF900150
:10151E005CE090121793FEEF4EFF900113F0E990EE
:10152E001222934F900113F0900112E0FFE99012F6
:09153E002D93FEEF4E900112F016
:011547002281
:10213000E4FF1222B1E4900119F0900162E0FEA3E5
:10214000E0F5828E83A3A3A3740193FA740293F93A
:10215000120E147B017A0079DAE4900144F07D3F9D
:03216000021ED08C
:1022FF00C208E4900147F090014AF0900148F0A322
:02230F00F022BA
:10220100EBD39D5003ED04FB900147EFF090014AA1
:0B221100EDF0900148EBF0E4A3F02298
:10204200900147E0603A900149E004F0A3E0FF907C
:102052000149E0FEC39F5009200803439701D208BB
:1020620022900148E0FFEEC39F50093008035397C6
:10207200FEC20822900147E014F0E4900149F022E8
:03208200C208226F
:1000B600ECECECECECECECECECECECECECECECEC7A
:1000C600ECECECECECECECECECECECECECECECED69
:1000D600EDEEEFEFF0F1F1F2F2F3F4F4F5F6F6F6F9
:1000E600EDEDF8F8F9F9FAFAFBFBFCFCFDFDFEFE76
:1000F600FFFF0000010101020203030404040505D9
:10010600060607070708080909090A0A0B0B0B0C5C
:100116000C0D0D0D0E0E0F0F0F10101111111212E6
:100126001313131414141515161616171718181872
:1001360019191A1A1B1B1B1C1C1D1D1D1E1E1F1FF9
:10014600202020212122222323242424252526267B
:100156002727282829292A2A2B2B2C2C2D01010276
:10016600020303040405060708090A0C0D0F111300
:1001760015171A1D2023272A2E33373C40454A4F90
:10018600555A5F656A70757B80868B90969BA0A595
:10019600A9AEB2B7BBBFC3C6CACD292F353B4249AC
:1001A60050575E656C727980878D93999FA5AAAF2B
:1001B600B4B8BDC1C5C8CCCFD2D4D7D9DCDEE0E156
:1001C600E3E4E6E7E8E9EAEBECEDEEEEEFF0F0F17A
:1001D600F2F2F3F3F4F4F501020202030304050557
:1001E6000607080A0B0D0E10121417191C1F2226DB
:1001F6002A2D32363B3F44494F54595F646A707525
:100206007B81868B91969BA0A5AAAEB3B7BBBFC3D5
:10021600C7CACDD001020202030404050607080975
:100226000A0C0D0F111316181B1E2125292D30350A
:100236003A3E43484E53585E64696F757A80868BA2
:1002460090969BA0A5AAAEB3B7BBBFC3C7CACDD075
:10025600D302020203030405050607080A0B0D0E66
:10026600101215171A1D2023272B2F33383D42470E
:100276004C52575D62686E74797F858A90959A9F15
:10028600A4A9AEB2B7BBBFC3C6CACDD0D3D60202ED
:100296000203030405060708090A0C0D0F111416BC
:1002A600191B1F22262A2E32363B40454A50555BE3
:1002B60061666C72787E84898F94999FA4A8ADB28A
:1002C600B6BABEC2C6C9CDD0D3D6D802020303047D
:1002D60004050607080A0B0D0E101215171A1D2025
:1002E60024282C30353A3E43494E53595F656A708F
:1002F600767C82888D93989EA3A8ACB1B5BABEC20F
:10030600C5C9CCCFD2D5D8DA020203030405060745
:1003160008090A0C0E10121416191C1F23272B2F5E
:1003260034383D42484D52585E64696F757B81870B
:100336008D92989DA2A7ACB1B5B9BDC1C5C9CCCFA8
:10034600D2D5D7DADC0203030404050607080A0B34
:100356000D0F111316181B1E2225292E32373C416C
:10036600464C51575D62686E747A80868C91979C74
:10037600A2A6ABB0B5B9BDC1C5C8CCCFD2D5D7DA68
:10038600DCDE0203030405060708090B0C0E101237
:1003960015171A1D2124282C31363B40454B505643
:1003A6005C61676D73797F858A90969CA1A6ABAFD9
:1003B600B4B8BDC0C4C8CBCED1D4D7D9DCDEE00337
:1003C600030405050607090A0B0D0F111416191C5F
:1003D6002023272B3034393E44494F545A60666CEB
:1003E60072787E84898F959AA0A5ABAFB3B8BCC04E
:1003F600C4C7CBCED1D4D6D9DBDEE0E203030405F5
:10040600060708090B0C0E101315181B1E22262AA8
:100416002E33383D42484E53595F656B71777D8266
:10042600898E94999FA5A9AFB3B7BCC0C4C7CBCEDC
:10043600D1D4D6D9DBDDDFE1E303040505060809DF
:100446000A0C0D0F1214171A1D2124282D31363BC4
:1004560041464C52585E646A70767C81878D9298CC
:100466009DA3A8ADB2B6BABFC2C6C9CDD0D3D6D8A1
:10047600DADDDFE1E3E40404050607080A0B0D0FE5
:10048600111316181C1F23272B3034393E444A50AB
:10049600565C62686E757A80868B91979CA1A6AC35
:1004A600B0B6B9BEC1C5C9CCCFD2D5D7DADCDEE08D
:1004B600E2E4E60405060708090A0C0E10121517F1
:1004C6001A1E2125292E32373D42484E545B61675C
:1004D6006D73797F858A90969BA0A5AAAFB4B9BCA7
:1004E600C1C4C8CBCED1D4D7D9DCDEE0E2E4E5E79F
:1004F60004050607090A0C0D0F111416191C2024F1
:10050600282C31363B40464C53595F666C72787ED8
:1005160084898F949A9FA4A9AEB3B7BCC0C3C7CA37
:10052600CDD0D3D6D8DBDDDFE1E3E5E6E805060787
:1005360008090B0D0F111315181B1F22262A2F341D
:10054600393E444A51575E646B71777E83898E9437
:10055600999EA3A8ADB2B6BABFC3C6CACDD0D2D5EE
:10056600D8DADDDFE1E3E4E6E8E9050608090A0C86
:100576000E101214171A1D2125292D32373C424818
:100586004E555B62686F757C82888D92989DA2A796
:10059600ACB0B5B9BDC1C5C9CCCFD2D4D7D9DCDED4
:1005A600E0E2E4E6E7E8EA0607080A0B0D0F111495
:1005B60016191C2024282C31353B40464C52595FD5
:1005C600666D737A80868C92979CA1A6ABAFB4B801
:1005D600BCC0C4C8CBCED1D4D6D9DBDDE0E1E3E5DF
:1005E600E7E8E9EB0608090B0C0E101315181B1F9C
:1005F60022272B2F34393E444A50565D646A71785F
:100606007E848B90969BA0A5AAAEB3B7BBBFC3C78B
:10061600CACED0D3D6D8DADDDFE1E3E5E6E8E9EA0B
:10062600EB07080A0C0E101215171B1E22262A2F7E
:1006360033383D43484E545B61686F757C83898FC0
:10064600959A9FA4A9AEB2B6BABEC2C6C9CDD0D33A
:10065600D5D8DADCDEE0E2E4E6E7E9EAEBEC080925
:100666000B0D0F1114171A1D2125292E33373C4166
:10067600474D53595F666D737A81888E94999FA40E
:10068600A8ADB2B6BABEC1C5C9CCCFD2D5D7DADC11
:10069600DEE0E2E4E5E7E8EAEBECED090A0C0E1031
:1006A6001316191C1F23272C31363A40454B515738
:1006B6005D646A71787E858C92989DA3A7ACB1B56E
:1006C600B9BDC0C4C7CBCED1D4D6D9DBDDDFE1E31B
:1006D600E5E6E8E9EAEBEDED090B0D0F1214171B41
:1006E6001E22262A2F34393E44494F555B62686FD5
:1006F600767C838990969CA1A6ABB0B4B8BCC0C3E7
:10070600C7CACDD0D3D6D8DADDDFE0E2E4E6E7E942
:10071600EAEBECEDEE0A0C0E1113161A1D21252933
:100726002D32373D42484D535A60666D747A818842
:100736008E949AA0A5AAAFB3B7BBBFC3C6C9CCCF88
:10074600D2D5D7DADCDEE0E2E3E5E7E8E9EAECED8C
:10075600EEEF0B0D101215191C2024282C31363BF8
:1007660041464C52585E656B72797F868C93999F91
:10077600A4A9AEB2B7BBBEC2C5C9CCCFD2D4D7D955
:10078600DBDDDFE1E3E4E6E7E9EAEBECEDEEEF0DD6
:100796000F1214181B1F23272B30353A40454B5197
:1007A600575D636A70777E858B92989EA3A8ADB2DB
:1007B600B6BABEC2C5C8CBCED1D4D6D9DBDDDFE151
:1007C600E2E4E6E7E8EAEBECEDEEEFF00E101316E6
:1007D600191D21252A2E33383E43494F555B616842
:1007E6006E757C82898F969CA1A7ACB1B5B9BDC147
:1007F600C4C8CBCED0D3D6D8DADCDEE0E2E4E5E777
:10080600E8E9EAEBECEDEEEFF00F1114181B1F23ED
:10081600282D32373C42474D53595F666C737980B9
:10082600878D949AA0A5ABB0B4B9BDC0C4C7CACDD4
:10083600D0D3D5D8DADCDEE0E1E3E5E6E7E9EAEBBA
:10084600ECEDEEEFF0F01013161A1D22262B3035C4
:100856003B40464C52585E646B71787E858B92980D
:100866009EA4A9AEB3B8BCC0C3C7CACDD0D2D5D793
:10087600D9DCDEDFE1E3E4E6E7E8EAEBECEDEEEF18
:10088600EFF0F11215181C2025292E34393F454B5F
:1008960050565C636970767D838A90979DA2A8AD59
:1008A600B2B7BBBFC3C6CACCCFD2D5D7D9DBDDDF83
:1008B600E1E3E4E5E7E8E9EAEBECEDEEEFF0F1F190
:1008C60013171A1E23282D32383E444A50565C62AE
:1008D600686E757C82888F959BA1A7ACB1B6BBBFAD
:1008E600C3C6C9CCCFD2D5D7D9DBDDDFE1E2E4E59B
:1008F600E7E8E9EAEBECEDEEEFF0F0F1F215181CA3
:1009060021252A30353B41474D545960666C727932
:1009160080868D93999FA5AAAFB4B9BDC1C5C8CB32
:10092600CED1D4D6D9DBDDDFE0E2E3E5E6E7E9EADE
:10093600EBECEDEEEEEFF0F1F1F2161A1E23282D98
:1009460033393F454B51585D646A70777D848A918F
:10095600979DA3A8AEB2B7BCC0C4C7CBCDD0D3D6E3
:10096600D8DADCDEE0E2E3E4E6E7E8E9EAEBECED40
:10097600EEEFF0F0F1F2F2181C21262A30373D4353
:10098600494F565C62686E757B82888F959BA1A6DF
:10099600ACB1B6BABEC2C6C9CDCFD2D5D7DADCDEC7
:1009A600DFE1E3E4E5E7E8E9EAEBECEDEEEFEFF0B3
:1009B600F1F2F2F31A1F24292D343A41474D535AC6
:1009C60061666D737A80878D93999FA5AAAFB4B936
:1009D600BDC1C5C9CCCFD2D4D7D9DBDDDFE1E2E4D6
:1009E600E5E6E8E9EAEBECEDEEEEEFF0F1F1F2F335
:1009F600F31D22272C31383F454B51585F656B72EA
:100A0600787F858C91989EA4A9AEB3B8BCC0C4C8A3
:100A1600CBCED1D4D6D9DBDDDFE0E2E4E5E6E7E90B
:100A2600EAEBECEDEEEEEFF0F0F1F2F2F3F31F2469
:100A3600292F343B42484F555B62696F757C82892A
:100A46008F959BA1A7ACB1B6BABFC2C6CACDD0D34B
:100A5600D5D8DADCDEE0E1E3E4E6E7E8E9EAEBEC68
:100A6600EDEEEFEFF0F1F1F2F3F3F421262C31374E
:100A76003E454C52585F666D737980868D93999F7B
:100A8600A5AAAFB4B8BDC1C5C8CCCFD2D4D7D9DB1F
:100A9600DDDFE1E3E4E5E7E8E9EAEBECEDEEEEEFD6
:100AA600F0F1F1F2F2F3F3F423292E343A41484FF0
:100AB600565C636A71777E848B91979DA2A8ADB2CE
:100AC600B7BBBFC3C7CACED1D4D6D8DBDDDFE0E221
:100AD600E4E5E6E7E9EAEBECECEDEEEFF0F0F1F257
:100AE600F2F3F3F4F4262C31383E454C5359606743
:100AF6006E757B82888F959BA1A6ABB0B5BABEC238
:100B0600C6C9CDD0D3D5D8DADCDEE0E2E3E5E6E748
:100B1600E8E9EAEBECEDEEEFEFF0F1F1F2F2F3F3E8
:100B2600F4F4FF01DDFF021AFF0257FF0294FF02F1
:100B3600D1FF030EFF034BFF0388FF03C5FF04022B
:100B4600FF043FFF047CFF04B9FF04F6FF0533FFF3
:100B56000570FF05ADFF05EAFF0627FF0664FF06E1
:100B6600A1FF06DEFF071BFF0758FF0795FF07D209
:100B7600FF080FFF084CFF0889FF08C6FF0903FF9F
:100B86000940FF097DFF09BAFF09F7FF0A34FF0A8A
:070B960071FF0AAEFF0AEB3C
:1021BD0042012F000041013100410132FF41013345
:0E21CD0000420134000041013600410137009C
:10228600EF540FFFE59C54F04FF59C439C40E59CB2
:0622960030E4FBAF9F22C3
:1022C500EFD394AC40057818762D22EF9000B693A5
:0422D5007818F6225D
:101BA7007F01122286900131E0FEEFD39E4002EFC3
:101BB700F0900132E0FEEFC39E5002EFF09001304B
:101BC700E02FF090012FE03400F0900133E004F0B3
:101BD700E0C3940A4052900131E0FF900130E09F4A
:101BE700FF90012FE09400FE900132E0FDC3EF9DCE
:101BF700FFEE940090012FF0A3EFF090012FE0FE8D
:101C0700A3E07803CEC313CE13D8F9FF90012FEECC
:101C1700F0A3EFF01222C5E4900133F090012FF00A
:081C2700A3F0A3F0A374FFF089
:011C2F002292
:05002600900141E0FF24
:10002B00EDB4051090014474FFF0A37401F0A374B8
:10003B0063F08037EDB42D1090014474FFF0A3747E
:10004B0001F0A374A0F08023ED75F003A42416F542
:10005B0082E4340BF583E493F9740193FA740293FD
:10006B00900144C9F0A3EAF0A3E9F0E4FE90014447
:10007B00E0FBA3E0FAA3E0F98E82758300120D6218
:0F008B00FDEFC39D40050EEEB43CE2EE241EFFD8
:01009A002243
:05154800900141EFF0ED
:10154D007818E6FCD3648094855007E0FF7D050292
:10155D00163EC3EC648094AD400A900141E0FF7DDE
:10156D002D02163EC37818E66480948650557D068C
:10157D00120026900142EFF07D05120026900143E6
:10158D00EFF0900142E0FDC3EF9DFDE49400FCE41B
:10159D00120CA8C004C005C006C0077818E6FF33BA
:1015AD0095E0FEC374069FFDE49EFC120CA8D003CB
:1015BD00D002D001D000120B9D120CE1900142E03F
:1015CD002F8066D37818E6648094AC900141E0FFDB
:1015DD00405B7D2C12002B900142EFF0900141E019
:1015ED00FF7D2D12002B900143EFF0900142E0C3DF
:1015FD009FFDE49400FCE4120CA8C004C005C006D5
:10160D00C0077818E6FF3395E0FEEF24D4FDEE34E5
:10161D00FFFC120CA8D003D002D001D000120B9DFC
:10162D00120CE1900142E0C39F7817F6227818E67C
:08163D00FD12002B7817A6072F
:011645002282
:1019DE007816E6FF900135E02FF0900134E03400E8
:1019EE00F0900136E004F0E0C394085003021A7D33
:1019FE00900134E0FEA3E07803CEC313CE13D8F9E2
:101A0E00F0EE900134F0900137E004F0E0C394085A
:101A1E004004E4F0D20A900134A3E0FD900137E0D7
:101A2E002438F582E43401F583EDF0300A29E4FF21
:101A3E00FEFC74382CF582E43401F583E02FFFE4CC
:101A4E003EFE0CECB408EBEF7803CEC313CE13D8E6
:101A5E00F9900140F08005900140EDF0900140E0DA
:0F1A6E00FF121548E4900136F0900134F0A3F018
:011A7D002246
:102321007F011222861222C57F02122286021548DF
:1022D90090012C7407F0A37453F0C202E490012614
:0422E900F0A3F0224C
:101F2000900126E0FCA3E0FDD39432EC9400500431
:101F30007F018036D3ED9464EC940050047F0280DE
:101F400029D3ED9496EC940050047F03801CD3EDCC
:101F500094C8EC940050047F04800FD3ED942CECD3
:0A1F6000940150047F0580027F0603
:011F6A002254
:1018850090012CE07002A3E0602590012DE024FF7B
:10189500F090012CE034FFF0E07002A3E07012122A
:1018A5001F2090012EEFF090012AF0A3F08002D2C4
:1018B5000230037890011EE0FFA3E0A3CFF0A3EF71
:1018C500F090011CE0FFA3E0A3CFF0A3EFF090019F
:1018D5001AE0FFA3E0A3CFF0A3EFF0900128E0FF0B
:1018E500A3E090011ACFF0A3EFF0C203E490012624
:1018F500F0A3F0FFEF25E0241AF582E43401F58327
:10190500E0FCA3E0FD900127E02DF0900126E03CEE
:10191500F00FEFB404DE900126E0FEA3E07805CEDB
:0C192500C313CE13D8F9F0EE900126F0A9
:011931002293
:1017140020020BE4900122F0A3F0A30217CA121FC7
:101724002090012BE0FEEFD39E400EE4900124F0C4
:10173400A3F090012EEFF08038EFC39E5039900152
:1017440025E004F07006900124E004F0D390012514
:10175400E09468900124E0648094804021E4F0A344
:10176400F090012EE0D394014003E014F090012E98
:10177400E090012BF08007E4900124F0A3F09001A5
:101784002AE0FF90012EE0FED39F401AE49001234B
:10179400F0900122E004F0E0D39468402CE4F0904F
:1017A400012AE004F022EEC39F5017E4900122F0D6
:1017B400A3E004F0E094D04010E4F090012AE01497
:0917C400F022E4900122F0A3F0F0
:0117CD0022F9
:0E234000900034E4120D8F900033E4020D8FF4
:10229C00900034120D62FF900033120D62B50703EB
:0522AC00D38001C322F4
:1020C30090015DEBF0A3EAF0A3E9F090015DE0FB82
:1020D300A3E0FAA3E0F9900034120D622401FFE4B7
:1020E30033FE7C007D33120DB1AF05900033120D2A
:0920F30062B50503D38001C3228C
:10226C00900034120D622433FF900033120D62FE85
:0A227C00C3EF9E75F03384AFF0222B
:101CB10090014EEDF090014BEBF0A3EAF0A3E9F0B7
:101CC1001220C3404690014EE0FF90014BE0FBA380
:101CD100E0FAA3E0F9900034120D62F582758300F9
:101CE100EF120D8F900034120D622401FFE433FED8
:101CF1007C007D33120DB1AF0590014BE0FBA3E0F9
:101D0100FAA3E0F9900034ED120D8F90014EE0FF3F
:011D110022AF
:0B1DD00090014FEBF0A3EAF0A3E9F054
:101DDB00E4A3F012229C404490014FE0FBA3E0FAF5
:101DEB00A3E0F9900033120D62F582758300120D9A
:101DFB0062900152F0900033120D622401FFE43324
:101E0B00FE7C007D33120DB1AF0590014FE0FBA3BB
:101E1B00E0FAA3E0F9900033ED120D8F900152E040
:011E2B00FFB7
:011E2C002293
:101F6B000101FF00190201FF001A0301FF00220407
:101F7B0001FF239D0501FF239E0601FF239F070100
:101F8B00FF23A0080CFF23A10901FF23A20A01FFD5
:101F9B0023A30B06FF23A40C01FF23A50D01FF2395
:0B1FAB00A6F701FF23A7FF06FF23A8F5
:1021630090006FE0FBA3E0FAA3E0F97D01121CB13C
:10217300900165E02FF090006FE0FBA3E0FAA3E08D
:0F218300F97D02121CB1900165E02FF0021FFEE2
:0100190022C4
:01001A0022C3
:0100220022BB
:01239D00221D
:01239E00221C
:01239F00221B
:0123A000221A
:0123A1002219
:0123A2002218
:0123A3002217
:0123A4002216
:0123A5002215
:0123A6002214
:0123A7002213
:0123A8002212
:08238000D20BE4900156F0229B
:100E1A0090006CE0FBA3E0FAA3E0F9900034120D15
:100E2A0062FF900033120D626F7003020FAC9000E4
:100E3A0033120D62F582758300120D62900140F043
:100E4A00900033120D622401FFE433FE7C007D33EF
:100E5A00120DB1AF0590006CE0FBA3E0FAA3E0F934
:100E6A00900033ED120D8F300B1E900140E0B4F16B
:100E7A0014900156E004F0E064027094C20BF09002
:100E8A000153F0808B020FA4900140E0FF900156BD
:100E9A00E02472F582E43400F583EFF0900153E028
:100EAA002FF0900156E004F0E0FFB4010B900072BD
:100EBA00E0900155F0020E1AEF64026003020F542B
:100ECA00900155E0FFD39400402AEFD3940D5024AB
:100EDA00E075F005A42467F582E4341FF583E493F2
:100EEA00900154F0EF75F005A42468F582E4341FEC
:100EFA00F5838026900155E0FFB4F70E901FADE40C
:100F0A0093900154F0901FAE8010EFB4FF23901F0E
:100F1A00B2E493900154F0901FB3E493F9740193EF
:100F2A00FA740293900141C9F0A3EAF0A3E9F080B0
:100F3A0002800F900073E0FF900154E06F7003028B
:100F4A000E1AD20BE4900156F022900154E02404C8
:100F5A00FFE433FE900156E0C39FEE6480F874808C
:100F6A00985003020E1A900154E0FF2474F582E4AB
:100F7A003400F583E0FE2EFE74752FF582E434000A
:100F8A00F583E02EFF900153E0B5070C900141A3D1
:100F9A00E0FAA3E0F9120E14D20BE4900156F00223
:020FAA000E1A1D
:010FAC002222
:1020FC007B017A00790090006CEBF0A3EAF0A3E985
:10210C00F01223407B017A00793590006FEBF0A33D
:10211C00EAF0A3E9F0122340E490006AF0C204A3B1
:03212C00F0C205F9
:01212F00228D
:101FFE0020054090006FE0FBA3E0FAA3E0F9122267
:10200E006CEFC39401500122EFB4011290006FE007
:10201E00FBA3E0FAA3E0F9121DD08FF58012900019
:10202E006FE0FBA3E0FAA3E0F9121DD08FF5D20505
:03203E0043EAC0B2
:01204100227C
:09236E00300405120E1AC204220B
:10221C00FF23A9FF23A9FF23A9FF23A9FF23A9FFBC
:0B222C0023A9FF23A9FF23A9FF23A97A
:0521DB00420162221C1C
:0123A9002211
:101E2D00900140EEF0A3EFF030071A900162E0FE52
:101E3D00A3E02418F582E43EF583740193FA74024D
:101E4D0093F9120E14900140E0FFA3E0900162CFD0
:101E5D00F0A3EFF030061A900162E0FEA3E0241526
:101E6D00F582E43EF583740193FA740293F9120E30
:021E7D0014222D
:10223700FF23AAFF1238FF23ABFF23ACFF23ADFF19
:0B2247002377FF23AEFF23AFFF23B07F
:0123AA002210
:101238001221E19000E7E0440FF09000E6E044F06E
:10124800F0900106E04420F090010FE04438F0905F
:1012580000E2E04401F09000E7E04470F090010AF9
:10126800E04403F090010FE04444F09000FFE044B4
:1012780001F09000FBE0440EF09000FAE044C0F06A
:10128800A3E04401F09000FAE04438F04407F090FD
:1012980000FFE04470F0440EF0900112E04402F0C8
:1012A800A3E04420F0900117E04418F0900102E018
:1012B8004440F0900107E04420F0900103E04440EE
:1012C800F09000FBE04410F09000FEE04480F04411
:1012D80003F0900112E04401F0900117E04440F05F
:1012E8004420F04404F04402F04401F07818E6FF8A
:1012F800121D127817E6FF121D71C206C2077D1E65
:101308007F0C121646300215900126E0FEA3E0FF7E
:1013180012134890012EE0FF1220858006E4FFFE9C
:101328001213489000EEE04408F09000F2E04440C8
:10133800F09000F7E04402F0900116E044C0F0227B
:0123AB00220F
:0123AC00220E
:0123AD00220D
:092377007B0F7D0A7F01022201A7
:0123AE00220C
:0123AF00220B
:0123B000220A
:100B9D00EC4D6011E8497017ED33EC3304600DE452
:100BAD00FCFFFEFD22E933E8330470F8020D4D120F
:100BBD000D1858046009E4CC248150062850090210
:100BCD000D57284003020D54C0E0EB4A7044B98024
:100BDD0006D0E0FB020D43EF4E701CBD8008EBFF0D
:100BED00EAFEE9FD80EBE98DF0A4FEE5F0020C864E
:100BFD00E9CDF9EAFEEBFFEF89F0A4FCE5F0CE8933
:100C0D00F0A42EFFE435F0CD89F0A42DFEE435F0EF
:100C1D008067EF4E7005BD80D780C3EF8BF0A4AC1D
:100C2D00F0EE8BF0A42CFCE435F0F8EF8AF0A42C58
:100C3D00E5F038FCE433CB8DF0A42CFCE5F03BF86B
:100C4D00EE8AF0A42CFCE5F038F8E433CF89F0A45B
:100C5D002CFCE5F038CF3400CE89F0A42FFFE5F061
:100C6D003EFEE433C98DF0A42EFEE5F039CD8AF0B9
:100C7D00A42FFFE5F03EFEE43DFD33D0E0FB500731
:100C8D000BBB000F020D57EC2CFCEF33FFEE33FEC8
:060C9D00ED33FD020D2FF6
:100CA30075F020800E75F010800575F0087D007ECC
:100CB300007F003392D530D503120E06EC3340107B
:100CC300EF33FFEE33FEED33FDEC33FCD5F0ED22D5
:0E0CD300E5F0247EA2D513CC92E7CDCEFF2211
:100CE100EDD2E7CD33EC3392D524814006E4FFFE0B
:100CF100FDFC22FCE4CFCECDCC24E0501174FF806A
:100D0100EDC3CC13CCCD13CDCE13CECF13CF047006
:070D1100F030D5DE020E06F2
:100D1800E9D2E7C933E833F892D5EDD2E7CD33EC21
:070D280033FC5002B2D5229A
:100D2F00EC30E7100FBF000C0EBE00080DBD000425
:100D3F000BEB6014A2D5EB13FCED92E7FD2274FFD1
:100D4F00FCFDFEFF22E480F8A2D574FF13FC7D802A
:030D5F00E480EF3E
:101A98000217CEE493A3F8E493A34003F68001F27F
:101AA80008DFF48029E493A3F85407240CC8C3334F
:101AB800C4540F4420C8834004F456800146F6DF1E
:101AC800E4800B01020408102040809021BDE47ED0
:101AD800019360BCA3FF543F30E509541FFEE49313
:101AE800A360010ECF54C025E060A840B8E493A3DA
:101AF800FAE493A3F8E493A3C8C582C8CAC583CA05
:101B0800F0A3C8C582C8CAC583CADFE9DEE780BEBC
:0121E00000FE
:100D6200BB010CE58229F582E5833AF583E0225046
:100D720006E92582F8E622BBFE06E92582F8E22290
:0D0D8200E58229F582E5833AF583E49322AA
:100D8F00F8BB010DE58229F582E5833AF583E8F09A
:100D9F00225006E92582C8F622BBFE05E92582C846
:020DAF00F2222E
:100DB100BC000BBE0029EF8DF084FFADF022E4CC26
:100DC100F875F008EF2FFFEE33FEEC33FCEE9DECEF
:100DD100984005FCEE9DFE0FD5F0E9E4CEFD22ED35
:100DE100F8F5F0EE8420D21CFEADF075F008EF2F7F
:100DF100FFED33FD4007985006D5F0F222C398FD70
:050E01000FD5F0EA220C
:0E0E0600C3E49FFFE49EFEE49DFDE49CFC22FD
:060E14008A838982E47369
:00000001FF
