:03001B00021AC9FD
:101AC900C0E0C0F0C083C082C0D075D000C000C0E3
:0D1AD90001C002C003C004C005C006C00764
:101AE60090006A7404F090006CE0FBA3E0FAA3E0B7
:101AF600F9900034120D62F582758300E5F5120D3A
:101B06008F900034120D622401FFE433FE7C007DC9
:101B160033120DB1AF0590006CE0FBA3E0FAA3E031
:101B2600F9900034ED120D8F900034120D622433BB
:101B3600FFE433FE900033120D62FDC3EF9DFFEE0E
:101B46009400FE7C007D33120DB1AF05EFD3941FD8
:041B56004002D20770
:101B5A00D007D006D005D004D003D002D001D000DF
:0B1B6A00D0D0D082D083D0F0D0E03289
:03002300021D4873
:101D4800C0E0C0F0C083C082C0D075D000C000C061
:101D580001C002C003C004C005C006C00790006FE0
:101D6800E0FBA3E0FAA3E0F9900033120D62F582DC
:101D7800758300120D62F5F5900033120D6224018F
:101D8800FFE433FE7C007D33120DB1AF0590006F88
:101D9800E0FBA3E0FAA3E0F9900033ED120D8F9079
:101DA8000034120D62FF900033120D62B50705C2B0
:101DB8000853EA3FD007D006D005D004D003D0029C
:0F1DC800D001D000D0D0D082D083D0F0D0E03284
:03006B0002253833
:10253800C0E0C083C082900151E004F0D082D08313
:03254800D0E032AE
:0300A300021CAF8D
:101CAF00C0E0C083C082C0D075D000C004C005C0E2
:031CBF0006C00755
:101CC200900151E0FEADB37C00E42DFFEC3E9001AB
:101CD20042F0A3EFF043B201900151E4F0900142CF
:101CE200E07002A3E07004C2018011D3900143E0CE
:101CF200940A900142E094004002D201D202B2045E
:101D020090014FE004F0E0C394024008E4F0900137
:101D120052E004F0438D20E58830E1167587030018
:101D22000000000000000053ABEF53A8F753A8EFE8
:051D3200800343AB102B
:101D3700D007D006D005D004D0D0D082D083D0E051
:011D47003269
:0300B300021152E5
:10115200C0E0C083C082C0D075D000C000C001C052
:0311620006C007BD
:10116500E59030E4097812E64402F602121C781282
:10117500E620E10302121C54FDF64401F67809E667
:10118500FF7025C3780BE6946518E69400500302BA
:10119500121C187601780C76007812E654DFF67882
:1011A5000D7600087600806FEF6401704C780EE6CE
:1011B50025E0790EF718E63319F7C3780BE6940E98
:1011C50018E694004006780EE64401F6780A7600A3
:1011D5000876000806E6C39420403C08E6FF08E6CA
:1011E50090015ECFF0A3EFF0780976027812E6441D
:1011F50010F64408F6D20C801E7809E6B40218C32E
:10120500780BE6949218E69404400C187600781250
:10121500E654F7F654FEF67812E6FF30E028780B30
:1012250006E618700106C3780BE6949218E6940456
:1012350040147600087600EF54FE7812F6780976A9
:101245000054F77812F6781106E6D394045006C2D6
:1012550093D29280127811E6D39408500AD293C2A1
:1012650092E6B408027600E59030E11D780FE6FEBF
:1012750008E6FF4E600A900128EEF0A3EFF0D206D3
:10128500780F76000876008008781006E618700159
:1012950006780806E6C3943240167600900150742D
:1012A50001F090006AE06008E014F0E07002D207F7
:1012B500D007D006D001D000D0D0D082D083D0E0E6
:0112C50032F6
:03000000021C15CA
:101C150078FFE4F6D8FD90001B7FE57E03E4F0A392
:0A1C2500DFFCDEFA758121021C6A63
:1018A6001223AA12255D12006E1225DA12256F1276
:1018B6002524900162748EF0D2A37E247F6CD20917
:1018C600C20A1220D27B0F7D0A7F01122436438D75
:1018D600201225C97815E6D3941940147811E69498
:1018E60006400D7F021224D17816A607E47815F675
:1018F600900150E060D8E4F0300C1CC20C900160FE
:10190600E0FEA3E0240FF582E43EF583740193FA2A
:10191600740293F9120E1478130608060806781353
:10192600E614601E24FE600C14600E2402700F1272
:10193600225B800E121A1C8009120E1A8004E478AB
:1019460013F6781406E6C3940F4083E4F6122315C3
:0C195600121DD7121B751219620218D462
:0725E200759CA0E4F59D22A9
:0F257F00EF540FFFE59C54F04FF59C439C402216
:0D00A600758B66438B08538B7F43AB102294
:10254B00EF6007E5974401FF8005E59754FEFF8F89
:02255B009722C5
:0725E900E4F597758F3E2217
:0825D200E4F59AF599F59B224E
:0D259C0075B28E75B4FF43AA0243B201224E
:1000030075BB2043BB3075BAC0E4F5BFF5BE75BD03
:080013000F75BC9F43BB802266
:1024BB0075EA0275E90643EAECE4F5EB75F367435D
:0624CB00A80843A810223E
:04001E00438D2022CC
:0925C000758E88758DC002001EA5
:0D25A90075968875890175898143AB042200
:0725F00075C829E4F58A22F9
:1021240075A1C375AC20E4F591F5DEF58075B1FCBD
:10213400F5ADF592F5DFF58875B9CD75AE10F5936B
:10214400F59075C1FFF5AFF59875C9FF75A304F552
:1021540094F5A075D1D1F595F5B0F5D375D252F5B6
:10216400D575D4F3F5D775D603F5EEF5EF75FF28DD
:012174002248
:1023AA0075D88353A87F1221241225F01225E21230
:1023BA0000A61225E91225D212259C120003122426
:0B23CA00BB1225C01225A943A88022E9
:10248700E4FEEF30E004D2A28002C2A2D2A1EFC3E1
:0924970013FFC2A10EEEB408E926
:0124A0002219
:0B217500900148EBF0A3EAF0A3E9F0B2
:10218000C2A07F08122487D2A0C2A090014CE044D4
:10219000C0FF122487E4FCECC39D501A900148E074
:1021A000FBA3E0FAA3E0F98C82758300120D62FFB5
:1021B0001224870C80E1D2A0C2A0900162E0FF123D
:0421C0002487D2A0FE
:0121C40022F8
:1012C6001F0C1B1E0C16171C1F1E80004040C0C0A2
:1012D600C000C0C01F0C1B1E0C16171C1F1E400092
:1012E60020206060600060603F18363C192D2F3862
:1012F6003F3D000080808080800080803F18363C23
:10130600192D2F383F3D00004040404040004040EE
:101316007F3C737E3C4E4F7C7F7EE0009010707069
:10132600F000F070070307070304040707077F6050
:101336001C7063737F607F730000808080808000F4
:1013460080803F1E393F1E27273E3F3F78006404BA
:101356001C1C7C007C1C0100010100010101010133
:10136600FFF0CEF8F1393FF0FFF940002020606031
:10137600600060601F0F1C1F0F13131F1F1F00F854
:1013860000E4841C9CFC00FC9C040F070E0F07095C
:10139600090F0F0F007E40396147677F407F670165
:1013A6000301030301020203030300FF609CF0E351
:1013B600737FE0FFF30000004040404040004040A3
:1013C600401F0F1C1F0F13131F1F1F00F800E4847C
:0713D6001C9CFC00FC9C04C0
:1024FC00E4FE74DA2EF582E43400F583EFF00EEE90
:03250C00B440EFE9
:01250F0022A9
:1023F9009000DA74FFF0A3F0A3F09000DEF0A3F0F0
:10240900A3F09000E2E044FEF0A374FFF0A3F022F1
:101E60009000D8E004F0E0C39F400EE4F0A3E0044B
:101E7000F0E0D394084002E4F09000FFE04401F069
:101E80009000D9E0B409005052901E90F8282873B1
:101E9000021ED3021ED3021EC7021EC0021EB902BA
:101EA0001EB2021EAB021EE0021EE09000FFE044E4
:101EB0000EF09000FFE04470F09000FAE04407F06C
:101EC0009000FAE04438F09000FAE044C0F0A3E05B
:101ED0004401F09000FBE0440EF022E49000D9F0C1
:011EE00022DF
:10229E00EF14603214602814601E14601414600A67
:1022AE0014702A9000EAE04406F09000EAE0440838
:1022BE00F09000EAE04410F09000EAE04420F09044
:0E22CE0000EAE04440F09000EAE04480F02294
:101FB700EFD3946340027F63EF75F00A84FDEF75FA
:101FC700F00A84ACF0ED6024900107E0FFED901279
:101FD700C693FEEF4E900107F0900106E0FFAE05B5
:101FE700EE9012D093FEEF4E900106F0900106E0BE
:101FF700FFEC9012DA93FEEF4E900106F090010B82
:0E200700E0FFEC9012E493FEEF4E90010BF020
:0120150022A8
:10201600EFD3946340027F63EF75F00A84FDEF759A
:10202600F00A84ACF0ED6024900103E0FFED90121D
:10203600EE93FEEF4E900103F0900102E0FFAE0535
:10204600EE9012F893FEEF4E900102F0900102E03E
:10205600FFEC90130293FEEF4E900102F090010701
:0E206600E0FFEC90130C93FEEF4E900107F09C
:012074002249
:0413DD00AB07AA06AA
:1013E100D3EB940FEA942740047A277B0F7C037D8B
:1013F100E8AF03AE02120DB1900148EFF07C007D21
:1014010064AF03AE02120DB17C007D0A120DB1A3CF
:10141100EDF07C007D0AAF03AE02120DB17C007DC0
:101421000A120DB1A3EDF0AE02AF037C007D0A12EA
:101431000DB1AB059000EFE0FE900148E0FD901387
:101441001693FCEE4C9000EFF09000EEE0FFED9073
:10145100132093FEEF4EFF9000EEF0900149E0FE65
:1014610090132A934F9000EEF09000F3E0FFEE907E
:10147100133493FEEF4E9000F3F09000F2E0FF90F2
:101481000149E090133E93FEEF4EFF9000F2F09081
:10149100014AE0FE901348934F9000F2F09000F75C
:1014A100E0FFEE90135293FEEF4EFF9000F7F0EB4A
:1014B10090135C934F9000F7F09000F6E0FFEB90F3
:1014C100136693FEEF4E9000F6F09000FBE0FFAE46
:0D14D10003EE90137093FEEF4E9000FBF0C1
:0114DE0022EB
:1017D800EF75F00A84F9EF75F00A84AEF0ED75F054
:1017E8000A84FCED75F00A84ABF0EFD3941840043A
:1017F800790A7E0AEDD3943C40047C0A7B0A3009BE
:101808000330044490010BE0FFE990137A93FDEF55
:101818004D90010BF090010AE0FFE990138593FDCC
:10182800EF4D90010AF09000E6E0FFEE90139093E0
:10183800FDEF4D9000E6F09000EBE0FFEE90139B7B
:1018480093FEEF4E9000EBF0300A0330044F900106
:101858000FE0FFEC9013A693FEEF4E90010FF0906F
:10186800010EE0FFEC9013B193FEEF4E90010EF0E5
:10187800900113E0FFEC9013BC93FEEF4EFF900134
:1018880013F0EB9013C7934F900113F0900112E0FF
:0D189800FFEB9013D293FEEF4E900112F083
:0118A5002220
:0414DF00AB07AA06A7
:1014E3007C037DE8120DB190015BEFF07C007D641D
:1014F300AF03AE02120DB17C007D0A120DB1A3ED54
:10150300F07C007D0AAF03AE02120DB17C007D0AB0
:10151300120DB1A3EDF07C007D0AAF03AE02120DF4
:10152300B1A905D3EB940FEA9427400B90015B74A8
:101533000AF0A3F0A3F0F990010BE0FE90015BE049
:10154300FD90137A93FCEE4C90010BF090010AE0AE
:10155300FFED90138593FEEF4E90010AF09000E6A5
:10156300E0FF90015CE0FE90139093FDEF4D90003F
:10157300E6F09000EBE0FFEE90139B93FEEF4E90AE
:1015830000EBF090010FE0FF90015DE0FE9013A6E9
:1015930093FDEF4D90010FF090010EE0FFEE9013DD
:1015A300B193FEEF4E90010EF0900113E0FF900116
:1015B3005DE09013BC93FEEF4EFF900113F0E990B2
:1015C30013C7934F900113F0900112E0FFE99013BA
:0915D300D293FEEF4E900112F0DC
:0115DC0022EC
:10231500E4FF1224FCE4900119F0900160E0FEA3B3
:10232500E0F5828E83A3A3A3740193FA740293F953
:10233500120E147B017A0079DAE490014CF07D3FAE
:03234500022175FD
:10255D00C20BE4900153F0900156F0900154F0A39A
:02256D00F0225A
:10243600EBD39D5003ED04FB900153EFF090015652
:0B244600EDF0900154EBF0E4A3F02255
:10225B00900153E0603A900155E004F0A3E0FF9049
:10226B000155E0FEC39F5009200B03439701D20B8E
:10227B0022900154E0FFEEC39F5009300B0353979C
:10228B00FEC20B22900153E014F0E4900155F022B2
:03229B00C20B2251
:1000B600ECECECECECECECECECECECECECECECEC7A
:1000C600ECECECECECECECECECECECECECECECED69
:1000D600EDEEEFEFF0F1F1F2F2F3F4F4F5F6F6F6F9
:1000E600EDEDF8F8F9F9FAFAFBFBFCFCFDFDFEFE76
:1000F600FFFF0000010101020203030404040505D9
:10010600060607070708080909090A0A0B0B0B0C5C
:100116000C0D0D0D0E0E0F0F0F10101111111212E6
:100126001313131414141515161616171718181872
:1001360019191A1A1B1B1B1C1C1D1D1D1E1E1F1FF9
:10014600202020212122222323242424252526267B
:100156002727282829292A2A2B2B2C2C2D01010276
:10016600020303040405060708090A0C0D0F111300
:1001760015171A1D2023272A2E33373C40454A4F90
:10018600555A5F656A70757B80868B90969BA0A595
:10019600A9AEB2B7BBBFC3C6CACD292F353B4249AC
:1001A60050575E656C727980878D93999FA5AAAF2B
:1001B600B4B8BDC1C5C8CCCFD2D4D7D9DCDEE0E156
:1001C600E3E4E6E7E8E9EAEBECEDEEEEEFF0F0F17A
:1001D600F2F2F3F3F4F4F501020202030304050557
:1001E6000607080A0B0D0E10121417191C1F2226DB
:1001F6002A2D32363B3F44494F54595F646A707525
:100206007B81868B91969BA0A5AAAEB3B7BBBFC3D5
:10021600C7CACDD001020202030404050607080975
:100226000A0C0D0F111316181B1E2125292D30350A
:100236003A3E43484E53585E64696F757A80868BA2
:1002460090969BA0A5AAAEB3B7BBBFC3C7CACDD075
:10025600D302020203030405050607080A0B0D0E66
:10026600101215171A1D2023272B2F33383D42470E
:100276004C52575D62686E74797F858A90959A9F15
:10028600A4A9AEB2B7BBBFC3C6CACDD0D3D60202ED
:100296000203030405060708090A0C0D0F111416BC
:1002A600191B1F22262A2E32363B40454A50555BE3
:1002B60061666C72787E84898F94999FA4A8ADB28A
:1002C600B6BABEC2C6C9CDD0D3D6D802020303047D
:1002D60004050607080A0B0D0E101215171A1D2025
:1002E60024282C30353A3E43494E53595F656A708F
:1002F600767C82888D93989EA3A8ACB1B5BABEC20F
:10030600C5C9CCCFD2D5D8DA020203030405060745
:1003160008090A0C0E10121416191C1F23272B2F5E
:1003260034383D42484D52585E64696F757B81870B
:100336008D92989DA2A7ACB1B5B9BDC1C5C9CCCFA8
:10034600D2D5D7DADC0203030404050607080A0B34
:100356000D0F111316181B1E2225292E32373C416C
:10036600464C51575D62686E747A80868C91979C74
:10037600A2A6ABB0B5B9BDC1C5C8CCCFD2D5D7DA68
:10038600DCDE0203030405060708090B0C0E101237
:1003960015171A1D2124282C31363B40454B505643
:1003A6005C61676D73797F858A90969CA1A6ABAFD9
:1003B600B4B8BDC0C4C8CBCED1D4D7D9DCDEE00337
:1003C600030405050607090A0B0D0F111416191C5F
:1003D6002023272B3034393E44494F545A60666CEB
:1003E60072787E84898F959AA0A5ABAFB3B8BCC04E
:1003F600C4C7CBCED1D4D6D9DBDEE0E203030405F5
:10040600060708090B0C0E101315181B1E22262AA8
:100416002E33383D42484E53595F656B71777D8266
:10042600898E94999FA5A9AFB3B7BCC0C4C7CBCEDC
:10043600D1D4D6D9DBDDDFE1E303040505060809DF
:100446000A0C0D0F1214171A1D2124282D31363BC4
:1004560041464C52585E646A70767C81878D9298CC
:100466009DA3A8ADB2B6BABFC2C6C9CDD0D3D6D8A1
:10047600DADDDFE1E3E40404050607080A0B0D0FE5
:10048600111316181C1F23272B3034393E444A50AB
:10049600565C62686E757A80868B91979CA1A6AC35
:1004A600B0B6B9BEC1C5C9CCCFD2D5D7DADCDEE08D
:1004B600E2E4E60405060708090A0C0E10121517F1
:1004C6001A1E2125292E32373D42484E545B61675C
:1004D6006D73797F858A90969BA0A5AAAFB4B9BCA7
:1004E600C1C4C8CBCED1D4D7D9DCDEE0E2E4E5E79F
:1004F60004050607090A0C0D0F111416191C2024F1
:10050600282C31363B40464C53595F666C72787ED8
:1005160084898F949A9FA4A9AEB3B7BCC0C3C7CA37
:10052600CDD0D3D6D8DBDDDFE1E3E5E6E805060787
:1005360008090B0D0F111315181B1F22262A2F341D
:10054600393E444A51575E646B71777E83898E9437
:10055600999EA3A8ADB2B6BABFC3C6CACDD0D2D5EE
:10056600D8DADDDFE1E3E4E6E8E9050608090A0C86
:100576000E101214171A1D2125292D32373C424818
:100586004E555B62686F757C82888D92989DA2A796
:10059600ACB0B5B9BDC1C5C9CCCFD2D4D7D9DCDED4
:1005A600E0E2E4E6E7E8EA0607080A0B0D0F111495
:1005B60016191C2024282C31353B40464C52595FD5
:1005C600666D737A80868C92979CA1A6ABAFB4B801
:1005D600BCC0C4C8CBCED1D4D6D9DBDDE0E1E3E5DF
:1005E600E7E8E9EB0608090B0C0E101315181B1F9C
:1005F60022272B2F34393E444A50565D646A71785F
:100606007E848B90969BA0A5AAAEB3B7BBBFC3C78B
:10061600CACED0D3D6D8DADDDFE1E3E5E6E8E9EA0B
:10062600EB07080A0C0E101215171B1E22262A2F7E
:1006360033383D43484E545B61686F757C83898FC0
:10064600959A9FA4A9AEB2B6BABEC2C6C9CDD0D33A
:10065600D5D8DADCDEE0E2E4E6E7E9EAEBEC080925
:100666000B0D0F1114171A1D2125292E33373C4166
:10067600474D53595F666D737A81888E94999FA40E
:10068600A8ADB2B6BABEC1C5C9CCCFD2D5D7DADC11
:10069600DEE0E2E4E5E7E8EAEBECED090A0C0E1031
:1006A6001316191C1F23272C31363A40454B515738
:1006B6005D646A71787E858C92989DA3A7ACB1B56E
:1006C600B9BDC0C4C7CBCED1D4D6D9DBDDDFE1E31B
:1006D600E5E6E8E9EAEBEDED090B0D0F1214171B41
:1006E6001E22262A2F34393E44494F555B62686FD5
:1006F600767C838990969CA1A6ABB0B4B8BCC0C3E7
:10070600C7CACDD0D3D6D8DADDDFE0E2E4E6E7E942
:10071600EAEBECEDEE0A0C0E1113161A1D21252933
:100726002D32373D42484D535A60666D747A818842
:100736008E949AA0A5AAAFB3B7BBBFC3C6C9CCCF88
:10074600D2D5D7DADCDEE0E2E3E5E7E8E9EAECED8C
:10075600EEEF0B0D101215191C2024282C31363BF8
:1007660041464C52585E656B72797F868C93999F91
:10077600A4A9AEB2B7BBBEC2C5C9CCCFD2D4D7D955
:10078600DBDDDFE1E3E4E6E7E9EAEBECEDEEEF0DD6
:100796000F1214181B1F23272B30353A40454B5197
:1007A600575D636A70777E858B92989EA3A8ADB2DB
:1007B600B6BABEC2C5C8CBCED1D4D6D9DBDDDFE151
:1007C600E2E4E6E7E8EAEBECEDEEEFF00E101316E6
:1007D600191D21252A2E33383E43494F555B616842
:1007E6006E757C82898F969CA1A7ACB1B5B9BDC147
:1007F600C4C8CBCED0D3D6D8DADCDEE0E2E4E5E777
:10080600E8E9EAEBECEDEEEFF00F1114181B1F23ED
:10081600282D32373C42474D53595F666C737980B9
:10082600878D949AA0A5ABB0B4B9BDC0C4C7CACDD4
:10083600D0D3D5D8DADCDEE0E1E3E5E6E7E9EAEBBA
:10084600ECEDEEEFF0F01013161A1D22262B3035C4
:100856003B40464C52585E646B71787E858B92980D
:100866009EA4A9AEB3B8BCC0C3C7CACDD0D2D5D793
:10087600D9DCDEDFE1E3E4E6E7E8EAEBECEDEEEF18
:10088600EFF0F11215181C2025292E34393F454B5F
:1008960050565C636970767D838A90979DA2A8AD59
:1008A600B2B7BBBFC3C6CACCCFD2D5D7D9DBDDDF83
:1008B600E1E3E4E5E7E8E9EAEBECEDEEEFF0F1F190
:1008C60013171A1E23282D32383E444A50565C62AE
:1008D600686E757C82888F959BA1A7ACB1B6BBBFAD
:1008E600C3C6C9CCCFD2D5D7D9DBDDDFE1E2E4E59B
:1008F600E7E8E9EAEBECEDEEEFF0F0F1F215181CA3
:1009060021252A30353B41474D545960666C727932
:1009160080868D93999FA5AAAFB4B9BDC1C5C8CB32
:10092600CED1D4D6D9DBDDDFE0E2E3E5E6E7E9EADE
:10093600EBECEDEEEEEFF0F1F1F2161A1E23282D98
:1009460033393F454B51585D646A70777D848A918F
:10095600979DA3A8AEB2B7BCC0C4C7CBCDD0D3D6E3
:10096600D8DADCDEE0E2E3E4E6E7E8E9EAEBECED40
:10097600EEEFF0F0F1F2F2181C21262A30373D4353
:10098600494F565C62686E757B82888F959BA1A6DF
:10099600ACB1B6BABEC2C6C9CDCFD2D5D7DADCDEC7
:1009A600DFE1E3E4E5E7E8E9EAEBECEDEEEFEFF0B3
:1009B600F1F2F2F31A1F24292D343A41474D535AC6
:1009C60061666D737A80878D93999FA5AAAFB4B936
:1009D600BDC1C5C9CCCFD2D4D7D9DBDDDFE1E2E4D6
:1009E600E5E6E8E9EAEBECEDEEEEEFF0F1F1F2F335
:1009F600F31D22272C31383F454B51585F656B72EA
:100A0600787F858C91989EA4A9AEB3B8BCC0C4C8A3
:100A1600CBCED1D4D6D9DBDDDFE0E2E4E5E6E7E90B
:100A2600EAEBECEDEEEEEFF0F0F1F2F2F3F31F2469
:100A3600292F343B42484F555B62696F757C82892A
:100A46008F959BA1A7ACB1B6BABFC2C6CACDD0D34B
:100A5600D5D8DADCDEE0E1E3E4E6E7E8E9EAEBEC68
:100A6600EDEEEFEFF0F1F1F2F3F3F421262C31374E
:100A76003E454C52585F666D737980868D93999F7B
:100A8600A5AAAFB4B8BDC1C5C8CCCFD2D4D7D9DB1F
:100A9600DDDFE1E3E4E5E7E8E9EAEBECEDEEEEEFD6
:100AA600F0F1F1F2F2F3F3F423292E343A41484FF0
:100AB600565C636A71777E848B91979DA2A8ADB2CE
:100AC600B7BBBFC3C7CACED1D4D6D8DBDDDFE0E221
:100AD600E4E5E6E7E9EAEBECECEDEEEFF0F0F1F257
:100AE600F2F3F3F4F4262C31383E454C5359606743
:100AF6006E757B82888F959BA1A6ABB0B5BABEC238
:100B0600C6C9CDD0D3D5D8DADCDEE0E2E3E5E6E748
:100B1600E8E9EAEBECEDEEEFEFF0F1F1F2F2F3F3E8
:100B2600F4F4FF01DDFF021AFF0257FF0294FF02F1
:100B3600D1FF030EFF034BFF0388FF03C5FF04022B
:100B4600FF043FFF047CFF04B9FF04F6FF0533FFF3
:100B56000570FF05ADFF05EAFF0627FF0664FF06E1
:100B6600A1FF06DEFF071BFF0758FF0795FF07D209
:100B7600FF080FFF084CFF0889FF08C6FF0903FF9F
:100B86000940FF097DFF09BAFF09F7FF0A34FF0A8A
:070B960071FF0AAEFF0AEB3C
:1023D50042012F000041013100410132FF4101332B
:0E23E500004201340000410136004101370082
:1024D100EF540FFFE59C54F04FF59C439C40E59C65
:0624E10030E4FBAF9F2276
:10251000EFD394AC40057818762D22EF9000B69357
:042520007818F6220F
:101DD7007F011224D1900131E0FEEFD39E4002EF44
:101DE700F0900132E0FEEFC39E5002EFF090013019
:101DF700E02FF090012FE03400F0900133E004F081
:101E0700E0C3940A4052900131E0FF900130E09F17
:101E1700FF90012FE09400FE900132E0FDC3EF9D9B
:101E2700FFEE940090012FF0A3EFF090012FE0FE5A
:101E3700A3E07803CEC313CE13D8F9FF90012FEE9A
:101E4700F0A3EFF0122510E4900133F090012FF08A
:081E5700A3F0A3F0A374FFF057
:011E5F002260
:051EE100900149E0FF43
:101EE600EDB4051090014C74FFF0A37401F0A374D7
:101EF60063F08037EDB42D1090014C74FFF0A3749D
:101F060001F0A374A0F08023ED75F003A42416F568
:101F160082E4340BF583E493F9740193FA74029323
:101F260090014CC9F0A3EAF0A3E9F0E4FE90014C5D
:101F3600E0FBA3E0FAA3E0F98E82758300120D623E
:0F1F4600FDEFC39D40050EEEB43CE2EE241EFFFE
:011F55002269
:0515DD00900149EFF050
:1015E2007818E6FCD3648094855007E0FF7D0502FD
:1015F20016D3C3EC648094AD400A900149E0FF7DAC
:101602002D0216D3C37818E66480948650557D0661
:10161200121EE190014AEFF07D05121EE190014B8E
:10162200EFF090014AE0FDC3EF9DFDE49400FCE47D
:10163200120CA8C004C005C006C0077818E6FF3324
:1016420095E0FEC374069FFDE49EFC120CA8D00335
:10165200D002D001D000120B9D120CE190014AE0A1
:101662002F8066D37818E6648094AC900149E0FF3D
:10167200405B7D2C121EE690014AEFF0900149E09A
:10168200FF7D2D121EE690014BEFF090014AE0C360
:101692009FFDE49400FCE4120CA8C004C005C0063F
:1016A200C0077818E6FF3395E0FEEF24D4FDEE3450
:1016B200FFFC120CA8D003D002D001D000120B9D67
:1016C200120CE190014AE0C39F7817F6227818E6DF
:0816D200FD121EE67817A607C1
:0116DA0022ED
:101B75007816E6FF900135E02FF0900134E034004F
:101B8500F0900136E004F0E0C394085003021C1401
:101B9500900134E0FEA3E07803CEC313CE13D8F949
:101BA500F0EE900134F0900137E004F0E0C39408C2
:101BB5004004E4F0D20D900134A3E0FD900137E03C
:101BC5002438F582E43401F583EDF0300D29E4FF86
:101BD500FEFC74382CF582E43401F583E02FFFE434
:101BE5003EFE0CECB408EBEF7803CEC313CE13D84E
:101BF500F9900148F08005900148EDF0900148E02A
:0F1C0500FF1215DDE4900136F0900134F0A3F0EA
:011C140022AD
:10256F007F011224D11225107F021224D10215DD12
:1025240090012C7407F0A37453F0C205E4900126C3
:04253400F0A3F022FE
:1021C500900126E0FCA3E0FDD39432EC940050048A
:1021D5007F018036D3ED9464EC940050047F028037
:1021E50029D3ED9496EC940050047F03801CD3ED25
:1021F50094C8EC940050047F04800FD3ED942CEC2C
:0A220500940150047F0580027F065B
:01220F0022AC
:101A1C0090012CE07002A3E0602590012DE024FFE2
:101A2C00F090012CE034FFF0E07002A3E070121291
:101A3C0021C590012EEFF090012AF0A3F08002D284
:101A4C000530067890011EE0FFA3E0A3CFF0A3EFD2
:101A5C00F090011CE0FFA3E0A3CFF0A3EFF0900106
:101A6C001AE0FFA3E0A3CFF0A3EFF0900128E0FF72
:101A7C00A3E090011ACFF0A3EFF0C206E490012688
:101A8C00F0A3F0FFEF25E0241AF582E43401F5838E
:101A9C00E0FCA3E0FD900127E02DF0900126E03C56
:101AAC00F00FEFB404DE900126E0FEA3E07805CE43
:0C1ABC00C313CE13D8F9F0EE900126F011
:011AC80022FB
:1019620020050BE4900122F0A3F0A3021A18122121
:10197200C590012BE0FEEFD39E400EE4900124F0CF
:10198200A3F090012EEFF08038EFC39E5039900102
:1019920025E004F07006900124E004F0D3900125C4
:1019A200E09468900124E0648094804021E4F0A3F4
:1019B200F090012EE0D394014003E014F090012E48
:1019C200E090012BF08007E4900124F0A3F0900155
:1019D2002AE0FF90012EE0FED39F401AE4900123FB
:1019E200F0900122E004F0E0D39468402CE4F090FF
:1019F200012AE004F022EEC39F5017E4900122F086
:101A0200A3E004F0E094D04010E4F090012AE01446
:091A1200F022E4900122F0A3F09F
:011A1B0022A8
:0A25B600C200E4900146F0A3F022F9
:10241900D200EF7802C333CE33CED8F9FF7C007DEA
:0D24290078120DB1900146EEF0A3EFF02205
:100E1A00900160E0FEA3E0240CF582E43EF58374C1
:100E2A000193FA740293F9120E1430000B900146E2
:100E3A00E0FAA3E0FB4A700CE4F5BFF5BE9001446A
:100E4A00F0A3F022200128900145E02414F090013B
:100E5A0044E03400F0D3A3E09420900144E09403EA
:100E6A005003020FA27403F0A37420F0020FA22011
:100E7A000203020FA2900140E0FEA3E0FFC390012B
:100E8A0043E09F900142E09E400BA3E09FFF900148
:100E9A0042E09E8014900142E0FEA3E0FFC390016D
:100EAA0041E09FFF900140E09E90014AF0A3EFF0DD
:100EBA00C3900143E09B900142E09A406A90014648
:100ECA00E0FEA3E0FF900143E09FFF900142E09E15
:100EDA00900148F0A3EFF0E0C4F8540FC868FF90FF
:100EEA000148E0C454F048FE90014BE02401FD9013
:100EFA00014AE03400FC120DB190014CEEF0A3EF70
:100F0A00F0D3900145E09F900144E09E5003020F08
:100F1A00A090014CE0FEA3E0FF900145E09FF09015
:100F2A000144E09EF0806F900142E0FEA3E0FFC31F
:100F3A00900147E09FFF900146E09E900148F0A390
:100F4A00EFF0E0C4F8540FC868FF900148E0C454B9
:100F5A00F048FE90014BE02401FD90014AE0340084
:100F6A00FC120DB190014CEEF0A3EFF0C374A09FF8
:100F7A00FF740F9EFEC3900145E09F900144E09EDE
:100F8A00501490014CE0FEA3E0FF900145E02FF0E1
:100F9A00900144E03EF0C202900144E0FCA3E0FD6F
:100FAA00ECF5BF8DBE900142E0FFA3E0900140CF77
:040FBA00F0A3EFF0C1
:010FBE002210
:0E258E00900034E4120D8F900033E4020D8FA4
:1024E700900034120D62FF900033120D62B507039E
:0524F700D38001C322A7
:1022DC0090014CEBF0A3EAF0A3E9F090014CE0FB89
:1022EC00A3E0FAA3E0F9900034120D622401FFE49C
:1022FC0033FE7C007D33120DB1AF05900033120D0F
:09230C0062B50503D38001C32270
:1024A100900034120D622433FF900033120D62FE4E
:0A24B100C3EF9E75F03384AFF022F4
:101F560090014BEDF0900148EBF0A3EAF0A3E9F015
:101F66001222DC404690014BE0FF900148E0FBA3C3
:101F7600E0FAA3E0F9900034120D62F58275830051
:101F8600EF120D8F900034120D622401FFE433FE30
:101F96007C007D33120DB1AF05900148E0FBA3E054
:101FA600FAA3E0F9900034ED120D8F90014BE0FF9B
:011FB6002208
:0B207500900148EBF0A3EAF0A3E9F0B3
:10208000E4A3F01224E74044900148E0FBA3E0FA07
:10209000A3E0F9900033120D62F582758300120DF2
:1020A0006290014BF0900033120D622401FFE43383
:1020B000FE7C007D33120DB1AF05900148E0FBA31B
:1020C000E0FAA3E0F9900033ED120D8F90014BE0A0
:0120D000FF10
:0120D10022EC
:102210000101FF00220201FF006A0301FF00A20486
:1022200001FF25F70501FF25F80601FF25F9070144
:10223000FF25FA080CFF25FB0901FF25FC0A01FF19
:1022400025FD0B06FF25FE0C01FF25FF0D01FF26D6
:0B22500000F701FF2601FF06FF260239
:10237B0090006FE0FBA3E0FAA3E0F97D01121F567A
:10238B00900163E02FF090006FE0FBA3E0FAA3E075
:0F239B00F97D02121F56900163E02FF002002619
:0100220022BB
:01006A002273
:0100A200223B
:0125F70022C1
:0125F80022C0
:0125F90022BF
:0125FA0022BE
:0125FB0022BD
:0125FC0022BC
:0125FD0022BB
:0125FE0022BA
:0125FF0022B9
:0126000022B7
:0126010022B6
:0126020022B5
:0825DA00D20EE490015AF02238
:100FBF0090006CE0FBA3E0FAA3E0F9900034120D6F
:100FCF0062FF900033120D626F7003021151900097
:100FDF0033120D62F582758300120D62900148F095
:100FEF00900033120D622401FFE433FE7C007D3349
:100FFF00120DB1AF0590006CE0FBA3E0FAA3E0F98E
:10100F00900033ED120D8F300E1E900148E0B4F1B9
:10101F001490015AE004F0E064027094C20EF09054
:10102F000157F0808B021149900148E0FF90015A5F
:10103F00E02472F582E43400F583EFF0900157E07D
:10104F002FF090015AE004F0E0FFB4010B90007212
:10105F00E0900159F0020FBFEF640260030210F934
:10106F00900159E0FFD39400402AEFD3940D502400
:10107F00E075F005A4240CF582E43422F583E493A3
:10108F00900158F0EF75F005A4240DF582E4342299
:10109F00F5838026900159E0FFB4F70E902252E4B9
:1010AF0093900158F09022538010EFB4FF239022B9
:1010BF0057E493900158F0902258E493F9740193F8
:1010CF00FA740293900149C9F0A3EAF0A3E9F08002
:1010DF0002800F900073E0FF900158E06F700302E1
:1010EF000FBFD20EE490015AF022900158E0240471
:1010FF00FFE433FE90015AE0C39FEE6480F87480E2
:10110F00985003020FBF900158E0FF2474F582E45A
:10111F003400F583E0FE2EFE74752FF582E4340063
:10112F00F583E02EFF900157E0B5070C900149A31E
:10113F00E0FAA3E0F9120E14D20EE490015AF00275
:02114F000FBFD0
:01115100227B
:10006E007B017A00790090006CEBF0A3EAF0A3E933
:10007E00F012258E7B017A00793590006FEBF0A39C
:10008E00EAF0A3E9F012258EE490006AF0C207A30D
:03009E00F0C208A5
:0100A100223C
:1000260020084090006FE0FBA3E0FAA3E0F9122459
:10003600A1EFC39401500122EFB4011290006FE0CA
:10004600FBA3E0FAA3E0F91220758FF58012900069
:100056006FE0FBA3E0FAA3E0F91220758FF5D20852
:0300660043EAC0AA
:010069002274
:0925C900300705120FBFC2072202
:10245100FF2603FF2603FF2603FF2603FF2603FFB4
:0B2461002603FF2603FF2603FF2603CF
:0523F3004201602451CD
:0126030022B4
:1020D200900148EEF0A3EFF0300A1A900160E0FEA2
:1020E200A3E02418F582E43EF583740193FA7402A6
:1020F20093F9120E14900148E0FFA3E0900160CF23
:10210200F0A3EFF030091A900160E0FEA3E024157D
:10211200F582E43EF583740193FA740293F9120E88
:02212200142285
:10246C00FF2604FF16DBFF2605FF2606FF2607FFC7
:0B247C002348FF2608FF2609FF260A60
:0126040022B3
:1016DB001223F99000E7E0440FF09000E6E044F0AD
:1016EB00F0900106E04420F090010FE04438F090B8
:1016FB0000E2E04401F09000E7E04470F090010A52
:10170B00E04403F090010FE04444F09000FFE0440C
:10171B0001F09000FBE0440EF09000FAE044C0F0C2
:10172B00A3E04401F09000FAE04438F04407F09055
:10173B0000FFE04470F0440EF0900112E04402F020
:10174B00A3E04420F0900117E04418F0900102E070
:10175B004440F0900107E04420F0900103E0444046
:10176B00F09000FBE04410F09000FEE04480F04469
:10177B0003F0900112E04401F0900117E04440F0B7
:10178B004420F04404F04402F04401F07818E6FFE2
:10179B00121FB77817E6FF122016C209C20A7D1E68
:1017AB007F0C1217D890015EE0FEA3E0FF1213DD51
:1017BB009000EEE04408F09000F2E04440F090001E
:0D17CB00F7E04402F0900116E044C0F02267
:0126050022B2
:0126060022B1
:0126070022B0
:1023480090006FE0FBA3E0FAA3E0F990015EE0FDE6
:10235800121F5690006FE0FBA3E0FAA3E0F990018A
:102368005EA3E0FD121F561200267B0F7D0A7F0137
:0323780002243606
:0126080022AF
:0126090022AE
:01260A0022AD
:100B9D00EC4D6011E8497017ED33EC3304600DE452
:100BAD00FCFFFEFD22E933E8330470F8020D4D120F
:100BBD000D1858046009E4CC248150062850090210
:100BCD000D57284003020D54C0E0EB4A7044B98024
:100BDD0006D0E0FB020D43EF4E701CBD8008EBFF0D
:100BED00EAFEE9FD80EBE98DF0A4FEE5F0020C864E
:100BFD00E9CDF9EAFEEBFFEF89F0A4FCE5F0CE8933
:100C0D00F0A42EFFE435F0CD89F0A42DFEE435F0EF
:100C1D008067EF4E7005BD80D780C3EF8BF0A4AC1D
:100C2D00F0EE8BF0A42CFCE435F0F8EF8AF0A42C58
:100C3D00E5F038FCE433CB8DF0A42CFCE5F03BF86B
:100C4D00EE8AF0A42CFCE5F038F8E433CF89F0A45B
:100C5D002CFCE5F038CF3400CE89F0A42FFFE5F061
:100C6D003EFEE433C98DF0A42EFEE5F039CD8AF0B9
:100C7D00A42FFFE5F03EFEE43DFD33D0E0FB500731
:100C8D000BBB000F020D57EC2CFCEF33FFEE33FEC8
:060C9D00ED33FD020D2FF6
:100CA30075F020800E75F010800575F0087D007ECC
:100CB300007F003392D530D503120E06EC3340107B
:100CC300EF33FFEE33FEED33FDEC33FCD5F0ED22D5
:0E0CD300E5F0247EA2D513CC92E7CDCEFF2211
:100CE100EDD2E7CD33EC3392D524814006E4FFFE0B
:100CF100FDFC22FCE4CFCECDCC24E0501174FF806A
:100D0100EDC3CC13CCCD13CDCE13CECF13CF047006
:070D1100F030D5DE020E06F2
:100D1800E9D2E7C933E833F892D5EDD2E7CD33EC21
:070D280033FC5002B2D5229A
:100D2F00EC30E7100FBF000C0EBE00080DBD000425
:100D3F000BEB6014A2D5EB13FCED92E7FD2274FFD1
:100D4F00FCFDFEFF22E480F8A2D574FF13FC7D802A
:030D5F00E480EF3E
:101C2F000218A6E493A3F8E493A34003F68001F20D
:101C3F0008DFF48029E493A3F85407240CC8C333B6
:101C4F00C4540F4420C8834004F456800146F6DF85
:101C5F00E4800B01020408102040809023D5E47E1D
:101C6F00019360BCA3FF543F30E509541FFEE4937A
:101C7F00A360010ECF54C025E060A840B8E493A341
:101C8F00FAE493A3F8E493A3C8C582C8CAC583CA6C
:101C9F00F0A3C8C582C8CAC583CADFE9DEE780BE24
:0123F80000E4
:100D6200BB010CE58229F582E5833AF583E0225046
:100D720006E92582F8E622BBFE06E92582F8E22290
:0D0D8200E58229F582E5833AF583E49322AA
:100D8F00F8BB010DE58229F582E5833AF583E8F09A
:100D9F00225006E92582C8F622BBFE05E92582C846
:020DAF00F2222E
:100DB100BC000BBE0029EF8DF084FFADF022E4CC26
:100DC100F875F008EF2FFFEE33FEEC33FCEE9DECEF
:100DD100984005FCEE9DFE0FD5F0E9E4CEFD22ED35
:100DE100F8F5F0EE8420D21CFEADF075F008EF2F7F
:100DF100FFED33FD4007985006D5F0F222C398FD70
:050E01000FD5F0EA220C
:0E0E0600C3E49FFFE49EFEE49DFDE49CFC22FD
:060E14008A838982E47369
:00000001FF
