:03001B00020E478B
:100E4700C0E0C0F0C083C082C0D075D000C000C071
:0D0E570001C002C003C004C005C006C007F2
:100E640090006A7404F090006CE0FBA3E0FAA3E045
:100E7400F990003412031BF582758300E5F5120323
:100E84004890003412031B2401FFE433FE7C007DF0
:100E94003312036AAF0590006CE0FBA3E0FAA3E011
:100EA400F9900034ED12034890003412031B2433EC
:100EB400FFE433FE90003312031BFDC3EF9DFFEEEE
:100EC4009400FE7C007D3312036AAF05EFD3941FB8
:040ED4004002D20204
:100ED800D007D006D005D004D003D002D001D0006E
:0B0EE800D0D0D082D083D0F0D0E03218
:030023000210D3F5
:1010D300C0E0C0F0C083C082C0D075D000C000C0E3
:1010E30001C002C003C004C005C006C00790006F62
:1010F300E0FBA3E0FAA3E0F990003312031BF582AF
:1011030075830012031BF5F590003312031B2401B2
:10111300FFE433FE7C007D3312036AAF0590006F5A
:10112300E0FBA3E0FAA3E0F9900033ED120348904B
:10113300003412031BFF90003312031BB50705C2D3
:101143000353EA3FD007D006D005D004D003D00222
:0F115300D001D000D0D0D082D083D0F0D0E03205
:0300A3000215261D
:08152600C0E0C083C082C0D008
:10152E00B201900142E004F0E0C394024008E4F0FE
:10153E00900144E004F0438D20E58830E116758774
:10154E0003000000000000000053ABEF53A8F75358
:07155E00A8EF800343AB106E
:09156500D0D0D082D083D0E03256
:0300B30002070D34
:10070D00C0E0C083C082C0D075D000C000C001C0A1
:01071D0007D4
:10071E00E59030E4097810E64402F60207D5781029
:10072E00E620E1030207D554FDF64401F67809E60A
:10073E00FF7025C3780BE6946A18E6940050030206
:10074E0007D5187601780C76007810E654DFF67827
:10075E000D7600087600806FEF6401704C780EE61F
:10076E0025E0790EF718E63319F7C3780BE6940FE8
:10077E0018E694004006780EE64401F6780A7600F4
:10078E000876000806E6C39420403C08E6FF08E61B
:10079E0090014BCFF0A3EFF0780976027810E64483
:1007AE0010F64408F6D207801E7809E6B40218C384
:1007BE00780BE694CD18E69404400C187600781069
:1007CE00E654F7F654FEF67810E6FF30E028780B84
:1007DE0006E618700106C3780BE694CD18E694046D
:1007EE0040147600087600EF54FE7810F6780976FD
:1007FE000054F77810F6780F06E6D394045006C22C
:10080E0093D2928012780FE6D39408500AD293C2F4
:10081E0092E6B408027600780806E6C394324016D3
:10082E0076009001437401F090006AE06008E014D5
:06083E00F0E07002D2029E
:0F084400D007D001D000D0D0D082D083D0E03206
:03000000021039B2
:1010390078FFE4F6D8FD90001B7FE57E03E4F0A37A
:0A104900DFFCDEFA75812102108E33
:100EF3001216C412181D12162E12189E12183F90A5
:100F0300014F748CF07E177F69D204C2051213E877
:100F13007B0F7D0A7F01121733438D2012188C78C3
:100F230013E6D394194014780FE69406400D7F021C
:100F33001217B87814A607E47813F6900143E0601B
:100F4300D8E4F030071CC20790014DE0FEA3E02473
:100F53000FF582E43EF583740193FA740293F91258
:100F630003CD781106080608067811E624FE60070B
:100F73000424FC500B80051215B28004E47811F6AA
:100F8300781206E6D3940F4090E4F612166212111B
:060F930062120F99808339
:0718A600759CA0E4F59D22F2
:0F184F00EF540FFFE59C54F04FF59C439C402253
:0D00A600758B66438B08538B7F43AB102294
:10180B00EF6007E5974401FF8005E59754FEFF8FD6
:02181B00972212
:0718AD00E4F597758F3E2260
:08009B00E4F59AF599F59B22AA
:0A18790075B28EE4F5B443B201220B
:1000030075BB2075BAC075BF0775BECF75BD0F75BB
:06001300BC9F43BB8022EC
:10182F0075EA0275E90643EAECE4F5EB75F3672216
:04001E00438D2022CC
:09188300758E88758DC002001EEF
:0D186C0075968875890175898143AB04224A
:0718B40075C829E4F58A2242
:10143A0075A1C375AC20E4F591F5DEF58075B1FCB4
:10144A00F5ADF592F5DFF58875B9CD75AE10F59362
:10145A00F59075C1FFF5AFF59875C9FF75A304F549
:10146A0094F5A075D1D1F595F5B0F5D375D252F5AD
:10147A00D575D4F3F5D775D603F5EEF5EF75FF28D4
:01148A00223F
:1016C40075D88353A87F12143A1218B41218A612AC
:1016D40000A61218AD12009B1218791200031218FA
:0B16E4002F12188312186C43A88022FC
:10178400E4FEEF30E004D2A28002C2A2D2A1EFC3F1
:0917940013FFC2A10EEEB408E936
:01179D002229
:0B148B0090012BEBF0A3EAF0A3E9F0C6
:10149600C2A07F08121784D2A0C2A090012FE044F8
:1014A600C0FF121784E4FCECC39D501A90012BE098
:1014B600FBA3E0FAA3E0F98C8275830012031BFFFD
:1014C6001217840C80E1D2A0C2A090014FE0FF1257
:0414D6001784D2A005
:0114DA0022EF
:100853001F0C1B1E0C16171C1F1E80004040C0C01F
:10086300C000C0C01F0C1B1E0C16171C1F1E40000F
:1008730020206060600060603F18363C192D2F38DF
:100883003F3D000080808080800080803F18363CA0
:10089300192D2F383F3D000040404040400040406C
:1008A3007F3C737E3C4E4F7C7F7EE00090107070E7
:1008B300F000F070070307070304040707077F60CE
:1008C3001C7063737F607F73000080808080800072
:1008D30080803F1E393F1E27273E3F3F7800640438
:1008E3001C1C7C007C1C01000101000101010101B1
:1008F300FFF0CEF8F1393FF0FFF9400020206060AF
:10090300600060601F0F1C1F0F13131F1F1F00F8D1
:1009130000E4841C9CFC00FC9C040F070E0F0709D9
:10092300090F0F0F007E40396147677F407F6701E2
:100933000301030301020203030300FF609CF0E3CE
:10094300737FE0FFF3000000404040404000404020
:10095300401F0F1C1F0F13131F1F1F00F800E484F9
:070963001C9CFC00FC9C043D
:1017E300E4FE74DA2EF582E43400F583EFF00EEEB6
:0317F300B440EF10
:0117F60022D0
:101713009000DA74FFF0A3F0A3F09000DEF0A3F0E2
:10172300A3F09000E2E044FEF0A374FFF0A3F022E4
:1011EB009000D8E004F0E0C39F400EE4F0A3E004CD
:1011FB00F0E0D394084002E4F09000FFE04401F0EB
:10120B009000D9E0B40900505290121BF8282873B3
:10121B0002125E02125E02125202124B02124402C0
:10122B00123D02123602126B02126B9000FFE04469
:10123B000EF09000FFE04470F09000FAE04407F0ED
:10124B009000FAE04438F09000FAE044C0F0A3E0DC
:10125B004401F09000FBE0440EF022E49000D9F042
:01126B002260
:1012CD00EFD3946340027F63EF75F00A84FDEF75F1
:1012DD00F00A84ACF0ED6024900107E0FFED90087A
:1012ED005393FEEF4E900107F0900106E0FFAE051F
:1012FD00EE90085D93FEEF4E900106F0900106E032
:10130D00FFEC90086793FEEF4E900106F090010BF5
:0E131D00E0FFEC90087193FEEF4E90010BF094
:01132B00229F
:10132C00EFD3946340027F63EF75F00A84FDEF7591
:10133C00F00A84ACF0ED6024900103E0FFED90081E
:10134C007B93FEEF4E900103F0900102E0FFAE059F
:10135C00EE90088593FEEF4E900102F0900102E0B2
:10136C00FFEC90088F93FEEF4E900102F090010776
:0E137C00E0FFEC90089993FEEF4E900107F011
:01138A002240
:040A7C00AB07AA0614
:100A8000D3EB940FEA942740047A277B0F7C037DF5
:100A9000E8AF03AE0212036A90012BEFF07C007DF9
:100AA00064AF03AE0212036A7C007D0A12036AA3DC
:100AB000EDF07C007D0AAF03AE0212036A7C007D7C
:100AC0000A12036AA3EDF0AE02AF037C007D0A12A6
:100AD000036AAB059000EFE0FE90012BE0FD90086B
:100AE000A393FCEE4C9000EFF09000EEE0FFED9051
:100AF00008AD93FEEF4EFF9000EEF090012CE0FE6B
:100B00009008B7934F9000EEF09000F3E0FFEE9066
:100B100008C193FEEF4E9000F3F09000F2E0FF90DA
:100B2000012CE09008CB93FEEF4EFF9000F2F09086
:100B3000012DE0FE9008D5934F9000F2F09000F761
:100B4000E0FFEE9008DF93FEEF4EFF9000F7F0EB32
:100B50009008E9934F9000F7F09000F6E0FFEB90DB
:100B600008F393FEEF4E9000F6F09000FBE0FFAE2E
:0D0B700003EE9008FD93FEEF4E9000FBF0A9
:010B7D002255
:100D7900EF75F00A84F9EF75F00A84AEF0ED75F0BD
:100D89000A84FCED75F00A84ABF0EFD394184004A3
:100D9900790A7E0AEDD3943C40047C0A7B0A30042C
:100DA9000330014490010BE0FFE990090793FDEF3F
:100DB9004D90010BF090010AE0FFE990091293FDB3
:100DC900EF4D90010AF09000E6E0FFEE90091D93C7
:100DD900FDEF4D9000E6F09000EBE0FFEE90092862
:100DE90093FEEF4E9000EBF030050330014F900178
:100DF9000FE0FFEC90093393FEEF4E90010FF09056
:100E0900010EE0FFEC90093E93FEEF4E90010EF0CB
:100E1900900113E0FFEC90094993FEEF4EFF90011A
:100E290013F0EB900954934F900113F0900112E0E5
:0D0E3900FFEB90095F93FEEF4E900112F069
:010E46002289
:040B7E00AB07AA0611
:100B82007C037DE812036A900145EFF07C007D64EE
:100B9200AF03AE0212036A7C007D0A12036AA3ED60
:100BA200F07C007D0AAF03AE0212036A7C007D0A6C
:100BB20012036AA3EDF07C007D0AAF03AE021203BA
:100BC2006AA905D3EB940FEA9427400B9001457470
:100BD2000AF0A3F0A3F0F990010BE0FE900145E0CA
:100BE200FD90090793FCEE4C90010BF090010AE096
:100BF200FFED90091293FEEF4E90010AF09000E68D
:100C0200E0FF900146E0FE90091D93FDEF4D90003C
:100C1200E6F09000EBE0FFEE90092893FEEF4E9095
:100C220000EBF090010FE0FF900147E0FE900933E6
:100C320093FDEF4D90010FF090010EE0FFEE900951
:100C42003E93FEEF4E90010EF0900113E0FF9001F3
:100C520047E090094993FEEF4EFF900113F0E990AF
:100C62000954934F900113F0900112E0FFE99009AB
:090C72005F93FEEF4E900112F0B9
:010C7B002256
:10166200E4FF1217E3E4900119F090014DE0FEA3AC
:10167200E0F5828E83A3A3A3740193FA740293F913
:101682001203CD7B017A0079DAE490012FF07D3FDD
:0316920002148BB4
:10181D00C206E4900132F0900135F0900133F0A34F
:02182D00F022A7
:10173300EBD39D5003ED04FB900132EFF0900135A4
:0B174300EDF0900133EBF0E4A3F02286
:1015B200900132E0603A900134E004F0A3E0FF9041
:1015C2000134E0FEC39F5009200603439701D2066F
:1015D20022900133E0FFEEC39F5009300603539778
:1015E200FEC20622900132E014F0E4900134F022AF
:0315F200C206220C
:1003D300ECECECECECECECECECECECECECECECEC5A
:1003E300ECECECECECECECECECECECECECECECED49
:1003F300EDEEEFEFF0F1F1F2F2F3F4F4F5F6F6F6D9
:10040300EDEDF8F8F9F9FAFAFBFBFCFCFDFDFEFE55
:10041300FFFF0000010101020203030404040505B8
:10042300060607070708080909090A0A0B0B0B0C3C
:100433000C0D0D0D0E0E0F0F0F10101111111212C6
:100443001313131414141515161616171718181852
:1004530019191A1A1B1B1B1C1C1D1D1D1E1E1F1FD9
:10046300202020212122222323242424252526265B
:100473002727282829292A2A2B2B2C2C2D01010256
:10048300020303040405060708090A0C0D0F1113E0
:1004930015171A1D2023272A2E33373C40454A4F70
:1004A300555A5F656A70757B80868B90969BA0A575
:1004B300A9AEB2B7BBBFC3C6CACD292F353B42498C
:1004C30050575E656C727980878D93999FA5AAAF0B
:1004D300B4B8BDC1C5C8CCCFD2D4D7D9DCDEE0E136
:1004E300E3E4E6E7E8E9EAEBECEDEEEEEFF0F0F15A
:1004F300F2F2F3F3F4F4F508090B0D0F1114171AC4
:100503001D2125292E33373C41474D53595F666DD5
:10051300737A81888E94999FA4A8ADB2B6BABEC1EE
:10052300C5C9CCCFD2D5D7DADCDEE0E2E4E5E7E833
:10053300EAEBECED090A0C0E101316191C1F232706
:100543002C31363A40454B51575D646A71787E854C
:100553008C92989DA3A7ACB1B5B9BDC0C4C7CBCE8F
:10056300D1D4D6D9DBDDDFE1E3E5E6E8E9EAEBED7B
:07057300EDFF04FAFF05375C
:1016EF0042011A000041011C0041011DFF41011E72
:0E16FF000042011F00004101210041012200B4
:1017B800EF540FFFE59C54F04FF59C439C40E59C8B
:0617C80030E4FBAF9F229C
:1017F700EFD394AC40057816762D22EF9003D39360
:041807007816F62237
:101162007F011217B890011CE0FEEFD39E4002EF00
:10117200F090011DE0FEEFC39E5002EFF090011BC4
:10118200E02FF090011AE03400F090011EE004F02C
:10119200E0C3940A405290011CE0FF90011BE09FC3
:1011A200FF90011AE09400FE90011DE0FDC3EF9D47
:1011B200FFEE940090011AF0A3EFF090011AE0FE06
:1011C200A3E07803CEC313CE13D8F9FF90011AEE31
:1011D200F0A3EFF01217F7E490011EF090011AF05D
:0811E200A3F0A3F0A374FFF0D9
:0111EA0022E2
:0500260090012CE0FF39
:10002B00EDB4051090012F74FFF0A37404F0A374CA
:10003B0080F08037EDB42D1090012F74FFF0A37476
:10004B0004F0A374BDF08023ED75F003A42429F50F
:10005B0082E43405F583E493F9740193FA74029303
:10006B0090012FC9F0A3EAF0A3E9F0E4FE90012F71
:10007B00E0FBA3E0FAA3E0F98E8275830012031B69
:0F008B00FDEFC39D40050EEEB43CE2EE241EFFD8
:01009A002243
:05096A0090012CEFF0EC
:10096F007816E6FCD3648094855007E0FF7D05027E
:10097F000A74C3EC648094AD400A90012CE0FF7DB3
:10098F002D020A74C37816E664809499505F7D191E
:10099F0012002690012DEFF07D0512002690012EFA
:1009AF00EFF090012DE0FDC3EF9DFDE49400FCE41A
:1009BF00120261C004C005C006C0077816E6FF33F7
:1009CF0095E0FEC374199FFDE49EFC120261D003F3
:1009DF00D002D001D0001200B6E4FBFA79A0784122
:1009EF001201BF12029A90012DE02F8070D378165A
:1009FF00E66480949A90012CE0FF40657D1A120006
:100A0F002B90012DEFF090012CE0FF7D2D12002B8C
:100A1F0090012EEFF090012DE0C39FFDE49400FCB8
:100A2F00E4120261C004C005C006C0077816E6FFD5
:100A3F003395E0FEEF24E6FDEE34FFFC120261D0A9
:100A4F0003D002D001D0001200B6E4FBFA799878F7
:100A5F00411201BF12029A90012DE0C39F7815F643
:0C0A6F00227816E6FD12002B7815A60771
:010A7B002258
:100F99007814E6FF900120E02FF090011FE0340063
:100FA900F0900121E004F0E0C394085003021038E6
:100FB90090011FE0FEA3E07803CEC313CE13D8F946
:100FC900F0EE90011FF0900122E004F0E0C39408D4
:100FD9004004E4F0D20890011FA3E0FD900122E053
:100FE9002423F582E43401F583EDF0300829E4FF88
:100FF900FEFC74232CF582E43401F583E02FFFE431
:101009003EFE0CECB408EBEF7803CEC313CE13D835
:10101900F990012BF0800590012BEDF090012BE068
:0F102900FF12096AE4900121F090011FF0A3F07B
:011038002295
:10183F007F011217B81217F77F021217B802096A41
:0E185E00900034E4120348900033E402034883
:1017CE0090003412031BFF90003312031BB5070366
:0517DE00D38001C322CD
:1015F500900148EBF0A3EAF0A3E9F0900148E0FB85
:10160500A3E0FAA3E0F990003412031B2401FFE4E0
:1016150033FE7C007D3312036AAF0590003312035D
:091625001BB50503D38001C322AB
:10179E0090003412031B2433FF90003312031BFE00
:0A17AE00C3EF9E75F03384AFF02204
:10126C00900139EDF0900136EBF0A3EAF0A3E9F030
:10127C001215F54046900139E0FF900136E0FBA3D2
:10128C00E0FAA3E0F990003412031BF58275830099
:10129C00EF12034890003412031B2401FFE433FEC9
:1012AC007C007D3312036AAF05900136E0FBA3E0AE
:1012BC00FAA3E0F9900034ED120348900139E0FFF5
:0112CC0022FF
:0B138B0090013AEBF0A3EAF0A3E9F0B8
:10139600E4A3F01217CE404490013AE0FBA3E0FA32
:1013A600A3E0F990003312031BF582758300120344
:1013B6001B90013DF090003312031B2401FFE43320
:1013C600FE7C007D3312036AAF0590013AE0FBA371
:1013D600E0FAA3E0F9900033ED12034890013DE0F6
:0113E600FF07
:0113E70022E3
:1014DB000101FF00190201FF001A0301FF002204A2
:1014EB0001FF18BB0501FF18BC0601FF18BD070162
:1014FB00FF18BE080CFF18BF0901FF18C00A01FF37
:10150B0018C10B06FF18C20C01FF18C30D01FF1801
:0B151B00C4F701FF18C5FF06FF18C64B
:1016950090006FE0FBA3E0FAA3E0F97D0112126C64
:1016A500900150E02FF090006FE0FBA3E0FAA3E07B
:0F16B500F97D0212126C900150E02FF002156EB9
:0100190022C4
:01001A0022C3
:0100220022BB
:0118BB00220A
:0118BC002209
:0118BD002208
:0118BE002207
:0118BF002206
:0118C0002205
:0118C1002204
:0118C2002203
:0118C3002202
:0118C4002201
:0118C5002200
:0118C60022FF
:08189E00D209E4900141F0229F
:10057A0090006CE0FBA3E0FAA3E0F99000341203C8
:10058A001BFF90003312031B6F700302070C9000CD
:10059A003312031BF58275830012031B90012BF0A3
:1005AA0090003312031B2401FFE433FE7C007D33E9
:1005BA0012036AAF0590006CE0FBA3E0FAA3E0F92E
:1005CA00900033ED12034830091E90012BE0B4F17C
:1005DA0014900141E004F0E064027094C209F090C2
:1005EA00013EF0808B02070490012BE0FF9001414D
:1005FA00E02472F582E43400F583EFF090013EE0E6
:10060A002FF0900141E004F0E0FFB4010B9000727A
:10061A00E0900140F002057AEF640260030206B43A
:10062A00900140E0FFD39400402AEFD3940D502468
:10063A00E075F005A424D7F582E43414F583E49335
:10064A0090013FF0EF75F005A424D8F582E4341444
:10065A00F5838026900140E0FFB4F70E90151DE463
:10066A009390013FF090151E8010EFB4FF23901570
:10067A0022E49390013FF0901523E493F9740193D7
:10068A00FA74029390012CC9F0A3EAF0A3E9F0806E
:10069A0002800F900073E0FF90013FE06F70030249
:1006AA00057AD209E4900141F02290013FE0240446
:1006BA00FFE433FE900141E0C39FEE6480F874804A
:1006CA0098500302057A90013FE0FF2474F582E412
:1006DA003400F583E0FE2EFE74752FF582E43400B3
:1006EA00F583E02EFF90013EE0B5070C90012CA3A4
:1006FA00E0FAA3E0F91203CDD209E4900141F00235
:02070A00057A6E
:01070C0022CA
:10162E007B017A00790090006CEBF0A3EAF0A3E95D
:10163E00F012185E7B017A00793590006FEBF0A303
:10164E00EAF0A3E9F012185EE490006AF0C202A379
:03165E00F0C203D4
:011661002266
:10156E0020034090006FE0FBA3E0FAA3E0F912170E
:10157E009EEFC39401500122EFB4011290006FE070
:10158E00FBA3E0FAA3E0F912138B8FF58012900003
:10159E006FE0FBA3E0FAA3E0F912138B8FF5D203F1
:0315AE0043EAC04D
:0115B1002217
:09188C0030020512057AC20222A5
:10174E00FF18C7FF18C7FF18C7FF18C7FF18C7FF36
:0B175E0018C7FF18C7FF18C7FF18C707
:05170D0042014D174EE2
:0118C70022FE
:1013E80090012BEEF0A3EFF030051A90014DE0FECE
:1013F800A3E02418F582E43EF583740193FA74029D
:1014080093F91203CD90012BE0FFA3E090014DCF9B
:10141800F0A3EFF030041A90014DE0FEA3E024158C
:10142800F582E43EF583740193FA740293F912038A
:02143800CD22C3
:10176900FF18C8FF0C7CFF18C9FF18CAFF18CBFF68
:0B1779001895FF18CCFF18CDFF18CE0C
:0118C80022FD
:100C7C001217139000E7E0440FF09000E6E044F008
:100C8C00F0900106E04420F090010FE04438F09021
:100C9C0000E2E04401F09000E7E04470F090010ABB
:100CAC00E04403F090010FE04444F09000FFE04476
:100CBC0001F09000FBE0440EF09000FAE044C0F02C
:100CCC00A3E04401F09000FAE04438F04407F090BF
:100CDC0000FFE04470F0440EF0900112E04402F08A
:100CEC00A3E04420F0900117E04418F0900102E0DA
:100CFC004440F0900107E04420F0900103E04440B0
:100D0C00F09000FBE04410F09000FEE04480F044D2
:100D1C0003F0900112E04401F0900117E04440F020
:100D2C004420F04404F04402F04401F07816E6FF4D
:100D3C001212CD7815E6FF12132CC204C2057D1ECB
:100D4C007F0C120D7990014BE0FEA3E0FF120A7CA0
:100D5C009000EEE04408F09000F2E04440F0900087
:0D0D6C00F7E04402F0900116E044C0F022D0
:0118C90022FC
:0118CA0022FB
:0118CB0022FA
:091895007B0F7D0A7F010217336D
:0118CC0022F9
:0118CD0022F8
:0118CE0022F7
:1000B600EC4D6011E8497017ED33EC3304600DE444
:1000C600FCFFFEFD22E933E8330470F80203061252
:1000D60002D158046009E4CC248150062850090254
:1000E600031028400302030DC0E0EB4A7044B980B8
:1000F60006D0E0FB0202FCEF4E701CBD8008EBFF51
:10010600EAFEE9FD80EBE98DF0A4FEE5F002019F31
:10011600E9CDF9EAFEEBFFEF89F0A4FCE5F0CE8924
:10012600F0A42EFFE435F0CD89F0A42DFEE435F0E1
:100136008067EF4E7005BD80D780C3EF8BF0A4AC0F
:10014600F0EE8BF0A42CFCE435F0F8EF8AF0A42C4A
:10015600E5F038FCE433CB8DF0A42CFCE5F03BF85D
:10016600EE8AF0A42CFCE5F038F8E433CF89F0A44D
:100176002CFCE5F038CF3400CE89F0A42FFFE5F053
:100186003EFEE433C98DF0A42EFEE5F039CD8AF0AB
:10019600A42FFFE5F03EFEE43DFD33D0E0FB500723
:1001A6000BBB000F020310EC2CFCEF33FFEE33FE0B
:0601B600ED33FD0202E83A
:1001BC00020310EC5D046005E859047003020306A9
:1001CC001202D1580460F6EC4860F2EC7004FDFEAB
:1001DC00FF22C860DB2481C85009C3986002500616
:1001EC0002030D9850CAF582E9294B4A7005AB827F
:1001FC000202FC75F0007C1A7880C3EF9BEE9AED3E
:10020C0099400DC3EF9BFFEE9AFEED99FDE842F08D
:10021C00DC23ACF0D0E0FFD0E0FED0E0FDAB8220E0
:10022C00E7101BEB60BAEC2CFCEF33FFEE33FEED6A
:10023C0033FD0202E8E803F830E705C0F075F00082
:10024C00EF2FFFEE33FEED33FD40B830E7C280AA4E
:10025C0075F020800E75F010800575F0087D007E1D
:10026C00007F003392D530D5031203BFEC3340101E
:10027C00EF33FFEE33FEED33FDEC33FCD5F0ED2226
:0E028C00E5F0247EA2D513CC92E7CDCEFF2262
:10029A00EDD2E7CD33EC3392D524814006E4FFFE5C
:1002AA00FDFC22FCE4CFCECDCC24E0501174FF80BB
:1002BA00EDC3CC13CCCD13CDCE13CECF13CF047058
:0702CA00F030D5DE0203BF96
:1002D100E9D2E7C933E833F892D5EDD2E7CD33EC73
:0702E10033FC5002B2D522EC
:1002E800EC30E7100FBF000C0EBE00080DBD000477
:1002F8000BEB6014A2D5EB13FCED92E7FD2274FF23
:10030800FCFDFEFF22E480F8A2D574FF13FC7D807B
:03031800E480EF8F
:10105300020EF3E493A3F8E493A34003F68001F2B2
:1010630008DFF48029E493A3F85407240CC8C3339E
:10107300C4540F4420C8834004F456800146F6DF6D
:10108300E4800B01020408102040809016EFE47EF8
:10109300019360BCA3FF543F30E509541FFEE49362
:1010A300A360010ECF54C025E060A840B8E493A329
:1010B300FAE493A3F8E493A3C8C582C8CAC583CA54
:1010C300F0A3C8C582C8CAC583CADFE9DEE780BE0C
:0117120000D6
:10031B00BB010CE58229F582E5833AF583E0225097
:10032B0006E92582F8E622BBFE06E92582F8E222E1
:0D033B00E58229F582E5833AF583E49322FB
:10034800F8BB010DE58229F582E5833AF583E8F0EB
:10035800225006E92582C8F622BBFE05E92582C897
:02036800F2227F
:10036A00BC000BBE0029EF8DF084FFADF022E4CC77
:10037A00F875F008EF2FFFEE33FEEC33FCEE9DEC40
:10038A00984005FCEE9DFE0FD5F0E9E4CEFD22ED86
:10039A00F8F5F0EE8420D21CFEADF075F008EF2FD0
:1003AA00FFED33FD4007985006D5F0F222C398FDC1
:0503BA000FD5F0EA225E
:0E03BF00C3E49FFFE49EFEE49DFDE49CFC224F
:0603CD008A838982E473BB
:00000001FF
