:03001B0002077168
:10077100C0E0C0F0C083C082C0D075D000C000C04E
:0D07810001C002C003C004C005C006C007CF
:10078E009001C47404F09001C6E0FBA3E0FAA3E06C
:10079E00F990003412081DF582758300E5F51208F4
:1007AE004A90003412081D2401FFE433FE7C007DC4
:1007BE003312086CAF059001C6E0FBA3E0FAA3E08C
:1007CE00F9900034ED12084A90003412081D2433BB
:1007DE00FFE433FE90003312081DFDC3EF9DFFEEC4
:1007EE009400FE7C007D3312086CAF05EFD3941F8E
:0407FE004002D204DF
:10080200D007D006D005D004D003D002D001D0004A
:0B081200D0D0D082D083D0F0D0E032F4
:030023000209616E
:10096100C0E0C0F0C083C082C0D075D000C000C05C
:1009710001C002C003C004C005C006C0079001C980
:10098100E0FBA3E0FAA3E0F990003312081DF58221
:1009910075830012081DF5F590003312081D24011E
:1009A100FFE433FE7C007D3312086CAF059001C972
:1009B100E0FBA3E0FAA3E0F9900033ED12084A90BE
:1009C100003412081DFF90003312081DB50705C23F
:1009D1000553EA3FD007D006D005D004D003D0029A
:0F09E100D001D000D0D0D082D083D0F0D0E0327F
:0300A3000200193F
:0100190032B4
:0300B300020D40FB
:0D0D4000C0E0C083C082C0D075D000C000EC
:100D4D00780A06E6C3943240167600900293740139
:0F0D5D00F09001C4E06008E014F0E07002D204EE
:0B0D6C00D000D0D0D082D083D0E03285
:030000000208C72C
:1008C70078FFE4F6D8FD90001B7FE57E03E4F0A3F4
:0A08D700DFFCDEFA75812002091C27
:100CCA00120DDA120D77120EEF900294748CF04323
:100CDA008D20120EDE900293E060F4780806080672
:100CEA0018E61424FC50068000E47808F678090611
:0D0CFA00E6D3940F40D9E4F6120C8B80D2A3
:070EF700759CA0759D04220B
:0F0EA100EF540FFFE59C54F04FF59C439C40220B
:0D00A600758B66438B08538B7F43AB102294
:100E7F00EF6007E5974401FF8005E59754FEFF8F6C
:020E8F009722A8
:070EFE00E4F597758F3E2219
:080EE700E4F59AF599F59B2250
:0A0ECB0075B28EE4F5B443B20122C3
:1000030075BB2075BAC075BF0775BECF75BD0F75BB
:06001300BC9F43BB8022EC
:100E910075EA0275E90643EAECE4F5EB75F36722BE
:04001E00438D2022CC
:090ED500758E88758DC002001EA7
:0D0EBE0075968875890175898143AB042202
:070F050075C829E4F58A22FA
:100BA60075A1C375AC20E4F591F5DEF58075B1FC51
:100BB600F5ADF592F5DFF58875B9CD75AE10F593FF
:100BC600F59075C1FFF5AFF59875C9FF75A304F5E6
:100BD60094F5A075D1D1F595F5B0F5D375D252F54A
:100BE600D575D4F3F5D775D603F5EEF5EF75FF2871
:010BF60022DC
:100DDA0053A87F120BA6120F05120EF71200A612C5
:100DEA000EFE120EE7120ECB120003120E91120E15
:080DFA00D5120EBE43A88022B1
:100E2200E4FEEF30E004D2A28002C2A2D2A1EFC35C
:090E320013FFC2A10EEEB408E9A1
:010E3B002294
:0B0BF700900280EBF0A3EAF0A3E9F00D
:100C0200C2A07F08120E22D2A0C2A0900284E044A9
:100C1200C0FF120E22E4FCECC39D501A900280E049
:100C2200FBA3E0FAA3E0F98C8275830012081DFF92
:100C3200120E220C80E1D2A0C2A0900294E0FF1218
:040C42000E22D2A00C
:010C4600228B
:1000B6004A00601F0C1B1E0C16171C1F1E4A013916
:1000C60080004040C0C0C000C0C04A011B1F0C1BBE
:1000D6001E0C16171C1F1E4A00C840002020606018
:1000E600600060604A002B3F18363C192D2F383FC0
:1000F6003D4A00E7000080808080800080804A00C2
:10010600DD3F18363C192D2F383F3D4A00A9000027
:1001160040404040400040404A00D27F3C737E3C15
:100126004E4F7C7F7E4A0111E00090107070F00007
:10013600F0704A0040070307070304040707074A4D
:1001460001257F601C7063737F607F734A012F00F7
:100156000080808080800080804A00F13F1E393F09
:100166001E27273E3F3F4A0002780064041C1C7C81
:10017600007C1C4A00B301000101000101010101DC
:100186004A0017FFF0CEF8F1393FF0FFF94A002197
:10019600400020206060600060604B004A1F0F1C1A
:1001A6001F0F13131F1F1F004B00BDF800E4841C14
:1001B6009CFC00FC9C044B00FB0F070E0F07090973
:1001C6000F0F0F004B000C7E40396147677F407F61
:1001D60067014B00550301030301020203030300F9
:1001E6004B0143FF609CF0E3737FE0FFF3004B019C
:1001F6004E00004040404040004040404B01061F3A
:100206000F1C1F0F13131F1F1F004B0035F800E4B0
:08021600841C9CFC00FC9C040C
:100E6B00E4FE746A2EF582E43400F583EFF00EEEA7
:030E7B00B440EF91
:010E7E002251
:100E020090006A74FFF0A3F0A3F090006EF0A3F0DC
:100E1200A3F0900072E044FEF0A374FFF0A3F0226E
:1009F000900000E004F0E0C39F400EE4F0A3E004A8
:100A0000F0E0D394084002E4F090008FE04401F05D
:100A1000900001E0B409005052900A20F828287391
:100A2000020A63020A63020A57020A50020A4902D2
:100A30000A42020A3B020A70020A7090008FE044E8
:100A40000EF090008FE04470F090008AE04407F0D0
:100A500090008AE04438F090008AE044C0F0A3E0BF
:100A60004401F090008BE0440EF022E4900001F08D
:010A70002263
:10002600EFD3946340027F63EF75F00A84FDEF75AA
:10003600F00A84ACF0ED6030900097E0FF74602D1C
:10004600F582E43400F583E0FEEF4E900097F090E1
:100056000096E0FFAE0574392EF582E43401F5838F
:10006600E0FEEF4E900096F0900096E0FF741B2C99
:10007600F582E43401F583E0FEEF4E900096F090B1
:10008600009BE0FF74C82CF582E43400F583E0FEA3
:06009600EF4E90009BF00C
:01009C002241
:100A7100EFD3946340027F63EF75F00A84FDEF7555
:100A8100F00A84ACF0ED6030900093E0FF742B2D00
:100A9100F582E43400F583E0FEEF4E900093F09090
:100AA1000092E0FFAE0574E72EF582E43400F58391
:100AB100E0FEEF4E900092F0900092E0FF74DD2C8A
:100AC100F582E43400F583E0FEEF4E900092F09061
:100AD1000097E0FF74A92CF582E43400F583E0FE71
:060AE100EF4E900097F0BB
:010AE70022EC
:0403FB00AB07AA069C
:1003FF00D3EB940FEA942740047A277B0F7C037D7D
:10040F00E8AF03AE0212086C90028DEFF07C007D16
:10041F0064AF03AE0212086C7C007D0A12086CA355
:10042F00EDF07C007D0AAF03AE0212086C7C007DFC
:10043F000A12086CA3EDF0AE02AF037C007D0A1226
:10044F00086CAB0590007FE0FE90028DE0FD24D29A
:10045F00F582E43400F583E0FCEE4C90007FF090E1
:10046F00007EE0FF74112DF582E43401F583E0FE88
:10047F00EF4EFF90007EF090028EE0FE2440F5825A
:10048F00E43400F583E04F90007EF0900083E0FFAE
:10049F0074252EF582E43401F583E0FEEF4E9000D3
:1004AF0083F0900082E0FF90028EE0242FF582E42B
:1004BF003401F583E0FEEF4EFF900082F090028F43
:1004CF00E0FE24F1F582E43400F583E04F900082E2
:1004DF00F0900087E0FF74022EF582E43400F5837C
:1004EF00E0FEEF4EFF900087F074B32BF582E434FB
:1004FF0000F583E04F900087F0900086E0FF7417BF
:10050F002BF582E43400F583E0FEEF4E900086F089
:10051F0090008BE0FFAE0374212EF582E43400F5DA
:09052F0083E0FEEF4E90008BF01A
:0105380022A0
:10066D00EF75F00A84F9EF75F00A84AEF0ED75F0D0
:10067D000A84FCED75F00A84ABF0EFD394184004B6
:10068D00790A7E0AEDD3943C40047C0A7B0A300043
:10069D000330035C90009BE0FF744A29F582E4343B
:1006AD0000F583E0FDEF4D90009BF090009AE0FF88
:1006BD0074BD29F582E43400F583E0FDEF4D900023
:1006CD009AF0900076E0FF74FB2EF582E43400F58D
:1006DD0083E0FDEF4D900076F090007BE0FF740C11
:1006ED002EF582E43400F583E0FEEF4E90007BF0B2
:1006FD0030010330036D90009FE0FF74552CF5829F
:10070D00E43400F583E0FEEF4E90009FF090009EE4
:10071D00E0FF74432CF582E43401F583E0FEEF4EE7
:10072D0090009EF09000A3E0FF744E2CF582E4340F
:10073D0001F583E0FEEF4EFF9000A3F074062BF55C
:10074D0082E43401F583E04F9000A3F09000A2E025
:10075D00FF74352BF582E43400F583E0FEEF4E9007
:03076D0000A2F0F7
:010770002266
:04053900AB07AA065C
:10053D007C037DE812086C900280EFF07C007D64F6
:10054D00AF03AE0212086C7C007D0A12086CA3ED9D
:10055D00F07C007D0AAF03AE0212086C7C007D0AB0
:10056D0012086CA3EDF07C007D0AAF03AE021208F9
:10057D006CA905D3EB940FEA9427400B900280747D
:10058D000AF0A3F0A3F0F990009BE0FE900280E04A
:10059D00FD244AF582E43400F583E0FCEE4C900036
:1005AD009BF090009AE0FF74BD2DF582E43400F5C8
:1005BD0083E0FEEF4E90009AF0900076E0FF9002FF
:1005CD0081E0FE24FBF582E43400F583E0FDEF4D80
:1005DD00900076F090007BE0FF740C2EF582E434F1
:1005ED0000F583E0FEEF4E90007BF090009FE0FF62
:1005FD00900282E0FE2455F582E43400F583E0FD9F
:10060D00EF4D90009FF090009EE0FF74432EF58219
:10061D00E43401F583E0FEEF4E90009EF09000A3D0
:10062D00E0FF900282E0244EF582E43401F583E090
:10063D00FEEF4EFF9000A3F0740629F582E434011D
:10064D00F583E04F9000A3F09000A2E0FF743529F0
:0F065D00F582E43400F583E0FEEF4E9000A2F04A
:01066C00226B
:100C8B009000DCE004F0E0FFD394055004D2038025
:100C9B000DC203EFC3940A4005E49000DCF0E4FFBF
:100CAB00120E6BE4900159F07FD27E041205397B52
:0F0CBB00017A00796AE4900284F07D3F020BF722
:0E0EB000900034E412084A900033E402084A2D
:100E560090003412081DFF90003312081DB50703D9
:050E6600D38001C3224E
:100D0700900290EBF0A3EAF0A3E9F0900290E0FBE9
:100D1700A3E0FAA3E0F990003412081D2401FFE4D0
:100D270033FE7C007D3312086CAF05900033120848
:090D37001DB50503D38001C322A0
:100E3C0090003412081D2433FF90003312081DFE5D
:0A0E4C00C3EF9E75F03384AFF0226F
:100AE800900288EDF0900285EBF0A3EAF0A3E9F01C
:100AF800120D074046900288E0FF900285E0FBA3B4
:100B0800E0FAA3E0F990003412081DF5827583001D
:100B1800EF12084A90003412081D2401FFE433FE46
:100B28007C007D3312086CAF05900285E0FBA3E0E2
:100B3800FAA3E0F9900034ED12084A900288E0FF29
:010B4800228A
:0B0B4900900289EBF0A3EAF0A3E9F0B2
:100B5400E4A3F0120E564044900289E0FBA3E0FAAD
:100B6400A3E0F990003312081DF582758300120882
:100B74001D90028CF090003312081D2401FFE43311
:100B8400FE7C007D3312086CAF05900289E0FBA364
:100B9400E0FAA3E0F9900033ED12084A90028CE0E9
:010BA400FF51
:010BA500222D
:10021E00604B02350101FF001A0201FF00220301AB
:10022E00FF009D0401FF009E0501FF009F0601FFD8
:10023E0000A00701FF00A1080CFF00A20901FF0F9B
:10024E000C0A01FF0F0D0B06FF0F0E0C01FF0F0F17
:0F025E000D01FF0F10F701FF0F11FF06FF0F1229
:100DAB009001C9E0FBA3E0FAA3E0F97D01120AE888
:100DBB00900295E02FF09001C9E0FBA3E0FAA3E0CD
:0F0DCB00F97D02120AE8900295E02FF0020C4722
:01001A0022C3
:0100220022BB
:01009D002240
:01009E00223F
:01009F00223E
:0100A000223D
:0100A100223C
:0100A200223B
:010F0C0022C2
:010F0D0022C1
:010F0E0022C0
:010F0F0022BF
:010F100022BE
:010F110022BD
:010F120022BC
:080EEF00D206E4900234F02267
:10026E009001C6E0FBA3E0FAA3E0F9900034120877
:10027E001DFF90003312081D6F70030203FA9000E9
:10028E003312081DF58275830012081D900280F04E
:10029E0090003312081D2401FFE433FE7C007D33F1
:1002AE0012086CAF059001C6E0FBA3E0FAA3E0F9DB
:1002BE00900033ED12084A30061E900280E0B4F131
:1002CE0014900234E004F0E064027094C206F090E0
:1002DE000231F0808B0203F2900280E0FF90023434
:1002EE00E024CCF582E43401F583EFF0900231E0A6
:1002FE002FF0900234E004F0E0FFB4010B9001CC3B
:10030E00E0900233F002026EEF640260030203A279
:10031E00900233E0FFD394004029EFD3940D502385
:10032E00E075F005A42431F582E43402F583E09003
:10033E000232F0EF75F005A42432F582E43402F5B2
:10034E00838024900233E0FFB4F70D900277E090A3
:10035E000232F0900278800FEFB4FF1F90027CE023
:10036E00900232F090027DE0F9A3E0FAA3E0900251
:10037E0081C9F0A3EAF0A3E9F08002800F9001CDCD
:10038E00E0FF900232E06F700302026ED206E4903C
:10039E000234F022900232E02404FFE433FE900295
:1003AE0034E0C39FEE6480F8748098500302026EAE
:1003BE00900232E0FF24CEF582E43401F583E0FEB4
:1003CE002EFE74CF2FF582E43401F583E02EFF90DC
:1003DE000231E0B5070C900281A3E0FAA3E0F91216
:0C03EE0008C1D206E4900234F002026E56
:0103FA0022E0
:100D77007B017A01795A9001C6EBF0A3EAF0A3E967
:100D8700F0120EB07B017A01798F9001C9EBF0A3C5
:100D9700EAF0A3E9F0120EB0E49001C4F0C204A394
:030DA700F0C20592
:010DAA002226
:100C47002005409001C9E0FBA3E0FAA3E0F9120EEA
:100C57003CEFC39401500122EFB401129001C9E0A7
:100C6700FBA3E0FAA3E0F9120B498FF5801290017C
:100C7700C9E0FBA3E0FAA3E0F9120B498FF5D2050F
:030C870043EAC07D
:010C8A002247
:090EDE0030040512026EC2042268
:1008E100020CCAE493A3F8E493A34003F68001F257
:1008F10008DFF48029E493A3F85407240CC8C33318
:10090100C4540F4420C8834004F456800146F6DFE6
:10091100E4800B01020408102040809000B6E47EC0
:10092100019360BCA3FF543F30E509541FFEE493DB
:10093100A360010ECF54C025E060A840B8E493A3A2
:10094100FAE493A3F8E493A3C8C582C8CAC583CACD
:10095100F0A3C8C582C8CAC583CADFE9DEE780BE85
:01026D000090
:10081D00BB010CE58229F582E5833AF583E0225090
:10082D0006E92582F8E622BBFE06E92582F8E222DA
:0D083D00E58229F582E5833AF583E49322F4
:10084A00F8BB010DE58229F582E5833AF583E8F0E4
:10085A00225006E92582C8F622BBFE05E92582C890
:02086A00F22278
:10086C00BC000BBE0029EF8DF084FFADF022E4CC70
:10087C00F875F008EF2FFFEE33FEEC33FCEE9DEC39
:10088C00984005FCEE9DFE0FD5F0E9E4CEFD22ED7F
:10089C00F8F5F0EE8420D21CFEADF075F008EF2FC9
:1008AC00FFED33FD4007985006D5F0F222C398FDBA
:0508BC000FD5F0EA2257
:0608C1008A838982E473C2
:00000001FF
