:03001B0002267149
:10267100C0E0C0F0C083C082C0D075D000C000C02F
:0D26810001C002C003C004C005C006C007B0
:10268E0090006A7404F090006CE0FBA3E0FAA3E003
:10269E00F9900034121191F582758300E5F512114F
:1026AE00BE9000341211912401FFE433FE7C007DB4
:1026BE00331211E0AF0590006CE0FBA3E0FAA3E04B
:1026CE00F9900034ED1211BE9000341211912433A2
:1026DE00FFE433FE900033121191FDC3EF9DFFEE28
:1026EE009400FE7C007D331211E0AF05EFD3941FF2
:0426FE004002D209BB
:10270200D007D006D005D004D003D002D001D0002B
:0B271200D0D0D082D083D0F0D0E032D5
:030023000229931C
:10299300C0E0C0F0C083C082C0D075D000C000C00A
:1029A30001C002C003C004C005C006C00790006F89
:1029B300E0FBA3E0FAA3E0F9900033121191F58252
:1029C300758300121191F5F59000331211912401D2
:1029D300FFE433FE7C007D331211E0AF0590006FFE
:1029E300E0FBA3E0FAA3E0F9900033ED1211BE90EF
:1029F3000034121191FF900033121191B50705C2F3
:102A03000A53EA3FD007D006D005D004D003D00242
:0F2A1300D001D000D0D0D082D083D0F0D0E0322C
:03006B0002332637
:10332600C0E0C083C0829001C6E004F0D082D083A2
:03333600D0E032B2
:0300A3000228FA36
:1028FA00C0E0C083C082C0D075D000C004C005C08B
:03290A0006C007FD
:10290D009001C6E0FEADB37C00E42DFFEC3E9001DE
:10291D00BEF0A3EFF043B2019001C6E4F09001BE0A
:10292D00E07002A3E07004C2018011D39001BFE0FA
:10293D00940A9001BEE094004002D201D202B2048A
:10294D009001C4E004F0E0C394024008E4F090016B
:10295D00C7E004F0438D20E58830E116758703004C
:10296D000000000000000053ABEF53A8F753A8EF91
:05297D00800343AB10D4
:10298200D007D006D005D004D0D0D082D083D0E0FA
:012992003212
:0300B300021772BF
:10177200C0E0C083C082C0D075D000C000C001C02C
:0317820006C00797
:10178500E59030E4097812E64402F602183C781236
:10179500E620E10302183C54FDF64401F67809E61B
:1017A500FF7025C3780BE6946518E6940050030294
:1017B500183C187601780C76007812E654DFF67836
:1017C5000D7600087600806FEF6401704C780EE6A8
:1017D50025E0790EF718E63319F7C3780BE6940E72
:1017E50018E694004006780EE64401F6780A76007D
:1017F5000876000806E6C39420403C08E6FF08E6A4
:101805009001D7CFF0A3EFF0780976027812E6447D
:1018150010F64408F6D20E801E7809E6B40218C305
:10182500780BE6949218E69404400C18760078122A
:10183500E654F7F654FEF67812E6FF30E028780B0A
:1018450006E618700106C3780BE6949218E6940430
:1018550040147600087600EF54FE7812F678097683
:101865000054F77812F6781106E6D394045006C2B0
:1018750093D29280127811E6D39408500AD293C27B
:1018850092E6B408027600E59030E11D780FE6FE99
:1018950008E6FF4E600A900194EEF0A3EFF0D20641
:1018A500780F76000876008008781006E618700133
:1018B50006780806E6C39432401676009001C57492
:1018C50001F090006AE06008E014F0E07002D209CF
:1018D500D007D006D001D000D0D0D082D083D0E0C0
:0118E50032D0
:0300000002286073
:1028600078FFE4F6D8FD90001B7FE57E03E4F0A33B
:0A287000DFFCDEFA7581220228B5B4
:10213F001230E912334B12006E1233ED12335D126F
:10214F0033129001DB748EF0D2A37E317FFFD20B5E
:10215F00C20C122DEA7B0F7D0A7F011231C943A8F1
:10216F0080438D201233D37815E6D3941940147819
:10217F0011E69406400D7F0212327D7816A607E411
:10218F007815F69001C5E060D8E4F0300E1DC20E50
:10219F009001D9E0FEA3E0240FF582E43EF583E43D
:1021AF00740193FA740293F912127BD20B12246505
:1021BF00781306080608067813E624FE60141460E8
:1021CF0016146018240370191222DFC20B12246533
:1021DF008013122FB9800E122517800912142C802C
:1021EF0004E47813F6781406E6C3940F5003022123
:1021FF0070E4F61230B6122A221227C01223AB0255
:02220F0021703C
:0733F500759CA0E4F59D2288
:0F336D00EF540FFFE59C54F04FF59C439C40221A
:0D00A600758B66438B08538B7F43AB102294
:10333900EF6007E5974401FF8005E59754FEFF8F8D
:023349009722C9
:0733FC00E4F597758F3E22F6
:0833E500E4F59AF599F59B222D
:0D33A60075B28E75B4FF43AA0243B2012236
:1000030075BB2043BB3075BAC0E4F5BFF5BE75BD03
:080013000F75BC9F43BB802266
:1032670075EA0275E90643EAECE4F5EB75F36743A3
:06327700A80843A8102284
:04340A00438D2022AC
:0933CA00758E88758DC002340A6D
:0D33B30075968875890175898143AB0422E8
:0734030075C829E4F58A22D7
:102E3C0075A1C375AC20E4F591F5DEF58075B1FC98
:102E4C00F5ADF592F5DFF58875B9CD75AE10F59346
:102E5C00F59075C1FFF5AFF59875C9FF75A304F52D
:102E6C0094F5A075D1D1F595F5B0F5D375D252F591
:102E7C00D575D4F3F5D775D603F5EEF5EF75FF28B8
:012E8C002223
:1030E90075D88353A87F122E3C1234031233F5127C
:1030F90000A61233FC1233E51233A6120003123272
:07310900671233CA0233B361
:10321A00E4FEEF30E004D2A28002C2A2D2A1EFC340
:09322A0013FFC2A10EEEB408E985
:013233002278
:0B2E8D009001ACEBF0A3EAF0A3E9F029
:102E9800C2A07F0812321AD2A0C2A09001B0E044AA
:102EA800C0FF12321AE4FCECC39D501A9001ACE04A
:102EB800FBA3E0FAA3E0F98C82758300121191FF5D
:102EC80012321A0C80E1D2A0C2A09001DBE0FF12FE
:042ED800321AD2A038
:012EDC0022D3
:101A45001F0C1B1E0C16171C1F1E80004040C0C01B
:101A5500C000C0C01F0C1B1E0C16171C1F1E40000B
:101A650020206060600060603F18363C192D2F38DB
:101A75003F3D000080808080800080803F18363C9C
:101A8500192D2F383F3D0000404040404000404068
:101A95007F3C737E3C4E4F7C7F7EE00090107070E3
:101AA500F000F070070307070304040707077F60CA
:101AB5001C7063737F607F7300008080808080006E
:101AC50080803F1E393F1E27273E3F3F7800640434
:101AD5001C1C7C007C1C01000101000101010101AD
:101AE500FFF0CEF8F1393FF0FFF9400020206060AB
:101AF500600060601F0F1C1F0F13131F1F1F00F8CE
:101B050000E4841C9CFC00FC9C040F070E0F0709D5
:101B1500090F0F0F007E40396147677F407F6701DE
:101B25000301030301020203030300FF609CF0E3CA
:101B3500737FE0FFF300000040404040400040401C
:101B4500401F0F1C1F0F13131F1F1F00F800E484F5
:071B55001C9CFC00FC9C0439
:1032EA00E4FE74462EF582E43401F583EFF00EEE27
:0332FA00B440EFEE
:0132FD0022AE
:1031340090014674FFF0A3F0A3F090014AF0A3F0CD
:10314400A3F090014EE044FEF0A374FFF0A3F0223C
:102AAB00900143E004F0E0C39F400EE4F0A3E00488
:102ABB00F0E0D394084002E4F090016BE04401F0A5
:102ACB00900144E0B409005052902ADBF828287397
:102ADB00022B1E022B1E022B12022B0B022B0402AB
:102AEB002AFD022AF6022B2B022B2B90016BE044C2
:102AFB000EF090016BE04470F0900166E04407F03B
:102B0B00900166E04438F0900166E044C0F0A3E029
:102B1B004401F0900167E0440EF022E4900144F090
:012B2B002287
:10303F00EF14603214602814601E14601414600AB8
:10304F0014702A900156E04406F0900156E04408AF
:10305F00F0900156E04410F0900156E04420F090BB
:0E306F000156E04440F0900156E04480F0220B
:102C7C00EFD3946340027F63EF75F00A84FDEF7528
:102C8C00F00A84ACF0ED6024900173E0FFED901A33
:102C9C004593FEEF4E900173F0900172E0FFAE058C
:102CAC00EE901A4F93FEEF4E900172F0900172E08D
:102CBC00FFEC901A5993FEEF4E900172F090017751
:0E2CCC00E0FFEC901A6393FEEF4E900177F05C
:012CDA0022D7
:102CDB00EFD3946340027F63EF75F00A84FDEF75C9
:102CEB00F00A84ACF0ED602490016FE0FFED901AD8
:102CFB006D93FEEF4E90016FF090016EE0FFAE050D
:102D0B00EE901A7793FEEF4E90016EF090016EE00D
:102D1B00FFEC901A8193FEEF4E90016EF0900173D1
:0E2D2B00E0FFEC901A8B93FEEF4E900173F0D8
:012D39002277
:041C7000AB07AA060E
:101C7400D3EB940FEA942740047A277B0F7C037DEF
:101C8400E8AF03AE021211E09001ACEFF07C007DEE
:101C940064AF03AE021211E07C007D0A1211E0A3CE
:101CA400EDF07C007D0AAF03AE021211E07C007DF2
:101CB4000A1211E0A3EDF0AE02AF037C007D0A121C
:101CC40011E0AB0590015BE0FE9001ACE0FD901AE1
:101CD4009593FCEE4C90015BF090015AE0FFED907F
:101CE4001A9F93FEEF4EFF90015AF09001ADE0FE73
:101CF400901AA9934F90015AF090015FE0FFEE9083
:101D04001AB393FEEF4E90015FF090015EE0FF90F6
:101D140001ADE0901ABD93FEEF4EFF90015EF0908E
:101D240001AEE0FE901AC7934F90015EF0900163FC
:101D3400E0FFEE901AD193FEEF4EFF900163F0EBBB
:101D4400901ADB934F900163F0900162E0FFEB90F7
:101D54001AE593FEEF4E900162F0900167E0FFAE4A
:0D1D640003EE901AEF93FEEF4E900167F032
:011D7100224F
:10221100EF75F00A84F9EF75F00A84AEF0ED75F010
:102221000A84FCED75F00A84ABF0EFD394184004F6
:10223100790A7E0AEDD3943C40047C0A7B0A300B78
:1022410003300444900177E0FFE9901AF993FDEF20
:102251004D900177F0900176E0FFE9901B0493FD2A
:10226100EF4D900176F0900152E0FFEE901B0F933D
:10227100FDEF4D900152F0900157E0FFEE901B1AD7
:1022810093FEEF4E900157F0300C0330044F900154
:102291007BE0FFEC901B2593FEEF4E90017BF090CD
:1022A100017AE0FFEC901B3093FEEF4E90017AF043
:1022B10090017FE0FFEC901B3B93FEEF4EFF9001FE
:1022C1007FF0EB901B46934F90017FF090017EE0F1
:0D22D100FFEB901B5193FEEF4E90017EF04D
:0122DE0022DD
:041D7200AB07AA060B
:101D76007C037DE81211E09001D4EFF07C007D64D5
:101D8600AF03AE021211E07C007D0A1211E0A3ED52
:101D9600F07C007D0AAF03AE021211E07C007D0AE2
:101DA6001211E0A3EDF07C007D0AAF03AE02121122
:101DB600E0A905D3EB940FEA9427400B9001D47465
:101DC6000AF0A3F0A3F0F9900177E0FE9001D4E0C9
:101DD600FD901AF993FCEE4C900177F0900176E0B5
:101DE600FFED901B0493FEEF4E900176F0900152AA
:101DF600E0FF9001D5E0FE901B0F93FDEF4D9001A3
:101E060052F0900157E0FFEE901B1A93FEEF4E90B2
:101E16000157F090017BE0FF9001D6E0FE901B2574
:101E260093FDEF4D90017BF090017AE0FFEE901B61
:101E36003093FEEF4E90017AF090017FE0FF900123
:101E4600D6E0901B3B93FEEF4EFF90017FF0E990AA
:101E56001B46934F90017FF090017EE0FFE9901BB7
:091E66005193FEEF4E90017EF055
:011E6F002250
:10246500300B06900145E004F043C1E143B9C05388
:10247500981E53903F900145E024FE602804704A61
:10248500900185E030E0055398EF80034398109064
:102495000185E030E1055398FD8003439802439898
:1024A5002043980122900185E030E2055398EF80A2
:1024B50003439810900185E030E3055398FD8003B0
:1024C50043980243984043908022900185E030E490
:1024D500055398FD8003439802900185E030E5059A
:1024E5005398FB8003439804900185E030E605533B
:1024F50098F78003439808900185E030E7055398E5
:10250500EF8003439810439880439040E490014541
:01251500F0D5
:0125160022A2
:1030B600E4FF1232EAE4900185F09001D9E0FEA324
:1030C600E0F5828E83A3A3A3740193FA740293F9A5
:1030D60012127B7B017A017946E49001B0F07D3FC4
:0330E600022E8D2A
:10334B00C20DE49001C8F09001CBF09001C9F0A33D
:02335B00F0225E
:1031C900EBD39D5003ED04FB9001C8EFF09001CBC8
:0B31D900EDF09001C9EBF0E4A3F02240
:102FB9009001C8E0603A9001CAE004F0A3E0FF90F4
:102FC90001CAE0FEC39F5009200D03439701D20DAA
:102FD900229001C9E0FFEEC39F5009300D035397BA
:102FE900FEC20D229001C8E014F0E49001CAF0225B
:032FF900C20D22E4
:1000B600ECECECECECECECECECECECECECECECEC7A
:1000C600ECECECECECECECECECECECECECECECED69
:1000D600EDEEEFEFF0F1F1F2F2F3F4F4F5F6F6F6F9
:1000E600EDEDF8F8F9F9FAFAFBFBFCFCFDFDFEFE76
:1000F600FFFF0000010101020203030404040505D9
:10010600060607070708080909090A0A0B0B0B0C5C
:100116000C0D0D0D0E0E0F0F0F10101111111212E6
:100126001313131414141515161616171718181872
:1001360019191A1A1B1B1B1C1C1D1D1D1E1E1F1FF9
:10014600202020212122222323242424252526267B
:100156002727282829292A2A2B2B2C2C2D01010276
:10016600020303040405060708090A0C0D0F111300
:1001760015171A1D2023272A2E33373C40454A4F90
:10018600555A5F656A70757B80868B90969BA0A595
:10019600A9AEB2B7BBBFC3C6CACD292F353B4249AC
:1001A60050575E656C727980878D93999FA5AAAF2B
:1001B600B4B8BDC1C5C8CCCFD2D4D7D9DCDEE0E156
:1001C600E3E4E6E7E8E9EAEBECEDEEEEEFF0F0F17A
:1001D600F2F2F3F3F4F4F501020202030304050557
:1001E6000607080A0B0D0E10121417191C1F2226DB
:1001F6002A2D32363B3F44494F54595F646A707525
:100206007B81868B91969BA0A5AAAEB3B7BBBFC3D5
:10021600C7CACDD001020202030404050607080975
:100226000A0C0D0F111316181B1E2125292D30350A
:100236003A3E43484E53585E64696F757A80868BA2
:1002460090969BA0A5AAAEB3B7BBBFC3C7CACDD075
:10025600D302020203030405050607080A0B0D0E66
:10026600101215171A1D2023272B2F33383D42470E
:100276004C52575D62686E74797F858A90959A9F15
:10028600A4A9AEB2B7BBBFC3C6CACDD0D3D60202ED
:100296000203030405060708090A0C0D0F111416BC
:1002A600191B1F22262A2E32363B40454A50555BE3
:1002B60061666C72787E84898F94999FA4A8ADB28A
:1002C600B6BABEC2C6C9CDD0D3D6D802020303047D
:1002D60004050607080A0B0D0E101215171A1D2025
:1002E60024282C30353A3E43494E53595F656A708F
:1002F600767C82888D93989EA3A8ACB1B5BABEC20F
:10030600C5C9CCCFD2D5D8DA020203030405060745
:1003160008090A0C0E10121416191C1F23272B2F5E
:1003260034383D42484D52585E64696F757B81870B
:100336008D92989DA2A7ACB1B5B9BDC1C5C9CCCFA8
:10034600D2D5D7DADC0203030404050607080A0B34
:100356000D0F111316181B1E2225292E32373C416C
:10036600464C51575D62686E747A80868C91979C74
:10037600A2A6ABB0B5B9BDC1C5C8CCCFD2D5D7DA68
:10038600DCDE0203030405060708090B0C0E101237
:1003960015171A1D2124282C31363B40454B505643
:1003A6005C61676D73797F858A90969CA1A6ABAFD9
:1003B600B4B8BDC0C4C8CBCED1D4D7D9DCDEE00337
:1003C600030405050607090A0B0D0F111416191C5F
:1003D6002023272B3034393E44494F545A60666CEB
:1003E60072787E84898F959AA0A5ABAFB3B8BCC04E
:1003F600C4C7CBCED1D4D6D9DBDEE0E203030405F5
:10040600060708090B0C0E101315181B1E22262AA8
:100416002E33383D42484E53595F656B71777D8266
:10042600898E94999FA5A9AFB3B7BCC0C4C7CBCEDC
:10043600D1D4D6D9DBDDDFE1E303040505060809DF
:100446000A0C0D0F1214171A1D2124282D31363BC4
:1004560041464C52585E646A70767C81878D9298CC
:100466009DA3A8ADB2B6BABFC2C6C9CDD0D3D6D8A1
:10047600DADDDFE1E3E40404050607080A0B0D0FE5
:10048600111316181C1F23272B3034393E444A50AB
:10049600565C62686E757A80868B91979CA1A6AC35
:1004A600B0B6B9BEC1C5C9CCCFD2D5D7DADCDEE08D
:1004B600E2E4E60405060708090A0C0E10121517F1
:1004C6001A1E2125292E32373D42484E545B61675C
:1004D6006D73797F858A90969BA0A5AAAFB4B9BCA7
:1004E600C1C4C8CBCED1D4D7D9DCDEE0E2E4E5E79F
:1004F60004050607090A0C0D0F111416191C2024F1
:10050600282C31363B40464C53595F666C72787ED8
:1005160084898F949A9FA4A9AEB3B7BCC0C3C7CA37
:10052600CDD0D3D6D8DBDDDFE1E3E5E6E805060787
:1005360008090B0D0F111315181B1F22262A2F341D
:10054600393E444A51575E646B71777E83898E9437
:10055600999EA3A8ADB2B6BABFC3C6CACDD0D2D5EE
:10056600D8DADDDFE1E3E4E6E8E9050608090A0C86
:100576000E101214171A1D2125292D32373C424818
:100586004E555B62686F757C82888D92989DA2A796
:10059600ACB0B5B9BDC1C5C9CCCFD2D4D7D9DCDED4
:1005A600E0E2E4E6E7E8EA0607080A0B0D0F111495
:1005B60016191C2024282C31353B40464C52595FD5
:1005C600666D737A80868C92979CA1A6ABAFB4B801
:1005D600BCC0C4C8CBCED1D4D6D9DBDDE0E1E3E5DF
:1005E600E7E8E9EB0608090B0C0E101315181B1F9C
:1005F60022272B2F34393E444A50565D646A71785F
:100606007E848B90969BA0A5AAAEB3B7BBBFC3C78B
:10061600CACED0D3D6D8DADDDFE1E3E5E6E8E9EA0B
:10062600EB07080A0C0E101215171B1E22262A2F7E
:1006360033383D43484E545B61686F757C83898FC0
:10064600959A9FA4A9AEB2B6BABEC2C6C9CDD0D33A
:10065600D5D8DADCDEE0E2E4E6E7E9EAEBEC080925
:100666000B0D0F1114171A1D2125292E33373C4166
:10067600474D53595F666D737A81888E94999FA40E
:10068600A8ADB2B6BABEC1C5C9CCCFD2D5D7DADC11
:10069600DEE0E2E4E5E7E8EAEBECED090A0C0E1031
:1006A6001316191C1F23272C31363A40454B515738
:1006B6005D646A71787E858C92989DA3A7ACB1B56E
:1006C600B9BDC0C4C7CBCED1D4D6D9DBDDDFE1E31B
:1006D600E5E6E8E9EAEBEDED090B0D0F1214171B41
:1006E6001E22262A2F34393E44494F555B62686FD5
:1006F600767C838990969CA1A6ABB0B4B8BCC0C3E7
:10070600C7CACDD0D3D6D8DADDDFE0E2E4E6E7E942
:10071600EAEBECEDEE0A0C0E1113161A1D21252933
:100726002D32373D42484D535A60666D747A818842
:100736008E949AA0A5AAAFB3B7BBBFC3C6C9CCCF88
:10074600D2D5D7DADCDEE0E2E3E5E7E8E9EAECED8C
:10075600EEEF0B0D101215191C2024282C31363BF8
:1007660041464C52585E656B72797F868C93999F91
:10077600A4A9AEB2B7BBBEC2C5C9CCCFD2D4D7D955
:10078600DBDDDFE1E3E4E6E7E9EAEBECEDEEEF0DD6
:100796000F1214181B1F23272B30353A40454B5197
:1007A600575D636A70777E858B92989EA3A8ADB2DB
:1007B600B6BABEC2C5C8CBCED1D4D6D9DBDDDFE151
:1007C600E2E4E6E7E8EAEBECEDEEEFF00E101316E6
:1007D600191D21252A2E33383E43494F555B616842
:1007E6006E757C82898F969CA1A7ACB1B5B9BDC147
:1007F600C4C8CBCED0D3D6D8DADCDEE0E2E4E5E777
:10080600E8E9EAEBECEDEEEFF00F1114181B1F23ED
:10081600282D32373C42474D53595F666C737980B9
:10082600878D949AA0A5ABB0B4B9BDC0C4C7CACDD4
:10083600D0D3D5D8DADCDEE0E1E3E5E6E7E9EAEBBA
:10084600ECEDEEEFF0F01013161A1D22262B3035C4
:100856003B40464C52585E646B71787E858B92980D
:100866009EA4A9AEB3B8BCC0C3C7CACDD0D2D5D793
:10087600D9DCDEDFE1E3E4E6E7E8EAEBECEDEEEF18
:10088600EFF0F11215181C2025292E34393F454B5F
:1008960050565C636970767D838A90979DA2A8AD59
:1008A600B2B7BBBFC3C6CACCCFD2D5D7D9DBDDDF83
:1008B600E1E3E4E5E7E8E9EAEBECEDEEEFF0F1F190
:1008C60013171A1E23282D32383E444A50565C62AE
:1008D600686E757C82888F959BA1A7ACB1B6BBBFAD
:1008E600C3C6C9CCCFD2D5D7D9DBDDDFE1E2E4E59B
:1008F600E7E8E9EAEBECEDEEEFF0F0F1F215181CA3
:1009060021252A30353B41474D545960666C727932
:1009160080868D93999FA5AAAFB4B9BDC1C5C8CB32
:10092600CED1D4D6D9DBDDDFE0E2E3E5E6E7E9EADE
:10093600EBECEDEEEEEFF0F1F1F2161A1E23282D98
:1009460033393F454B51585D646A70777D848A918F
:10095600979DA3A8AEB2B7BCC0C4C7CBCDD0D3D6E3
:10096600D8DADCDEE0E2E3E4E6E7E8E9EAEBECED40
:10097600EEEFF0F0F1F2F2181C21262A30373D4353
:10098600494F565C62686E757B82888F959BA1A6DF
:10099600ACB1B6BABEC2C6C9CDCFD2D5D7DADCDEC7
:1009A600DFE1E3E4E5E7E8E9EAEBECEDEEEFEFF0B3
:1009B600F1F2F2F31A1F24292D343A41474D535AC6
:1009C60061666D737A80878D93999FA5AAAFB4B936
:1009D600BDC1C5C9CCCFD2D4D7D9DBDDDFE1E2E4D6
:1009E600E5E6E8E9EAEBECEDEEEEEFF0F1F1F2F335
:1009F600F31D22272C31383F454B51585F656B72EA
:100A0600787F858C91989EA4A9AEB3B8BCC0C4C8A3
:100A1600CBCED1D4D6D9DBDDDFE0E2E4E5E6E7E90B
:100A2600EAEBECEDEEEEEFF0F0F1F2F2F3F31F2469
:100A3600292F343B42484F555B62696F757C82892A
:100A46008F959BA1A7ACB1B6BABFC2C6CACDD0D34B
:100A5600D5D8DADCDEE0E1E3E4E6E7E8E9EAEBEC68
:100A6600EDEEEFEFF0F1F1F2F3F3F421262C31374E
:100A76003E454C52585F666D737980868D93999F7B
:100A8600A5AAAFB4B8BDC1C5C8CCCFD2D4D7D9DB1F
:100A9600DDDFE1E3E4E5E7E8E9EAEBECEDEEEEEFD6
:100AA600F0F1F1F2F2F3F3F423292E343A41484FF0
:100AB600565C636A71777E848B91979DA2A8ADB2CE
:100AC600B7BBBFC3C7CACED1D4D6D8DBDDDFE0E221
:100AD600E4E5E6E7E9EAEBECECEDEEEFF0F0F1F257
:100AE600F2F3F3F4F4262C31383E454C5359606743
:100AF6006E757B82888F959BA1A6ABB0B5BABEC238
:100B0600C6C9CDD0D3D5D8DADCDEE0E2E3E5E6E748
:100B1600E8E9EAEBECEDEEEFEFF0F1F1F2F2F3F3E8
:100B2600F4F4FF01DDFF021AFF0257FF0294FF02F1
:100B3600D1FF030EFF034BFF0388FF03C5FF04022B
:100B4600FF043FFF047CFF04B9FF04F6FF0533FFF3
:100B56000570FF05ADFF05EAFF0627FF0664FF06E1
:100B6600A1FF06DEFF071BFF0758FF0795FF07D209
:100B7600FF080FFF084CFF0889FF08C6FF0903FF9F
:100B86000940FF097DFF09BAFF09F7FF0A34FF0A8A
:070B960071FF0AAEFF0AEB3C
:1031100042019B000041019D0041019EFF41019F32
:0E312000004201A000004101A2004101A300F5
:10327D00EF540FFFE59C54F04FF59C439C40E59CAB
:06328D0030E4FBAF9F22BC
:1032FE00EFD394AC40057818762D22EF9000B6935C
:04330E007818F62213
:102A22007F0112327D90019DE0FEEFD39E4002EFC6
:102A3200F090019EE0FEEFC39E5002EFF090019CE9
:102A4200E02FF090019BE03400F090019FE004F051
:102A5200E0C3940A405290019DE0FF90019CE09FE8
:102A6200FF90019BE09400FE90019EE0FDC3EF9D6C
:102A7200FFEE940090019BF0A3EFF090019BE0FE2B
:102A8200A3E07803CEC313CE13D8F9FF90019BEED7
:102A9200F0A3EFF01232FEE490019FF090019BF060
:082AA200A3F0A3F0A374FFF000
:012AAA002209
:052BA6009001ADE0FF0D
:102BAB00EDB405109001B074FFF0A37401F0A374A1
:102BBB0063F08037EDB42D109001B074FFF0A37467
:102BCB0001F0A374A0F08023ED75F003A42416F597
:102BDB0082E4340BF583E493F9740193FA74029352
:102BEB009001B0C9F0A3EAF0A3E9F0E4FE9001B0C4
:102BFB00E0FBA3E0FAA3E0F98E827583001211913A
:0F2C0B00FDEFC39D40050EEEB43CE2EE241EFF2C
:012C1A002297
:051E70009001ADEFF050
:101E75007818E6FCD3648094855007E0FF7D050261
:101E85001F66C3EC648094AD400A9001ADE0FF7D10
:101E95002D021F66C37818E66480948650557D062A
:101EA500122BA69001AEEFF07D05122BA69001AF87
:101EB500EFF09001AEE0FDC3EF9DFDE49400FCE47E
:101EC5001210BEC004C005C006C0077818E6FF336F
:101ED50095E0FEC374069FFDE49EFC1210BED00380
:101EE500D002D001D000120FB31210F79001AEE06E
:101EF5002F8066D37818E6648094AC9001ADE0FF3E
:101F0500405B7D2C122BAB9001AEEFF09001ADE064
:101F1500FF7D2D122BAB9001AFEFF09001AEE0C32A
:101F25009FFDE49400FCE41210BEC004C005C00689
:101F3500C0077818E6FF3395E0FEEF24D4FDEE34B4
:101F4500FFFC1210BED003D002D001D000120FB397
:101F55001210F79001AEE0C39F7817F6227818E6C5
:081F6500FD122BAB7817A60753
:011F6D002251
:1027C0007816E6FF9001A1E02FF09001A0E0340020
:1027D000F09001A2E004F0E0C39408500302285FE7
:1027E0009001A0E0FEA3E07803CEC313CE13D8F986
:1027F000F0EE9001A0F09001A3E004F0E0C3940893
:102800004004E4F0D20F9001A0A3E0FD9001A3E00A
:1028100024A4F582E43401F583EDF0300F29E4FFC0
:10282000FEFC74A42CF582E43401F583E02FFFE470
:102830003EFE0CECB408EBEF7803CEC313CE13D8F6
:10284000F99001ACF080059001ACEDF09001ACE0A6
:0F285000FF121E70E49001A2F09001A0F0A3F01F
:01285F002256
:10335D007F0112327D1232FE7F0212327D021E700B
:103312009001987407F0A37453F0C205E4900192EF
:04332200F0A3F02202
:102EDD00900192E0FCA3E0FDD39432EC94005004F9
:102EED007F018036D3ED9464EC940050047F028012
:102EFD0029D3ED9496EC940050047F03801CD3ED00
:102F0D0094C8EC940050047F04800FD3ED942CEC06
:0A2F1D00940150047F0580027F0636
:012F27002287
:10251700900198E07002A3E06025900199E024FF04
:10252700F0900198E034FFF0E07002A3E07012121F
:102537002EDD90019AEFF0900196F0A3F08002D281
:102547000530067890018AE0FFA3E0A3CFF0A3EF60
:10255700F0900188E0FFA3E0A3CFF0A3EFF0900194
:1025670086E0FFA3E0A3CFF0A3EFF0900194E0FF94
:10257700A3E0900186CFF0A3EFF0C206E4900192AA
:10258700F0A3F0FFEF25E02486F582E43401F5831C
:10259700E0FCA3E0FD900193E02DF0900192E03C78
:1025A700F00FEFB404DE900192E0FEA3E07805CED1
:0C25B700C313CE13D8F9F0EE900192F09F
:0125C30022F5
:1023AB0020050BE490018EF0A3F0A3022461122E02
:1023BB00DD900197E0FEEFD39E400EE4900190F08C
:1023CB00A3F090019AEFF08038EFC39E5039900143
:1023DB0091E004F07006900190E004F0D39001912D
:1023EB00E09468900190E0648094804021E4F0A335
:1023FB00F090019AE0D394014003E014F090019A1D
:10240B00E0900197F08007E4900190F0A3F0900129
:10241B0096E0FF90019AE0FED39F401AE490018F63
:10242B00F090018EE004F0E0D39468402CE4F0903F
:10243B000196E004F022EEC39F5017E490018EF05A
:10244B00A3E004F0E094D04010E4F0900196E01487
:09245B00F022E490018EF0A3F0E0
:012464002255
:0A33C000C200E49001C2F0A3F02265
:10317200D200EF7802C333CE33CED8F9FF7C007D84
:0D318200781211E09001C2EEF0A3EFF022F0
:10142C009001D9E0FEA3E0240CF582E43EF5837430
:10143C000193FA740293F912127B30000B9001C2E3
:10144C00E0FAA3E0FB4A700CE4F5BFF5BE9001C0D6
:10145C00F0A3F0222001289001C1E02414F09001A7
:10146C00C0E03400F0D3A3E094209001C0E09403DA
:10147C0050030215B47403F0A37420F00215B420C9
:10148C0002030215B49001BCE0FEA3E0FFC390017F
:10149C00BFE09F9001BEE09E400BA3E09FFF900138
:1014AC00BEE09E80149001BEE0FEA3E0FFC390015D
:1014BC00BDE09FFF9001BCE09E9001AEF0A3EFF069
:1014CC00C39001BFE09B9001BEE09A406A9001C2BC
:1014DC00E0FEA3E0FF9001BFE09FFF9001BEE09E05
:1014EC009001ACF0A3EFF0E0C4F8540FC868FF9083
:1014FC0001ACE0C454F048FE9001AFE02401FD9033
:10150C0001AEE03400FC1211E09001B0EEF0A3EF5C
:10151C00F0D39001C1E09F9001C0E09E50030215F2
:10152C00B29001B0E0FEA3E0FF9001C1E09FF0900B
:10153C0001C0E09EF0806F9001BEE0FEA3E0FFC30F
:10154C009001C3E09FFF9001C2E09E9001ACF0A31C
:10155C00EFF0E0C4F8540FC868FF9001ACE0C4543D
:10156C00F048FE9001AFE02401FD9001AEE03400A4
:10157C00FC1211E09001B0EEF0A3EFF0C374A09F49
:10158C00FF740F9EFEC39001C1E09F9001C0E09ECE
:10159C0050149001B0E0FEA3E0FF9001C1E02FF0E9
:1015AC009001C0E03EF0C2029001C0E0FCA3E0FD5F
:1015BC00ECF5BF8DBE9001BEE0FFA3E09001BCCF67
:0415CC00F0A3EFF0A9
:0115D00022F8
:103154000100FC0100D90100FE0100DC01010001B5
:0E31640000DF071E121E111E161E0900161E89
:101F6E009001B07405F0A374A0F090010A74FFF014
:101F7E00E49001B2F09001B2E0FFC3940640030278
:101F8E00205BEF75F003A42454F582E43431F5831D
:101F9E00E493FB740193FA740293F912117820E022
:101FAE00030220519001B2E075F003A42454F5828F
:101FBE00E43431F583E493FB740193FA740293F9DC
:101FCE00900001121191FD7C00EF75F003A42454D2
:101FDE00F582E43431F583E493FB740193FA7402D1
:101FEE0093F9121178C313547F75F03CA42DFEECB7
:101FFE0035F09001B3F0A3CEF09000E6E075F03C22
:10200E00A4FFA3E02FFFEC35F0FE9001B3E0FCA39C
:10201E00E0FDD39FEC9E402BED9FFDEC9EFCD390FC
:10202E0001B1E09D9001B0E09C40189001B4E09F9A
:10203E00FF9001B3E09E9001B0F0A3EFF0A3E0900B
:0D204E00010AF09001B2E02402F0021F83AD
:01205B002262
:102D970043981E000000004398E14390C053C11EB2
:102DA70053B93F00000000E4FFE59820E5010FE577
:102DB7009820E604EF4402FFE59820E704EF440477
:102DC700FFE59820E004EF4408FFE59020E704EFD3
:102DD7004410FFE59020E604EF4420FF43C1E143A0
:022DE700B9C071
:012DE90022C7
:1022DF00122D979001ACEFF09001CEE06F603A9025
:1022EF0001ACE0702B9001CCE0FFD394054021EFBF
:1022FF009496501C9001CF7402F09001D9E0FEA388
:10230F00E0F5828E83740193FA740293F912127BB3
:10231F009001ACE09001CEF0229001CEE0700990D8
:10232F0001CCF0A3F0D21022E49001CFF09001CCB9
:10233F00E004F0A3E004F0E0D3943C401F742DF0D0
:10234F009001CF7404F09001D9E0FEA3E0F5828EE6
:10235F0083740193FA740293F912127B9001CCE00B
:10236F00FFB405089001CF7401F08019EFB4F8089D
:10237F009001CF7403F0800DEFD394FA401D9001BC
:10238F00CC74FAF0229001D9E0FEA3E0F5828E839F
:0B239F00740193FA740293F912127B90
:0123AA002210
:0E337C00900034E41211BE900033E40211BE42
:1032D500900034121191FF900033121191B507033C
:0532E500D38001C322AB
:10307D009001B9EBF0A3EAF0A3E9F09001B9E0FB00
:10308D00A3E0FAA3E0F99000341211912401FFE4BA
:10309D0033FE7C007D331211E0AF05900033121129
:0930AD0091B50503D38001C32293
:103234009000341211912433FF900033121191FE47
:0A324400C3EF9E75F03384AFF02253
:102C1B009001B8EDF09001B5EBF0A3EAF0A3E9F069
:102C2B0012307D40469001B8E0FF9001B5E0FBA368
:102C3B00E0FAA3E0F9900034121191F5827583004C
:102C4B00EF1211BE9000341211912401FFE433FEF8
:102C5B007C007D331211E0AF059001B5E0FBA3E0E2
:102C6B00FAA3E0F9900034ED1211BE9001B8E0FF29
:012C7B002236
:0B2D3A009001B5EBF0A3EAF0A3E9F074
:102D4500E4A3F01232D540449001B5E0FBA3E0FACC
:102D5500A3E0F9900033121191F5827583001211E9
:102D6500919001B8F09000331211912401FFE433E2
:102D7500FE7C007D331211E0AF059001B5E0FBA3A9
:102D8500E0FAA3E0F9900033ED1211BE9001B8E02E
:012D9500FF3E
:012D9600221A
:102F28000101FF001E0201FF32930301FF2F73040A
:102F380001FF32A90501FF32BF0601FF318F0701EA
:102F4800FF31AC080CFF2B2C0901FF18E60A01FF22
:102F580025C40B06FF2FFC0C01FF338A0D01FF333C
:0B2F680098F701FF1281FF06FF324EB8
:050B9D009001B0EFF033
:100BA200E4A3F090006FE0FBA3E0FAA3E0F97DF28A
:100BB200122C1B90006FE0FBA3E0FAA3E0F97DF298
:100BC200122C1B90006FE0FBA3E0FAA3E0F9900166
:100BD200B0E0FD122C1B9001B1E02FF090006FE00D
:100BE200FBA3E0FAA3E0F97D25122C1B9001B1E0F2
:100BF2002FF090006FE0FBA3E0FAA3E0F990010967
:100C0200E0FD122C1B9001B1E02FF090006FE0FB91
:100C1200A3E0FAA3E0F9900192E0FD122C1B9001EF
:100C2200B1E02FF090006FE0FBA3E0FAA3E0F990AF
:100C32000192A3E0FD122C1B9001B1E02FF0900075
:100C42006FE0FBA3E0FAA3E0F9900141E0FD122C72
:100C52001B9001B1E02FF090006FE0FBA3E0FAA33C
:100C6200E0F9900141A3E0FD122C1B9001B1E02FAD
:100C7200F090006FE0FBA3E0FAA3E0F9900107E037
:100C8200FD122C1B9001B1E02FF090006FE0FBA34E
:100C9200E0FAA3E0F9900108E0FD122C1B9001B1EB
:100CA200E02FF090006FE0FBA3E0FAA3E0F99001DF
:100CB20002E0FD122C1B9001B1E02FF090006FE0DA
:100CC200FBA3E0FAA3E0F9900102A3E0FD122C1BC2
:100CD2009001B1E02FF090006FE0FBA3E0FAA3E0F7
:100CE200F97818E6FD122C1B9001B1E02FF090006C
:100CF2006FE0FBA3E0FAA3E0F97817E6FD122C1BE4
:100D02009001B1E02FF090006FE0FBA3E0FAA3E0C6
:100D1200F9300703E4800490013FE0FD122C1B90A0
:100D220001B1E02FF090006FE0FBA3E0FAA3E0F93D
:100D3200900105E0B401047D0180027D00122C1BAC
:100D42009001B1E02FF090006FE0FBA3E0FAA3E086
:100D5200F99000DEE0B402047D0180027D00122CD5
:100D62001B9001B1E02FF090006FE0FBA3E0FAA32B
:100D7200E0F9900106E0FD122C1B9001B1E02FF08A
:100D820090006FE0FBA3E0FAA3E0F99000DBE0FD46
:100D9200122C1B9001B1E02FF090006FE0FBA3E05A
:100DA200FAA3E0F99000FCE0FD122C1B9001B1E0E7
:100DB2002FF090006FE0FBA3E0FAA3E0F99000FDB2
:100DC200E0FD122C1B9001B1E02FF090006FE0FBD0
:100DD200A3E0FAA3E0F99000D9E0FD122C1B9001E8
:100DE200B1E02FF090006FE0FBA3E0FAA3E0F990EE
:100DF20000DAE0FD122C1B9001B1E02FF090006FA1
:100E0200E0FBA3E0FAA3E0F99000FEE0FD122C1B48
:100E12009001B1E02FF090006FE0FBA3E0FAA3E0B5
:100E2200F99000FFE0FD122C1B9001B1E02FF09031
:100E3200006FE0FBA3E0FAA3E0F99000DCE0FD1212
:100E42002C1B9001B1E02FF090006FE0FBA3E0FAC1
:100E5200A3E0F99000DDE0FD122C1B9001B1E02F20
:100E6200F090006FE0FBA3E0FAA3E0F9900100E04C
:100E7200FD122C1B9001B1E02FF090006FE0FBA35C
:100E8200E0FAA3E0F9900101E0FD122C1B9001B100
:100E9200E02FF090006FE0FBA3E0FAA3E0F99000EE
:100EA200DFE0FD122C1B9001B1E02FF090006FE00B
:100EB200FBA3E0FAA3E0F99000E0E0FD122C1B9006
:100EC20001B1E02FF090006FE0FBA3E0FAA3E0F99C
:100ED200E4FD122C1B9001B1E02FF090006FE0FBBB
:100EE200A3E0FAA3E0F9E4FD122C1B9001B1E02F7C
:100EF200F090006FE0FBA3E0FAA3E0F9E4FD122C0E
:100F02001B9001B1E02FF090006FE0FBA3E0FAA389
:100F1200E0F9E4FD122C1B9001B1E02FF090006F7C
:100F2200E0FBA3E0FAA3E0F9E4FD122C1B9001B16F
:100F3200E02FF090006FE0FBA3E0FAA3E0F9E4FDFC
:100F4200122C1B9001B1E02FF090006FE0FBA3E0A8
:100F5200FAA3E0F9E4FD122C1B9001B1E02FF0900E
:100F6200006FE0FBA3E0FAA3E0F9E4FD122C1B9072
:100F720001B1E02FF090006FE0FBA3E0FAA3E0F9EB
:100F8200E4FD122C1B9001B1E02FF090006FE0FB0A
:100F9200A3E0FAA3E0F99001B1E0FD122C1B90004E
:100FA2006FE0FBA3E0FAA3E0F97D7E122C1B0200A6
:010FB2002618
:01006A002273
:05001E007F01020B9DB3
:10329300900074E0900109F07B0F7D0A7F011231E9
:0632A300C97F02020B9D31
:102F7300900109E064017039900074E0FF7004D29D
:102F8300078007C20790013FEFF090013FE0FFB4D5
:102F93000106E49000DB800BEFD39401400A90001C
:102FA300DB7401F0900106F07B0F7D0A7F01123183
:062FB300C97F03020B9D23
:1032A900900074E0900105F07B0F7D0A7F011231D7
:0632B900C97F04020B9D19
:1032BF00900074E09000DEF07B0F7D0A7F011231E9
:0632CF00C97F05020B9D02
:10318F00900109E0B40111900074E0900106F07B0A
:0D319F000F7D0A7F011231C97F06020B9DD2
:1031AC00900109E0B40111900074E09000DBF07B19
:0D31BC000F7D0A7F011231C97F07020B9DB4
:102B2C00900074E09000FCF0900075E09000FDF0D7
:102B3C00900076E09000D9F0900077E09000DAF009
:102B4C00900078E09000FEF0900079E09000FFF0AB
:102B5C0090007AE09000DCF090007BE09000DDF0DB
:102B6C0090007CE0900100F090007DE0900101F07D
:102B7C0090007EE09000DFF090007FE09000E0F0AD
:102B8C00D208900104E054FEF0121F6E7B0F7D0AF8
:0A2B9C007F011231C97F08020B9D72
:1018E600900074E09001B2B4010D7401F0A374018C
:1018F600F0A3740BF0800B7401F0A37401F0A374D1
:1019060025F090006FE0FBA3E0FAA3E0F97DF21268
:101916002C1B90006FE0FBA3E0FAA3E0F97DF21226
:101926002C1B90006FE0FBA3E0FAA3E0F97D0912FF
:101936002C1B9001B0EFF090006FE0FBA3E0FAA340
:10194600E0F97D1A122C1B9001B0E02FF09001B245
:10195600E0FBA3E0FAA3E0F9121178FD90006FE036
:10196600FBA3E0FAA3E0F9122C1B9001B0E02FF0E4
:101976009001B2E0FBA3E0FAA3E0F9900001121196
:1019860091FD90006FE0FBA3E0FAA3E0F9122C1B97
:101996009001B0E02FF0E4A3F09001B1E0FFC39412
:1019A6000C506DA3E0FBA3E0FAA3E02402F9E43AAD
:1019B600FA75F002EFA4F58285F083121235E5F090
:1019C600FD90006FE0FBA3E0FAA3E0F9122C1B9058
:1019D60001B0E02FF09001B2E0FBA3E0FAA3E0240F
:1019E60002F9E43AFA9001B1E075F002A4F58285B5
:1019F600F083121235FD90006FE0FBA3E0FAA3E03E
:101A0600F9122C1B9001B0E02FF0A3E004F08089BE
:101A160090006FE0FBA3E0FAA3E0F99001B0E0FDCF
:101A2600122C1B90006FE0FBA3E0FAA3E0F97D7E89
:0F1A3600122C1B7B0F7D0A7F011231C902002683
:1025C40090006FE0FBA3E0FAA3E0F97DF2122C1B6C
:1025D40090006FE0FBA3E0FAA3E0F97DF2122C1B5C
:1025E40090006FE0FBA3E0FAA3E0F97D0A122C1B34
:1025F4009001B0EFF090006FE0FBA3E0FAA3E0F9E4
:102604007D14122C1B9001B0E02FF0E4A3F0900194
:10261400B1E0FFC39414502690006FE0FBA3E0FAEE
:10262400A3E0F974E82FF582E43400F583E0FD12A9
:102634002C1B9001B0E02FF0A3E004F080D09000B8
:102644006FE0FBA3E0FAA3E0F99001B0E0FD122CE7
:102654001B90006FE0FBA3E0FAA3E0F97D7E122C4F
:0D2664001B7B0F7D0A7F011231C902002689
:102FFC00900074E0FEA3E07C002400FFEC3E900007
:10300C00E2F0A3EFF0900076E09000E4F09000770F
:10301C00E09000E5F0900078E09000E6F090007908
:10302C00E09000E7F07B0F7D0A7F011231C97F0B26
:03303C00020B9DE7
:0E338A007B0F7D0A7F011231C97F0C020B9D63
:0E3398007B0F7D0A7F011231C97F0D020B9D54
:10128100E49001B0F090006FE0FBA3E0FAA3E0F975
:101291007DF2122C1B90006FE0FBA3E0FAA3E0F9B2
:1012A1007DF2122C1B90006FE0FBA3E0FAA3E0F9A2
:1012B1007DF7122C1B9001B0E02FF090006FE0FB46
:1012C100A3E0FAA3E0F97D0E122C1B9001B0E02FF0
:1012D100F090006FE0FBA3E0FAA3E0F97D01122C8E
:1012E1001B9001B0E02FF090006FE0FBA3E0FAA3A8
:1012F100E0F97D3F122C1B9001B0E02FF090006FC0
:10130100E0FBA3E0FAA3E0F97D01122C1B9001B0F0
:10131100E02FF090006FE0FBA3E0FAA3E0F97D3F3E
:10132100122C1B9001B0E02FF090006FE0FBA3E0C6
:10133100FAA3E0F97D01122C1B9001B0E02FF0908F
:10134100006FE0FBA3E0FAA3E0F9E4FD122C1B908F
:1013510001B0E02FF090006FE0FBA3E0FAA3E0F909
:10136100E4FD122C1B9001B0E02FF090006FE0FB28
:10137100A3E0FAA3E0F9E4FD122C1B9001B0E02FE9
:10138100F090006FE0FBA3E0FAA3E0F9E4FD122C7A
:101391001B9001B0E02FF090006FE0FBA3E0FAA3F7
:1013A100E0F9E4FD122C1B9001B0E02FF090006FEA
:1013B100E0FBA3E0FAA3E0F9E4FD122C1B9001B0DD
:1013C100E02FF090006FE0FBA3E0FAA3E0F9E4FD69
:1013D100122C1B9001B0E02FF090006FE0FBA3E016
:1013E100FAA3E0F9E4FD122C1B9001B0E02FF0907C
:1013F100006FE0FBA3E0FAA3E0F9E4FD122C1B90DF
:1014010001B0E02FF090006FE0FBA3E0FAA3E0F958
:101411009001B0E0FD122C1B90006FE0FBA3E0FAFD
:0B142100A3E0F97D7E122C1B020026C8
:10324E00900074E09000D8F0900075E0900140F08E
:09325E00900076E09000E1F022FE
:0833ED00D211E49001D3F0229B
:10271D0090006FE0FBA3E0FAA3E0F97D2B122C1BD8
:10272D0090006FE0FBA3E0FAA3E0F97D2B122C1BC8
:10273D0090006FE0FBA3E0FAA3E0F97D2B122C1BB8
:10274D0090006FE0FBA3E0FAA3E0F97D41122C1B92
:10275D0090006FE0FBA3E0FAA3E0F97D74122C1B4F
:10276D0090006FE0FBA3E0FAA3E0F97D43122C1B70
:10277D0090006FE0FBA3E0FAA3E0F97D6D122C1B36
:10278D0090006FE0FBA3E0FAA3E0F97D64122C1B2F
:10279D0090006FE0FBA3E0FAA3E0F97D0D122C1B76
:1027AD0090006FE0FBA3E0FAA3E0F97D0A122C1B69
:0327BD00020026F1
:10205C0090006FE0FBA3E0FAA3E0F97D41122C1B8A
:10206C0090006FE0FBA3E0FAA3E0F97D54122C1B67
:10207C0090006FE0FBA3E0FAA3E0F97D2B122C1B80
:10208C0090006FE0FBA3E0FAA3E0F97D44122C1B57
:10209C0090006FE0FBA3E0FAA3E0F97D65122C1B26
:1020AC0090006FE0FBA3E0FAA3E0F97D66122C1B15
:1020BC0090006FE0FBA3E0FAA3E0F97D61122C1B0A
:1020CC0090006FE0FBA3E0FAA3E0F97D75122C1BE6
:1020DC0090006FE0FBA3E0FAA3E0F97D6C122C1BDF
:1020EC0090006FE0FBA3E0FAA3E0F97D74122C1BC7
:1020FC0090006FE0FBA3E0FAA3E0F97D3D122C1BEE
:10210C0090006FE0FBA3E0FAA3E0F97D31122C1BE9
:10211C0090006FE0FBA3E0FAA3E0F97D0D122C1BFD
:10212C0090006FE0FBA3E0FAA3E0F97D0A122C1BF0
:03213C0002002678
:1015D1009001AD74FFF0A37400F0A3746AF0900061
:1015E1006CE0FBA3E0FAA3E0F9900034121191FF43
:1015F1009000331211916F70030217719000331232
:101601001191F5827583001211919001ACF0900057
:10161100331211912401FFE433FE7C007D3312115A
:10162100E0AF0590006CE0FBA3E0FAA3E0F99000C5
:1016310033ED1211BE30111E9001ACE0B4F11490E3
:1016410001D3E004F0E064027094C211F09001D083
:10165100F0808B0217699001ACE0FF9001D3E02488
:1016610072F582E43400F583EFF09001D0E02FF0C1
:101671009001D3E004F0E0FFB4010B900072E09020
:1016810001D2F00215DFEF64026003021719900125
:10169100D2E0FFD39400402AEFD3940D5024E0759B
:1016A100F005A42424F582E4342FF583E49390011A
:1016B100D1F0EF75F005A42425F582E4342FF583EC
:1016C10080269001D2E0FFB4F70E902F6AE4939048
:1016D10001D1F0902F6B8010EFB4FF23902F6FE4B6
:1016E100939001D1F0902F70E493F9740193FA74FF
:1016F10002939001ADC9F0A3EAF0A3E9F080028062
:101701000F900073E0FF9001D1E06F70030215DFCD
:10171100D211E49001D3F0229001D1E02404FFE43E
:1017210033FE9001D3E0C39FEE6480F8748098503B
:10173100030215DF9001D1E0FF2474F582E4340047
:10174100F583E0FE2EFE74752FF582E43400F583F7
:10175100E02EFF9001D0E0B5070C9001ADA3E0FAB7
:10176100A3E0F912127BD211E49001D3F00215DF4C
:011771002255
:10006E007B017A00790090006CEBF0A3EAF0A3E933
:10007E00F012337C7B017A00793590006FEBF0A3A0
:10008E00EAF0A3E9F012337CE490006AF0C209A30F
:03009E00F0C20AA3
:0100A100223C
:10002600200A4090006FE0FBA3E0FAA3E0F9123249
:1000360034EFC39401500122EFB4011290006FE037
:10004600FBA3E0FAA3E0F9122D3A8FF58012900097
:100056006FE0FBA3E0FAA3E0F9122D3A8FF5D20A7E
:0300660043EAC0AA
:010069002274
:0933D3003009051215D1C20922CE
:1031E400FF00A2FF00A2FF00A2FF00A2FF00A2FFB7
:0B31F40000A2FF00A2FF00A2FF00A24B
:05312E004201D931E46B
:0100A200223B
:102DEA009001ACEEF0A3EFF0300C1A9001D9E0FE9E
:102DFA00A3E02418F582E43EF583740193FA740281
:102E0A0093F912127B9001ACE0FFA3E09001D9CFB5
:102E1A00F0A3EFF0300B1A9001D9E0FEA3E02415DD
:102E2A00F582E43EF583740193FA740293F912125F
:022E3A007B22F9
:1031FF00FF33DCFF1B5CFF340EFF340FFF3410FF77
:0B320F003411FF3412FF3413FF34149D
:0933DC007B0F7D0A7F010231C95B
:101B5C00123134900153E0440FF0900152E044F004
:101B6C00F09000E1E0B40115900140E0B4010E905A
:101B7C000172E04420F090017BE04438F090014E7B
:101B8C00E04401F0900153E04470F0900176E044A1
:101B9C0003F090017BE04444F090016BE04401F0D1
:101BAC00900167E0440EF0900166E044C0F0A3E0C1
:101BBC004401F0900166E04438F04407F090016B6A
:101BCC00E04470F0440EF090017EE04402F0A3E09B
:101BDC004420F0900183E04418F090016EE0444002
:101BEC00F0900173E04420F090016FE04440F090DD
:101BFC000167E04410F090016AE04480F04403F087
:101C0C0090017EE04401F0900183E04440F04420D8
:101C1C00F04404F04402F04401F07818E6FF122C72
:101C2C007C7817E6FF122CDB9000E6E0FFA3E0FDCA
:101C3C00C20BC20C1222119000D8E0FF7E00121CC5
:101C4C007090015AE04408F090015EE04440F0903E
:101C5C000163E04402F0900182E044C0F090018501
:041C6C0074FFF022EF
:01340E00229B
:01340F00229A
:013410002299
:013411002298
:013412002297
:013413002296
:013414002295
:100FB300EC4D6011E8497017ED33EC3304600DE438
:100FC300FCFFFEFD22E933E8330470F802116312DB
:100FD300112E58046009E4CC2481500628500902DC
:100FE300116D28400302116AC0E0EB4A7044B980D6
:100FF30006D0E0FB021159EF4E701CBD8008EBFFD9
:10100300EAFEE9FD80EBE98DF0A4FEE5F002109C19
:10101300E9CDF9EAFEEBFFEF89F0A4FCE5F0CE8918
:10102300F0A42EFFE435F0CD89F0A42DFEE435F0D5
:101033008067EF4E7005BD80D780C3EF8BF0A4AC03
:10104300F0EE8BF0A42CFCE435F0F8EF8AF0A42C3E
:10105300E5F038FCE433CB8DF0A42CFCE5F03BF851
:10106300EE8AF0A42CFCE5F038F8E433CF89F0A441
:101073002CFCE5F038CF3400CE89F0A42FFFE5F047
:101083003EFEE433C98DF0A42EFEE5F039CD8AF09F
:10109300A42FFFE5F03EFEE43DFD33D0E0FB500717
:1010A3000BBB000F02116DEC2CFCEF33FFEE33FE94
:0610B300ED33FD021145C2
:1010B90075F020800E75F010800575F0087D007EB2
:1010C900007F003392D530D50312126DEC334010F6
:1010D900EF33FFEE33FEED33FDEC33FCD5F0ED22BB
:0E10E900E5F0247EA2D513CC92E7CDCEFF22F7
:1010F700EDD2E7CD33EC3392D524814006E4FFFEF1
:10110700FDFC22FCE4CFCECDCC24E0501174FF804F
:10111700EDC3CC13CCCD13CDCE13CECF13CF0470EC
:07112700F030D5DE02126D6D
:10112E00E9D2E7C933E833F892D5EDD2E7CD33EC07
:07113E0033FC5002B2D52280
:10114500EC30E7100FBF000C0EBE00080DBD00040B
:101155000BEB6014A2D5EB13FCED92E7FD2274FFB7
:10116500FCFDFEFF22E480F8A2D574FF13FC7D8010
:03117500E480EF24
:10287A0002213FE493A3F8E493A34003F68001F214
:10288A0008DFF48029E493A3F85407240CC8C3335F
:10289A00C4540F4420C8834004F456800146F6DF2E
:1028AA00E4800B0102040810204080903110E47E7D
:1028BA00019360BCA3FF543F30E509541FFEE49323
:1028CA00A360010ECF54C025E060A840B8E493A3EA
:1028DA00FAE493A3F8E493A3C8C582C8CAC583CA15
:1028EA00F0A3C8C582C8CAC583CADFE9DEE780BECD
:01313300009B
:10117800BB010689828A83E0225002E722BBFE0275
:09118800E32289828A83E49322A8
:10119100BB010CE58229F582E5833AF583E0225013
:1011A10006E92582F8E622BBFE06E92582F8E2225D
:0D11B100E58229F582E5833AF583E4932277
:1011BE00F8BB010DE58229F582E5833AF583E8F067
:1011CE00225006E92582C8F622BBFE05E92582C813
:0211DE00F222FB
:1011E000BC000BBE0029EF8DF084FFADF022E4CCF3
:1011F000F875F008EF2FFFEE33FEEC33FCEE9DECBC
:10120000984005FCEE9DFE0FD5F0E9E4CEFD22ED01
:10121000F8F5F0EE8420D21CFEADF075F008EF2F4B
:10122000FFED33FD4007985006D5F0F222C398FD3C
:051230000FD5F0EA22D9
:10123500BB0110E58229F582E5833AF583E0F5F0F7
:10124500A3E0225009E92582F886F008E622BBFED4
:101255000AE92582F8E2F5F008E222E5832AF5831A
:08126500E993F5F0A3E99322DF
:0E126D00C3E49FFFE49EFEE49DFDE49CFC2292
:06127B008A838982E473FE
:00000001FF
