:03001B00023C455F
:103C4500C0E0C0F0C083C082C0D075D000C000C045
:0D3C550001C002C003C004C005C006C007C6
:103C620090006A7404F090006CE0FBA3E0FAA3E019
:103C7200F9900034121704F582758300E5F51217E6
:103C8200439000341217042401FFE433FE7C007DCC
:103C920033121765AF0590006CE0FBA3E0FAA3E0D6
:103CA200F9900034ED1217439000341217042433B4
:103CB200FFE433FE900033121704FDC3EF9DFFEEC5
:103CC2009400FE7C007D33121765AF05EFD3941F7D
:043CD2004002D217C3
:103CD600D007D006D005D004D003D002D001D00042
:0B3CE600D0D0D082D083D0F0D0E032EC
:0300230002400E8A
:10400E00C0E0C0F0C083C082C0D075D000C000C078
:10401E0001C002C003C004C005C006C00790006FF7
:10402E00E0FBA3E0FAA3E0F9900033121704F58247
:10403E00758300121704F5F590003312170424014E
:10404E00FFE433FE7C007D33121765AF0590006FE1
:10405E00E0FBA3E0FAA3E0F9900033ED12174390D2
:10406E000034121704FF900033121704B50705C26F
:10407E001853EA3FD007D006D005D004D003D002A3
:0F408E00D001D000D0D0D082D083D0F0D0E0329B
:03006B00024F3F02
:104F3F00C0E0C083C0829001EEE004F0D082D08345
:034F4F00D0E0327D
:0300A300022E47E3
:102E4700C0E0C0F0C083C082C0D075D000C000C051
:0D2E570001C002C003C004C005C006C007D2
:102E64009001EEE0FEADB37C00E42DFFEC3E90015A
:102E7400E5F0A3EFF043B2019001EEE4F09001E538
:102E8400E07002A3E07004C2118011D39001E6E067
:102E9400940A9001E5E094004002D211D212B20FDC
:102EA4009001EBE004F0E0C394024031E4F09000C0
:102EB400E3E004F090014CE004F0E0943C401EE4B4
:102EC400F0D20B9000EAE004F0E0943C400FE4F010
:102ED4009000E9E004F0E094184002E4F0438D200F
:102EE400E58830E139758703000000000000000028
:102EF40053ABEF53A8F753A8EF758000758800759E
:102F0400900075980075A00075B0009001ECE00485
:102F1400F0E0D3943C4015743CF0C209800E90015B
:0C2F2400ECE06003124A3B9001ECE4F08A
:102F3000D007D006D005D004D003D002D001D000F5
:0B2F4000D0D0D082D083D0F0D0E0329F
:0300B3000224A67E
:1024A600C0E0C0F0C083C082C0D075D000C000C0FC
:0D24B60001C002C003C004C005C006C0077D
:1024C300E59030E4097812E64402F602257A7812A0
:1024D300E620E10302257A54FDF64401F67809E685
:1024E300FF7025C3780BE6946518E6940050030249
:1024F300257A187601780C76007812E654DFF678A0
:102503000D7600087600806FEF6401704C780EE65C
:1025130025E0790EF718E63319F7C3780BE6940E26
:1025230018E694004006780EE64401F6780A760031
:102533000876000806E6C39420403C08E6FF08E658
:102543009001FBCFF0A3EFF0780976027812E6440E
:1025530010F64408F6D21A801E7809E6B40218C3AE
:10256300780BE6949218E69404400C1876007812DF
:10257300E654F7F654FEF67812E6FF30E028780BBF
:1025830006E618700106C3780BE6949218E69404E5
:1025930040147600087600EF54FE7812F678097638
:1025A3000054F77812F6781106E6D394045006C265
:1025B30093D29280127811E6D39408500AD293C230
:1025C30092E6B408027600E59030E11D780FE6FE4E
:1025D30008E6FF4E600A9001B9EEF0A3EFF0D216C1
:1025E300780F76000876008008781006E6187001E8
:1025F30006780806E6C39432401B76009001ED741A
:1026030001F0D20412398890006AE06008E014F007
:10261300E07002D217300E0B7808E6D3940840031B
:0326230043981EBB
:10262600D007D006D005D004D003D002D001D00008
:0B263600D0D0D082D083D0F0D0E032B2
:03000000023F7448
:103F740078FFE4F6D8FD90001B7FE57E03E4F0A310
:0A3F8400DFFCDEFA758123023FC95D
:104A3B00124A6D124F6412496D12504B124F76127F
:104A4B004F2B900201748EF0D2087E4C7FF5D2046E
:104A5B00C2051245F17B0F7D0A7F01124C6E43A8F4
:024A6B008022A7
:10371D00124A3B438D2012503A7815E6D394194046
:10372D00147811E69406400D7F02124EC07816A64D
:10373D0007E47815F69001EDE060D8E4F0301A1C3E
:10374D00C21A9001FDE0FEA3E0240FF582E43EF5E0
:10375D0083740193FA740293F912192878130608E9
:10376D000608067813E624FE601714601914601B12
:10377D0014601D2404701F1238BCC20412398880D5
:10378D00191247C48014123AEB800F122160800A7F
:10379D0012454B124A9BE47813F67814E6C3940F46
:1037AD005003023720E4F61249D512409D123E39DE
:1037BD00123A3A9001FDE0FEA3E02409F582E43EC1
:1037CD00F583740193FA740293F91219289000E3AA
:1037DD00E06003E014F0200B03023720C20B023728
:0137ED0020BB
:07505B00759CA0E4F59D2205
:0F4FA600EF540FFFE59C54F04FF59C439C4022C5
:0D00A600758B66438B08538B7F43AB102294
:104F5200EF6007E5974401FF8005E59754FEFF8F58
:024F6200972294
:07506200E4F597758F3E2273
:08504300E4F59AF599F59B22B2
:0D4FEF0075B28E75B4FF43AA0243B20122D1
:1000030075BB2043BB3075BAC0E4F5BFF5BE75BD03
:080013000F75BC9F43BB802266
:104EAA0075EA0275E90643EAECE4F5EB75F3674344
:064EBA00A80843A8102225
:04507600438D202224
:09503100758E88758DC002507661
:0D4FFC0075968875890175898143AB042283
:0750690075C829E4F58A2255
:1046430075A1C375AC20E4F591F5DEF58075B1FC79
:10465300F5ADF592F5DFF58875B9CD75AE12F59325
:10466300F59075C1FFF5AFF59875C9FF75A304F50E
:1046730094F5A075D1D1F595F5B0F5D375D252F572
:10468300D575D4F3F5D775D603F5EEF5EF75FF2899
:014693002204
:104A6D0075D80153A87F124643125069124FFCE5C9
:104A7D008830E10543A88080F612505B1200A61223
:0E4A8D005062125043124FEF120003024EAA65
:104DCD00E4FEEF30E004D2A28002C2A2D2A1EFC372
:094DDD0013FFC2A10EEEB408E9B7
:014DE60022AA
:0B46940090019BEBF0A3EAF0A3E9F01B
:10469F00C2A07F08124DCDD2A0C2A090019FE044CE
:1046AF00C0FF124DCDE4FCECC39D501A90019BE06E
:1046BF00FBA3E0FAA3E0F98C82758300121704FFC5
:1046CF00124DCD0C80E1D2A0C2A0900201E0FF12EA
:0446DF004DCDD2A04B
:0146E30022B4
:102A06001F0C1B1E0C16171C1F1E80004040C0C04A
:102A1600C000C0C01F0C1B1E0C16171C1F1E40003A
:102A260020206060600060603F18363C192D2F380A
:102A36003F3D000080808080800080803F18363CCB
:102A4600192D2F383F3D0000404040404000404097
:102A56007F3C737E3C4E4F7C7F7EE0009010707012
:102A6600F000F070070307070304040707077F60F9
:102A76001C7063737F607F7300008080808080009D
:102A860080803F1E393F1E27273E3F3F7800640463
:102A96001C1C7C007C1C01000101000101010101DC
:102AA600FFF0CEF8F1393FF0FFF9400020206060DA
:102AB600600060601F0F1C1F0F13131F1F1F00F8FD
:102AC60000E4841C9CFC00FC9C040F070E0F070905
:102AD600090F0F0F007E40396147677F407F67010E
:102AE6000301030301020203030300FF609CF0E3FA
:102AF600737FE0FFF300000040404040400040404C
:102B0600401F0F1C1F0F13131F1F1F00F800E48424
:072B16001C9CFC00FC9C0468
:104F1700E4FE74542EF582E43401F583EFF00EEECF
:034F2700B440EFA4
:014F2A002264
:104B9E0090015474FFF0A3F0A3F0900158F0A3F02D
:104BAE00A3F090015CE044FEF0A374FFF0A3F022AA
:10477A00900152E004F0E0C39F4004E4F0B20D90CF
:10478A000179E04401F0300D16900175E0440EF015
:10479A00900174E04438F0900179E04470F022907E
:1047AA000174E044C0F0A3E04401F0900174E044D5
:0947BA0007F0900179E0440EF0D3
:0147C30022D3
:10484A00EF14603214602814601E14601414600A95
:10485A0014702A900164E04406F0900164E0440870
:10486A00F0900164E04410F0900164E04420F0907C
:0E487A000164E04440F0900164E04480F022CC
:10006E00EF14602814601E14601414600A147023B8
:10007E00900178E04404F0900178E04408F090019B
:10008E0078E04410F0900178E04420F0900178E0A0
:04009E004440F022C8
:1043D100EFD3946340027F63EF75F00A84FDEF75BC
:1043E100F00A84ACF0ED6024900181E0FFED902AA9
:1043F1000693FEEF4E900181F0900180E0FFAE0543
:10440100EE902A1093FEEF4E900180F0900180E033
:10441100FFEC902A1A93FEEF4E900180F0900185F7
:0E442100E0FFEC902A2493FEEF4E900185F010
:01442F00226A
:10443000EFD3946340027F63EF75F00A84FDEF755C
:10444000F00A84ACF0ED602490017DE0FFED902A4D
:104450002E93FEEF4E90017DF090017CE0FFAE05C3
:10446000EE902A3893FEEF4E90017CF090017CE0B4
:10447000FFEC902A4293FEEF4E90017CF090018178
:0E448000E0FFEC902A4C93FEEF4E900181F08D
:01448E00220B
:042F4B00AB07AA0620
:102F4F00D3EB940FEA942740047A277B0F7C037D01
:102F5F00E8AF03AE0212176590019FEFF07C007D82
:102F6F0064AF03AE021217657C007D0A121765A3CA
:102F7F00EDF07C007D0AAF03AE021217657C007D79
:102F8F000A121765A3EDF0AE02AF037C007D0A12A3
:102F9F001765AB05900169E0FE90019FE0FD902A57
:102FAF005693FCEE4C900169F0900168E0FFED90B4
:102FBF002A6093FEEF4EFF900168F09001A0E0FEB3
:102FCF00902A6A934F900168F090016DE0FFEE90A8
:102FDF002A7493FEEF4E90016DF090016CE0FF901C
:102FEF0001A0E0902A7E93FEEF4EFF90016CF090CF
:102FFF0001A1E0FE902A88934F90016CF09001712F
:10300F00E0FFEE902A9293FEEF4EFF900171F0EBEE
:10301F00902A9C934F900171F0900170E0FFEB901C
:10302F002AA693FEEF4E900170F0900175E0FFAE6F
:0D303F0003EE902AB093FEEF4E900175F065
:01304C002261
:1037EE00EF75F00A84F9EF75F00A84AEF0ED75F01E
:1037FE000A84FCED75F00A84ABF0EFD39418400404
:10380E00790A7E0AEDD3943C40047C0A7B0A30058B
:10381E0003300F44900185E0FFE9902ABA93FDEF43
:10382E004D900185F0900184E0FFE9902AC593FD4B
:10383E00EF4D900184F0900160E0FFEE902AD0935E
:10384E00FDEF4D900160F0900165E0FFEE902ADBF8
:10385E0093FEEF4E900165F0300603300F4F90014E
:10386E0089E0FFEC902AE693FEEF4E900189F090EE
:10387E000188E0FFEC902AF193FEEF4E900188F064
:10388E0090018DE0FFEC902AFC93FEEF4EFF90012D
:10389E008DF0EB902B07934F90018DF090018CE003
:0D38AE00FFEB902B1293FEEF4E90018CF07B
:0138BB0022EA
:04325100AB07AA0617
:103255007C037DE812176590019FEFF07C007D648B
:10326500AF03AE021217657C007D0A121765A3ED48
:10327500F07C007D0AAF03AE021217657C007D0A63
:10328500121765A3EDF07C007D0AAF03AE0212179D
:1032950065A905D3EB940FEA9427400B90019F7421
:1032A5000AF0A3F0A3F0F9900185E0FE90019FE0FC
:1032B500FD902ABA93FCEE4C900185F0900184E0D4
:1032C500FFED902AC593FEEF4E900184F0900160CA
:1032D500E0FF9001A0E0FE902AD093FDEF4D900114
:1032E50060F0900165E0FFEE902ADB93FEEF4E90D3
:1032F5000165F0900189E0FF9001A1E0FE902AE6CA
:1033050093FDEF4D900189F0900188E0FFEE902A42
:10331500F193FEEF4E900188F090018DE0FF900152
:10332500A1E0902AFC93FEEF4EFF90018DF0E9900D
:103335002B07934F90018DF090018CE0FFE9902BC6
:093345001293FEEF4E90018CF092
:01334E00225C
:10398800300406900153E004F043C1E143B9C05349
:10399800981E53903F900153E024FE602804704A1B
:1039A800900193E030E0055398EF8003439810901E
:1039B8000193E030E1055398FD8003439802439852
:1039C8002043980122900193E030E2055398EF805C
:1039D80003439810900193E030E3055398FD80036A
:1039E80043980243984043908022900193E030E44A
:1039F800055398FD8003439802900193E030E50554
:103A08005398FB8003439804900193E030E60553F4
:103A180098F78003439808900193E030E70553989E
:103A2800EF8003439810439880439040E4900153FB
:013A3800F09D
:013A3900226A
:1049D500E4FF124F17E4900193F09001FDE0FEA370
:1049E500E0F5828E83A3A3A3740193FA740293F96D
:1049F5001219287B017A017954E490019FF07D3FDB
:034A0500024694D2
:104F6400C219E49001EFF09001F2F09001F0F0A387
:024F7400F02229
:104C6E00EBD39D5003ED04FB9001EFEFF09001F2BA
:0B4C7E00EDF09001F0EBF0E4A3F02259
:1047C4009001EFE0603A9001F1E004F0A3E0FF9083
:1047D40001F1E0FEC39F5009201903439701D21948
:1047E400229001F0E0FFEEC39F5009301903539764
:1047F400FEC219229001EFE014F0E49001F1F022DE
:03480400C21922B4
:1000B600ECECECECECECECECECECECECECECECEC7A
:1000C600ECECECECECECECECECECECECECECECED69
:1000D600EDEEEFEFF0F1F1F2F2F3F4F4F5F6F6F6F9
:1000E600EDEDF8F8F9F9FAFAFBFBFCFCFDFDFEFE76
:1000F600FFFF0000010101020203030404040505D9
:10010600060607070708080909090A0A0B0B0B0C5C
:100116000C0D0D0D0E0E0F0F0F10101111111212E6
:100126001313131414141515161616171718181872
:1001360019191A1A1B1B1B1C1C1D1D1D1E1E1F1FF9
:10014600202020212122222323242424252526267B
:100156002727282829292A2A2B2B2C2C2D01010276
:10016600020303040405060708090A0C0D0F111300
:1001760015171A1D2023272A2E33373C40454A4F90
:10018600555A5F656A70757B80868B90969BA0A595
:10019600A9AEB2B7BBBFC3C6CACD292F353B4249AC
:1001A60050575E656C727980878D93999FA5AAAF2B
:1001B600B4B8BDC1C5C8CCCFD2D4D7D9DCDEE0E156
:1001C600E3E4E6E7E8E9EAEBECEDEEEEEFF0F0F17A
:1001D600F2F2F3F3F4F4F501020202030304050557
:1001E6000607080A0B0D0E10121417191C1F2226DB
:1001F6002A2D32363B3F44494F54595F646A707525
:100206007B81868B91969BA0A5AAAEB3B7BBBFC3D5
:10021600C7CACDD001020202030404050607080975
:100226000A0C0D0F111316181B1E2125292D30350A
:100236003A3E43484E53585E64696F757A80868BA2
:1002460090969BA0A5AAAEB3B7BBBFC3C7CACDD075
:10025600D302020203030405050607080A0B0D0E66
:10026600101215171A1D2023272B2F33383D42470E
:100276004C52575D62686E74797F858A90959A9F15
:10028600A4A9AEB2B7BBBFC3C6CACDD0D3D60202ED
:100296000203030405060708090A0C0D0F111416BC
:1002A600191B1F22262A2E32363B40454A50555BE3
:1002B60061666C72787E84898F94999FA4A8ADB28A
:1002C600B6BABEC2C6C9CDD0D3D6D802020303047D
:1002D60004050607080A0B0D0E101215171A1D2025
:1002E60024282C30353A3E43494E53595F656A708F
:1002F600767C82888D93989EA3A8ACB1B5BABEC20F
:10030600C5C9CCCFD2D5D8DA020203030405060745
:1003160008090A0C0E10121416191C1F23272B2F5E
:1003260034383D42484D52585E64696F757B81870B
:100336008D92989DA2A7ACB1B5B9BDC1C5C9CCCFA8
:10034600D2D5D7DADC0203030404050607080A0B34
:100356000D0F111316181B1E2225292E32373C416C
:10036600464C51575D62686E747A80868C91979C74
:10037600A2A6ABB0B5B9BDC1C5C8CCCFD2D5D7DA68
:10038600DCDE0203030405060708090B0C0E101237
:1003960015171A1D2124282C31363B40454B505643
:1003A6005C61676D73797F858A90969CA1A6ABAFD9
:1003B600B4B8BDC0C4C8CBCED1D4D7D9DCDEE00337
:1003C600030405050607090A0B0D0F111416191C5F
:1003D6002023272B3034393E44494F545A60666CEB
:1003E60072787E84898F959AA0A5ABAFB3B8BCC04E
:1003F600C4C7CBCED1D4D6D9DBDEE0E203030405F5
:10040600060708090B0C0E101315181B1E22262AA8
:100416002E33383D42484E53595F656B71777D8266
:10042600898E94999FA5A9AFB3B7BCC0C4C7CBCEDC
:10043600D1D4D6D9DBDDDFE1E303040505060809DF
:100446000A0C0D0F1214171A1D2124282D31363BC4
:1004560041464C52585E646A70767C81878D9298CC
:100466009DA3A8ADB2B6BABFC2C6C9CDD0D3D6D8A1
:10047600DADDDFE1E3E40404050607080A0B0D0FE5
:10048600111316181C1F23272B3034393E444A50AB
:10049600565C62686E757A80868B91979CA1A6AC35
:1004A600B0B6B9BEC1C5C9CCCFD2D5D7DADCDEE08D
:1004B600E2E4E60405060708090A0C0E10121517F1
:1004C6001A1E2125292E32373D42484E545B61675C
:1004D6006D73797F858A90969BA0A5AAAFB4B9BCA7
:1004E600C1C4C8CBCED1D4D7D9DCDEE0E2E4E5E79F
:1004F60004050607090A0C0D0F111416191C2024F1
:10050600282C31363B40464C53595F666C72787ED8
:1005160084898F949A9FA4A9AEB3B7BCC0C3C7CA37
:10052600CDD0D3D6D8DBDDDFE1E3E5E6E805060787
:1005360008090B0D0F111315181B1F22262A2F341D
:10054600393E444A51575E646B71777E83898E9437
:10055600999EA3A8ADB2B6BABFC3C6CACDD0D2D5EE
:10056600D8DADDDFE1E3E4E6E8E9050608090A0C86
:100576000E101214171A1D2125292D32373C424818
:100586004E555B62686F757C82888D92989DA2A796
:10059600ACB0B5B9BDC1C5C9CCCFD2D4D7D9DCDED4
:1005A600E0E2E4E6E7E8EA0607080A0B0D0F111495
:1005B60016191C2024282C31353B40464C52595FD5
:1005C600666D737A80868C92979CA1A6ABAFB4B801
:1005D600BCC0C4C8CBCED1D4D6D9DBDDE0E1E3E5DF
:1005E600E7E8E9EB0608090B0C0E101315181B1F9C
:1005F60022272B2F34393E444A50565D646A71785F
:100606007E848B90969BA0A5AAAEB3B7BBBFC3C78B
:10061600CACED0D3D6D8DADDDFE1E3E5E6E8E9EA0B
:10062600EB07080A0C0E101215171B1E22262A2F7E
:1006360033383D43484E545B61686F757C83898FC0
:10064600959A9FA4A9AEB2B6BABEC2C6C9CDD0D33A
:10065600D5D8DADCDEE0E2E4E6E7E9EAEBEC080925
:100666000B0D0F1114171A1D2125292E33373C4166
:10067600474D53595F666D737A81888E94999FA40E
:10068600A8ADB2B6BABEC1C5C9CCCFD2D5D7DADC11
:10069600DEE0E2E4E5E7E8EAEBECED090A0C0E1031
:1006A6001316191C1F23272C31363A40454B515738
:1006B6005D646A71787E858C92989DA3A7ACB1B56E
:1006C600B9BDC0C4C7CBCED1D4D6D9DBDDDFE1E31B
:1006D600E5E6E8E9EAEBEDED090B0D0F1214171B41
:1006E6001E22262A2F34393E44494F555B62686FD5
:1006F600767C838990969CA1A6ABB0B4B8BCC0C3E7
:10070600C7CACDD0D3D6D8DADDDFE0E2E4E6E7E942
:10071600EAEBECEDEE0A0C0E1113161A1D21252933
:100726002D32373D42484D535A60666D747A818842
:100736008E949AA0A5AAAFB3B7BBBFC3C6C9CCCF88
:10074600D2D5D7DADCDEE0E2E3E5E7E8E9EAECED8C
:10075600EEEF0B0D101215191C2024282C31363BF8
:1007660041464C52585E656B72797F868C93999F91
:10077600A4A9AEB2B7BBBEC2C5C9CCCFD2D4D7D955
:10078600DBDDDFE1E3E4E6E7E9EAEBECEDEEEF0DD6
:100796000F1214181B1F23272B30353A40454B5197
:1007A600575D636A70777E858B92989EA3A8ADB2DB
:1007B600B6BABEC2C5C8CBCED1D4D6D9DBDDDFE151
:1007C600E2E4E6E7E8EAEBECEDEEEFF00E101316E6
:1007D600191D21252A2E33383E43494F555B616842
:1007E6006E757C82898F969CA1A7ACB1B5B9BDC147
:1007F600C4C8CBCED0D3D6D8DADCDEE0E2E4E5E777
:10080600E8E9EAEBECEDEEEFF00F1114181B1F23ED
:10081600282D32373C42474D53595F666C737980B9
:10082600878D949AA0A5ABB0B4B9BDC0C4C7CACDD4
:10083600D0D3D5D8DADCDEE0E1E3E5E6E7E9EAEBBA
:10084600ECEDEEEFF0F01013161A1D22262B3035C4
:100856003B40464C52585E646B71787E858B92980D
:100866009EA4A9AEB3B8BCC0C3C7CACDD0D2D5D793
:10087600D9DCDEDFE1E3E4E6E7E8EAEBECEDEEEF18
:10088600EFF0F11215181C2025292E34393F454B5F
:1008960050565C636970767D838A90979DA2A8AD59
:1008A600B2B7BBBFC3C6CACCCFD2D5D7D9DBDDDF83
:1008B600E1E3E4E5E7E8E9EAEBECEDEEEFF0F1F190
:1008C60013171A1E23282D32383E444A50565C62AE
:1008D600686E757C82888F959BA1A7ACB1B6BBBFAD
:1008E600C3C6C9CCCFD2D5D7D9DBDDDFE1E2E4E59B
:1008F600E7E8E9EAEBECEDEEEFF0F0F1F215181CA3
:1009060021252A30353B41474D545960666C727932
:1009160080868D93999FA5AAAFB4B9BDC1C5C8CB32
:10092600CED1D4D6D9DBDDDFE0E2E3E5E6E7E9EADE
:10093600EBECEDEEEEEFF0F1F1F2161A1E23282D98
:1009460033393F454B51585D646A70777D848A918F
:10095600979DA3A8AEB2B7BCC0C4C7CBCDD0D3D6E3
:10096600D8DADCDEE0E2E3E4E6E7E8E9EAEBECED40
:10097600EEEFF0F0F1F2F2181C21262A30373D4353
:10098600494F565C62686E757B82888F959BA1A6DF
:10099600ACB1B6BABEC2C6C9CDCFD2D5D7DADCDEC7
:1009A600DFE1E3E4E5E7E8E9EAEBECEDEEEFEFF0B3
:1009B600F1F2F2F31A1F24292D343A41474D535AC6
:1009C60061666D737A80878D93999FA5AAAFB4B936
:1009D600BDC1C5C9CCCFD2D4D7D9DBDDDFE1E2E4D6
:1009E600E5E6E8E9EAEBECEDEEEEEFF0F1F1F2F335
:1009F600F31D22272C31383F454B51585F656B72EA
:100A0600787F858C91989EA4A9AEB3B8BCC0C4C8A3
:100A1600CBCED1D4D6D9DBDDDFE0E2E4E5E6E7E90B
:100A2600EAEBECEDEEEEEFF0F0F1F2F2F3F31F2469
:100A3600292F343B42484F555B62696F757C82892A
:100A46008F959BA1A7ACB1B6BABFC2C6CACDD0D34B
:100A5600D5D8DADCDEE0E1E3E4E6E7E8E9EAEBEC68
:100A6600EDEEEFEFF0F1F1F2F3F3F421262C31374E
:100A76003E454C52585F666D737980868D93999F7B
:100A8600A5AAAFB4B8BDC1C5C8CCCFD2D4D7D9DB1F
:100A9600DDDFE1E3E4E5E7E8E9EAEBECEDEEEEEFD6
:100AA600F0F1F1F2F2F3F3F423292E343A41484FF0
:100AB600565C636A71777E848B91979DA2A8ADB2CE
:100AC600B7BBBFC3C7CACED1D4D6D8DBDDDFE0E221
:100AD600E4E5E6E7E9EAEBECECEDEEEFF0F0F1F257
:100AE600F2F3F3F4F4262C31383E454C5359606743
:100AF6006E757B82888F959BA1A6ABB0B5BABEC238
:100B0600C6C9CDD0D3D5D8DADCDEE0E2E3E5E6E748
:100B1600E8E9EAEBECEDEEEFEFF0F1F1F2F2F3F3E8
:100B2600F4F4FF01DDFF021AFF0257FF0294FF02F1
:100B3600D1FF030EFF034BFF0388FF03C5FF04022B
:100B4600FF043FFF047CFF04B9FF04F6FF0533FFF3
:100B56000570FF05ADFF05EAFF0627FF0664FF06E1
:100B6600A1FF06DEFF071BFF0758FF0795FF07D209
:100B7600FF080FFF084CFF0889FF08C6FF0903FF9F
:100B86000940FF097DFF09BAFF09F7FF0A34FF0A8A
:070B960071FF0AAEFF0AEB3C
:104AC9004201D200004101D4004101D5FF4101D684
:0E4AD900004201D700004101D9004101DA007E
:104EC000EF540FFFE59C54F04FF59C439C40E59C4C
:064ED00030E4FBAF9F225D
:104B7800EFC394054006EFD394F04004D2148002AA
:104B8800C214EFD394AC40057818762D22EF90002C
:064B9800B6937818F62226
:10409D007F01124EC09001D4E0FEEFD39E4002EF9F
:1040AD00F09001D5E0FEEFC39E5002EFF09001D3EA
:1040BD00E02FF09001D2E03400F09001D6E004F052
:1040CD00E0C3940A40529001D4E0FF9001D3E09FE9
:1040DD00FF9001D2E09400FE9001D5E0FDC3EF9D6D
:1040ED00FFEE94009001D2F0A3EFF09001D2E0FE2C
:1040FD00A3E07803CEC313CE13D8F9FF9001D2EE0F
:10410D00F0A3EFF0124B78E49001D6F09001D2F0CD
:08411D00A3F0A3F0A374FFF06E
:014125002277
:0542970090019CE0FF16
:10429C00EDB4051090019F74FFF0A37401F0A374AA
:1042AC0063F08037EDB42D1090019F74FFF0A37470
:1042BC0001F0A374A0F08023ED75F003A42416F58F
:1042CC0082E4340BF583E493F9740193FA7402934A
:1042DC0090019FC9F0A3EAF0A3E9F0E4FE90019FDE
:1042EC00E0FBA3E0FAA3E0F98E82758300121704B9
:0F42FC00FDEFC39D40050EEEB43CE2EE241EFF25
:01430B00228F
:05334F0090019CEFF06D
:103354007818E6FCD3648094855007E0FF7D05026D
:103364003445C3EC648094AD400A90019CE0FF7D39
:103374002D023445C37818E66480948650557D0642
:1033840012429790019DEFF07D0512429790019EA5
:10339400EFF090019DE0FDC3EF9DFDE49400FCE49B
:1033A400121631C004C005C006C0077818E6FF3302
:1033B40095E0FEC374069FFDE49EFC121631D00313
:1033C400D002D001D00012152612166A90019DE099
:1033D4002F8066D37818E6648094AC90019CE0FF5B
:1033E400405B7D2C12429C90019DEFF090019CE08B
:1033F400FF7D2D12429C90019EEFF090019DE0C351
:103404009FFDE49400FCE4121631C004C005C0061C
:10341400C0077818E6FF3395E0FEEF24D4FDEE34C0
:10342400FFFC121631D003D002D001D000121526B1
:1034340012166A90019DE0C39F7817F6227818E669
:08344400FD12429C7817A60757
:01344C00225D
:103E39007816E6FF9001D8E02FF09001D7E0340022
:103E4900F09001D9E004F0E0C394085003023ED891
:103E59009001D7E0FEA3E07803CEC313CE13D8F9BF
:103E6900F0EE9001D7F09001DAE004F0E0C3940895
:103E79004004E4F0D2139001D7A3E0FD9001DAE009
:103E890024DBF582E43401F583EDF0301329E4FFF6
:103E9900FEFC74DB2CF582E43401F583E02FFFE4AA
:103EA9003EFE0CECB408EBEF7803CEC313CE13D867
:103EB900F990019BF0800590019BEDF090019BE04A
:0F3EC900FF12334FE49001D9F09001D7F0A3F02E
:013ED80022C7
:104F76007F01124EC0124B787F02124EC002334F91
:104F2B009001BD7407F0A37453F0C215E49001B760
:044F3B00F0A3F022CD
:1046E4009001B7E0FCA3E0FDD39432EC94005004B5
:1046F4007F018036D3ED9464EC940050047F0280F3
:1047040029D3ED9496EC940050047F03801CD3EDE0
:1047140094C8EC940050047F04800FD3ED942CECE7
:0A472400940150047F0580027F0617
:01472E002268
:103AEB009001BDE07002A3E060259001BEE024FFD1
:103AFB00F09001BDE034FFF0E07002A3E070121211
:103B0B0046E49001BFEFF09001BBF0A3F08002D22E
:103B1B00153016789001AFE0FFA3E0A3CFF0A3EF31
:103B2B00F09001ADE0FFA3E0A3CFF0A3EFF0900185
:103B3B00ABE0FFA3E0A3CFF0A3EFF09001B9E0FF60
:103B4B00A3E09001ABCFF0A3EFF0C216E49001B766
:103B5B00F0A3F0FFEF25E024ABF582E43401F5830D
:103B6B00E0FCA3E0FD9001B8E02DF09001B7E03C44
:103B7B00F00FEFB404DE9001B7E0FEA3E07805CEC2
:0C3B8B00C313CE13D8F9F0EE9001B7F090
:013B9700220B
:103A3A0020150BE49001B3F0A3F0A3023AE7124673
:103A4A00E49001BCE0FEEFC39E400EE49001B5F0A5
:103A5A00A3F09001BFEFF08038EFC39E503790017A
:103A6A00B6E004F070069001B5E004F0D39001B618
:103A7A00E094689001B5E0648094804018E4F0A373
:103A8A00F09001BFE0D394014003E014F09001BF2D
:103A9A00E09001BCF09001BBE0FF9001BFE0FED3D3
:103AAA009F401AE49001B4F09001B3E004F0E0D32F
:103ABA009468402CE4F09001BBE004F022EEC39F2E
:103ACA005017E49001B3F0A3E004F0E094D0401062
:103ADA00E4F09001BBE014F022E49001B3F0A3F00B
:013AEA0022B9
:0A500900C210E49001E9F0A3F022C8
:104BFB00D210EF7802C333CE33CED8F9FF7C007DD1
:0D4C0B00781217659001E9EEF0A3EFF0229A
:102160009001FDE0FEA3E0240CF582E43EF58374CB
:102170000193FA740293F912192830100B9001E9B7
:10218000E0FAA3E0FB4A700CE4F5BFF5BE9001E76E
:10219000F0A3F0222011289001E8E02414F090012F
:1021A000E7E03400F0D3A3E094209001E7E094034B
:1021B00050030222E87403F0A37420F00222E82006
:1021C00012030222E89001E3E0FEA3E0FFC39001C6
:1021D000E6E09F9001E5E09E400BA3E09FFF9001A9
:1021E000E5E09E80149001E5E0FEA3E0FFC39001CE
:1021F000E4E09FFF9001E3E09E90019DF0A3EFF0EB
:10220000C39001E6E09B9001E5E09A406A9001E905
:10221000E0FEA3E0FF9001E6E09FFF9001E5E09E75
:1022200090019BF0A3EFF0E0C4F8540FC868FF9052
:10223000019BE0C454F048FE90019EE02401FD9013
:10224000019DE03400FC12176590019FEEF0A3EFB2
:10225000F0D39001E8E09F9001E7E09E5003022256
:10226000E690019FE0FEA3E0FF9001E8E09FF09080
:1022700001E7E09EF0806F9001E5E0FEA3E0FFC380
:102280009001EAE09FFF9001E9E09E90019BF0A39E
:10229000EFF0E0C4F8540FC868FF90019BE0C4540D
:1022A000F048FE90019EE02401FD90019DE0340085
:1022B000FC12176590019FEEF0A3EFF0C374A09F8E
:1022C000FF740F9EFEC39001E8E09F9001E7E09E3F
:1022D000501490019FE0FEA3E0FF9001E8E02FF092
:1022E0009001E7E03EF0C2129001E7E0FCA3E0FDC0
:1022F000ECF5BF8DBE9001E5E0FFA3E09001E3CFD8
:04230000F0A3EFF067
:0123040022B6
:104BDD000101010100DB0101030100DE01010501FD
:0E4BED0000E1071E121E111E161E0900161EE4
:1035470090019F7405F0A374A0F090011274FFF02E
:10355700E49001A1F09001A1E0FFC39406400302AB
:103567003639EF75F003A424DDF582E4344BF58397
:10357700E493FB740193FA740293F91216EBC413E4
:103587001313540120E00302362F9001A1E0FF75C9
:10359700F003A424DDF582E4344BF583E493FB7454
:1035A7000193FA740293F9900001121704FD7C004D
:1035B700EF75F003A424DDF582E4344BF583E4933F
:1035C700FB740193FA740293F91216EB547F75F0AA
:1035D7003CA42DFEEC35F09001A2F0A3CEF09000B4
:1035E700E9E075F03CA4FFA3E02FFFEC35F0FE9077
:1035F70001A2E0FCA3E0FDD39FEC9E402BED9FFDD5
:10360700EC9EFCD39001A0E09D90019FE09C4018A8
:103617009001A3E09FFF9001A2E09E90019FF0A37D
:10362700EFF0A3E0900112F09001A1E02402F00274
:02363700355C00
:01363900226E
:10454B00E490010CF09001FDE0FEA3E02406F5825F
:10455B00E43EF583740193FA740293F912192890CF
:10456B00010CE030E004C28C8002D28C90010CE094
:10457B0030E104D28E8002C28E90010CE030E20456
:10458B00D28D8002C28D90010CE030E303D2A322C6
:03459B00C2A32296
:104A9B00E58830E1239000D8E004F0E0D3940540A2
:104AAB001CE4F0758703000000000000000053AB0E
:0D4ABB00EF53A8F753A8EF22E49000D8F0C5
:014AC80022CB
:10421E00C2079001477404F0E4900101F09000DBB6
:10422E00F0900103F09000DEF0900105F09000E1B7
:10423E00F0900102F09000DCF0900104F09000DFAD
:10424E00F0900106F09000E2F0FF74EB2FF582E49F
:10425E003400F583E4F00FEFB414EFC20890010BB5
:10426E00E054FEF05401F090011274FFF0900151F1
:10427E00F0C20C90014D1218EB00000000C20AC2F1
:08428E0009E49000FFF0A3F029
:014296002205
:10459E0043981E000000004398E14390C053C11E93
:1045AE0053B93F00000000E4FFE59820E5010FE558
:1045BE009820E604EF4402FFE59820E704EF440458
:1045CE00FFE59820E004EF4408FFE59020E704EFB4
:1045DE004410FFE59020E604EF4420FF43C1E14381
:0245EE00B9C052
:0145F00022A8
:1038BC0012459E90019BEFF09001F5E06F603A90FD
:1038CC00019BE0702B9001F3E0FFD394054021EFB6
:1038DC009496501C9001F67402F09001FDE0FEA34A
:1038EC00E0F5828E83740193FA740293F91219280D
:1038FC0090019BE09001F5F0229001F5E0700990A9
:10390C0001F3F0A3F0D21B22E49001F6F09001F346
:10391C00E004F0A3E004F0E0D3943C401F742DF0DD
:10392C009001F67404F09001FDE0FEA3E0F5828EA8
:10393C0083740193FA740293F91219289001F3E03D
:10394C00FFB405089001F67401F08019EFB4F80883
:10395C009001F67403F0800DEFD394FA401D9001A2
:10396C00F374FAF0229001FDE0FEA3E0F5828E8361
:0B397C00740193FA740293F9121928E9
:01398700221D
:0E4FD300900034E4121743900033E4021743B9
:104F0200900034121704FF900033121704B5070300
:054F1200D38001C32261
:1048FE009001A8EBF0A3EAF0A3E9F09001A8E0FB89
:10490E00A3E0FAA3E0F99000341217042401FFE4A7
:10491E0033FE7C007D33121765AF059000331217FE
:09492E0004B50503D38001C32286
:104DE7009000341217042433FF900033121704FE87
:0A4DF700C3EF9E75F03384AFF02285
:104370009001A7EDF09001A4EBF0A3EAF0A3E9F01F
:104380001248FE40469001A7E0FF9001A4E0FBA385
:10439000E0FAA3E0F9900034121704F58275830067
:1043A000EF1217439000341217042401FFE433FE88
:1043B0007C007D33121765AF059001A4E0FBA3E0FC
:1043C000FAA3E0F9900034ED1217439001A7E0FF43
:0143D00022CA
:0B44EE009001A4EBF0A3EAF0A3E9F0BA
:1044F900E4A3F0124F0240449001A4E0FBA3E0FAC8
:10450900A3E0F9900033121704F58275830012179E
:10451900049001A7F09000331217042401FFE4333B
:10452900FE7C007D33121765AF059001A4E0FBA363
:10453900E0FAA3E0F9900033ED1217439001A7E0E8
:01454900FF72
:01454A00224E
:10472F000101FF001E0201FF4B220301FF448F0412
:10473F0001FF4ED60501FF4EEC0601FF4C18070195
:10474F00FF4C35080CFF41A40901FF26410A01FF68
:10475F003B980B06FF48070C01FF4C890D01FF4CDE
:0B476F0052F701FF1FB5FF06FF4E01CF
:05110F0090019FEFF0CC
:10111400E4A3F090006FE0FBA3E0FAA3E0F97DF212
:1011240012437090006FE0FBA3E0FAA3E0F97DF2B4
:1011340012437090006FE0FBA3E0FAA3E0F9900182
:101144009FE0FD1243709001A0E02FF090006FE04B
:10115400FBA3E0FAA3E0F97D251243709001A0E01F
:101164002FF090006FE0FBA3E0FAA3E0F9900111E7
:10117400E0FD1243709001A0E02FF090006FE0FBBF
:10118400A3E0FAA3E0F99001B7E0FD1243709001E7
:10119400A0E02FF090006FE0FBA3E0FAA3E0F99049
:1011A40001B7A3E0FD1243709001A0E02FF090007E
:1011B4006FE0FBA3E0FAA3E0F9900149E0FD1243DC
:1011C400709001A0E02FF090006FE0FBA3E0FAA381
:1011D400E0F9900149A3E0FD1243709001A0E02FD3
:1011E400F090006FE0FBA3E0FAA3E0F99000FFE0C9
:1011F400FD1243709001A0E02FF090006FE0FBA37C
:10120400E0FAA3E0F99000FFA3E0FD12437090011F
:10121400A0E02FF090006FE0FBA3E0FAA3E0F990C8
:101224000109E0FD1243709001A0E02FF090006FDF
:10123400E0FBA3E0FAA3E0F9900109A3E0FD124367
:10124400709001A0E02FF090006FE0FBA3E0FAA300
:10125400E0F97818E6FD1243709001A0E02FF090B9
:10126400006FE0FBA3E0FAA3E0F97817E6FD124370
:10127400709001A0E02FF090006FE0FBA3E0FAA3D0
:10128400E0F9300703E48004900147E0FD12437065
:101294009001A0E02FF090006FE0FBA3E0FAA3E040
:1012A400F990010DE0B401047D0180027D00124338
:1012B400709001A0E02FF090006FE0FBA3E0FAA390
:1012C400E0F99000E0E0B402047D0180027D0012A8
:1012D40043709001A0E02FF090006FE0FBA3E0FAD0
:1012E400A3E0F990010EE0FD1243709001A0E02FFD
:1012F400F090006FE0FBA3E0FAA3E0F99000DDE0DA
:10130400FD1243709001A0E02FF090006FE0FBA36A
:10131400E0FAA3E0F9900101E0FD1243709001A00E
:10132400E02FF090006FE0FBA3E0FAA3E0F9900156
:1013340002E0FD1243709001A0E02FF090006FE0F6
:10134400FBA3E0FAA3E0F99000DBE0FD1243709008
:1013540001A0E02FF090006FE0FBA3E0FAA3E0F916
:101364009000DCE0FD1243709001A0E02FF09000AB
:101374006FE0FBA3E0FAA3E0F9900103E0FD124360
:10138400709001A0E02FF090006FE0FBA3E0FAA3BF
:10139400E0F9900104E0FD1243709001A0E02FF009
:1013A40090006FE0FBA3E0FAA3E0F99000DEE0FD1B
:1013B4001243709001A0E02FF090006FE0FBA3E0D7
:1013C400FAA3E0F99000DFE0FD1243709001A0E081
:1013D4002FF090006FE0FBA3E0FAA3E0F990010581
:1013E400E0FD1243709001A0E02FF090006FE0FB4D
:1013F400A3E0FAA3E0F9900106E0FD124370900126
:10140400A0E02FF090006FE0FBA3E0FAA3E0F990D6
:1014140000E1E0FD1243709001A0E02FF090006F16
:10142400E0FBA3E0FAA3E0F99000E2E0FD124370D0
:101434009001A0E02FF090006FE0FBA3E0FAA3E09E
:10144400F9E4FD1243709001A0E02FF090006FE0EA
:10145400FBA3E0FAA3E0F9E4FD1243709001A0E0DD
:101464002FF090006FE0FBA3E0FAA3E0F9E4FD1293
:1014740043709001A0E02FF090006FE0FBA3E0FA2E
:10148400A3E0F9E4FD1243709001A0E02FF0900076
:101494006FE0FBA3E0FAA3E0F9E4FD1243709001CE
:1014A400A0E02FF090006FE0FBA3E0FAA3E0F9E4E2
:1014B400FD1243709001A0E02FF090006FE0FBA3B9
:1014C400E0FAA3E0F9E4FD1243709001A0E02FF0EC
:1014D40090006FE0FBA3E0FAA3E0F9E4FD1243708F
:1014E4009001A0E02FF090006FE0FBA3E0FAA3E0EE
:1014F400F9E4FD1243709001A0E02FF090006FE03A
:10150400FBA3E0FAA3E0F99001A0E0FD1243709080
:10151400006FE0FBA3E0FAA3E0F97D7E12437002C2
:0215240000269F
:01006A002273
:05001E007F0102110F3B
:104B2200900074E0FF900111F0BF01067E4D7FB24C
:104B320080047E4C7FF5D204C2051245F17B0F7DC5
:0B4B42000A7F01124C6E7F0202110F6F
:10448F00900111E064017052900074E0FF700CD243
:10449F00079001BFE09001BBF08002C20790014777
:1044AF00E0B40118EF6401600A9000DD7401F09030
:1044BF00010EF0E49000DDF090010EF0900074E03A
:1044CF00FF900147F0BF0109E49000DDF090010E6D
:0F44DF00F07B0F7D0A7F01124C6E7F0302110FDD
:104ED600900074E090010DF07B0F7D0A7F01124C6B
:064EE6006E7F0402110FB3
:104EEC00900074E09000E0F07B0F7D0A7F01124C83
:064EFC006E7F0502110F9C
:104C1800900111E0B40111900074E090010EF07B56
:0D4C28000F7D0A7F01124C6E7F0602110FF6
:104C3500900111E0B40111900074E09000DDF07B6B
:0D4C45000F7D0A7F01124C6E7F0702110FD8
:1041A400900074E0900101F0900075E0900102F03D
:1041B400900076E09000DBF0900077E09000DCF077
:1041C400900078E0900103F0900079E0900104F011
:1041D40090007AE09000DEF090007BE09000DFF049
:1041E40090007CE0900105F090007DE0900106F0E5
:1041F40090007EE09000E1F090007FE09000E2F01B
:10420400D20890010BE054FEF01235477B0F7D0A73
:0A4214007F01124C6E7F0802110FAB
:10264100900074E09001A1B4010D7401F0A3740134
:10265100F0A37413F0800B7401F0A37401F0A37460
:102661002DF090006FE0FBA3E0FAA3E0F97DF212F8
:10267100437090006FE0FBA3E0FAA3E0F97DF21252
:10268100437090006FE0FBA3E0FAA3E0F97D09122B
:10269100437090019FEFF090006FE0FBA3E0FAA37D
:1026A100E0F97D1A12437090019FE02FF09001A193
:1026B100E0FBA3E0FAA3E0F91216EBFD90006FE056
:1026C100FBA3E0FAA3E0F912437090019FE02FF021
:1026D1009001A1E0FBA3E0FAA3E0F9900001121739
:1026E10004FD90006FE0FBA3E0FAA3E0F912437050
:1026F10090019FE02FF0E4A3F09001A0E0FFC394CC
:102701000C506DA3E0FBA3E0FAA3E02402F9E43A44
:10271100FA75F002EFA4F58285F0831217BAE5F09D
:10272100FD90006FE0FBA3E0FAA3E0F91243709083
:10273100019FE02FF09001A1E0FBA3E0FAA3E024C8
:1027410002F9E43AFA9001A0E075F002A4F582855D
:10275100F0831217BAFD90006FE0FBA3E0FAA3E04B
:10276100F912437090019FE02FF0A3E004F08089FB
:1027710090006FE0FBA3E0FAA3E0F990019FE0FD78
:1027810012437090006FE0FBA3E0FAA3E0F97D7EB5
:0F2791001243707B0F7D0A7F01124C6E020026EF
:103B980090006FE0FBA3E0FAA3E0F97DF212437016
:103BA80090006FE0FBA3E0FAA3E0F97DF212437006
:103BB80090006FE0FBA3E0FAA3E0F97D0A124370DE
:103BC80090019FEFF090006FE0FBA3E0FAA3E0F90B
:103BD8007D1412437090019FE02FF0E4A3F0900150
:103BE800A0E0FFC39414502690006FE0FBA3E0FA16
:103BF800A3E0F974EB2FF582E43400F583E0FD12BD
:103C0800437090019FE02FF0A3E004F080D0900073
:103C18006FE0FBA3E0FAA3E0F990019FE0FD1243F7
:103C28007090006FE0FBA3E0FAA3E0F97D7E1243F9
:0D3C3800707B0F7D0A7F01124C6E0200268A
:10480700900074E0FEA3E07C002400FFEC3E9000E3
:10481700E5F0A3EFF0900076E09000E7F0900077E6
:10482700E09000E8F0900078E09000E9F0900079DF
:10483700E09000EAF07B0F7D0A7F01124C6E7F0B40
:0348470002110F4C
:104C8900D2097E4C7FF5D204C2051245F17B0F7D16
:0B4C99000A7F01124C6E7F0C02110F0D
:104C520012421E7E4C7FF5D204C2051245F17B0F33
:0C4C62007D0A7F01124C6E7F0D02110FC5
:101FB500E490019FF090006FE0FBA3E0FAA3E0F945
:101FC5007DF212437090006FE0FBA3E0FAA3E0F905
:101FD5007DF212437090006FE0FBA3E0FAA3E0F9F5
:101FE5007DF712437090019FE02FF090006FE0FBAA
:101FF500A3E0FAA3E0F97D0E12437090019FE02F54
:10200500F090006FE0FBA3E0FAA3E0F97D01124335
:102015007090019FE02FF090006FE0FBA3E0FAA322
:10202500E0F97D3F12437090019FE02FF090006F23
:10203500E0FBA3E0FAA3E0F97D0112437090019F54
:10204500E02FF090006FE0FBA3E0FAA3E0F97D3FFD
:1020550012437090019FE02FF090006FE0FBA3E02A
:10206500FAA3E0F97D0112437090019FE02FF090F3
:10207500006FE0FBA3E0FAA3E0F9E4FD12437090E2
:10208500019FE02FF090006FE0FBA3E0FAA3E0F9D9
:10209500E4FD12437090019FE02FF090006FE0FB8C
:1020A500A3E0FAA3E0F9E4FD12437090019FE02F4D
:1020B500F090006FE0FBA3E0FAA3E0F9E4FD124322
:1020C5007090019FE02FF090006FE0FBA3E0FAA372
:1020D500E0F9E4FD12437090019FE02FF090006F4E
:1020E500E0FBA3E0FAA3E0F9E4FD12437090019F41
:1020F500E02FF090006FE0FBA3E0FAA3E0F9E4FD28
:1021050012437090019FE02FF090006FE0FBA3E079
:10211500FAA3E0F9E4FD12437090019FE02FF090DF
:10212500006FE0FBA3E0FAA3E0F9E4FD1243709031
:10213500019FE02FF090006FE0FBA3E0FAA3E0F928
:1021450090019FE0FD12437090006FE0FBA3E0FA61
:0B215500A3E0F97D7E1243700200261B
:104E0100900074E09000D9F0900075E0900148F0B6
:094E1100900076E09000E4F0222C
:08504B00D21CE49001FAF022EE
:103D960090006FE0FBA3E0FAA3E0F97D2B124370DD
:103DA60090006FE0FBA3E0FAA3E0F97D2B124370CD
:103DB60090006FE0FBA3E0FAA3E0F97D2B124370BD
:103DC60090006FE0FBA3E0FAA3E0F97D4112437097
:103DD60090006FE0FBA3E0FAA3E0F97D7412437054
:103DE60090006FE0FBA3E0FAA3E0F97D4312437075
:103DF60090006FE0FBA3E0FAA3E0F97D6D1243703B
:103E060090006FE0FBA3E0FAA3E0F97D6412437033
:103E160090006FE0FBA3E0FAA3E0F97D0D1243707A
:103E260090006FE0FBA3E0FAA3E0F97D0A1243706D
:033E360002002661
:10363A0090006FE0FBA3E0FAA3E0F97D411243702A
:10364A0090006FE0FBA3E0FAA3E0F97D5412437007
:10365A0090006FE0FBA3E0FAA3E0F97D2B12437020
:10366A0090006FE0FBA3E0FAA3E0F97D44124370F7
:10367A0090006FE0FBA3E0FAA3E0F97D65124370C6
:10368A0090006FE0FBA3E0FAA3E0F97D66124370B5
:10369A0090006FE0FBA3E0FAA3E0F97D61124370AA
:1036AA0090006FE0FBA3E0FAA3E0F97D7512437086
:1036BA0090006FE0FBA3E0FAA3E0F97D6C1243707F
:1036CA0090006FE0FBA3E0FAA3E0F97D7412437067
:1036DA0090006FE0FBA3E0FAA3E0F97D3D1243708E
:1036EA0090006FE0FBA3E0FAA3E0F97D311243708A
:1036FA0090006FE0FBA3E0FAA3E0F97D0D1243709E
:10370A0090006FE0FBA3E0FAA3E0F97D0A12437090
:03371A0002002684
:1023050090019C74FFF0A37400F0A3746AF0900030
:102315006CE0FBA3E0FAA3E0F9900034121704FF88
:102325009000331217046F70030224A59000331236
:102335001704F58275830012170490019BF0900035
:10234500331217042401FFE433FE7C007D3312179A
:1023550065AF0590006CE0FBA3E0FAA3E0F99000FF
:1023650033ED121743301C1E90019BE0B4F114901D
:1023750001FAE004F0E064027094C21CF09001F7E9
:10238500F0808B02249D90019BE0FF9001FAE024F0
:1023950072F582E43400F583EFF09001F7E02FF059
:1023A5009001FAE004F0E0FFB4010B900072E090B8
:1023B50001F9F0022313EF6402600302244D90013A
:1023C500F9E0FFD39400402AEFD3940D5024E07533
:1023D500F005A4242BF582E43447F583E4939001BA
:1023E500F8F0EF75F005A4242CF582E43447F58365
:1023F50080269001F9E0FFB4F70E904771E49390C1
:1024050001F8F09047728010EFB4FF23904776E40F
:10241500939001F8F0904777E493F9740193FA7477
:10242500029390019CC9F0A3EAF0A3E9F080028031
:102435000F900073E0FF9001F8E06F700302231323
:10244500D21CE49001FAF0229001F8E02404FFE4A4
:1024550033FE9001FAE0C39FEE6480F874809850D3
:10246500030223139001F8E0FF2474F582E434009D
:10247500F583E0FE2EFE74752FF582E43400F583B6
:10248500E02EFF9001F7E0B5070C90019CA3E0FA60
:10249500A3E0F9121928D21CE49001FAF0022313E3
:0124A5002214
:10496D007B017A00790090006CEBF0A3EAF0A3E9EB
:10497D00F0124FD37B017A00793590006FEBF0A3E5
:10498D00EAF0A3E9F0124FD3E490006AF0C217A346
:03499D00F0C2184D
:0149A00022F4
:1000260020184090006FE0FBA3E0FAA3E0F9124D20
:10003600E7EFC39401500122EFB4011290006FE084
:10004600FBA3E0FAA3E0F91244EE8FF580129000CC
:100056006FE0FBA3E0FAA3E0F91244EE8FF5D218A5
:0300660043EAC0AA
:010069002274
:09503A00301705122305C21722EC
:104CA400FF00A2FF00A2FF00A2FF00A2FF00A2FFDC
:0B4CB40000A2FF00A2FF00A2FF00A270
:054AE7004201FD4CA49A
:0100A200223B
:1045F1009001A0EEF0A3EFF030051A9001FDE0FE6E
:10460100A3E02418F582E43EF583740193FA740261
:1046110093F91219289001A0E0FFA3E09001FDCFCA
:10462100F0A3EFF030041A9001FDE0FEA3E02415A1
:10463100F582E43EF583740193FA740293F9121939
:0246410028222D
:104CBF00FF508FFF344DFF5090FF5091FF5092FFE8
:0B4CCF005093FF5094FF5095FF50964B
:01508F0022FE
:10344D00124B9E900161E0440FF0900160E044F05A
:10345D00F09000E4E0B40115900148E0B4010E9045
:10346D000180E04420F0900189E04438F090015C47
:10347D00E04401F0900161E04470F0900184E0447B
:10348D0003F0900189E04444F090018CE04402F097
:10349D00A3E04420F0900191E04418F090017CE00D
:1034AD004440F0900181E04420F090017DE04440E3
:1034BD00F0900175E04410F0900178E04480F04404
:1034CD0003F0900164E04401F090018CE04401F0C0
:1034DD00900191E04440F04420F04404F04402F0A7
:1034ED004401F07818E6FF1243D17817E6FF124435
:1034FD00309000E9E0FFA3E0FDC205C2061237EEF1
:10350D009000D9E0FF7E00122F4B7F0412006E7FDA
:10351D000212477A900168E04408F090016CE04493
:10352D0040F0900171E04402F0300F07900190E0FF
:0A353D0044C0F090019374FFF022E7
:0150900022FD
:0150910022FC
:0150920022FB
:0150930022FA
:0150940022F9
:0150950022F8
:0150960022F7
:104CDA00FF5097FF5013FF5098FF4E1AFF507AFF6C
:0B4CEA005099FF509AFF4FE1FF509BD4
:0150970022F6
:0A50130090019374FFF0FF024F17A5
:0150980022F5
:104E1A009000DAE004F0E0D39414400B7E4C7FF566
:084E2A00D204C2051245F12279
:03507A00025009D8
:0150990022F4
:01509A0022F3
:0E4FE100E49000DAF0900201748DF0C20E220E
:01509B0022F2
:104CF500FF304DFF314FFF509CFF2C2CFF507DFFA7
:0B4D05002B1DFF509DFF4937FF509E03
:10304D0090014BE07006743CF0C21B2290014B7452
:10305D003CF0201B0302314E300C0B9001F5E06467
:10306D0020600302314E9001F6E06402704690013B
:10307D00F5E0B4200F7B147D0F7F01124C6E7E4D59
:10308D007FB280789001F5E0B4020F7B147D0F7F45
:10309D0001124C6E7E4D7F2B80629001F5E0641025
:1030AD00600302314E7B147D0F7F01124C6E7E4DFD
:1030BD007F9780489001F6E0640170599001F5E02A
:1030CD00B4040F7B147D0F7F01124C6E7E4D7F106B
:1030DD00802A9001F5E0B4010F7B147D0F7F011262
:1030ED004C6E7E4D7F4680149001F5E0B408147B44
:1030FD00147D0F7F01124C6E7E4D7F61D204C2058F
:10310D000245F19001F5E064127036123D96900281
:10311D0000740380169001F6E0640370249001F5AD
:10312D00E0B4100AB20C9001FF743CF0800A9001DB
:10313D00F5E0B4200C12421E7B147D0F7F01124C62
:02314D006E22F0
:10314F0090014BE07008900193E04420F022900131
:10315F0093E04420F0900179E04401F0900175E094
:10316F00440EF0900174E04438F0900179E044701F
:10317F00F0E4FFFE122F4B9000E9E0FFA3E0FDC249
:10318F0005C2061237EE300F18900190E044C0F0E0
:10319F00300C0E900184E04403F0900189E0444428
:1031AF00F090010BE0FD30E05B90018CE04402F009
:1031BF00A3E04420F0900191E04418F0EDC31354C4
:1031CF007F14601614601E2402702090018CE0445E
:1031DF0001F0900191E04404F022900191E044400D
:1031EF00F04402F022900191E0801490018CE044B1
:1031FF0001F0900191E04404F04440F04402F044A7
:10320F0020F0801E30083A900112E0FDF4603290F9
:10321F00018CE04402F0A3E04420F0ED700890012F
:10322F008CE04401F022900112E0FDB402089001FD
:10323F0091E04440F022EDB40407900191E0442066
:02324F00F0226B
:01509C0022F1
:102C2C00900200E0600814F0E0700312363A900055
:102C3C00E3E0601590014BE0600214F09001FFE0BE
:102C4C00600714F0E07002C20C200B06201D03027A
:102C5C002D39C21D90010BE030E04FC313547FFFA0
:102C6C0064037003022D39EF25E025E024EFF58293
:102C7C00E4344BF583E493FF9000E9E0FEEF6E60E3
:102C8C0003022D3990010BE0C313547F25E025E09E
:102C9C0024F0F582E4344BF583E493FF9000EAE0F2
:102CAC00FEEF6E6003022D39806F200803022D3970
:102CBC00900112E0FFF46075EF75F003A424DDF5CC
:102CCC0082E4344BF583E493FB740193FA7402931E
:102CDC00F91216EB547FFF9000E9E06F704F9001F2
:102CEC0012E0FFFD3395E0FC904BDD75F003ED1227
:102CFC00191CEC75F003A42583F583E493FB740194
:102D0C0093FA740293F9900001121704FE9000EAF2
:102D1C00E0B50619900151EFF07B147D0F7F011285
:0E2D2C004C6E7E4D7FB2D204C2051245F122DC
:03507D00025009D5
:102B1D0090014BE07004743CF02290014B743CF03A
:102B2D009001FBE07003A3E0F470147B147D0F7F24
:102B3D0001124C6E7E4D7FB2D204C2050245F1905A
:102B4D0001FBE064307004A3E064CF701E90010BB4
:102B5D00E030E00554FEF0800790010BE04401F0F9
:102B6D0090010BE054014406022C219001FBE0641E
:102B7D00B07004A3E0644F702490010BE020E003DB
:102B8D00022C2BC313547F7009E054014406F0024C
:102B9D002C2290010BE05401F0D21D80789001FBA6
:102BAD00E064707004A3E0648F702490010BE0303A
:102BBD00E06CC313547FFFBF0108E054014406F0DD
:102BCD00800B90010BE054014402F0D21D80469021
:102BDD0001FBE064F07004A3E0640F702490010B1E
:102BED00E030E03AC313547FFFBF0208E0540144C4
:102BFD0006F0800B90010BE054014404F0D21D80CF
:102C0D00149001FBE0B49016A3E0B46F11B20C90D8
:0F2C1D0001FF743CF07B147D0F7F01124C6E227F
:01509D0022F0
:10493700E4900111F0900200F0D20E900201748D04
:10494700F090014B743CF0C20CC21D90015174FFF2
:10495700F090010BE020E006300803123547E490A1
:064967000107F0A3F0229D
:01509E0022EF
:104D1000FF4126FF4AF6FF509FFF4E32FF5080FFB3
:0B4D200050A0FF50A1FF501DFF50A24B
:0F4FB5009000E9E004F0E0C394184002E4F02219
:104F86009000E9E0600314F0229000E97417F02223
:0F4FC4009000EAE004F0E0C3943C4002E4F022E5
:104F96009000EAE0600314F0229000EA743BF022ED
:10412600E49000DAF09001F6E0FF64016005EF64C8
:1041360004706A9001F5E0FFB408189001F6E0B447
:10414600040122900202E004F0E0D39402403EE42F
:10415600F0803AEFB40216900202E0FF7005124FAB
:10416600B58025EF64017025124FC4801B9001F5C0
:10417600E064107028900202E0FF7005124F8680FE
:1041860007EFB40108124F96E490014CF09001F647
:0E419600E0B401097B147D0F7F01124C6E22F4
:104AF600300F07900190E044C0F09000E9E0FFA37A
:104B0600E0FD900202E0FE7003D38001C39205EE41
:0C4B1600B40103D38001C392060237EE05
:01509F0022EE
:104E32009000DAE004F0E0D39432400B7E4C7FF530
:084E4200D204C2051245F12261
:03508000025009D2
:0150A00022ED
:0150A10022EC
:0A501D00E49000DAF0900202F022A5
:0150A20022EB
:104D2B00FF4888FF4B4DFF50A3FF4E4AFF5083FFB8
:0B4D3B0050A4FF50A5FF5053FF50A6EE
:10488800E49000DAF09001F6E0B403169001F5E048
:10489800640270277B147D0F7F01124C6EC21EC20A
:1048A8000A229001F6E0B402129001F5E0B4020B7E
:0C48B8007B147D0F7F01124C6ED21E227B
:104B4D00301E0E900184E04403F0900189E044444E
:104B5D00F0E47B3CFAF9F890014DE0FCA3E0FDA3F5
:0B4B6D00E0FEA3E0FF12182E02325100
:0150A30022EA
:104E4A009000DAE004F0E0D39468400B7E4C7FF5E2
:084E5A00D204C2051245F12249
:03508300025009CF
:0150A40022E9
:0150A50022E8
:08505300E49000DAF0D21E2205
:0150A60022E7
:104D4600FF1E02FF27A0FF50A7FF4E62FF5086FFFF
:0B4D560050A8FF50A9FF5027FF50AAF3
:101E0200E49000DAF0200803021FB49001F6E064C7
:101E1200016003021FB4900203E0FFC31375F003D5
:101E2200A424DDF582E4344BF583E493F974019341
:101E3200FA74029390019FC9F0A3EAF0A3E9F0EFCC
:101E42001392049001F5E0B40811900203E004F04B
:101E5200E0D3940C4002E4F0021FAB9001F5E06481
:101E6200026003021EF390019FE0FBA3E0FAA3E0ED
:101E7200F91216EB448012173130043C90019FE0B6
:101E8200FBA3E0FAA3E02401F9E43AFA1216EBFF0D
:101E9200EF0412173190019FE0FBA3E0FAA3E0F9EF
:101EA200900001121704C3943C4043E92401F9E471
:101EB2003AFA1216EBE4803390019FE0FBA3E0FABA
:101EC200A3E0F91216EBFF5480FEEF04547F4E128A
:101ED200173190019FE0FBA3E0FAA3E0F91216EBA1
:101EE200FF547FC394184006EF5480121731021F2B
:101EF200AB9001F5E06410707A90019FE0FBA3E0E3
:101F0200FAA3E0F91216EB448012173130043A902A
:101F1200019FE0FBA3E0FAA3E0F99000011217048D
:101F2200600FE92401F9E43AFA1216EBFFEF14808C
:101F32003D90019FE0FBA3E0FAA3E02401F9E43A1B
:101F4200FA1216EBE4743B802590019FE0FBA3E0BC
:101F5200FAA3E0F91216EBFF547F600BEF5480FEF8
:101F6200EF14547F4E80071216EB54804417121759
:101F72003180369001F5E064207037900203E0C3AF
:101F8200940C502E90019FE0FBA3E0FAA3E0F9121B
:101F920016EBFFC4131313540130E005EF547F8096
:101FA200051216EB44801217317B147D0F7F01124C
:021FB2004C6E73
:011FB400220A
:1027A00020083490018CE04402F0A3E04420F09033
:1027B0000191E04418F0200F030228E790018CE01B
:1027C0004401F0900191E04440F04420F04404F0D2
:1027D0004402F04401F022900203E0640C701D30CA
:1027E0000F1390018CE04402F0A3E04420F090012C
:1027F00091E04418F07F107E27023251900203E0EE
:10280000FFC31375F003A424DDF582E4344BF58394
:10281000E493FB740193FA740293F9EF139204901A
:102820000203E0B40C0040030228B4902832F828D8
:1028300028730228560228560228680228680228AF
:102840007402287402288902288902289502289592
:102850000228AA0228AA90018CE04402F0A3E044D6
:1028600020F090018CE08049900191E04418F04400
:1028700004F0804090018CE04402F0A3E04420F09A
:10288000900191E04440F0802B900191E04418F0D9
:102890004402F0801F90018CE04402F0A3E0442049
:1028A000F0900191E04420F0800A900191E04418FA
:1028B000F04401F01216EBFFC4131313540130E07F
:1028C00016EF547FFF900001121704FDA204B3928B
:1028D00005A2049206800DA204B39205A2049206FA
:0728E0007D647F641237EEF6
:0128E70022CE
:0150A70022E6
:104E62009000DAE004F0E0D39434400B7E4C7FF5FE
:084E7200D204C2051245F12231
:03508600025009CC
:0150A80022E5
:0150A90022E4
:0A502700E4900203F09000DAF0229A
:0150AA0022E3
:104D6100FF4BBEFF49A1FF50ABFF4E7AFF5089FFB9
:0B4D710050ACFF50ADFF5070FF50AE83
:104BBE00E49000DAF09001F6E0B401129001F5E015
:0F4BCE00B4080BB2087B147D057F01124C6E22D8
:1049A10090018CE04402F0A3E04420F0900191E0FA
:1049B1004418F0200803300F1A90018CE04401F0F4
:1049C100900191E04440F04420F04404F04402F0AE
:0449D1004401F0228B
:0150AB0022E2
:104E7A009000DAE004F0E0D39434400B7E4C7FF5E6
:084E8A00D204C2051245F12219
:03508900025009C9
:0150AC0022E1
:0150AD0022E0
:06507000E49000DAF022DA
:0150AE0022DF
:104D9700FF48C4FF28E8FF50AFFF4E92FF508CFF3B
:0B4DA70050B0FF50B1FF4D7CFF50B238
:104A0800900204E004F0E0FFC394065025EF75F02F
:104A180003A424DDF582E4344BF583E493FB7401AD
:104A280093FA740293F91216EBC41313135401305A
:034A3800E0CE22AB
:1048C400E49000DAF03008319001F6E064017029D8
:1048D4009001F5E0B40822900204E0F4601B124A4F
:1048E40008900204E0C39406400674FFF0124A08DC
:0A48F4007B147D057F01124C6E223B
:1028E80020083390018CE04402F0A3E04420F090EB
:1028F8000191E04418F0200F03022A0590018CE0B2
:102908004401F0900191E04440F04420F04404F088
:102918004402F0022A02900204E0B4FF077F107E0E
:1029280027023251900204E0FF75F003A424DDF57C
:1029380082E4344BF583E493FB740193FA740293B5
:10294800F91216EB547FFEEF75F003A424DDF5822F
:10295800E4344BF583E493FB740193FA740293F91E
:10296800900001121704FDAF06C205C2061237EE29
:10297800900190E044C0F0900204E01460251460D7
:10298800311460451460511460652405706F90011E
:102998008CE04402F0A3E04420F0300F6090018CFA
:1029A800E08057900191E04418F0300F50E0440463
:1029B800F02290018CE04402F0A3E04420F0300FB4
:1029C8003C900191E04440F022900191E04418F0DD
:1029D800300F2AE04402F02290018CE04402F0A378
:1029E800E04420F0300F16900191E04420F022904E
:0D29F8000191E04418F0300F04E04401F0BC
:012A050022AE
:0150AF0022DE
:104E92009000DAE004F0E0D39434400B7E4C7FF5CE
:084EA200D204C2051245F12201
:03508C00025009C6
:0150B00022DD
:0150B10022DC
:104D7C00E49000DAF090020474FFF0124A089002FA
:0B4D8C0004E0C39406400374FFF02213
:0150B20022DB
:104DB200FF2D3AFF192EFF3CF1FF0B9DFF430CFF25
:0B4DC2001C21FF50B3FF3ED9FF50B48E
:094AEC004601C7AA000000000009
:102D3A0090014BE07011C20E900201748DF0900167
:102D4A004B743CF0C21B2290014B743CF0201B03D5
:102D5A00022E469001F6E0640270199001F5E064D3
:102D6A00206003022E467E4C7FF5D204C20512452E
:102D7A00F1022E3D9001F6E064016003022E2790D5
:102D8A0001F5E0640870619001CDF0A3F0C21F3034
:102D9A00070990014704F0C207801E900147E0042A
:102DAA00F0E0D394054012D2079001BFE09001BB36
:102DBA00F0301505B40102D21F900147E0FFB401BB
:102DCA0006E49000DD8012EFD3940140119001C116
:102DDA00E0B4010A9000DD7401F090010EF0900158
:102DEA0047E09001C1F0804B9001F5E0B4021390E6
:102DFA0000DDE070047F0180027F009000DDEFF0CB
:102E0A0080319001F5E06410703290010EE0700498
:102E1A007F0180027F0090010EEFF080169001F68C
:102E2A00E0B403189001F5E0B420119001CF741EAC
:0D2E3A00F0D2097B147D0F7F01124C6E2237
:10192E009001CFE06044200F03021C2090015CE088
:10193E004401F0900161E04470F0900160E044F0E9
:10194E00F0900178E04403F0900164E04401F090DF
:10195E000175E04410F0900178E04480F07F0312AE
:10196E00006E900164E04401F022124B9E900148FB
:10197E00E0B4010E900180E04420F0900189E04433
:10198E0038F0300C11300F0E900184E04403F090CB
:10199E000189E04444F0D3900108E09405900107DA
:1019AE00E09400400A300F07900161E0440FF09080
:1019BE000168E04408F090016CE04440F090017141
:1019CE00E04402F09001B7E0FEA3E0FF122F4B308F
:1019DE0015069001BFE0800B90014CE075F0068477
:1019EE00E5F004FF12484A3014097F191243D17FE3
:1019FE0032800B7818E6FF1243D17817E6FF1244B7
:101A0E003090017CE04440F0900181E04420F09061
:101A1E00017DE04440F09000E9E0FFA3E0FDC20547
:101A2E00C2061237EE300F07900190E044C0F090DE
:101A3E000175E04410F0900178E04480F020070337
:101A4E00021ADBE04403F0900164E04401F030152B
:101A5E0073301F31900178E05483F0900175E0549B
:101A6E00EFF0900178E0547FF0A3E04401F0900194
:101A7E0075E0440EF0900174E04438F0900179E086
:101A8E004470F0805D9001BBE0D3940250097F0159
:101A9E0012006E7F0480489001BBE0D3940350097E
:101AAE007F0212006E7F0380369001BBE0D3940458
:101ABE0050097F0312006E7F0280247F0412006E95
:101ACE007F01801B7F0312006E7F02801290014700
:101ADE00E0FF12006E900147E0FFC374059FFF12F6
:101AEE00477A201F239000DDE0B4010E90015CE0E8
:101AFE004401F0900161E04470F090010EE0B401F9
:101B0E0007900160E044F0F0300A0E900184E0444A
:101B1E0003F0900189E04444F090010BE0FD30E0C9
:101B2E005490018CE04402F0A3E04420F090019127
:101B3E00E04418F0EDC313547F14601014601624A3
:101B4E0002701890018CE04401F08054900191E0F5
:101B5E004440F0807A900191E0801490018CE04432
:101B6E0001F0900191E04404F04440F04402F0444E
:101B7E0020F0021C04900151E0FDF4607C90019174
:101B8E00E04418F0ED7022904BE093FB740193FA51
:101B9E00740293F91216EBC4131313540130E05967
:101BAE00900191E04404F08050900151E0FDB402A8
:101BBE0023904BE6E493FB740193FA740293F912AB
:101BCE0016EBC4131313540130E02E900191E04430
:101BDE0002F08025EDB40421904BECE493FB7401EC
:101BEE0093FA740293F91216EBC4131313540130C3
:101BFE00E007900191E04401F090014BE0900193D9
:101C0E00600C74FFF0E054DFF0E054BFF022E044CB
:031C1E0010F022A1
:103CF10090010CE04408F0301F03023D9590010E45
:103D0100E090010CB40106E04402F08004E054FDAF
:103D1100F09000DDE090010CB40106E04401F08078
:103D210004E054FEF0300C0F90010CE054FBF0E481
:103D3100900107F0A3F02290010CE04404F0E5802B
:103D410020E507E4900107F0A3F0900107E0FEA34E
:103D5100E0FFD39405EE9400400AEF9478EE9400CE
:103D610050028029900107E0FEA3E0FFD3947DEE8D
:103D71009400400AEF9408EE94075002800FD3900C
:103D81000108E0940D900107E09407400790010CB1
:053D9100E054FBF022EC
:100B9D009001CFE0601914F0E070147E4C7FF5D217
:100BAD0004C2051245F17B147D0F7F01124C6E902E
:100BBD0000E3E07003020CE5C3900108E094D090CF
:100BCD000107E09407500CA3E004F07006900107B4
:100BDD00E004F030072A9001BFE0B401219001CE6E
:100BED00E004F070069001CDE004F0D39001CEE06A
:100BFD0094589001CDE09402400FD21F800B8000DD
:100C0D00C21FE49001CDF0A3F090014BE0600D14F4
:100C1D00F0E07008D20E9002017480F09001C0E0F7
:100C2D0004F09001B7E0FEA3E0FF9001C6E02FF0C5
:100C3D009001C5E03EF09001C0E0C3943C5003022A
:100C4D000CE5E4F0900110E004F0E0943C4008E481
:100C5D00F090010FE004F09001C4E004F0E0C394C3
:100C6D003C4010E4F0900100E004F070069000FFAD
:100C7D00E004F090010FE0701EA3E0FFD394035049
:100C8D0016EF940350529001C5E0FEA3E0FF7C00E7
:100C9D007DB412176580329001C5E0FEA3E0FF7CA4
:100CAD00007D3C121765D39001D1E09F9001D0E0FB
:100CBD009E4016A3E09FFD9001D0E09EFC90014A5E
:100CCD00E02DF0900149E03CF09001D0EEF0A3EF63
:100CDD00F0E49001C5F0A3F0200B0302110E90017A
:100CED00C2E0FD640C705390019FF090019FE0FFF6
:100CFD00C36480948B5032EF3395E0FEEF25E0FF17
:100D0D00EE33FE74172FF58274013EF583E0FAA3DE
:100D1D00E0FB74152FF58274013EF583EAF0A3EB29
:100D2D00F090019FE004F080C29001B7E0FFA3E0D6
:100D3D0090012BCFF0A3EFF0803C90019FEDF09050
:100D4D00019FE0FFC36480948C502B9001B7E0FCB1
:100D5D00A3E0FDEF3395E0FEEF25E0FFEE33FE74EB
:100D6D00152FF58274013EF583ECF0A3EDF09001A3
:100D7D009FE004F080C99001C2E004F0E0C3940C40
:100D8D004003740CF09001C3E0FD640C70539001AE
:100D9D009FF090019FE0FFC36480948B5032EF333E
:100DAD0095E0FEEF25E0FFEE33FE74312FF58274F2
:100DBD00013EF583E0FAA3E0FB742F2FF582740159
:100DCD003EF583EAF0A3EBF090019FE004F080C2C2
:100DDD009001B7E0FFA3E0900145CFF0A3EFF080C5
:100DED003C90019FEDF090019FE0FFC36480948CD7
:100DFD00502B9001B7E0FCA3E0FDEF3395E0FEEF43
:100E0D0025E0FFEE33FE742F2FF58274013EF5833E
:100E1D00ECF0A3EDF090019FE004F080C99001107B
:100E2D00E020E0069001C3E004F09001C3E0C3941C
:100E3D000C4003740CF090010BE030E050C31354E0
:100E4D007FFF64037003020F6CEF25E025E024F1B2
:100E5D00F582E4344BF583E493FF9000E9E0FEEF77
:100E6D006E6003020F6C90010BE0C313547F25E0FD
:100E7D0025E024F2F582E4344BF583E493FF9000F2
:100E8D00EAE0FEEF6E6003020F6C020F5890015105
:100E9D00E0FFF47003020F6CEF0490019FF075F00A
:100EAD0003A424DDF582E4344BF583E493FB740154
:100EBD0093FA740293F91216EBC413131354012011
:100ECD00E00690019F74FFF090019FE0F470219077
:100EDD00010FE064026003020F6C7E4C7FF5D204BB
:100EED00C2051245F17B147D0F7F01124C6E806F90
:100EFD0090019FE0FF75F003A424DDF582E4344BEF
:100F0D00F583E493FB740193FA740293F91216EBD3
:100F1D00547FFE9000E9E06E7045EF3395E0FE9052
:100F2D004BDD75F003EF12191CEE75F003A425834C
:100F3D00F583E493FB740193FA740293F990000125
:100F4D00121704FF9000EAE0B507147B147D0F7FA4
:100F5D0001124C6E7E4C7FF5D204C2051245F13064
:100F6D000C0302101490014DE0FCA3E0FDA3E0FE84
:100F7D00A3E02401FFE43EFEE43DFDE43CFC9001D2
:100F8D004D1218DFE47F307E75FDFC90014DE0F8C9
:100F9D00A3E0F9A3E0FAA3E0FBC31218CE4035E4B9
:100FAD00900109F0A3F07B307A75F9F890014DE0CE
:100FBD00FCA3E0FDA3E0FEA3E0FF12182EAC00ADF4
:100FCD0001AE02AF03E4FBFAF9F8C31218CE703785
:100FDD00D20A803390014DE0F8A3E0F9A3E0FAA323
:100FED00E0FBC374309BFF74759AFEE499FDE498A1
:100FFD00FCE47B3CFAF9F812182EEF2401FFE43ED5
:10100D00900109F0A3EFF0900147E024FE60441435
:10101D00606F1470030210B91470030210E42404FD
:10102D00600302110E9001C8E004F0E0C3943C503F
:10103D000302110EE4F09000ECE004F07006900055
:10104D00EBE004F09000F6E004F070349000F5E071
:10105D0004F0229001C9E004F0E0C3943C50030277
:10106D00110EE4F09000EEE004F070069000EDE05B
:10107D0004F09000F8E004F070069000F7E004F042
:10108D00229001CAE004F0E0C3943C4074E4F09077
:10109D0000F0E004F070069000EFE004F09000FA2C
:1010AD00E004F070069000F9E004F0229001CBE02E
:1010BD0004F0E0C3943C4049E4F09000F2E004F009
:1010CD0070069000F1E004F09000FCE004F0703147
:1010DD009000FBE004F0229001CCE004F0E0C3941A
:1010ED003C401EE4F09000F4E004F070069000F334
:1010FD00E004F09000FEE004F070069000FDE004C6
:01110D00F0F1
:01110E0022BE
:10430C00301F030250093007263015219001BBE005
:10431C00D394025002802D9001BBE0D39403500241
:10432C0080289001BBE0D39404502B8023802190F3
:10433C000147E024FE601314601614601914601C0D
:10434C002404701F7F587E0280167F847E038010A9
:10435C007FB07E04800A7F407E0680047FFC7E084E
:04436C00124BFB22D3
:101C210090014BE0700FC20E900201748DF0900193
:101C31004B743CF02290014B743CF09001FBE0703E
:101C410003A3E0F470147B147D0F7F01124C6E7EB0
:101C51004C7FF5D204C2050245F19001FBE064809E
:101C61007004A3E0647F701C9001CDF0A3F0C21F4B
:101C7100D2079001BFE09001BBF0301570B40102B2
:101C8100D21F80699001FBE0B4402BA3E0B4BF26D2
:101C9100E49001CDF0A3F0C21F90014704F0C20708
:101CA100E49000DDF090010EF09001C104F07B148E
:101CB1007D0FFF021DFE9001FBE064A07004A3E014
:101CC100645F70329001CDF0A3F0C21F90014774A0
:101CD10002F0C2079001C1E0B4010A9000DD740175
:101CE100F090010EF0900147E09001C1F07B147D6E
:101CF1000F7F01021DFE9001FBE064607004A3E010
:101D0100649F70329001CDF0A3F0C21F900147741F
:101D110003F0C2079001C1E0B4010A9000DD740133
:101D2100F090010EF0900147E09001C1F07B147D2D
:101D31000F7F01021DFE9001FBE064C07004A3E06F
:101D4100643F70329001CDF0A3F0C21F900147743F
:101D510004F0C2079001C1E0B4010A9000DD7401F2
:101D6100F090010EF0900147E09001C1F07B147DED
:101D71000F7F01021DFE9001FBE064207004A3E0CF
:101D810064DF70319001CDF0A3F0C21F9001477460
:101D910005F0C2079001C1E0B4010A9000DD7401B1
:101DA100F090010EF0900147E09001C1F07B147DAD
:101DB1000F7F0180489001FBE0B4101EA3E0B4EF57
:101DC100199000DDE070047F0180027F009000DD4A
:101DD100EFF07B147D0F7F0180239001FBE0B4E0E5
:101DE1001FA3E0B41F1A90010EE070047F0180026E
:101DF1007F0090010EEFF07B147D0F7F01124C6E7E
:011E010022BE
:0150B30022DA
:103ED9009001117401F0C20EC21FE49001CFF0905D
:103EE90001CDF0A3F09001C2F0A3F0900201748D0E
:103EF900F090014B743CF0124F2B200910900147B0
:103F09007403F090010E7401F09000DDF090014708
:103F1900E09001C1F0E49001C0F0900149F0A3F0F4
:103F290090010FF0A3F09001C7E0FF9000E7E0FED9
:103F39006F60249001C7EEF0E49000F5F0A3F090D3
:103F490000F7F0A3F09000F9F0A3F09000FBF0A3C4
:103F5900F09000FDF0A3F0E49001D0F0A3F09001FF
:0B3F6900C5F0A3F0900107F0A3F022C8
:0150B40022D9
:10152600EC4D6011E8497017ED33EC3304600DE4BF
:10153600FCFFFEFD22E933E8330470F80216D612EA
:1015460016A158046009E4CC2481500628500902EB
:1015560016E02840030216DDC0E0EB4A7044B9806D
:1015660006D0E0FB0216CCEF4E701CBD8008EBFFE8
:10157600EAFEE9FD80EBE98DF0A4FEE5F002160F28
:10158600E9CDF9EAFEEBFFEF89F0A4FCE5F0CE89A0
:10159600F0A42EFFE435F0CD89F0A42DFEE435F05D
:1015A6008067EF4E7005BD80D780C3EF8BF0A4AC8B
:1015B600F0EE8BF0A42CFCE435F0F8EF8AF0A42CC6
:1015C600E5F038FCE433CB8DF0A42CFCE5F03BF8D9
:1015D600EE8AF0A42CFCE5F038F8E433CF89F0A4C9
:1015E6002CFCE5F038CF3400CE89F0A42FFFE5F0CF
:1015F6003EFEE433C98DF0A42EFEE5F039CD8AF027
:10160600A42FFFE5F03EFEE43DFD33D0E0FB50079E
:101616000BBB000F0216E0EC2CFCEF33FFEE33FEA3
:06162600ED33FD0216B8D1
:10162C0075F020800E75F010800575F0087D007E39
:10163C00007F003392D530D5031218C0EC33401024
:10164C00EF33FFEE33FEED33FDEC33FCD5F0ED2242
:0E165C00E5F0247EA2D513CC92E7CDCEFF227E
:10166A00EDD2E7CD33EC3392D524814006E4FFFE78
:10167A00FDFC22FCE4CFCECDCC24E0501174FF80D7
:10168A00EDC3CC13CCCD13CDCE13CECF13CF047074
:07169A00F030D5DE0218C09C
:1016A100E9D2E7C933E833F892D5EDD2E7CD33EC8F
:0716B10033FC5002B2D52208
:1016B800EC30E7100FBF000C0EBE00080DBD000493
:1016C8000BEB6014A2D5EB13FCED92E7FD2274FF3F
:1016D800FCFDFEFF22E480F8A2D574FF13FC7D8098
:0316E800E480EFAC
:103F8E0002371DE493A3F8E493A34003F68001F2F5
:103F9E0008DFF48029E493A3F85407240CC8C33334
:103FAE00C4540F4420C8834004F456800146F6DF03
:103FBE00E4800B0102040810204080904AC9E47E80
:103FCE00019360BCA3FF543F30E509541FFEE493F8
:103FDE00A360010ECF54C025E060A840B8E493A3BF
:103FEE00FAE493A3F8E493A3C8C582C8CAC583CAEA
:103FFE00F0A3C8C582C8CAC583CADFE9DEE780BEA2
:014AF50000C0
:1016EB00BB010689828A83E0225002E722BBFE02FD
:0916FB00E32289828A83E4932230
:10170400BB010CE58229F582E5833AF583E022509A
:1017140006E92582F8E622BBFE06E92582F8E222E4
:0D172400E58229F582E5833AF583E49322FE
:10173100BB010689828A83F0225002F722BBFE0197
:02174100F32291
:10174300F8BB010DE58229F582E5833AF583E8F0DC
:10175300225006E92582C8F622BBFE05E92582C888
:02176300F22270
:10176500BC000BBE0029EF8DF084FFADF022E4CC68
:10177500F875F008EF2FFFEE33FEEC33FCEE9DEC31
:10178500984005FCEE9DFE0FD5F0E9E4CEFD22ED77
:10179500F8F5F0EE8420D21CFEADF075F008EF2FC1
:1017A500FFED33FD4007985006D5F0F222C398FDB2
:0517B5000FD5F0EA224F
:1017BA00BB0110E58229F582E5833AF583E0F5F06D
:1017CA00A3E0225009E92582F886F008E622BBFE4A
:1017DA000AE92582F8E2F5F008E222E5832AF58390
:0817EA00E993F5F0A3E9932255
:1017F20075F008758200EF2FFFEE33FECD33CDCCAE
:1018020033CCC58233C5829BED9AEC99E582984030
:101812000CF582EE9BFEED9AFDEC99FC0FD5F0D60D
:10182200E4CEFBE4CDFAE4CCF9A88222B800C1B937
:101832000059BA002DEC8BF084CFCECDFCE5F0CB75
:10184200F97818EF2FFFEE33FEED33FDEC33FCEBAE
:1018520033FB10D703994004EB99FB0FD8E5E4F969
:10186200FA227818EF2FFFEE33FEED33FDEC33FC56
:10187200C933C910D7059BE99A4007EC9BFCE99A4A
:10188200F90FD8E0E4C9FAE4CCFB2275F010EF2F8F
:10189200FFEE33FEED33FDCC33CCC833C810D7078F
:1018A2009BEC9AE899400AED9BFDEC9AFCE899F8CA
:0E18B2000FD5F0DAE4CDFBE4CCFAE4C8F9225D
:0E18C000C3E49FFFE49EFEE49DFDE49CFC2239
:1018CE00EB9FF5F0EA9E42F0E99D42F0E89C45F070
:0118DE0022E7
:0C18DF00ECF0A3EDF0A3EEF0A3EFF0227C
:1018EB00A8828583F0D083D08212190212190212BA
:1018FB001902121902E473E493A3C583C5F0C583DF
:10190B00C8C582C8F0A3C583C5F0C583C8C582C846
:01191B0022A9
:0C191C00A42582F582E5F03583F58322D6
:061928008A838982E4734A
:00000001FF
