:03001B00023E4C56
:103E4C00C0E0C0F0C083C082C0D075D000C000C03C
:0D3E5C0001C002C003C004C005C006C007BD
:103E690090006A7404F090006CE0FBA3E0FAA3E010
:103E7900F99000341217B1F582758300E5F5121730
:103E8900F09000341217B12401FFE433FE7C007D69
:103E990033121812AF0590006CE0FBA3E0FAA3E01F
:103EA900F9900034ED1217F09000341217B1243351
:103EB900FFE433FE9000331217B1FDC3EF9DFFEE0F
:103EC9009400FE7C007D33121812AF05EFD3941FC6
:043ED9004002D219B8
:103EDD00D007D006D005D004D003D002D001D00039
:0B3EED00D0D0D082D083D0F0D0E032E3
:030023000240D5C3
:1040D500C0E0C0F0C083C082C0D075D000C000C0B1
:1040E50001C002C003C004C005C006C00790006F30
:1040F500E0FBA3E0FAA3E0F99000331217B1F582D3
:104105007583001217B1F5F59000331217B124012C
:10411500FFE433FE7C007D33121812AF0590006F6B
:10412500E0FBA3E0FAA3E0F9900033ED1217F0905D
:1041350000341217B1FF9000331217B1B50705C24D
:104145001A53EA3FD007D006D005D004D003D002D9
:0F415500D001D000D0D0D082D083D0F0D0E032D3
:03006B000250AF91
:1050AF00C0E0C083C0829001F7E004F0D082D083CB
:0350BF00D0E0320C
:0300A300023047E1
:10304700C0E0C0F0C083C082C0D075D000C000C04F
:0D30570001C002C003C004C005C006C007D0
:103064009001F7E0FEADB37C00E42DFFEC3E90014F
:10307400EEF0A3EFF043B2019001F7E4F09001EE1B
:10308400E07002A3E07004C2138011D39001EFE05A
:10309400940A9001EEE094004002D213D214B211CB
:1030A4009001F4E004F0E0C394024038E4F09000AE
:1030B400E3E004F090014FE004F0E0943C5003306E
:1030C400002290014FE4F0D2059000EBE004F0E020
:1030D400C3943C400FE4F09000EAE004F0E094185C
:1030E4004002E4F0438D20E58830E1397587030020
:1030F4000000000000000053ABEF53A8F753A8EF03
:1031040075800075880075900075980075A000752D
:10311400B0009001F5E004F0E0D3943C4015743C19
:10312400F0C203800E9001F5E06003124BC69001DB
:03313400F5E4F0CF
:10313700D007D006D005D004D003D002D001D000EC
:0B314700D0D0D082D083D0F0D0E03296
:0300B30002256CB7
:10256C00C0E0C0F0C083C082C0D075D000C000C035
:0D257C0001C002C003C004C005C006C007B6
:10258900E59030E4097812E64402F6022640781212
:10259900E620E10302264054FDF64401F67809E6F7
:1025A900FF7025C3780BE6946518E6940050030282
:1025B9002640187601780C76007812E654DFF67812
:1025C9000D7600087600806FEF6401704C780EE696
:1025D90025E0790EF718E63319F7C3780BE6940E60
:1025E90018E694004006780EE64401F6780A76006B
:1025F9000876000806E6C39420403C08E6FF08E692
:10260900900204CFF0A3EFF0780976027812E6443D
:1026190010F64408F6D21C801E7809E6B40218C3E5
:10262900780BE6949218E69404400C187600781218
:10263900E654F7F654FEF67812E6FF30E028780BF8
:1026490006E618700106C3780BE6949218E694041E
:1026590040147600087600EF54FE7812F678097671
:102669000054F77812F6781106E6D394045006C29E
:1026790093D29280127811E6D39408500AD293C269
:1026890092E6B408027600E59030E11D780FE6FE87
:1026990008E6FF4E600A9001D4EEF0A3EFF0D218DD
:1026A900780F76000876008008781006E618700121
:1026B90006780806E6C39432401B76009001F6744A
:1026C90001F0D20C123B8F90006AE06008E014F030
:1026D900E07002D21930100B7808E6D39408400351
:0326E90043981EF5
:1026EC00D007D006D005D004D003D002D001D00042
:0B26FC00D0D0D082D083D0F0D0E032EC
:0300000002403B80
:10403B0078FFE4F6D8FD90001B7FE57E03E4F0A348
:0A404B00DFFCDEFA758124024090CC
:104BC600124BF81250D4124AF81251BB1250E61288
:104BD600509B90020A748EF0D2027E4E7F65D20CF4
:104BE600C20D1247437B0F7D0A7F01124DF943A880
:024BF60080221B
:10392400124BC6438D201251AA7815E6D394194040
:10393400147811E69406400D7F021250307816A6D2
:1039440007E47815F69001F6E060D8E4F0301C1C2A
:10395400C21C900206E0FEA3E0240FF582E43EF5CB
:1039640083740193FA740293F91219D57813060833
:103974000608067813E624FE601714601914601B09
:1039840014601D2404701F123AC3C20C123B8F80B2
:10399400191249168014123CF2800F122226800A52
:1039A40012469D124C26E47813F67814E6C3940F5D
:1039B4005003023927E4F6124B601241EF123F9B89
:1039C400123C41900206E0FEA3E02409F582E43EA5
:1039D400F583740193FA740293F91219D59000E3F4
:1039E400E06003E014F0200503023927C205023920
:0139F40027AB
:0751CB00759CA0E4F59D2294
:0F511600EF540FFFE59C54F04FF59C439C402253
:0D00A600758B66438B08538B7F43AB102294
:1050C200EF6007E5974401FF8005E59754FEFF8FE7
:0250D200972223
:0751D200E4F597758F3E2202
:0851B300E4F59AF599F59B2241
:0D515F0075B28E75B4FF43AA0243B201225F
:1000030075BB2043BB3075BAC0E4F5BFF5BE75BD03
:080013000F75BC9F43BB802266
:10501A0075EA0275E90643EAECE4F5EB75F36743D2
:06502A00A80843A81022B3
:0451E600438D2022B3
:0951A100758E88758DC00251E67F
:0D516C0075968875890175898143AB042211
:0751D90075C829E4F58A22E4
:1047950075A1C375AC20E4F591F5DEF58075B1FC26
:1047A500F5ADF592F5DFF58875B9CD75AE12F593D2
:1047B500F59075C1FFF5AFF59875C9FF75A304F5BB
:1047C50094F5A075D1D1F595F5B0F5D375D252F51F
:1047D500D575D4F3F5D775D603F5EEF5EF75FF2846
:0147E50022B1
:104BF80075D80153A87F1247951251D912516CE507
:104C08008830E10543A88080F61251CB1200A61225
:0E4C180051D21251B312515F12000302501A12
:104F3D00E4FEEF30E004D2A28002C2A2D2A1EFC300
:094F4D0013FFC2A10EEEB408E945
:014F56002238
:0B47E6009001B6EBF0A3EAF0A3E9F0AD
:1047F100C2A07F08124F3DD2A0C2A09001BAE044EE
:10480100C0FF124F3DE4FCECC39D501A9001B6E08D
:10481100FBA3E0FAA3E0F98C827583001217B1FFC4
:10482100124F3D0C80E1D2A0C2A090020AE0FF121B
:044831004F3DD2A085
:014835002260
:102C06001F0C1B1E0C16171C1F1E80004040C0C048
:102C1600C000C0C01F0C1B1E0C16171C1F1E400038
:102C260020206060600060603F18363C192D2F3808
:102C36003F3D000080808080800080803F18363CC9
:102C4600192D2F383F3D0000404040404000404095
:102C56007F3C737E3C4E4F7C7F7EE0009010707010
:102C6600F000F070070307070304040707077F60F7
:102C76001C7063737F607F7300008080808080009B
:102C860080803F1E393F1E27273E3F3F7800640461
:102C96001C1C7C007C1C01000101000101010101DA
:102CA600FFF0CEF8F1393FF0FFF9400020206060D8
:102CB600600060601F0F1C1F0F13131F1F1F00F8FB
:102CC60000E4841C9CFC00FC9C040F070E0F070903
:102CD600090F0F0F007E40396147677F407F67010C
:102CE6000301030301020203030300FF609CF0E3F8
:102CF600737FE0FFF300000040404040400040404A
:102D0600401F0F1C1F0F13131F1F1F00F800E48422
:072D16001C9CFC00FC9C0466
:10508700E4FE74572EF582E43401F583EFF00EEE5B
:03509700B440EF33
:01509A0022F3
:104D290090015774FFF0A3F0A3F090015BF0A3F09A
:104D3900A3F090015FE044FEF0A374FFF0A3F0221A
:1048CC00900155E004F0E0C39F4004E4F0B20F9077
:1048DC00017CE04401F0300F16900178E0440EF0BA
:1048EC00900177E04438F090017CE04470F0229025
:1048FC000177E044C0F0A3E04401F0900177E0447C
:09490C0007F090017CE0440EF07C
:01491500227F
:10499C00EF14603214602814601E14601414600A42
:1049AC0014702A900167E04406F0900167E0440817
:1049BC00F0900167E04410F0900167E04420F09023
:0E49CC000167E04440F0900167E04480F02273
:10006E00EF14602814601E14601414600A147023B8
:10007E0090017BE04404F090017BE04408F0900195
:10008E007BE04410F090017BE04420F090017BE097
:04009E004440F022C8
:10452300EFD3946340027F63EF75F00A84FDEF7568
:10453300F00A84ACF0ED6024900184E0FFED902C50
:104543000693FEEF4E900184F0900183E0FFAE05E9
:10455300EE902C1093FEEF4E900183F0900183E0D8
:10456300FFEC902C1A93FEEF4E900183F09001889C
:0E457300E0FFEC902C2493FEEF4E900188F0B8
:014581002217
:10458200EFD3946340027F63EF75F00A84FDEF7509
:10459200F00A84ACF0ED6024900180E0FFED902CF5
:1045A2002E93FEEF4E900180F090017FE0FFAE056A
:1045B200EE902C3893FEEF4E90017FF090017FE059
:1045C200FFEC902C4293FEEF4E90017FF09001841D
:0E45D200E0FFEC902C4C93FEEF4E900184F035
:0145E00022B8
:04315200AB07AA0617
:10315600D3EB940FEA942740047A277B0F7C037DF8
:10316600E8AF03AE021218129001BAEFF07C007DB0
:1031760064AF03AE021218127C007D0A121812A365
:10318600EDF07C007D0AAF03AE021218127C007DC2
:103196000A121812A3EDF0AE02AF037C007D0A12EC
:1031A6001812AB0590016CE0FE9001BAE0FD902C80
:1031B6005693FCEE4C90016CF090016BE0FFED90A5
:1031C6002C6093FEEF4EFF90016BF09001BBE0FE8A
:1031D600902C6A934F90016BF0900170E0FFEE9097
:1031E6002C7493FEEF4E900170F090016FE0FF900B
:1031F60001BBE0902C7E93FEEF4EFF90016FF090A6
:1032060001BCE0FE902C88934F90016FF090017402
:10321600E0FFEE902C9293FEEF4EFF900174F0EBE0
:10322600902C9C934F900174F0900173E0FFEB900B
:103236002CA693FEEF4E900173F0900178E0FFAE5E
:0D32460003EE902CB093FEEF4E900178F057
:013253002258
:1039F500EF75F00A84F9EF75F00A84AEF0ED75F015
:103A05000A84FCED75F00A84ABF0EFD394184004FA
:103A1500790A7E0AEDD3943C40047C0A7B0A300D7A
:103A250003301144900188E0FFE9902CBA93FDEF33
:103A35004D900188F0900187E0FFE9902CC593FD3A
:103A4500EF4D900187F0900163E0FFEE902CD0934D
:103A5500FDEF4D900163F0900168E0FFEE902CDBE7
:103A650093FEEF4E900168F0300E0330114F900138
:103A75008CE0FFEC902CE693FEEF4E90018CF090DD
:103A8500018BE0FFEC902CF193FEEF4E90018BF053
:103A9500900190E0FFEC902CFC93FEEF4EFF90011F
:103AA50090F0EB902D07934F900190F090018FE0EF
:0D3AB500FFEB902D1293FEEF4E90018FF06D
:013AC20022E1
:04345800AB07AA060E
:10345C007C037DE81218129001BAEFF07C007D64B9
:10346C00AF03AE021218127C007D0A121812A3EDE3
:10347C00F07C007D0AAF03AE021218127C007D0AAC
:10348C00121812A3EDF07C007D0AAF03AE021218E5
:10349C0012A905D3EB940FEA9427400B9001BA7450
:1034AC000AF0A3F0A3F0F9900188E0FE9001BAE0D5
:1034BC00FD902CBA93FCEE4C900188F0900187E0C3
:1034CC00FFED902CC593FEEF4E900187F0900163B9
:1034DC00E0FF9001BBE0FE902CD093FDEF4D9001EE
:1034EC0063F0900168E0FFEE902CDB93FEEF4E90C2
:1034FC000168F090018CE0FF9001BCE0FE902CE69E
:10350C0093FDEF4D90018CF090018BE0FFEE902C31
:10351C00F193FEEF4E90018BF0900190E0FF900143
:10352C00BCE0902CFC93FEEF4EFF900190F0E990E4
:10353C002D07934F900190F090018FE0FFE9902DB3
:09354C001293FEEF4E90018FF086
:013555002253
:103B8F00300C06900156E004F043C1E143B9C05335
:103B9F00981E53903F900156E024FE602804704A0F
:103BAF00900196E030E0055398EF80034398109012
:103BBF000196E030E1055398FD8003439802439846
:103BCF002043980122900196E030E2055398EF8050
:103BDF0003439810900196E030E3055398FD80035E
:103BEF0043980243984043908022900196E030E43E
:103BFF00055398FD8003439802900196E030E50548
:103C0F005398FB8003439804900196E030E60553E8
:103C1F0098F78003439808900196E030E705539892
:103C2F00EF8003439810439880439040E4900156EF
:013C3F00F094
:013C40002261
:104B6000E4FF125087E4900196F0900206E0FEA365
:104B7000E0F5828E83A3A3A3740193FA740293F9E0
:104B80001219D57B017A017957E49001BAF07D3F83
:034B90000247E6F3
:1050D400C21BE49001F8F09001FBF09001F9F0A3F9
:0250E400F022B8
:104DF900EBD39D5003ED04FB9001F8EFF09001FB1C
:0B4E0900EDF09001F9EBF0E4A3F022C3
:104916009001F8E0603A9001FAE004F0A3E0FF901D
:1049260001FAE0FEC39F5009201B03439701D21BE7
:10493600229001F9E0FFEEC39F5009301B03539705
:10494600FEC21B229001F8E014F0E49001FAF02276
:03495600C21B225F
:1000B600ECECECECECECECECECECECECECECECEC7A
:1000C600ECECECECECECECECECECECECECECECED69
:1000D600EDEEEFEFF0F1F1F2F2F3F4F4F5F6F6F6F9
:1000E600EDEDF8F8F9F9FAFAFBFBFCFCFDFDFEFE76
:1000F600FFFF0000010101020203030404040505D9
:10010600060607070708080909090A0A0B0B0B0C5C
:100116000C0D0D0D0E0E0F0F0F10101111111212E6
:100126001313131414141515161616171718181872
:1001360019191A1A1B1B1B1C1C1D1D1D1E1E1F1FF9
:10014600202020212122222323242424252526267B
:100156002727282829292A2A2B2B2C2C2D01010276
:10016600020303040405060708090A0C0D0F111300
:1001760015171A1D2023272A2E33373C40454A4F90
:10018600555A5F656A70757B80868B90969BA0A595
:10019600A9AEB2B7BBBFC3C6CACD292F353B4249AC
:1001A60050575E656C727980878D93999FA5AAAF2B
:1001B600B4B8BDC1C5C8CCCFD2D4D7D9DCDEE0E156
:1001C600E3E4E6E7E8E9EAEBECEDEEEEEFF0F0F17A
:1001D600F2F2F3F3F4F4F501020202030304050557
:1001E6000607080A0B0D0E10121417191C1F2226DB
:1001F6002A2D32363B3F44494F54595F646A707525
:100206007B81868B91969BA0A5AAAEB3B7BBBFC3D5
:10021600C7CACDD001020202030404050607080975
:100226000A0C0D0F111316181B1E2125292D30350A
:100236003A3E43484E53585E64696F757A80868BA2
:1002460090969BA0A5AAAEB3B7BBBFC3C7CACDD075
:10025600D302020203030405050607080A0B0D0E66
:10026600101215171A1D2023272B2F33383D42470E
:100276004C52575D62686E74797F858A90959A9F15
:10028600A4A9AEB2B7BBBFC3C6CACDD0D3D60202ED
:100296000203030405060708090A0C0D0F111416BC
:1002A600191B1F22262A2E32363B40454A50555BE3
:1002B60061666C72787E84898F94999FA4A8ADB28A
:1002C600B6BABEC2C6C9CDD0D3D6D802020303047D
:1002D60004050607080A0B0D0E101215171A1D2025
:1002E60024282C30353A3E43494E53595F656A708F
:1002F600767C82888D93989EA3A8ACB1B5BABEC20F
:10030600C5C9CCCFD2D5D8DA020203030405060745
:1003160008090A0C0E10121416191C1F23272B2F5E
:1003260034383D42484D52585E64696F757B81870B
:100336008D92989DA2A7ACB1B5B9BDC1C5C9CCCFA8
:10034600D2D5D7DADC0203030404050607080A0B34
:100356000D0F111316181B1E2225292E32373C416C
:10036600464C51575D62686E747A80868C91979C74
:10037600A2A6ABB0B5B9BDC1C5C8CCCFD2D5D7DA68
:10038600DCDE0203030405060708090B0C0E101237
:1003960015171A1D2124282C31363B40454B505643
:1003A6005C61676D73797F858A90969CA1A6ABAFD9
:1003B600B4B8BDC0C4C8CBCED1D4D7D9DCDEE00337
:1003C600030405050607090A0B0D0F111416191C5F
:1003D6002023272B3034393E44494F545A60666CEB
:1003E60072787E84898F959AA0A5ABAFB3B8BCC04E
:1003F600C4C7CBCED1D4D6D9DBDEE0E203030405F5
:10040600060708090B0C0E101315181B1E22262AA8
:100416002E33383D42484E53595F656B71777D8266
:10042600898E94999FA5A9AFB3B7BCC0C4C7CBCEDC
:10043600D1D4D6D9DBDDDFE1E303040505060809DF
:100446000A0C0D0F1214171A1D2124282D31363BC4
:1004560041464C52585E646A70767C81878D9298CC
:100466009DA3A8ADB2B6BABFC2C6C9CDD0D3D6D8A1
:10047600DADDDFE1E3E40404050607080A0B0D0FE5
:10048600111316181C1F23272B3034393E444A50AB
:10049600565C62686E757A80868B91979CA1A6AC35
:1004A600B0B6B9BEC1C5C9CCCFD2D5D7DADCDEE08D
:1004B600E2E4E60405060708090A0C0E10121517F1
:1004C6001A1E2125292E32373D42484E545B61675C
:1004D6006D73797F858A90969BA0A5AAAFB4B9BCA7
:1004E600C1C4C8CBCED1D4D7D9DCDEE0E2E4E5E79F
:1004F60004050607090A0C0D0F111416191C2024F1
:10050600282C31363B40464C53595F666C72787ED8
:1005160084898F949A9FA4A9AEB3B7BCC0C3C7CA37
:10052600CDD0D3D6D8DBDDDFE1E3E5E6E805060787
:1005360008090B0D0F111315181B1F22262A2F341D
:10054600393E444A51575E646B71777E83898E9437
:10055600999EA3A8ADB2B6BABFC3C6CACDD0D2D5EE
:10056600D8DADDDFE1E3E4E6E8E9050608090A0C86
:100576000E101214171A1D2125292D32373C424818
:100586004E555B62686F757C82888D92989DA2A796
:10059600ACB0B5B9BDC1C5C9CCCFD2D4D7D9DCDED4
:1005A600E0E2E4E6E7E8EA0607080A0B0D0F111495
:1005B60016191C2024282C31353B40464C52595FD5
:1005C600666D737A80868C92979CA1A6ABAFB4B801
:1005D600BCC0C4C8CBCED1D4D6D9DBDDE0E1E3E5DF
:1005E600E7E8E9EB0608090B0C0E101315181B1F9C
:1005F60022272B2F34393E444A50565D646A71785F
:100606007E848B90969BA0A5AAAEB3B7BBBFC3C78B
:10061600CACED0D3D6D8DADDDFE1E3E5E6E8E9EA0B
:10062600EB07080A0C0E101215171B1E22262A2F7E
:1006360033383D43484E545B61686F757C83898FC0
:10064600959A9FA4A9AEB2B6BABEC2C6C9CDD0D33A
:10065600D5D8DADCDEE0E2E4E6E7E9EAEBEC080925
:100666000B0D0F1114171A1D2125292E33373C4166
:10067600474D53595F666D737A81888E94999FA40E
:10068600A8ADB2B6BABEC1C5C9CCCFD2D5D7DADC11
:10069600DEE0E2E4E5E7E8EAEBECED090A0C0E1031
:1006A6001316191C1F23272C31363A40454B515738
:1006B6005D646A71787E858C92989DA3A7ACB1B56E
:1006C600B9BDC0C4C7CBCED1D4D6D9DBDDDFE1E31B
:1006D600E5E6E8E9EAEBEDED090B0D0F1214171B41
:1006E6001E22262A2F34393E44494F555B62686FD5
:1006F600767C838990969CA1A6ABB0B4B8BCC0C3E7
:10070600C7CACDD0D3D6D8DADDDFE0E2E4E6E7E942
:10071600EAEBECEDEE0A0C0E1113161A1D21252933
:100726002D32373D42484D535A60666D747A818842
:100736008E949AA0A5AAAFB3B7BBBFC3C6C9CCCF88
:10074600D2D5D7DADCDEE0E2E3E5E7E8E9EAECED8C
:10075600EEEF0B0D101215191C2024282C31363BF8
:1007660041464C52585E656B72797F868C93999F91
:10077600A4A9AEB2B7BBBEC2C5C9CCCFD2D4D7D955
:10078600DBDDDFE1E3E4E6E7E9EAEBECEDEEEF0DD6
:100796000F1214181B1F23272B30353A40454B5197
:1007A600575D636A70777E858B92989EA3A8ADB2DB
:1007B600B6BABEC2C5C8CBCED1D4D6D9DBDDDFE151
:1007C600E2E4E6E7E8EAEBECEDEEEFF00E101316E6
:1007D600191D21252A2E33383E43494F555B616842
:1007E6006E757C82898F969CA1A7ACB1B5B9BDC147
:1007F600C4C8CBCED0D3D6D8DADCDEE0E2E4E5E777
:10080600E8E9EAEBECEDEEEFF00F1114181B1F23ED
:10081600282D32373C42474D53595F666C737980B9
:10082600878D949AA0A5ABB0B4B9BDC0C4C7CACDD4
:10083600D0D3D5D8DADCDEE0E1E3E5E6E7E9EAEBBA
:10084600ECEDEEEFF0F01013161A1D22262B3035C4
:100856003B40464C52585E646B71787E858B92980D
:100866009EA4A9AEB3B8BCC0C3C7CACDD0D2D5D793
:10087600D9DCDEDFE1E3E4E6E7E8EAEBECEDEEEF18
:10088600EFF0F11215181C2025292E34393F454B5F
:1008960050565C636970767D838A90979DA2A8AD59
:1008A600B2B7BBBFC3C6CACCCFD2D5D7D9DBDDDF83
:1008B600E1E3E4E5E7E8E9EAEBECEDEEEFF0F1F190
:1008C60013171A1E23282D32383E444A50565C62AE
:1008D600686E757C82888F959BA1A7ACB1B6BBBFAD
:1008E600C3C6C9CCCFD2D5D7D9DBDDDFE1E2E4E59B
:1008F600E7E8E9EAEBECEDEEEFF0F0F1F215181CA3
:1009060021252A30353B41474D545960666C727932
:1009160080868D93999FA5AAAFB4B9BDC1C5C8CB32
:10092600CED1D4D6D9DBDDDFE0E2E3E5E6E7E9EADE
:10093600EBECEDEEEEEFF0F1F1F2161A1E23282D98
:1009460033393F454B51585D646A70777D848A918F
:10095600979DA3A8AEB2B7BCC0C4C7CBCDD0D3D6E3
:10096600D8DADCDEE0E2E3E4E6E7E8E9EAEBECED40
:10097600EEEFF0F0F1F2F2181C21262A30373D4353
:10098600494F565C62686E757B82888F959BA1A6DF
:10099600ACB1B6BABEC2C6C9CDCFD2D5D7DADCDEC7
:1009A600DFE1E3E4E5E7E8E9EAEBECEDEEEFEFF0B3
:1009B600F1F2F2F31A1F24292D343A41474D535AC6
:1009C60061666D737A80878D93999FA5AAAFB4B936
:1009D600BDC1C5C9CCCFD2D4D7D9DBDDDFE1E2E4D6
:1009E600E5E6E8E9EAEBECEDEEEEEFF0F1F1F2F335
:1009F600F31D22272C31383F454B51585F656B72EA
:100A0600787F858C91989EA4A9AEB3B8BCC0C4C8A3
:100A1600CBCED1D4D6D9DBDDDFE0E2E4E5E6E7E90B
:100A2600EAEBECEDEEEEEFF0F0F1F2F2F3F31F2469
:100A3600292F343B42484F555B62696F757C82892A
:100A46008F959BA1A7ACB1B6BABFC2C6CACDD0D34B
:100A5600D5D8DADCDEE0E1E3E4E6E7E8E9EAEBEC68
:100A6600EDEEEFEFF0F1F1F2F3F3F421262C31374E
:100A76003E454C52585F666D737980868D93999F7B
:100A8600A5AAAFB4B8BDC1C5C8CCCFD2D4D7D9DB1F
:100A9600DDDFE1E3E4E5E7E8E9EAEBECEDEEEEEFD6
:100AA600F0F1F1F2F2F3F3F423292E343A41484FF0
:100AB600565C636A71777E848B91979DA2A8ADB2CE
:100AC600B7BBBFC3C7CACED1D4D6D8DBDDDFE0E221
:100AD600E4E5E6E7E9EAEBECECEDEEEFF0F0F1F257
:100AE600F2F3F3F4F4262C31383E454C5359606743
:100AF6006E757B82888F959BA1A6ABB0B5BABEC238
:100B0600C6C9CDD0D3D5D8DADCDEE0E2E3E5E6E748
:100B1600E8E9EAEBECEDEEEFEFF0F1F1F2F2F3F3E8
:100B2600F4F4FF01DDFF021AFF0257FF0294FF02F1
:100B3600D1FF030EFF034BFF0388FF03C5FF04022B
:100B4600FF043FFF047CFF04B9FF04F6FF0533FFF3
:100B56000570FF05ADFF05EAFF0627FF0664FF06E1
:100B6600A1FF06DEFF071BFF0758FF0795FF07D209
:100B7600FF080FFF084CFF0889FF08C6FF0903FF9F
:100B86000940FF097DFF09BAFF09F7FF0A34FF0A8A
:070B960071FF0AAEFF0AEB3C
:104C54004201DB00004101DD004101DEFF4101DFD3
:0E4C6400004201E000004101E2004101E300D6
:10503000EF540FFFE59C54F04FF59C439C40E59CDA
:0650400030E4FBAF9F22EB
:104D0300EFC394054006EFD394F04004D21680021B
:104D1300C216EFD394AC40057818762D22EF90009D
:064D2300B6937818F62299
:1041EF007F011250309001DDE0FEEFD39E4002EFD1
:1041FF00F09001DEE0FEEFC39E5002EFF09001DC85
:10420F00E02FF09001DBE03400F09001DFE004F0EC
:10421F00E0C3940A40529001DDE0FF9001DCE09F83
:10422F00FF9001DBE09400FE9001DEE0FDC3EF9D07
:10423F00FFEE94009001DBF0A3EFF09001DBE0FEC6
:10424F00A3E07803CEC313CE13D8F9FF9001DBEEB2
:10425F00F0A3EFF0124D03E49001DFF09001DBF0DB
:08426F00A3F0A3F0A374FFF01B
:014277002224
:0543E9009001B7E0FFA8
:1043EE00EDB405109001BA74FFF0A37401F0A3743C
:1043FE0063F08037EDB42D109001BA74FFF0A37402
:10440E0001F0A374A0F08023ED75F003A42416F53B
:10441E0082E4340BF583E493F9740193FA740293F6
:10442E009001BAC9F0A3EAF0A3E9F0E4FE9001BA54
:10443E00E0FBA3E0FAA3E0F98E827583001217B1B8
:0F444E00FDEFC39D40050EEEB43CE2EE241EFFD1
:01445D00223C
:053556009001B7EFF049
:10355B007818E6FCD3648094855007E0FF7D050264
:10356B00364CC3EC648094AD400A9001B7E0FF7D0C
:10357B002D02364CC37818E66480948650557D0630
:10358B001243E99001B8EFF07D051243E99001B9C0
:10359B00EFF09001B8E0FDC3EF9DFDE49400FCE477
:1035AB001216DEC004C005C006C0077818E6FF334C
:1035BB0095E0FEC374069FFDE49EFC1216DED0035D
:1035CB00D002D001D0001215D31217179001B8E01A
:1035DB002F8066D37818E6648094AC9001B7E0FF37
:1035EB00405B7D2C1243EE9001B8EFF09001B7E0F9
:1035FB00FF7D2D1243EE9001B9EFF09001B8E0C3BF
:10360B009FFDE49400FCE41216DEC004C005C00666
:10361B00C0077818E6FF3395E0FEEF24D4FDEE34B7
:10362B00FFFC1216DED003D002D001D0001215D34E
:10363B001217179001B8E0C39F7817F6227818E697
:08364B00FD1243EE7817A607FB
:013653002254
:103F9B007816E6FF9001E1E02FF09001E0E03400AD
:103FAB00F09001E2E004F0E0C39408500302403AC1
:103FBB009001E0E0FEA3E07803CEC313CE13D8F953
:103FCB00F0EE9001E0F09001E3E004F0E0C3940820
:103FDB004004E4F0D2159001E0A3E0FD9001E3E092
:103FEB0024E4F582E43401F583EDF0301529E4FF88
:103FFB00FEFC74E42CF582E43401F583E02FFFE43E
:10400B003EFE0CECB408EBEF7803CEC313CE13D803
:10401B00F99001B6F080059001B6EDF09001B6E095
:0F402B00FF123556E49001E2F09001E0F0A3F0AF
:01403A002263
:1050E6007F01125030124D037F02125030023556A6
:10509B009001D87407F0A37453F0C217E49001D2B7
:0450AB00F0A3F0225C
:104836009001D2E0FCA3E0FDD39432EC9400500446
:104846007F018036D3ED9464EC940050047F02809F
:1048560029D3ED9496EC940050047F03801CD3ED8D
:1048660094C8EC940050047F04800FD3ED942CEC94
:0A487600940150047F0580027F06C4
:014880002215
:103CF2009001D8E07002A3E060259001D9E024FF92
:103D0200F09001D8E034FFF0E07002A3E0701212EC
:103D120048369001DAEFF09001D6F0A3F08002D29B
:103D2200173018789001CAE0FFA3E0A3CFF0A3EF09
:103D3200F09001C8E0FFA3E0A3CFF0A3EFF0900161
:103D4200C6E0FFA3E0A3CFF0A3EFF09001D4E0FF21
:103D5200A3E09001C6CFF0A3EFF0C218E49001D225
:103D6200F0A3F0FFEF25E024C6F582E43401F583E9
:103D7200E0FCA3E0FD9001D3E02DF09001D2E03C05
:103D8200F00FEFB404DE9001D2E0FEA3E07805CE9E
:0C3D9200C313CE13D8F9F0EE9001D2F06C
:013D9E002202
:103C410020170BE49001CEF0A3F0A3023CEE124842
:103C5100369001D7E0FEEFC39E400EE49001D0F014
:103C6100A3F09001DAEFF08038EFC39E5037900156
:103C7100D1E004F070069001D0E004F0D39001D1BE
:103C8100E094689001D0E0648094804018E4F0A34F
:103C9100F09001DAE0D394014003E014F09001DAEE
:103CA100E09001D7F09001D6E0FF9001DAE0FED379
:103CB1009F401AE49001CFF09001CEE004F0E0D3F0
:103CC1009468402CE4F09001D6E004F022EEC39F0A
:103CD1005017E49001CEF0A3E004F0E094D040103E
:103CE100E4F09001D6E014F022E49001CEF0A3F0CC
:013CF10022B0
:0A517900C212E49001F2F0A3F0224C
:104D8600D212EF7802C333CE33CED8F9FF7C007D42
:0D4D9600781218129001F2EEF0A3EFF02257
:10222600900206E0FEA3E0240CF582E43EF58374FA
:102236000193FA740293F91219D530120B9001F238
:10224600E0FAA3E0FB4A700CE4F5BFF5BE9001F09E
:10225600F0A3F0222013289001F1E02414F090015D
:10226600F0E03400F0D3A3E094209001F0E0940372
:1022760050030223AE7403F0A37420F00223AE20B1
:1022860014030223AE9001ECE0FEA3E0FFC390012D
:10229600EFE09F9001EEE09E400BA3E09FFF9001D0
:1022A600EEE09E80149001EEE0FEA3E0FFC39001F5
:1022B600EDE09FFF9001ECE09E9001B8F0A3EFF0F7
:1022C600C39001EFE09B9001EEE09A406A9001F224
:1022D600E0FEA3E0FF9001EFE09FFF9001EEE09E9D
:1022E6009001B6F0A3EFF0E0C4F8540FC868FF9071
:1022F60001B6E0C454F048FE9001B9E02401FD9017
:1023060001B8E03400FC1218129001BAEEF0A3EF07
:10231600F0D39001F1E09F9001F0E09E500302237C
:10232600AC9001BAE0FEA3E0FF9001F1E09FF090CF
:1023360001F0E09EF0806F9001EEE0FEA3E0FFC3A7
:102346009001F3E09FFF9001F2E09E9001B6F0A3AA
:10235600EFF0E0C4F8540FC868FF9001B6E0C4542B
:10236600F048FE9001B9E02401FD9001B8E0340088
:10237600FC1218129001BAEEF0A3EFF0C374A09FFE
:10238600FF740F9EFEC39001F1E09F9001F0E09E66
:1023960050149001BAE0FEA3E0FF9001F1E02FF0A7
:1023A6009001F0E03EF0C2149001F0E0FCA3E0FDE5
:1023B600ECF5BF8DBE9001EEE0FFA3E09001ECCFFF
:0423C600F0A3EFF0A1
:0123CA0022F0
:104D68000101030100DB0101050100DE010107016A
:0E4D780000E1071E121E111E161E0900161E57
:10374E009001BA7405F0A374A0F090011574FFF007
:10375E00E49001BCF09001BCE0FFC394064003026C
:10376E003840EF75F003A42468F582E4344DF583F8
:10377E00E493FB740193FA740293F9121798C4132D
:10378E001313540120E0030238369001BCE0FF759C
:10379E00F003A42468F582E4344DF583E493FB74BE
:1037AE000193FA740293F99000011217B1FD7C0097
:1037BE00EF75F003A42468F582E4344DF583E493A9
:1037CE00FB740193FA740293F9121798547F75F0F3
:1037DE003CA42DFEEC35F09001BDF0A3CEF0900090
:1037EE00EAE075F03CA4FFA3E02FFFEC35F0FE906D
:1037FE0001BDE0FCA3E0FDD39FEC9E402BED9FFDB1
:10380E00EC9EFCD39001BBE09D9001BAE09C401869
:10381E009001BEE09FFF9001BDE09E9001BAF0A323
:10382E00EFF0A3E0900115F09001BCE02402F0024D
:02383E003763EE
:013840002265
:10469D00E490010EF0900206E0FEA3E02406F58200
:1046AD00E43EF583740193FA740293F91219D590CF
:1046BD00010EE030E004C28C8002D28C90010EE03D
:1046CD0030E104D28E8002C28E90010EE030E20401
:1046DD00D28D8002C28D90010EE030E303D2A32271
:0346ED00C2A32243
:104C2600E58830E1239000D8E004F0E0D394054015
:104C36001CE4F0758703000000000000000053AB81
:0D4C4600EF53A8F753A8EF22E49000D8F038
:014C5300223E
:10437000C20190014A7404F0E4900103F09000DB64
:10438000F0900105F09000DEF0900107F09000E160
:10439000F0900104F09000DCF0900106F09000DF56
:1043A000F0900108F09000E2F0FF74EC2FF582E449
:1043B0003400F583E4F00FEFB414EFD20290010D56
:1043C000E054FEF05401F090011574FFF090015498
:1043D000F0C20690015012199800000000C204C2F9
:0843E00003E4900100F0A3F0DA
:0143E80022B2
:1046F00043981E000000004398E14390C053C11E40
:1047000053B93F00000000E4FFE59820E5010FE504
:104710009820E604EF4402FFE59820E704EF440404
:10472000FFE59820E004EF4408FFE59020E704EF60
:104730004410FFE59020E604EF4420FF43C1E1432D
:02474000B9C0FE
:014742002254
:103AC3001246F09001B6EFF09001FEE06F603A907D
:103AD30001B6E0702B9001FCE0FFD394054021EF89
:103AE3009496501C9001FF7402F0900206E0FEA32E
:103AF300E0F5828E83740193FA740293F91219D557
:103B03009001B6E09001FEF0229001FEE070099072
:103B130001FCF0A3F0D21D22E49001FFF09001FC20
:103B2300E004F0A3E004F0E0D3943C401F742DF0D4
:103B33009001FF7404F0900206E0FEA3E0F5828E8C
:103B430083740193FA740293F91219D59001FCE07E
:103B5300FFB405089001FF7401F08019EFB4F80871
:103B63009001FF7403F0800DEFD394FA401D900190
:103B7300FC74FAF022900206E0FEA3E0F5828E8345
:0B3B8300740193FA740293F91219D533
:013B8E002214
:0E514300900034E41217F0900033E40217F0ED
:105072009000341217B1FF9000331217B1B5070335
:05508200D38001C322F0
:104A50009001C3EBF0A3EAF0A3E9F09001C3E0FBFF
:104A6000A3E0FAA3E0F99000341217B12401FFE4A7
:104A700033FE7C007D33121812AF059000331217FD
:094A8000B1B50503D38001C32286
:104F57009000341217B12433FF9000331217B1FEBB
:0A4F6700C3EF9E75F03384AFF02213
:1044C2009001C2EDF09001BFEBF0A3EAF0A3E9F096
:1044D200124A5040469001C2E0FF9001BFE0FBA3A8
:1044E200E0FAA3E0F99000341217B1F58275830067
:1044F200EF1217F09000341217B12401FFE433FEDB
:104502007C007D33121812AF059001BFE0FBA3E0DF
:10451200FAA3E0F9900034ED1217F09001C2E0FF27
:014522002276
:0B4640009001BFEBF0A3EAF0A3E9F04B
:10464B00E4A3F012507240449001BFE0FBA3E0FAE8
:10465B00A3E0F99000331217B1F58275830012179E
:10466B00B19001C2F09000331217B12401FFE43373
:10467B00FE7C007D33121812AF059001BFE0FBA347
:10468B00E0FAA3E0F9900033ED1217F09001C2E0CD
:01469B00FF1F
:01469C0022FB
:104881000101FF001E0201FF4CAD0301FF45E104E0
:1048910001FF50460501FF505C0601FF4DA30701D2
:1048A100FF4DC0080CFF42F60901FF27070A01FF6F
:1048B1003D9F0B06FF49590C01FF4AC10D01FF4DF8
:0B48C100DDF701FF207BFF06FF4F71B9
:0511BC009001BAEFF004
:1011C100E4A3F090006FE0FBA3E0FAA3E0F97DF265
:1011D1001244C290006FE0FBA3E0FAA3E0F97DF2B4
:1011E1001244C290006FE0FBA3E0FAA3E0F9900182
:1011F100BAE0FD1244C29001BBE02FF090006FE015
:10120100FBA3E0FAA3E0F97D251244C29001BBE003
:101211002FF090006FE0FBA3E0FAA3E0F990011436
:10122100E0FD1244C29001BBE02FF090006FE0FBA3
:10123100A3E0FAA3E0F99001D2E0FD1244C29001CB
:10124100BBE02FF090006FE0FBA3E0FAA3E0F99080
:1012510001D2A3E0FD1244C29001BBE02FF0900047
:101261006FE0FBA3E0FAA3E0F990014CE0FD12442A
:10127100C29001BBE02FF090006FE0FBA3E0FAA366
:10128100E0F990014CA3E0FD1244C29001BBE02FB4
:10129100F090006FE0FBA3E0FAA3E0F9900100E019
:1012A100FD1244C29001BBE02FF090006FE0FBA360
:1012B100E0FAA3E0F9900100A3E0FD1244C290011D
:1012C100BBE02FF090006FE0FBA3E0FAA3E0F99000
:1012D100010BE0FD1244C29001BBE02FF090006FC2
:1012E100E0FBA3E0FAA3E0F990010BA3E0FD1244B7
:1012F100C29001BBE02FF090006FE0FBA3E0FAA3E6
:10130100E0F97818E6FD1244C29001BBE02FF0909D
:10131100006FE0FBA3E0FAA3E0F97817E6FD1244C1
:10132100C29001BBE02FF090006FE0FBA3E0FAA3B5
:10133100E0F9300103E4800490014AE0FD1244C267
:101341009001BBE02FF090006FE0FBA3E0FAA3E077
:10135100F990010FE0B401047D0180027D00124487
:10136100C29001BBE02FF090006FE0FBA3E0FAA375
:10137100E0F99000E0E0B402047D0180027D0012FA
:1013810044C29001BBE02FF090006FE0FBA3E0FAB4
:10139100A3E0F9900110E0FD1244C29001BBE02FDF
:1013A100F090006FE0FBA3E0FAA3E0F99000DDE02C
:1013B100FD1244C29001BBE02FF090006FE0FBA34F
:1013C100E0FAA3E0F9900103E0FD1244C29001BBF1
:1013D100E02FF090006FE0FBA3E0FAA3E0F99001A9
:1013E10004E0FD1244C29001BBE02FF090006FE0D9
:1013F100FBA3E0FAA3E0F99000DBE0FD1244C29008
:1014010001BBE02FF090006FE0FBA3E0FAA3E0F94D
:101411009000DCE0FD1244C29001BBE02FF090008F
:101421006FE0FBA3E0FAA3E0F9900105E0FD1244AF
:10143100C29001BBE02FF090006FE0FBA3E0FAA3A4
:10144100E0F9900106E0FD1244C29001BBE02FF0EB
:1014510090006FE0FBA3E0FAA3E0F99000DEE0FD6D
:101461001244C29001BBE02FF090006FE0FBA3E0BB
:10147100FAA3E0F99000DFE0FD1244C29001BBE065
:101481002FF090006FE0FBA3E0FAA3E0F9900107D1
:10149100E0FD1244C29001BBE02FF090006FE0FB31
:1014A100A3E0FAA3E0F9900108E0FD1244C2900123
:1014B100BBE02FF090006FE0FBA3E0FAA3E0F9900E
:1014C10000E1E0FD1244C29001BBE02FF090006FFB
:1014D100E0FBA3E0FAA3E0F99000E2E0FD1244C2D0
:1014E1009001BBE02FF090006FE0FBA3E0FAA3E0D6
:1014F100F9E4FD1244C29001BBE02FF090006FE0CF
:10150100FBA3E0FAA3E0F9E4FD1244C29001BBE0C1
:101511002FF090006FE0FBA3E0FAA3E0F9E4FD12E5
:1015210044C29001BBE02FF090006FE0FBA3E0FA12
:10153100A3E0F9E4FD1244C29001BBE02FF090005A
:101541006FE0FBA3E0FAA3E0F9E4FD1244C29001CD
:10155100BBE02FF090006FE0FBA3E0FAA3E0F9E419
:10156100FD1244C29001BBE02FF090006FE0FBA39D
:10157100E0FAA3E0F9E4FD1244C29001BBE02FF0D0
:1015810090006FE0FBA3E0FAA3E0F9E4FD1244C28E
:101591009001BBE02FF090006FE0FBA3E0FAA3E025
:1015A100F9E4FD1244C29001BBE02FF090006FE01E
:1015B100FBA3E0FAA3E0F99001BBE0FD1244C29065
:1015C100006FE0FBA3E0FAA3E0F97D7E1244C202C2
:0215D1000026F2
:01006A002273
:05001E007F010211BC8E
:104CAD00900074E0FF900114F0BF01067E4F7F224B
:104CBD0080047E4E7F65D20CC20D1247437B0F7D63
:0B4CCD000A7F01124DF97F020211BCAA
:1045E100900114E064017052900074E0FF700CD2ED
:1045F100019001DAE09001D6F08002C20190014AF7
:10460100E0B40118EF6401600A9000DD7401F090DC
:104611000110F0E49000DDF0900110F0900074E0E2
:10462100FF90014AF0BF0109E49000DDF090011014
:0F463100F07B0F7D0A7F01124DF97F030211BC50
:10504600900074E090010FF07B0F7D0A7F01124DF6
:06505600F97F040211BC09
:10505C00900074E09000E0F07B0F7D0A7F01124D10
:06506C00F97F050211BCF2
:104DA300900114E0B40111900074E0900110F07BC5
:0D4DB3000F7D0A7F01124DF97F060211BC31
:104DC000900114E0B40111900074E09000DDF07BDC
:0D4DD0000F7D0A7F01124DF97F070211BC13
:1042F600900074E0900103F0900075E0900104F0E6
:10430600900076E09000DBF0900077E09000DCF023
:10431600900078E0900105F0900079E0900106F0B9
:1043260090007AE09000DEF090007BE09000DFF0F5
:1043360090007CE0900107F090007DE0900108F08D
:1043460090007EE09000E1F090007FE09000E2F0C7
:10435600D20290010DE054FEF012374E7B0F7D0A1B
:0A4366007F01124DF97F080211BC1F
:10270700900074E09001BCB4010D7401F0A3740152
:10271700F0A37416F0800B7401F0A37401F0A37496
:1027270030F090006FE0FBA3E0FAA3E0F97DF2122E
:1027370044C290006FE0FBA3E0FAA3E0F97DF21238
:1027470044C290006FE0FBA3E0FAA3E0F97D091211
:1027570044C29001BAEFF090006FE0FBA3E0FAA348
:10276700E0F97D1A1244C29001BAE02FF09001BC43
:10277700E0FBA3E0FAA3E0F9121798FD90006FE0E1
:10278700FBA3E0FAA3E0F91244C29001BAE02FF0EC
:102797009001BCE0FBA3E0FAA3E0F9900001121757
:1027A700B1FD90006FE0FBA3E0FAA3E0F91244C289
:1027B7009001BAE02FF0E4A3F09001BBE0FFC394CF
:1027C7000C506DA3E0FBA3E0FAA3E02402F9E43A7E
:1027D700FA75F002EFA4F58285F083121867E5F029
:1027E700FD90006FE0FBA3E0FAA3E0F91244C2906A
:1027F70001BAE02FF09001BCE0FBA3E0FAA3E024CC
:1028070002F9E43AFA9001BBE075F002A4F582857B
:10281700F083121867FD90006FE0FBA3E0FAA3E0D6
:10282700F91244C29001BAE02FF0A3E004F08089C6
:1028370090006FE0FBA3E0FAA3E0F99001BAE0FD96
:102847001244C290006FE0FBA3E0FAA3E0F97D7E9B
:0F2857001244C27B0F7D0A7F01124DF902002649
:103D9F0090006FE0FBA3E0FAA3E0F97DF21244C2BA
:103DAF0090006FE0FBA3E0FAA3E0F97DF21244C2AA
:103DBF0090006FE0FBA3E0FAA3E0F97D0A1244C282
:103DCF009001BAEFF090006FE0FBA3E0FAA3E0F9E7
:103DDF007D141244C29001BAE02FF0E4A3F09001D9
:103DEF00BBE0FFC39414502690006FE0FBA3E0FAF2
:103DFF00A3E0F974EC2FF582E43400F583E0FD12B3
:103E0F0044C29001BAE02FF0A3E004F080D09000FC
:103E1F006FE0FBA3E0FAA3E0F99001BAE0FD1244D2
:103E2F00C290006FE0FBA3E0FAA3E0F97D7E12449D
:0D3E3F00C27B0F7D0A7F01124DF9020026A3
:10495900900074E0FEA3E07C002400FFEC3E900090
:10496900E6F0A3EFF0900076E09000E8F090007791
:10497900E09000E9F0900078E09000EAF09000798A
:10498900E09000EBF07B0F7D0A7F01124DF97F0B60
:034999000211BC4C
:104AC100D203A201920790014AE0900102F0900105
:104AD10010E09000E4F09000DDE0900113F07E4ED4
:104AE1007F65D20CC20D1247437B0F7D0A7F0112F5
:074AF1004DF97F0C0211BC1E
:104DDD001243707E4E7F65D20CC20D1247437B0F7E
:0C4DED007D0A7F01124DF97F0D0211BC00
:10207B00E49001BAF090006FE0FBA3E0FAA3E0F963
:10208B007DF21244C290006FE0FBA3E0FAA3E0F9EB
:10209B007DF21244C290006FE0FBA3E0FAA3E0F9DB
:1020AB007DF71244C29001BAE02FF090006FE0FB75
:1020BB00A3E0FAA3E0F97D0E1244C29001BAE02F1F
:1020CB00F090006FE0FBA3E0FAA3E0F97D0112446E
:1020DB00C29001BAE02FF090006FE0FBA3E0FAA3EF
:1020EB00E0F97D3F1244C29001BAE02FF090006FEF
:1020FB00E0FBA3E0FAA3E0F97D011244C29001BA20
:10210B00E02FF090006FE0FBA3E0FAA3E0F97D3F36
:10211B001244C29001BAE02FF090006FE0FBA3E0F5
:10212B00FAA3E0F97D011244C29001BAE02FF090BE
:10213B00006FE0FBA3E0FAA3E0F9E4FD1244C290C8
:10214B0001BAE02FF090006FE0FBA3E0FAA3E0F9F7
:10215B00E4FD1244C29001BAE02FF090006FE0FB57
:10216B00A3E0FAA3E0F9E4FD1244C29001BAE02F18
:10217B00F090006FE0FBA3E0FAA3E0F9E4FD12445A
:10218B00C29001BAE02FF090006FE0FBA3E0FAA33E
:10219B00E0F9E4FD1244C29001BAE02FF090006F19
:1021AB00E0FBA3E0FAA3E0F9E4FD1244C29001BA0C
:1021BB00E02FF090006FE0FBA3E0FAA3E0F9E4FD61
:1021CB001244C29001BAE02FF090006FE0FBA3E045
:1021DB00FAA3E0F9E4FD1244C29001BAE02FF090AB
:1021EB00006FE0FBA3E0FAA3E0F9E4FD1244C29018
:1021FB0001BAE02FF090006FE0FBA3E0FAA3E0F947
:10220B009001BAE0FD1244C290006FE0FBA3E0FA2C
:0B221B00A3E0F97D7E1244C202002601
:104F7100900074E09000D9F0900075E090014BF042
:094F8100900076E09000E5F022BA
:0851BB00D21EE4900203F02271
:103EF80090006FE0FBA3E0FAA3E0F97D2B1244C227
:103F080090006FE0FBA3E0FAA3E0F97D2B1244C216
:103F180090006FE0FBA3E0FAA3E0F97D2B1244C206
:103F280090006FE0FBA3E0FAA3E0F97D411244C2E0
:103F380090006FE0FBA3E0FAA3E0F97D741244C29D
:103F480090006FE0FBA3E0FAA3E0F97D431244C2BE
:103F580090006FE0FBA3E0FAA3E0F97D6D1244C284
:103F680090006FE0FBA3E0FAA3E0F97D641244C27D
:103F780090006FE0FBA3E0FAA3E0F97D0D1244C2C4
:103F880090006FE0FBA3E0FAA3E0F97D0A1244C2B7
:033F9800020026FE
:1038410090006FE0FBA3E0FAA3E0F97D411244C2CE
:1038510090006FE0FBA3E0FAA3E0F97D541244C2AB
:1038610090006FE0FBA3E0FAA3E0F97D2B1244C2C4
:1038710090006FE0FBA3E0FAA3E0F97D441244C29B
:1038810090006FE0FBA3E0FAA3E0F97D651244C26A
:1038910090006FE0FBA3E0FAA3E0F97D661244C259
:1038A10090006FE0FBA3E0FAA3E0F97D611244C24E
:1038B10090006FE0FBA3E0FAA3E0F97D751244C22A
:1038C10090006FE0FBA3E0FAA3E0F97D6C1244C223
:1038D10090006FE0FBA3E0FAA3E0F97D741244C20B
:1038E10090006FE0FBA3E0FAA3E0F97D3D1244C232
:1038F10090006FE0FBA3E0FAA3E0F97D311244C22E
:1039010090006FE0FBA3E0FAA3E0F97D0D1244C241
:1039110090006FE0FBA3E0FAA3E0F97D0A1244C234
:033921000200267B
:1023CB009001B774FFF0A37400F0A3746AF090004F
:1023DB006CE0FBA3E0FAA3E0F99000341217B1FF15
:1023EB009000331217B16F700302256B90003312FC
:1023FB0017B1F5827583001217B19001B6F09000FA
:10240B00331217B12401FFE433FE7C007D33121825
:10241B0012AF0590006CE0FBA3E0FAA3E0F990008B
:10242B0033ED1217F0301E1E9001B6E0B4F114908C
:10243B000203E004F0E064027094C21EF09002000C
:10244B00F0808B0225639001B6E0FF900203E0243D
:10245B0072F582E43400F583EFF0900200E02FF088
:10246B00900203E004F0E0FFB4010B900072E090E7
:10247B000202F00223D9EF640260030225139002DB
:10248B0002E0FFD39400402AEFD3940D5024E07563
:10249B00F005A4247DF582E43448F583E49390029F
:1024AB0001F0EF75F005A4247EF582E43448F58342
:1024BB008026900202E0FFB4F70E9048C3E493909D
:1024CB000201F09048C48010EFB4FF239048C8E499
:1024DB0093900201F09048C9E493F9740193FA7454
:1024EB0002939001B7C9F0A3EAF0A3E9F080028050
:1024FB000F900073E0FF900201E06F70030223D98D
:10250B00D21EE4900203F022900201E02404FFE4C7
:10251B0033FE900203E0C39FEE6480F87480985002
:10252B00030223D9900201E0FF2474F582E4340006
:10253B00F583E0FE2EFE74752FF582E43400F583EF
:10254B00E02EFF900200E0B5070C9001B7A3E0FA74
:10255B00A3E0F91219D5D21EE4900203F00223D99D
:01256B00224D
:104AF8007B017A00790090006CEBF0A3EAF0A3E95F
:104B0800F01251437B017A00793590006FEBF0A3E6
:104B1800EAF0A3E9F0125143E490006AF0C219A345
:034B2800F0C21ABE
:014B2B002267
:10002600201A4090006FE0FBA3E0FAA3E0F9124F1C
:1000360057EFC39401500122EFB4011290006FE014
:10004600FBA3E0FAA3E0F91246408FF58012900078
:100056006FE0FBA3E0FAA3E0F91246408FF5D21A4F
:0300660043EAC0AA
:010069002274
:0951AA003019051223CBC21922B1
:104E1400FF00A2FF00A2FF00A2FF00A2FF00A2FF6A
:0B4E240000A2FF00A2FF00A2FF00A2FE
:054C72004202064E1491
:0100A200223B
:104743009001BBEEF0A3EFF0300D1A900206E0FEED
:10475300A3E02418F582E43EF583740193FA74020E
:1047630093F91219D59001BBE0FFA3E0900206CFA5
:10477300F0A3EFF0300C1A900206E0FEA3E024153C
:10478300F582E43EF583740193FA740293F91219E6
:02479300D5222D
:104E2F00FF51FFFF3654FF5200FF5201FF5202FFA6
:0B4E3F005203FF5204FF5205FF520611
:0151FF00228D
:10365400124D29900164E0440FF0900163E044F0BE
:10366400F09000E5E0B4011590014BE0B4010E9038
:103674000183E04420F090018CE04438F090015F35
:10368400E04401F0900164E04470F0900187E0446C
:1036940003F090018CE04444F090018FE04402F088
:1036A400A3E04420F0900194E04418F090017FE0FE
:1036B4004440F0900184E04420F0900180E04440D4
:1036C400F0900178E04410F090017BE04480F044F5
:1036D40003F0900167E04401F090018FE04401F0B1
:1036E400900194E04440F04420F04404F04402F09B
:1036F4004401F07818E6FF1245237817E6FF1245D7
:10370400829000EAE0FFA3E0FDC20DC20E1239F57B
:103714009000D9E0FF7E001231527F0412006E7FC8
:10372400021248CC90016BE04408F090016FE04431
:1037340040F0900174E04402F0301107900193E0EE
:0A37440044C0F090019674FFF022DB
:01520000228B
:01520100228A
:015202002289
:015203002288
:015204002287
:015205002286
:015206002285
:104E4A00FF5207FF5183FF5208FF4F8AFF51EAFFC3
:0B4E5A005209FF520AFF5151FF520B9A
:015207002284
:0A51830090019674FFF0FF025087C0
:015208002283
:104F8A009000DAE004F0E0D39414400B7E4E7F6583
:084F9A00D20CC20D12474322A4
:0351EA00025179F6
:015209002282
:01520A002281
:0E515100E49000DAF090020A748DF0C2102291
:01520B002280
:104E6500FF3254FF3356FF520CFF2E2CFF51EDFF3E
:0B4E75002D1DFF520DFF4A89FF520E59
:1032540090014EE07006743CF0C21D2290014E7441
:103264003CF0201D0302335530060B9001FEE06450
:103274002060030233559001FFE064027046900120
:10328400FEE0B4200F7B147D0F7F01124DF97E4FB9
:103294007F2280789001FEE0B4020F7B147D0F7FC3
:1032A40001124DF97E4E7F9B80629001FEE0641016
:1032B40060030233557B147D0F7F01124DF97E4F5D
:1032C4007F0780489001FFE0640170599001FEE09F
:1032D400B4040F7B147D0F7F01124DF97E4E7F8065
:1032E400802A9001FEE0B4010F7B147D0F7F011250
:1032F4004DF97E4E7FB680149001FEE0B408147B35
:10330400147D0F7F01124DF97E4E7FD1D20CC20D78
:103314000247439001FEE064127036123EF89002B8
:1033240009740380169001FFE0640370249001FE89
:10333400E0B4100AB206900208743CF0800A9001CE
:10334400FEE0B4200C1243707B147D0F7F01124DFC
:02335400F9225C
:1033560090014EE07008900196E04420F022900122
:1033660096E04420F090017CE04401F0900178E082
:10337600440EF0900177E04438F090017CE0447010
:10338600F0E4FFFE1231529000EAE0FFA3E0FDC236
:103396000DC20E1239F5301118900193E044C0F0B9
:1033A60030060E900187E04403F090018CE044441F
:1033B600F090010DE0FD30E05B90018FE04402F0FB
:1033C600A3E04420F0900194E04418F0EDC31354B8
:1033D6007F14601614601E2402702090018FE04452
:1033E60001F0900194E04404F022900194E04440FE
:1033F600F04402F022900194E0801490018FE044A2
:1034060001F0900194E04404F04440F04402F0449A
:1034160020F0801E30023A900115E0FDF4603290F3
:10342600018FE04402F0A3E04420F0ED7008900123
:103436008FE04401F022900115E0FDB402089001EE
:1034460094E04440F022EDB40407900194E0442057
:02345600F02262
:01520C00227F
:102E2C00900209E0600814F0E07003123841900041
:102E3C00E3E0601590014EE0600214F0900208E0AF
:102E4C00600714F0E07002C206200506201F030282
:102E5C002F39C21F90010DE030E04FC313547FFF98
:102E6C0064037003022F39EF25E025E0247AF58204
:102E7C00E4344DF583E493FF9000EAE0FEEF6E60DE
:102E8C0003022F3990010DE0C313547F25E025E098
:102E9C00247BF582E4344DF583E493FF9000EBE062
:102EAC00FEEF6E6003022F39806F200203022F3970
:102EBC00900115E0FFF46075EF75F003A42468F53C
:102ECC0082E4344DF583E493FB740193FA7402931A
:102EDC00F9121798547FFF9000EAE06F704F900141
:102EEC0015E0FFFD3395E0FC904D6875F003ED1295
:102EFC0019C9EC75F003A42583F583E493FB7401E5
:102F0C0093FA740293F99000011217B1FE9000EB42
:102F1C00E0B50619900154EFF07B147D0F7F011280
:0E2F2C004DF97E4F7F22D20CC20D1247432278
:0351ED00025179F3
:102D1D0090014EE07004743CF02290014E743CF032
:102D2D00900204E07003A3E0F470147B147D0F7F18
:102D3D0001124DF97E4F7F22D20CC20D02474390F6
:102D4D000204E064307004A3E064CF701E90010DA6
:102D5D00E030E00554FEF0800790010DE04401F0F5
:102D6D0090010DE054014406022E21900204E0640E
:102D7D00B07004A3E0644F702490010DE020E003D7
:102D8D00022E2BC313547F7009E054014406F00248
:102D9D002E2290010DE05401F0D21F807890020494
:102DAD00E064707004A3E0648F702490010DE03036
:102DBD00E06CC313547FFFBF0108E054014406F0DB
:102DCD00800B90010DE054014402F0D21F8046901B
:102DDD000204E064F07004A3E0640F702490010D10
:102DED00E030E03AC313547FFFBF0208E0540144C2
:102DFD0006F0800B90010DE054014404F0D21F80C9
:102E0D0014900204E0B49016A3E0B46F11B20690D2
:0F2E1D000208743CF07B147D0F7F01124DF922E7
:01520D00227E
:104A8900C200E4900114F0900209F0D21090020AD9
:104A9900748DF090014E743CF0C206C21F9001540F
:104AA90074FFF090010DE020E00630020312374E4A
:084AB900E4900109F0A3F022D2
:01520E00227D
:104E8000FF4278FF4C81FF520FFF4FA2FF51F0FF0E
:0B4E90005210FF5211FF518DFF521213
:0F5125009000EAE004F0E0C394184002E4F022A6
:1050F6009000EAE0600314F0229000EA7417F022B0
:0F5134009000EBE004F0E0C3943C4002E4F02272
:105106009000EBE0600314F0229000EB743BF02279
:10427800E49000DAF09001FFE0FF64016005EF646C
:1042880004706A9001FEE0FFB408189001FFE0B4E2
:1042980004012290020BE004F0E0D39402403EE4D3
:1042A800F0803AEFB4021690020BE0FF700512514D
:1042B800258025EF64017025125134801B9001FE82
:1042C800E06410702890020BE0FF70051250F68031
:1042D80007EFB40108125106E490014FF09001FF76
:0E42E800E0B401097B147D0F7F01124DF92215
:104C8100301107900193E044C0F09000EAE0FFA3E7
:104C9100E0FD90020BE0FE7003D38001C3920DEEA4
:0C4CA100B40103D38001C3920E0239F568
:01520F00227C
:104FA2009000DAE004F0E0D39432400B7E4E7F654D
:084FB200D20CC20D124743228C
:0351F000025179F0
:01521000227B
:01521100227A
:0A518D00E49000DAF090020BF0222B
:015212002279
:104E9B00FF49DAFF4CD8FF5213FF4FBAFF51F3FF14
:0B4EAB005214FF5215FF51C3FF5216B6
:1049DA00E49000DAF09001FFE0B403169001FEE0E3
:1049EA00640270277B147D0F7F01124DF9C220C229
:1049FA0004229001FFE0B402129001FEE0B4020B1F
:0C4A0A007B147D0F7F01124DF9D2202299
:104CD80030200E900187E04403F090018CE04444BA
:104CE800F0E47B3CFAF9F8900150E0FCA3E0FDA366
:0B4CF800E0FEA3E0FF1218DB023458BE
:015213002278
:104FBA009000DAE004F0E0D39468400B7E4E7F65FF
:084FCA00D20CC20D1247432274
:0351F300025179ED
:015214002277
:015215002276
:0851C300E49000DAF0D2202292
:015216002275
:104EB600FF1EC8FF2866FF5217FF4FD2FF51F6FFAD
:0B4EC6005218FF5219FF5197FF521ABB
:101EC800E49000DAF020020302207A9001FFE06437
:101ED80001600302207A90020CE0FFC31375F0033F
:101EE800A42468F582E4344DF583E493F9740193EE
:101EF800FA7402939001BAC9F0A3EAF0A3E9F0EFEB
:101F080013920C9001FEE0B4081190020CE004F06A
:101F1800E0D3940C4002E4F00220719001FEE064EA
:101F2800026003021FB99001BAE0FBA3E0FAA3E044
:101F3800F912179844801217DE300C3C9001BAE071
:101F4800FBA3E0FAA3E02401F9E43AFA121798FF98
:101F5800EF041217DE9001BAE0FBA3E0FAA3E0F960
:101F68009000011217B1C3943C4043E92401F9E4FD
:101F78003AFA121798E480339001BAE0FBA3E0FA2A
:101F8800A3E0F9121798FF5480FEEF04547F4E1215
:101F980017DE9001BAE0FBA3E0FAA3E0F912179864
:101FA800FF547FC394184006EF54801217DE0220B6
:101FB800719001FEE06410707A9001BAE0FBA3E032
:101FC800FAA3E0F912179844801217DE300C3A9001
:101FD80001BAE0FBA3E0FAA3E0F99000011217B1FF
:101FE800600FE92401F9E43AFA121798FFEF148018
:101FF8003D9001BAE0FBA3E0FAA3E02401F9E43A3A
:10200800FA121798E4743B80259001BAE0FBA3E02C
:10201800FAA3E0F9121798FF547F600BEF5480FE83
:10202800EF14547F4E8007121798548044171217E4
:10203800DE80369001FEE06420703790020CE0C329
:10204800940C502E9001BAE0FBA3E0FAA3E0F91239
:102058001798FFC4131313540130E005EF547F8021
:102068000512179844801217DE7B147D0F7F01122A
:022078004DF920
:01207A002243
:1028660020023490018FE04402F0A3E04420F0906F
:102876000194E04418F02011030229AD90018FE085
:102886004401F0900194E04440F04420F04404F008
:102896004402F04401F02290020CE0640C701D30FA
:1028A600111390018FE04402F0A3E04420F0900160
:1028B60094E04418F07F107E2702345890020CE012
:1028C600FFC31375F003A42468F582E4344DF58341
:1028D600E493FB740193FA740293F9EF13920C904C
:1028E600020CE0B40C00400302297A9028F8F8287C
:1028F600287302291C02291C02292E02292E0229CC
:102906003A02293A02294F02294F02295B02295B22
:1029160002297002297090018FE04402F0A3E0447E
:1029260020F090018FE08049900194E04418F04433
:1029360004F0804090018FE04402F0A3E04420F0D0
:10294600900194E04440F0802B900194E04418F00C
:102956004402F0801F90018FE04402F0A3E044207F
:10296600F0900194E04420F0800A900194E044182D
:10297600F04401F0121798FFC4131313540130E00A
:1029860016EF547FFF9000011217B1FDA20CB3920F
:102996000DA20C920E800DA20CB3920DA20C920EFB
:0729A6007D647F641239F526
:0129AD002207
:015217002274
:104FD2009000DAE004F0E0D39434400B7E4E7F651B
:084FE200D20CC20D124743225C
:0351F600025179EA
:015218002273
:015219002272
:0A519700E490020CF09000DAF02220
:01521A002271
:104ED100FF4D49FF4B2CFF521BFF4FEAFF51F9FFDA
:0B4EE100521CFF521DFF51E0FF521E4B
:104D4900E49000DAF09001FFE0B401129001FEE076
:0F4D5900B4080BB2027B147D057F01124DF922C5
:104B2C0090018FE04402F0A3E04420F0900194E067
:104B3C004418F020020330111A90018FE04401F068
:104B4C00900194E04440F04420F04404F04402F01E
:044B5C004401F022FE
:01521B002270
:104FEA009000DAE004F0E0D39434400B7E4E7F6503
:084FFA00D20CC20D1247432244
:0351F900025179E7
:01521C00226F
:01521D00226E
:0651E000E49000DAF02269
:01521E00226D
:104F0700FF4A16FF2AE8FF521FFF5002FF51FCFF1E
:0B4F17005220FF5221FF4EECFF5222FF
:104B930090020DE004F0E0FFC394065025EF75F09A
:104BA30003A42468F582E4344DF583E493FB740194
:104BB30093FA740293F9121798C413131354013020
:034BC300E0CE221F
:104A1600E49000DAF03002319001FFE06401702981
:104A26009001FEE0B4082290020DE0F4601B124BE8
:104A36009390020DE0C39406400674FFF0124B9368
:0A4A46007B147D057F01124DF9225B
:102AE80020023390018FE04402F0A3E04420F090EC
:102AF8000194E04418F0201103022C0590018FE0A6
:102B08004401F0900194E04440F04420F04404F083
:102B18004402F0022C0290020DE0B4FF077F107E01
:102B28002702345890020DE0FF75F003A42468F5DD
:102B380082E4344DF583E493FB740193FA740293B1
:102B4800F9121798547FFEEF75F003A42468F582F4
:102B5800E4344DF583E493FB740193FA740293F91A
:102B68009000011217B1FDAF06C20DC20E1239F561
:102B7800900193E044C0F090020DE01460251460C9
:102B8800311460451460511460652405706F90011C
:102B98008FE04402F0A3E04420F030116090018FF0
:102BA800E08057900194E04418F0301150E044045C
:102BB800F02290018FE04402F0A3E04420F03011AD
:102BC8003C900194E04440F022900194E04418F0D5
:102BD80030112AE04402F02290018FE04402F0A371
:102BE800E04420F0301116900194E04420F0229047
:0D2BF8000194E04418F0301104E04401F0B5
:012C050022AC
:01521F00226C
:105002009000DAE004F0E0D39434400B7E4E7F65EA
:08501200D20CC20D124743222B
:0351FC00025179E4
:01522000226B
:01522100226A
:104EEC00E49000DAF090020D74FFF0124B939002F4
:0B4EFC000DE0C39406400374FFF02299
:015222002269
:104F2200FF29AEFF19DBFF4164FF0B9DFF445EFFCB
:0B4F32001CE7FF5223FF2F3AFF522420
:094C77004601A4AA00000000009F
:1029AE0090014EE07011C21090020A748DF09001E9
:1029BE004E743CF0C21D2290014E743CF0201D035B
:1029CE00022AE79001FFE0640270199001FEE064B4
:1029DE00206003022AE77E4E7F65D20CC20D12479D
:1029EE0043022ACF9001FFE064016003022A9B900C
:1029FE0001FEE0640870619001AAF0A3F0C22130DC
:102A0E00010990014A04F0C201801E90014AE004BF
:102A1E00F0E0D394054012D2019001DAE09001D695
:102A2E00F0301705B40102D22190014AE0FFB40143
:102A3E0006E49000DD8012EFD394014011900198CE
:102A4E00E0B4010A9000DD7401F0900110F09001E5
:102A5E004AE0900198F080699001FEE0B402139074
:102A6E0000DDE070047F0180027F009000DDEFF05A
:102A7E00804F9001FEE06410705F900110E07004D2
:102A8E007F0180027F00900110EFF080349001FFF3
:102A9E00E0640370449001FEE06420702A9001AC63
:102AAE00741EF0D203A201920790014AE090010237
:102ABE00F0900110E09000E4F09000DDE090011342
:102ACE00F07B147D0F800D9001FEE0B40C0BD20054
:0A2ADE007B647D327F01124DF92266
:1019DB009001ACE06044201103021CE690015FE033
:1019EB004401F0900164E04470F0900163E044F036
:1019FB00F090017BE04403F0900167E04401F0902C
:101A0B000178E04410F090017BE04480F07F0312FA
:101A1B00006E900167E04401F022124D2990014BBA
:101A2B00E0FDB401099000E5E0B40102800FED6424
:101A3B000160079000E5E0B4011130110E900183B5
:101A4B00E04420F090018CE04438F0300611301166
:101A5B000E900187E04403F090018CE04444F0D3F6
:101A6B0090010AE09405900109E09400400A3011BE
:101A7B0007900164E0440FF090016BE04408F09094
:101A8B00016FE04440F0900174E04402F09001D209
:101A9B00E0FEA3E0FF1231523017069001DAE0802E
:101AAB000B90014FE075F00684E5F004FF12499CA2
:101ABB003016097F191245237F32800B7818E6FF09
:101ACB001245237817E6FF12458290017FE04440D0
:101ADB00F0900184E04420F0900180E04440F090CD
:101AEB0000EAE0FFA3E0FDC20DC20E1239F5301182
:101AFB0007900193E044C0F0900178E04410F0901F
:101B0B00017BE04480F0200103021BA1E04403F0C1
:101B1B00900167E04401F030177330213190017B65
:101B2B00E05483F0900178E054EFF090017BE054A7
:101B3B007FF0A3E04401F0900178E0440EF09001B7
:101B4B0077E04438F090017CE04470F0805D9001C8
:101B5B00D6E0D3940250097F0112006E7F048048B7
:101B6B009001D6E0D3940350097F0212006E7F03DD
:101B7B0080369001D6E0D3940450097F0312006E97
:101B8B007F0280247F0412006E7F01801B7F031273
:101B9B00006E7F02801290014AE0FF12006E9001EE
:101BAB004AE0FFC374059FFF1248CC20212390000D
:101BBB00DDE0B4010E90015FE04401F0900164E0C0
:101BCB004470F0900110E0B40107900163E044F021
:101BDB00F030040E900187E04403F090018CE04458
:101BEB0044F090010DE0FD30E05490018FE0440291
:101BFB00F0A3E04420F0900194E04418F0EDC313FF
:101C0B00547F1460101460162402701890018FE03A
:101C1B004401F08054900194E04440F0807A9001AC
:101C2B0094E0801490018FE04401F0900194E04423
:101C3B0004F04440F04402F04420F0021CCA90012E
:101C4B0054E0FDF4607C900194E04418F0ED7022B8
:101C5B00904D6B93FB740193FA740293F9121798DE
:101C6B00C4131313540130E059900194E04404F071
:101C7B008050900154E0FDB40223904D71E493FB2E
:101C8B00740193FA740293F9121798C41313135433
:101C9B000130E02E900194E04402F08025EDB40475
:101CAB0021904D77E493FB740193FA740293F9122C
:101CBB001798C4131313540130E007900194E044B8
:101CCB0001F090014EE0900196600C74FFF0E0542F
:0C1CDB00DFF0E054BFF022E04410F022E3
:1041640090010EE04408F03021030241EE9001106A
:10417400E090010EB40106E04402F08004E054FD36
:10418400F09000DDE090010EB40106E04401F080FF
:1041940004E054FEF030060F90010EE054FBF0E40E
:1041A400900109F0A3F02290010EE04404F0E580B0
:1041B40020E507E4900109F0A3F0900109E0FEA3D3
:1041C400E0FFD394F0EE9400400AEF94F8EE9407E5
:1041D4005002800FD390010AE094FD900109E0940D
:0B41E40007400790010EE054FBF022A2
:100B9D009001ACE0601914F0E070147E4E7F65D2C8
:100BAD000CC20D1247437B147D0F7F01124DF9903E
:100BBD0000E3E07003020D09202103300609E490E3
:100BCD000109F0A3F08030C390010AE09434900144
:100BDD0009E094085021A3E004F07006900109E0AB
:100BED0004F0C390010AE094FD900109E0940740E0
:100BFD0006E4F0A374F1F030012A9001DAE0B401BB
:100C0D00219001ABE004F070069001AAE004F0D34E
:100C1D009001ABE094589001AAE09402400FD221CC
:100C2D00800B8000C221E49001AAF0A3F090014E48
:100C3D00E0600D14F0E07008D21090020A7480F09C
:100C4D00900197E004F09001D2E0FEA3E0FF900147
:100C5D009DE02FF090019CE03EF0900197E0C39451
:100C6D003C5003020D09E4F0900112E004F0E09411
:100C7D003C4008E4F0900111E004F090019BE00489
:100C8D00F0E0C3943C4010E4F0900101E004F070FA
:100C9D0006900100E004F0900111E0701EA3E0FF4A
:100CAD00D394035016EF9403505290019CE0FEA391
:100CBD00E0FF7C007DB4121812803290019CE0FEA2
:100CCD00A3E0FF7C007D3C121812D39001AEE09F93
:100CDD009001ADE09E4016A3E09FFD9001ADE09E1A
:100CED00FC90014DE02DF090014CE03CF09001ADF9
:100CFD00EEF0A3EFF0E490019CF0A3F020050302C9
:100D0D0011BB9001D2E0FEA3E0FF9001A1E02FF016
:100D1D009001A0E03EF090019EE004F0E0C3940A43
:100D2D005003020E03E4F0900199E0FB640C707A1D
:100D3D009001BAF09001BAE0FFC36480948B5032F9
:100D4D00EF3395E0FEEF25E0FFEE33FE741A2FF53D
:100D5D008274013EF583E0FCA3E0FD74182FF5824B
:100D6D0074013EF583ECF0A3EDF09001BAE004F0D0
:100D7D0080C29001A0E0FEA3E0FF7C007D0A121866
:100D8D001290012EE4F0A3EFF0900117E0240AF089
:100D9D00E0C3943C404AE024C4F0900116E004F016
:100DAD00E0C39418403AE4F08036EB70109000EAFE
:100DBD00E0900116F09000EBE0900117F09001A08B
:100DCD00E0FEA3E0FF7C007D0A121812900199E06D
:100DDD0025E02418F582E43401F583E4F0A3EFF067
:100DED00900199E004F0E0C3940C4003740CF0E41E
:100DFD009001A0F0A3F09001D2E0FEA3E0FF9001DE
:100E0D00A3E02FF09001A2E03EF090019FE004F0EE
:100E1D00E0C3941E5003020EF0E4F090019AE0FB43
:100E2D00640C707A9001BAF09001BAE0FFC364804F
:100E3D00948B5032EF3395E0FEEF25E0FFEE33FE5D
:100E4D0074342FF58274013EF583E0FCA3E0FD744C
:100E5D00322FF58274013EF583ECF0A3EDF0900195
:100E6D00BAE004F080C29001A2E0FEA3E0FF7C0096
:100E7D007D1E121812900148E4F0A3EFF09001319D
:100E8D00E0240AF0E0C3943C404AE024C4F0900111
:100E9D0030E004F0E0C39418403AE4F08036EB7093
:100EAD00109000EAE0900130F09000EBE0900131FD
:100EBD00F09001A2E0FEA3E0FF7C007D1E1218124F
:100ECD0090019AE025E02432F582E43401F583E4C3
:100EDD00F0A3EFF090019AE004F0E0C3940C40030E
:100EED00740CF090010DE030E050C313547FFF649B
:100EFD00037003021019EF25E025E0247CF582E450
:100F0D00344DF583E493FF9000EAE0FEEF6E60034D
:100F1D0002101990010DE0C313547F25E025E02444
:100F2D007DF582E4344DF583E493FF9000EBE0FE14
:100F3D00EF6E6003021019021005900154E0FFF4EA
:100F4D007003021019EF049001BAF075F003A42498
:100F5D0068F582E4344DF583E493FB740193FA74E0
:100F6D000293F9121798C4131313540120E006903D
:100F7D0001BA74FFF09001BAE0F47021900111E014
:100F8D00640260030210197E4E7F65D20CC20D12F1
:100F9D0047437B147D0F7F01124DF9806F9001BA8D
:100FAD00E0FF75F003A42468F582E4344DF583E485
:100FBD0093FB740193FA740293F9121798547FFE00
:100FCD009000EAE06E7045EF3395E0FE904D687548
:100FDD00F003EF1219C9EE75F003A42583F583E430
:100FED0093FB740193FA740293F99000011217B1F7
:100FFD00FF9000EBE0B507147B147D0F7F01124DC0
:10100D00F97E4E7F65D20CC20D12474330060302A6
:10101D0010C1900150E0FCA3E0FDA3E0FEA3E0248D
:10102D0001FFE43EFEE43DFDE43CFC90015012194D
:10103D008CE47F307E75FDFC900150E0F8A3E0F963
:10104D00A3E0FAA3E0FBC312197B4035E490010B3A
:10105D00F0A3F07B307A75F9F8900150E0FCA3E035
:10106D00FDA3E0FEA3E0FF1218DBAC00AD01AE0264
:10107D00AF03E4FBFAF9F8C312197B7037D2048081
:10108D0033900150E0F8A3E0F9A3E0FAA3E0FBC32D
:10109D0074309BFF74759AFEE499FDE498FCE47B33
:1010AD003CFAF9F81218DBEF2401FFE43E90010B36
:1010BD00F0A3EFF090014AE024FE604414606F1439
:1010CD00700302116614700302119124046003026F
:1010DD0011BB9001A5E004F0E0C3943C5003021154
:1010ED00BBE4F09000EDE004F070069000ECE0043D
:1010FD00F09000F7E004F070349000F6E004F02278
:10110D009001A6E004F0E0C3943C50030211BBE44F
:10111D00F09000EFE004F070069000EEE004F09027
:10112D0000F9E004F070069000F8E004F022900160
:10113D00A7E004F0E0C3943C4074E4F09000F1E0CB
:10114D0004F070069000F0E004F09000FBE004F075
:10115D0070069000FAE004F0229001A8E004F0E09F
:10116D00C3943C4049E4F09000F3E004F070069025
:10117D0000F2E004F09000FDE004F070069000FC39
:10118D00E004F0229001A9E004F0E0C3943C401E7D
:10119D00E4F09000F5E004F070069000F4E004F047
:0E11AD009000FFE004F070069000FEE004F0F9
:0111BB002211
:10445E003021030251793001263017219001D6E028
:10446E00D394025002802D9001D6E0D394035002D3
:10447E0080289001D6E0D39404502B802380219085
:10448E00014AE024FE601314601614601914601CB7
:10449E002404701F7F587E0280167F847E03801056
:1044AE007FB07E04800A7F407E0680047FFC7E08FB
:0444BE00124D8622F3
:101CE70090014EE0700FC21090020A748DF09001BF
:101CF7004E743CF02290014E743CF0900204E07068
:101D070003A3E0F470147B147D0F7F01124DF97E5D
:101D17004E7F65D20CC20D024743900204E06480F7
:101D27007004A3E0647F701C9001AAF0A3F0C221A5
:101D3700D2019001DAE09001D6F0301770B40102B9
:101D4700D2218069900204E0B4402BA3E0B4BF26FF
:101D5700E49001AAF0A3F0C22190014A04F0C20165
:101D6700E49000DDF0900110F090019804F07B14EE
:101D77007D0FFF021EC4900204E064A07004A3E07C
:101D8700645F70329001AAF0A3F0C22190014A74F7
:101D970002F0C201900198E0B4010A9000DD7401DD
:101DA700F0900110F090014AE0900198F07B147DCB
:101DB7000F7F01021EC4900204E064607004A3E078
:101DC700649F70329001AAF0A3F0C22190014A7477
:101DD70003F0C201900198E0B4010A9000DD74019C
:101DE700F0900110F090014AE0900198F07B147D8B
:101DF7000F7F01021EC4900204E064C07004A3E0D8
:101E0700643F70329001AAF0A3F0C22190014A7496
:101E170004F0C201900198E0B4010A9000DD74015A
:101E2700F0900110F090014AE0900198F07B147D4A
:101E37000F7F01021EC4900204E064207004A3E037
:101E470064DF70319001AAF0A3F0C22190014A74B7
:101E570005F0C201900198E0B4010A9000DD740119
:101E6700F0900110F090014AE0900198F07B147D0A
:101E77000F7F018048900204E0B4101EA3E0B4EF86
:101E8700199000DDE070047F0180027F009000DD83
:101E9700EFF07B147D0F7F018023900204E0B4E014
:101EA7001FA3E0B41F1A900110E070047F018002A5
:101EB7007F00900110EFF07B147D0F7F01124DF929
:011EC70022F8
:015223002268
:102F3A009001147401F0C210C221E49001ACF09027
:102F4A0001AAF0A3F0900199F090019EF09001A0DF
:102F5A00F0A3F090019AF090019FF09001A2F0A3E3
:102F6A00F090020A748DF090014E743CF012509B5E
:102F7A00200310C20190014A7403F09001107401F9
:102F8A00F08018A2079201900102E090014AF090A5
:102F9A0000E4E0900110F0900113E09000DDF09061
:102FAA00014AE0900198F0E4900197F090014CF00A
:102FBA00A3F0900111F0A3F09001A4E0FF9000E8C3
:102FCA00E0FE6F60249001A4EEF0E49000F6F0A316
:102FDA00F09000F8F0A3F09000FAF0A3F09000FC53
:102FEA00F0A3F09000FEF0A3F0E49001ADF0A3F09E
:102FFA0090019CF0A3F0900109F0A3F0FFEF25E007
:10300A002418F582E43401F583E4F0A3F0EF25E017
:10301A002432F582E43401F583E4F0A3F00FEFB42F
:10302A000CDB9000EAE0FF900116F09000EBE0FE66
:0C303A00900117F0900130EFF0A3EEF0D1
:013046002267
:015224002267
:1015D300EC4D6011E8497017ED33EC3304600DE412
:1015E300FCFFFEFD22E933E8330470F8021783128F
:1015F300174E58046009E4CC248150062850090290
:10160300178D28400302178AC0E0EB4A7044B98063
:1016130006D0E0FB021779EF4E701CBD8008EBFF8C
:10162300EAFEE9FD80EBE98DF0A4FEE5F00216BCCD
:10163300E9CDF9EAFEEBFFEF89F0A4FCE5F0CE89F2
:10164300F0A42EFFE435F0CD89F0A42DFEE435F0AF
:101653008067EF4E7005BD80D780C3EF8BF0A4ACDD
:10166300F0EE8BF0A42CFCE435F0F8EF8AF0A42C18
:10167300E5F038FCE433CB8DF0A42CFCE5F03BF82B
:10168300EE8AF0A42CFCE5F038F8E433CF89F0A41B
:101693002CFCE5F038CF3400CE89F0A42FFFE5F021
:1016A3003EFEE433C98DF0A42EFEE5F039CD8AF079
:1016B300A42FFFE5F03EFEE43DFD33D0E0FB5007F1
:1016C3000BBB000F02178DEC2CFCEF33FFEE33FE48
:0616D300ED33FD02176576
:1016D90075F020800E75F010800575F0087D007E8C
:1016E900007F003392D530D50312196DEC334010C9
:1016F900EF33FFEE33FEED33FDEC33FCD5F0ED2295
:0E170900E5F0247EA2D513CC92E7CDCEFF22D0
:10171700EDD2E7CD33EC3392D524814006E4FFFECA
:10172700FDFC22FCE4CFCECDCC24E0501174FF8029
:10173700EDC3CC13CCCD13CDCE13CECF13CF0470C6
:07174700F030D5DE02196D40
:10174E00E9D2E7C933E833F892D5EDD2E7CD33ECE1
:07175E0033FC5002B2D5225A
:10176500EC30E7100FBF000C0EBE00080DBD0004E5
:101775000BEB6014A2D5EB13FCED92E7FD2274FF91
:10178500FCFDFEFF22E480F8A2D574FF13FC7D80EA
:03179500E480EFFE
:10405500023924E493A3F8E493A34003F68001F224
:1040650008DFF48029E493A3F85407240CC8C3336C
:10407500C4540F4420C8834004F456800146F6DF3B
:10408500E4800B0102040810204080904C54E47E2B
:10409500019360BCA3FF543F30E509541FFEE49330
:1040A500A360010ECF54C025E060A840B8E493A3F7
:1040B500FAE493A3F8E493A3C8C582C8CAC583CA22
:1040C500F0A3C8C582C8CAC583CADFE9DEE780BEDA
:014C80000033
:10179800BB010689828A83E0225002E722BBFE024F
:0917A800E32289828A83E4932282
:1017B100BB010CE58229F582E5833AF583E02250ED
:1017C10006E92582F8E622BBFE06E92582F8E22237
:0D17D100E58229F582E5833AF583E4932251
:1017DE00BB010689828A83F0225002F722BBFE01EA
:0217EE00F322E4
:1017F000F8BB010DE58229F582E5833AF583E8F02F
:10180000225006E92582C8F622BBFE05E92582C8DA
:02181000F222C2
:10181200BC000BBE0029EF8DF084FFADF022E4CCBA
:10182200F875F008EF2FFFEE33FEEC33FCEE9DEC83
:10183200984005FCEE9DFE0FD5F0E9E4CEFD22EDC9
:10184200F8F5F0EE8420D21CFEADF075F008EF2F13
:10185200FFED33FD4007985006D5F0F222C398FD04
:051862000FD5F0EA22A1
:10186700BB0110E58229F582E5833AF583E0F5F0BF
:10187700A3E0225009E92582F886F008E622BBFE9C
:101887000AE92582F8E2F5F008E222E5832AF583E2
:08189700E993F5F0A3E99322A7
:10189F0075F008758200EF2FFFEE33FECD33CDCC00
:1018AF0033CCC58233C5829BED9AEC99E582984083
:1018BF000CF582EE9BFEED9AFDEC99FC0FD5F0D660
:1018CF00E4CEFBE4CDFAE4CCF9A88222B800C1B98A
:1018DF000059BA002DEC8BF084CFCECDFCE5F0CBC8
:1018EF00F97818EF2FFFEE33FEED33FDEC33FCEB01
:1018FF0033FB10D703994004EB99FB0FD8E5E4F9BC
:10190F00FA227818EF2FFFEE33FEED33FDEC33FCA8
:10191F00C933C910D7059BE99A4007EC9BFCE99A9C
:10192F00F90FD8E0E4C9FAE4CCFB2275F010EF2FE1
:10193F00FFEE33FEED33FDCC33CCC833C810D707E1
:10194F009BEC9AE899400AED9BFDEC9AFCE899F81C
:0E195F000FD5F0DAE4CDFBE4CCFAE4C8F922AF
:0E196D00C3E49FFFE49EFEE49DFDE49CFC228B
:10197B00EB9FF5F0EA9E42F0E99D42F0E89C45F0C2
:01198B002239
:0C198C00ECF0A3EDF0A3EEF0A3EFF022CE
:10199800A8828583F0D083D0821219AF1219AF12B2
:1019A80019AF1219AFE473E493A3C583C5F0C583D7
:1019B800C8C582C8F0A3C583C5F0C583C8C582C899
:0119C80022FC
:0C19C900A42582F582E5F03583F5832229
:0619D5008A838982E4739D
:00000001FF
